:020000040000FA
:06000000020A440201D7D0
:03002B000208AB1D
:030033000205F9CA
:0300430002073F72
:0300530002012681
:03006B000205D3B8
:100083000201730102020000F20D000000000000F3
:100093008E0E0000000000000000060606060600A3
:1000A30014141414140006FFF20A000000000000E8
:1000B3000000000000000000000000667275697413
:1000C30000000000001B0001010100951700000063
:1000D300E8030918E80364006400B8010202000899
:1000E300000005010701051E02051E020A03B80BE5
:1000F300803E0101FFFF0114010101010503010F0E
:1001030010FEFF861F861F861F861F3C1E361E8617
:100113001F5122000000001523000000000C000006
:10012300000C00C0E074F21203EFA2AFE433FED27E
:10013300AFA9A7A8A1E85954106008120B9475A1A0
:10014300EF8023E8A2E092F0E9A2E082F05017905A
:100153006198E0F8900577E0C398A2D265D0335058
:1001630002E8F075A1FEEEA2E092AF7F0102044E19
:10017300C0E074F21203EFA2AFE433FED2AF90619A
:10018300A4E0F8759B00E59158540860087591F751
:10019300120BD68023E59158541060087591EF1225
:1001A3000BDC8014E591A2E092F0E8A2E082F0502B
:1001B30007E0C2E0F0120D149061A3E0F8E5E958FE
:1001C3005404600E120CEA75E9FB906193E0A2E619
:1001D30040F28092C0E074F21203EFA2AFE433FE68
:1001E300D2AF9061A5E0F8E5BF585404600675BF2F
:1001F300FB120D2C020169C3E498F8E499F9120289
:100203003B8026C3E49AFAE49BFBE920E7E9120268
:100213003BE498F8E499F922C3E498F8E499F912D5
:10022300023BE498F8E499F9C3E49AFAE49BFB22CD
:10023300EB20E7CFE920E7E0B90010BB0008E88A2C
:10024300F084F8AAF022E4FBC8FA22EB70227B10B8
:10025300C833C8C933C9335007C39AC3DBF2800616
:100263009A50012ADBEAC833F4C8C933F4C9FA2225
:1002730075F008E4C833C8C933C933C99AC99B5058
:1002830004C92AC93BD5F0ECFBC833F4C8E4C9FA66
:1002930022080808EAC0E0EBC0E086F0E7A4FA18F9
:1002A3000986F0E7A42AFA180986F0E7A42AFA18BF
:1002B3000986F0E7A42AFA1986F0E7A4FBE5F02AF9
:1002C300FA190886F0E7A42BFBE5F03AFA19088639
:1002D300F0E7A42BFBE5F03AFA18180986F0E7A437
:1002E300C5F02BFBE43AFA1908E7C5F0C6A426F6D5
:1002F300E5F03BFBE43AFA1886F0E7A4F6E5F008EC
:1003030026F6E43B08F6E43A08F6D0E0FBD0E0FA40
:1003130022E4CFC0E0E4CEC0E0E4CDC0E0E4CCC052
:10032300E075F020E626F608E633F608E633F6082D
:10033300E633F6181818EC33FCED33FDEE33FEEF1D
:1003430033FFC3EC9709ED9709EE9709EF97191956
:1003530019400FFFEC97FC09ED97FD09EE97FE1985
:100363001906D5F0BFECF709EDF709EEF709EFF73A
:10037300191919D0E0FCD0E0FDD0E0FED0E0FF2257
:100383002518C582C0E0E51934FFC583C0E0E51830
:10039300C3958224F810AF088583198582188008D5
:1003A300858319858218D2AFCEF0A3E520F0A37818
:1003B30008E608F0A3DEFAEFF0A3E58124FAF8E6F5
:1003C30008F0A3E608F0A3E608F0A30808E608F09F
:1003D300A3E608F0A315811581D0E0FED0E0F8155F
:1003E3008115811581E8C0E0EEC0E022C0D0251858
:1003F300C582C0E0E51934FFC583C0E0E518C395A5
:100403008224F310AF0885831985821880088583B9
:1004130019858218D2AFC8F0A3E9F0A3EAF0A3EBE1
:10042300F0A37908E709F0A3D8FAECF0A3EDF0A361
:10043300EEF0A3EFF0A3D0E0F0A3D0E0F0A3D0E080
:10044300F0A3E520F0A3E5F0F0A322851983851836
:1004530082E0C0E0A3E0F9A3E0FAA3E0FBA37808FD
:10046300E0F608A3DFFAE0FCA3E0FDA3E0FEA3E0CF
:10047300FFA3E0C0E0A3E0C0E0A3E0F5D0A3E0F574
:1004830020A3E0A3F5F010AF0885831985821880B7
:1004930008858319858218D2AFD082D083D0E0F843
:1004A300D0E032120AFEB900030204E5E49003012E
:1004B300782679188002F0A3D8FCD9FA7A267B1A19
:1004C30090008678A179018015E493A3AD82AE8371
:1004D3008A828B83F0A3AA82AB838D828E83D8E931
:1004E300D9E77582407583FC74031208227582BABA
:1004F3007583217400120822D083D082ECC0E0ED12
:10050300C0E0E493A3FCE493A3FDED4C600D12065D
:1005130017EC24FFFCED34FFFD80EFE493A3FCE430
:1005230093A3FDED4C600D1206EAEC24FFFCED34C1
:10053300FFFD80EFD0E0FDD0E0FCE493A3C0E0E456
:1005430093C0E022D083D082E9C0E0E493A3C386C2
:10055300F0C5F095F0F908E493A386F0C5F095F0A3
:10056300700BE493A3C3994005E9048002A3E475E7
:10057300F002A42582F582E5F03583F583D0E0F916
:10058300E493A3C0E0E493C0E02285198385188235
:10059300E0A3FEE0A3F5207808E0A3F608DFFAE085
:1005A300A3FFE0A3C0E0E0A3C0E0E0A3C0E0E0A3BA
:1005B300C0E0E0A3C0E010AF0885821885831980EE
:1005C30008858218858319D2AFD083D08202082888
:1005D300C0E074F21203EFA2AFE433FED2AFE589B9
:1005E300A2E150031220E8758900C2C5EEA2E09291
:1005F300AF7F0102044EC0E074F21203EFA2AFE436
:1006030033FED2AFE58BA2E050031220E8758B00D6
:10061300C2E880D8C0E0C3E49396087401939618A7
:10062300400FE493667008087401936618700070B5
:1006330019A3A3C3E49396087401939618A3A34044
:100643000DD0E0D0E0D0E0020537A3A3A3A3A3A37A
:10065300D0E022D083D082C5F0E493A3C5F0C39544
:10066300F0F5F0E493A3C395F04005E5F0048001B1
:10067300E475F002A42582F582E5F03583F583E481
:1006830093A3C0E0E493C0E0227404800474028066
:1006930000CCC0E0EDC0E0E518C39CCCAD1950011F
:1006A3001D10AF068C188D1980068C188D19D2AFCA
:1006B300120784D0E0FDD0E0FC2274028000CCC09D
:1006C300E0EDC0E0E518C39CCCAD1950011D10AF9F
:1006D300068C188D1980068C188D19D2AF120762FB
:1006E300D0E0FDD0E0FC22C0E0C0F088F0E49366E7
:1006F30070080874019366187000A8F0A3A3700B28
:10070300D0F0D0E0D0E0D0E0020537A3A3D0F0D002
:10071300E022D083D082CCC0E0E493A3600612072A
:10072300E41470FAE493A360061208F61470FAD086
:10073300E0FCE493A3C0E0E493C0E022C0E074F2E1
:100743001203EFA2AFE433FED2AFC2C0E5D1A2E4FD
:10075300500312204CEEA2E092AF7F0102044ECA76
:10076300C0E0E493A3C582CCC582C583CDC583F025
:10077300A3C582CCC582C583CDC583DAE5D0E0CAE3
:1007830022CAC0E0E0A3C582CCC582C583CDC583A0
:10079300F0A3C582CCC582C583CDC583DAE6D0E09C
:1007A300CA222518F8E43519F9222518FAE435196F
:1007B300FB222518FCE43519FD222518FEE4351922
:1007C300FF227009080808226016181818C6C333D8
:1007D300C608C633C608C633C608C633C6D5E0EA5C
:1007E30022C0E0E493A3D39C5010E493A3C39C40A2
:1007F3000AD0E0D0E0D0E0020732A3A3A3D0E022E6
:10080300C008C3E096F50808A3E096420808A3E0F1
:1008130096420808A3E09645087001D3D00822C089
:100823009FF59FE473D09F22D083D082C09FE4932F
:10083300C0E0740193C0E0740293F59F2200C0D01E
:10084300251810AF08F518500C05198008F5185035
:10085300020519D2AFD0D0227404800A7403800633
:10086300740280027401C0E0F404120876D0E0122E
:100873000AC1222518F58210AF08F518400C151986
:100883008008F51840021519D2AF85198322BB01E0
:1008930002E722C082C08389828A83BB0003E0808F
:1008A30002E493D083D08222C0E0C0D0E8C0E0A8A5
:1008B300A8D2AFC2C7E8A2E792AFD0E0F8D0D0D0B9
:1008C300E0326016080808C6C313C618C613C61854
:1008D300C613C618C613C6D5E0EA22C3E0C696F609
:1008E30008A3E0C696F608A3E0C696F608A3E0C6FA
:1008F30096F622C0E0E493A36C7009D0E0D0E0D078
:10090300E0020732A3A3D0E022251810AF08F518A0
:10091300400C15198008F51840021519D2AF22C3EF
:10092300E7960809E7960809E7960809E796A2D229
:1009330065D03322C3E09608A3E09608A3E09608A7
:10094300A3E096A2D265D03322E066701008A3E03C
:1009530066700A08A3E066700408A3E06622C3E099
:1009630096F008A3E096F008A3E096F008A3E096BB
:10097300F022E026F608A3E036F608A3E036F608F0
:10098300A3E036F622E026F008A3E036F008A3E061
:1009930036F008A3E036F022E046F008A3E046F084
:1009A30008A3E046F008A3E046F022E046F608A3D9
:1009B300E046F608A3E046F608A3E046F622E6473B
:1009C300F60809E647F60809E647F60809E647F692
:1009D30022E056F008A3E056F008A3E056F008A37F
:1009E300E056F022E056F608A3E056F608A3E056D8
:1009F300F608A3E056F622E657F60809E657F60886
:100A030009E657F60809E657F622E627F60809E647
:100A130037F60809E637F60809E637F622700422A6
:100A2300600D18C6C333C608C633C6D5E0F4182212
:100A3300E4C396F608E496F608E496F608E496F618
:100A43002275D000758140751801751903000204E1
:100A5300A6600D08C6A2E713C618C613C6D5E0F3F1
:100A630022C3E7960809E7960809E7960809E79677
:100A730022C3E09608A3E09608A3E09608A3E096B5
:100A830022C6F4C608C6F4C608C6F4C608C6F4C629
:100A930022600C08C6C313C618C613C6D5E0F422D9
:100AA300E6F008A3E6F008A3E6F008A3E6F022E0E8
:100AB300F608A3E0F608A3E0F608A3E0F622CAC00E
:100AC300E0E6F0A308DAFAD0E0FA22E8F0A3E9F0CE
:100AD300A3EAF0A3EBF022EAF0A3EBF0A3ECF0A37C
:100AE300EDF022E0F8A3E0F9A3E0FAA3E0FB22E0B3
:100AF300FAA3E0FBA3E0FCA3E0FD22E5C754F8441E
:100B030001F5C77901222518F582E43519F5832209
:100B1300C2AF75D69F0200002212082BCAED031242
:100B2300082BD9ED0312082BEFED0312082BF8ED78
:100B33000312082B8DDC0312082BE2DC0312082BB3
:100B4300E1DE0312082B15DF0312082B37DF031234
:100B5300082B50DF0312082B69DF0312082B43E035
:100B63000312082BF6E00312082B8B8D0412082BBB
:100B7300BD8D0412082BC98D0412082BFB8D0412A2
:100B8300082B238E0412082B508E0412082BCD8EB3
:100B93000412082BFB8E0412082B0A800412082B64
:100BA3002A800412082B69800412082B788004120F
:100BB300082B97800412082BFD800412082B068152
:100BC3000412082B63810412082B87810412082B5B
:100BD30048820412082B55820412082B66820412E1
:100BE300082BA89F0412082BC59F0412082BD3F5CA
:100BF3000312082B14F70312082B22F70312082BF6
:100C030035F70312082B4AF70312082B5FF7031279
:100C1300082B72F70312082BEBF70312082B82F849
:100C23000312082BD6F80312082BE6F80312082B3D
:100C33009C9C0412082BC09C0412082BE89C0412F1
:100C4300082B109D0412082B92890412082BB989D2
:100C53000412082BD7890412082B3F8A0412082B8D
:100C63001B850412082B34850412082B40850412BB
:100C7300082B54850412082B72850412082B7C85DB
:100C83000412082B86850412082B99850412082B5D
:100C9300EB850412082B24860412082B53860412B6
:100CA300082BA1860412082BF0860412082B0B874D
:100CB3000412082B15870412082B26870412082B0D
:100CC30069870412082B369E0412082B0DC00312E9
:100CD300082B39C00312082B56C00312082B69C016
:100CE3000312082B7FC00312082BECC00312082B3E
:100CF3001FC10312082B93C40312082BCDC5031283
:100D0300082B00C60312082B64C60312082B52C714
:100D13000312082B7AC70312082B8FC70312082B61
:100D23009FC70312082BE3C70312082B32C8031211
:100D3300082B42C80312082B70980412082B8A98B8
:100D43000412082BB2980412082BCB980412082B18
:100D5300EF980412082B0D990412082B24990412FE
:100D6300082B52990412082B6D990412082B649FC7
:100D73000412082B33F20312082B43F20312082B3D
:100D830048F30312082B7AF30312082BA0F3031280
:100D9300082BC3F30312082BDAF30312082B14F402
:100DA3000312082B79F40312082BB2F40312082B55
:100DB300F1F40312082B22F50312082B42F5031258
:100DC300082BBF950412082BDD950412082B2B96D4
:100DD3000412082B73960412082B12970412082B83
:100DE3009B9B0412082BA8920412082BE79304126E
:100DF300082B92D60312082B11D70312082B31D7D5
:100E03000312082B58D70312082B6CD70312082B95
:100E1300C4D70312082BE8D70312082B5AD903129D
:100E2300082B1EDA0312082B7EDA0312082BCFDA03
:100E33000312082B06DB0312082B72DB0312082BA9
:100E43009EDB0312082B1BDC0312082B6FDC03123F
:100E5300082B08910412082B21910412082BA89146
:100E63000412082B43920412082B6B920412082BD2
:100E730094820412082B08830412082B1383041290
:100E8300082B34830412082BEAAD0312082BEDADB3
:100E93000312082B96AE0312082BD5AE0312082BB0
:100EA30004AF0312082B3AAF0312082B68AF0312E7
:100EB300082BB2AF0312082BF9AF0312082B6CB146
:100EC3000312082B99B10312082BC6B10312082B86
:100ED30049B20312082BEAB20312082B20B3031200
:100EE300082BB8B40312082B82B50312082B72B671
:100EF3000312082BAEB60312082BE6B60312082B17
:100F030074870412082BB0870412082BA5880412D7
:100F1300082B8F890412082B27970412082B5D973F
:100F23000412082B77970412082BB9970412082B85
:100F3300C9970412082B63980412082B6D980412A6
:100F4300082B8CA40312082B96A40312082BD7A4F6
:100F53000312082B5CA50312082B79A50312082B97
:100F630019A60312082BB7A80312082BC0A8031253
:100F7300082B07A90312082B30A90312082B88A9F1
:100F83000312082B10AA0312082B50AA0312082BD2
:100F9300A8AA0312082B10AB0312082B43AB0312AE
:100FA300082BB7AB0312082B0EAC0312082B49AC6A
:100FB3000312082B7CAC0312082B8EAC0312082BF4
:100FC300A0AC0312082BBFAC0312082B68AD0312AD
:100FD300082BB0AD0312082BA09A0412082BA38B85
:100FE3000412082B118C0412082B308C0412082BCA
:100FF300268D0412082B5ED90212082B89DA0212FD
:10100300082BBEDA0212082B59DC0212082B8ADCE9
:101013000212082B14DF0212082B54DF0212082BD2
:10102300E8E00212082B85E10212082BD7E1021235
:10103300082B59E20212082B91E20212082BD3E289
:101043000212082B49E40212082BE7E50212082BCF
:1010530036E80212082B64E80212082B88E8021211
:10106300082B91E80212082BE7E80212082B82E909
:101073000212082B44ED0212082B70A00412082B55
:1010830086A00412082BD39E0412082BF5F8031232
:10109300082B07F90312082BA1F90312082BDCF91B
:1010A3000312082BF7F90312082B1BFA0312082B60
:1010B3005CFA0312082B8CFA0312082BBDFA0312F5
:1010C300082B33FC0312082BB6CF0312082BDAD0FC
:1010D3000312082B8FD10312082B8AD30312082B78
:1010E300E9D50312082B41D60312082BA099041249
:1010F300082BFF990412082B3D9A0412082B7E9AA1
:101103000412082B57940312082BA5940312082BDF
:1011130016950312082B07960312082B83960312C6
:10112300082B12970312082B5F970312082BB19712
:101133000312082BE8970312082B45980312082B78
:1011430059980312082B839A0312082BEF9A031260
:10115300082B199B0312082BAF9B0312082B839DAB
:101163000312082B049E0312082B869E0312082BDE
:10117300969E0312082BA99E0312082BEA9E0312C4
:10118300082B269F0312082B7F9F0312082B989F7F
:101193000312082BAB9F0312082B1FA00312082B6B
:1011A3009DA10312082BD2A10312082BFAA103124B
:1011B300082B25A20312082B7DA20312082B1DA3C3
:1011C3000312082B42A30312082B4CA30312082B70
:1011D3004FA30312082BB7A30312082BDFA3031299
:1011E300082BF2A30312082B56A40312082B89A47D
:1011F3000312082B879E0412082B9F9E0412082BB0
:1012030072C80312082BC1C80312082B64CA031245
:10121300082BFCCB0312082B3ECC0312082B5ACD10
:101223000312082B95CE0312082BB7CE0312082BFB
:1012330001CF0312082B82CF0312082BCDED02122C
:10124300082B01EE0212082BD8EE0212082B51EFE5
:101253000212082BADEF0212082BEFEF0212082B3C
:1012630065F00212082BE8F00212082B61F102125A
:10127300082BA8F10212082BB8F50212082B75F7F8
:101283000212082B9AF70212082B79F80212082B84
:101293007CF80212082B4FF90212082B8EFA021265
:1012A300082BB0FB0212082BEFFB0212082B10FDD8
:1012B3000212082B03FE0212082B9CFE0212082BBB
:1012C30000800312082BA3800312082B178103123B
:1012D300082B26810312082BA4810312082B1B82DF
:1012E3000312082B44830312082B68830312082B71
:1012F300E1830312082B2C840312082B8A84031224
:10130300082B6A870312082B8F880312082B058981
:101313000312082BF18A0312082B9F8B0312082B4D
:10132300498C0312082BA88C0312082B0D8D031272
:10133300082B7B8E0312082B1C900312082B489159
:101343000312082BE2910312082B4C920312082B71
:1013530028930312082B20C30212082B96C30212F0
:10136300082B10C40212082B5AC40212082BF0C413
:101373000212082BDCC50212082B1EC60212082B10
:101383009FC60212082BFBC60212082B2CC702129F
:10139300082B9EC70212082B07C80212082B92C8FB
:1013A3000212082B12C90212082B54C90212082B6D
:1013B3001BCA0212082BD6CA0212082B37CB021201
:1013C300082BECCB0212082BF6CB0212082B0ECC07
:1013D3000212082B58CC0212082B90CC0212082BB5
:1013E300CCCC0212082BF6CC0212082BF1CD021240
:1013F300082BF4CD0212082B28CE0212082BB2CEF2
:101403000212082B9BCF0212082B1AD20212082BAE
:1014130063D20212082B7AD20212082B02D30212D1
:10142300082B34D30212082BAED40212082BB3D4E8
:101433000212082BFFD40212082B7AD50212082BB2
:1014430075D60212082B54D70212082B14D8021295
:10145300082B72D80212082B8AD80212082B157D8A
:101463000012082BCE7D0012082B877E0012082B5A
:10147300EF7E0012082B637F0012082B38FC011249
:10148300082B57FC0112082BA6FC0112082BC2FCE7
:101493000112082BF2FC0112082B02FD0112082B8A
:1014A30018FD0112082B31FD0112082BFBFD01125F
:1014B300082B34FE0112082B3EFE0112082B4FFFAE
:1014C3000112082B5AFF0112082B6CFF0112082B83
:1014D30075FF0112082B7FFF0112082B0BEE03127D
:1014E300082BBEF10312082BCCF10312082B65FD68
:1014F3000312082B1E9F0412082B1BA00412082B97
:10150300E49F0412082B47A00412082B90A0041296
:10151300082B00800212082B3A800212082B6780E6
:101523000212082B15810212082BDC810212082BF0
:1015330029820212082B83830212082BB983021219
:10154300082B50860212082BB1880212082B6389DC
:101553000212082BF0890212082B0D8A0212082BA3
:10156300DD8C0212082B0E8D0212082B668D0212DF
:10157300082BA08D0212082BF28D0212082B668E07
:101583000212082BF98E0212082B0B8F0212082B62
:101593008A8F0212082B20900212082BE19002126C
:1015A300082B92910212082BD6910212082BC1ED3F
:1015B3000312082B17930212082BF8930212082B1D
:1015C30050940212082B9E940212082B7E9502124D
:1015D300082B8B950212082B9F960212082BA496B8
:1015E3000212082B9A970212082BA8970212082BB3
:1015F300AB970212082BAE970212082BDD9702124B
:10160300082B0C980212082B45980212082BC39939
:101613000212082B7B9A0212082B9B9A0212082BA8
:10162300F89A0212082BAA9B0212082B4B9C021257
:10163300082B8C9D0212082BAD9D0212082B339EA2
:101643000212082BEF9E0212082B3B9F0212082B5B
:10165300619F0212082B649F0212082BC09F021283
:10166300082B6FA10212082BCEA10212082B06A28F
:101673000212082B80A20212082BB9A30212082B14
:101683004AA40212082BF8A40212082B2EA6021257
:10169300082B3FA60212082B57A60212082B6FA68F
:1016A3000212082BBEA60212082BCBA60212082B8D
:1016B30028A70212082B50A70212082BECA802122B
:1016C300082BD1A90212082B28AA0212082BE0AB7F
:1016D3000212082BA0AC0212082BE8AC0212082B52
:1016E30054AD0212082B73AD0212082B67AE02121F
:1016F300082BEAB00212082B60B20212082BFCB2CC
:101703000212082B88B30212082BACB30212082B67
:1017130090B40212082B47B50212082B34B70212F9
:10172300082BCCB70212082B04B80212082B7FB87F
:101733000212082B63B90212082B12BA0212082BE9
:1017430050BA0212082B65BA0212082B00BB021210
:10175300082B2FBD0212082BF4BE0212082B12BF56
:101763000212082B30BF0212082BE8BF0212082B0B
:1017730002C30212082B6D820112082B7F82011211
:10178300082B9E820112082B0A830112082B9783D0
:101793000112082B69840112082BDA840112082B29
:1017A300F5840112082B19850112082B3C850112BF
:1017B300082B77850112082BB4850112082BD785D6
:1017C3000112082B25860112082BFF860112082B14
:1017D300B0870112082B40880112082B30890112AF
:1017E300082B73890112082B97890112082BE989A9
:1017F3000112082B0E8A0112082B408B0112082BB1
:101803006D8B0112082B7F8B0112082B898B011220
:10181300082B1C8C0112082B8B8C0112082B348D86
:101823000112082B3C8D0112082BA68D0112082BE7
:10183300668E0112082BDC8E0112082B198F011200
:10184300082B7C8F0112082BD2900112082BF290E7
:101853000112082B54910112082BEE910112082B4F
:1018630047920112082BD6920112082B9293011270
:10187300082BD0930112082B3F940112082B999443
:101883000112082BD1940112082B03960112082B85
:101893003D970112082B9E970112082BE79701121F
:1018A300082B0F980112082B92980112082B1299FA
:1018B3000112082B85990112082B96990112082B06
:1018C3000A9A0112082BA59A0112082BE79A011212
:1018D300082B6D9B0112082BA99B0112082BBC9BA3
:1018E3000112082B0A9C0112082B4B9C0112082B96
:1018F300D09D0112082B659F0112082B749F0112C2
:10190300082BB9A00112082B5CA10112082B9BA183
:101913000112082BD6A10112082BBAA20112082B1F
:10192300F6A40112082B00A50112082B0AA5011227
:10193300082B14A50112082B2EA50112082B38A57C
:101943000112082B42A50112082B4CA50112082BEA
:1019530071A50112082BCEA50112082BF2A50112C5
:10196300082B16A60112082B75A60112082BCCA66C
:101973000112082BEAA60112082B5AA70112082B01
:1019830097A70112082BDEA70112082B46A8011204
:10199300082BD5A80112082B10AA0112082B60AA44
:1019A3000112082B96AB0112082BFAAC0112082B7B
:1019B30086AF0112082B58B10112082B0FB3011285
:1019C300082B75B30112082B85B40112082B36B509
:1019D3000112082B7BB50112082B2CB60112082B20
:1019E300BAB60112082BE2B60112082BA4B70112F2
:1019F300082B8ABA0112082BAFBA0112082B01BBBC
:101A03000112082BFFBB0112082B37BC0112082B54
:101A130077BC0112082BD6BC0112082BF4BD0112AE
:101A2300082B54BE0112082B38BF0112082B42C1E8
:101A33000112082B64C10112082BF7C20112082BF3
:101A43003DC30112082B11C40112082BA4C40112B7
:101A5300082BD3C40112082BFEC40112082BE9C5BD
:101A63000112082B25C60112082B87C60112082B69
:101A730015C70112082B18C70112082B87C70112BB
:101A8300082B01260012082B53260012082BAA2824
:101A93000012082BF6280012082BE9290012082B44
:101AA300542A0012082B952A0012082BEB2B001244
:101AB300082B0E2E0012082BA52E0012082B392FEF
:101AC3000012082B08360012082B9C360012082B34
:101AD30019390012082BFD390012082BA23A001203
:101AE300082BBB3B0012082BE53E0012082BA84035
:101AF3000012082B08410012082BBC410012082BCE
:101B030065420012082B90420012082B1D4300125D
:101B1300082B01440012082BD5440012082B7345EF
:101B23000012082BA0450012082BC2450012082BF7
:101B3300DE470012082BB0480012082BFD480012A4
:101B4300082B6E490012082B1C4A0012082B514A1D
:101B53000012082B9F4A0012082BCF4A0012082BB1
:101B63000D4B0012082B714B0012082B764B001201
:101B7300082BD14B0012082BF94B0012082B0F4DE9
:101B83000012082B704D0012082BD34D0012082BA6
:101B9300664E0012082B9B500012082B7451001242
:101BA300082B04530012082B94540012082B3155B0
:101BB3000012082B70560012082B09570012082B2D
:101BC30051570012082BC4580012082BD858001282
:101BD300082BE5580012082B00590012082B0C594A
:101BE3000012082B2A590012082BFC5A0012082B4A
:101BF300355B0012082B425B0012082B8F5B00122F
:101C0300082B825C0012082BC65C0012082B585D5F
:101C13000012082B5D5E0012082B2A5F0012082BAE
:101C230094600012082B99610012082B2F62001296
:101C3300082BB2620012082BC9620012082BED6256
:101C43000012082BF7620012082B03630012082B03
:101C530021630012082B65630012082BB663001280
:101C6300082B13640012082B74640012082B7B6585
:101C73000012082B8B660012082B2A670012082B10
:101C830017680012082BAE680012082B4569001272
:101C9300082B156A0012082B446A0012082BB66A37
:101CA3000012082B646B0012082B8A6B0012082B9E
:101CB300A96C0012082BC86C0012082B376D001298
:101CC300082BB06D0012082BD66D0012082B026E84
:101CD3000012082B4D6E0012082BD16E0012082B38
:101CE30078700012082BA1700012082B26710012C5
:101CF300082B80710012082BA5710012082BEB71C1
:101D03000012082B08720012082BB6720012082B5F
:101D1300F0720012082B2CB70312082B70B70312B2
:101D2300082B91B70312082BD5B70312082B3FB822
:101D33000312082B49B80312082B59B80312082BB6
:101D43008EB80312082BB9BB0312082B73BD031201
:101D5300082B5FBF0312082B55C80112082B8FC82D
:101D63000112082B62C90112082B38CA0112082B71
:101D730067CB0112082BF0CC0112082B6ECD011298
:101D8300082B34CE0112082B55CF0112082BC7CFD5
:101D93000112082B29D00112082B8BD00112082B1A
:101DA30095D00112082BD3D00112082B3CD101127C
:101DB300082BDBD10112082B59D20112082B0CD3AB
:101DC3000112082B7ED30112082BA4D30112082B76
:101DD300D4D30112082B01D40112082BA7D401126A
:101DE300082BB7D40112082B0AD50112082B16D5DC
:101DF3000112082B22D50112082B2BD50112082B17
:101E03008ED50112082BEED50112082B3FD60112F5
:101E1300082B5AD60112082B8AD60112082BABD6EF
:101E23000112082BB7D60112082B3ED80112082B3A
:101E33005CD80112082BC5D80112082BD8D801127F
:101E4300082BE9D80112082B7CD90112082B7FDA61
:101E53000112082B75DB0112082BF8DB0112082B8A
:101E630001DC0112082B64DC0112082B7BDC01125C
:101E7300082BBDDC0112082B02DD0112082B31DD1A
:101E83000112082B68DD0112082B85DD0112082BD6
:101E9300A9DD0112082BEADD0112082BDDDE011298
:101EA300082B23DF0112082B5EDF0112082BBDDF95
:101EB3000112082BE5DF0112082B1EE00112082B8B
:101EC3002CE00112082B8DE00112082BCAE001124D
:101ED300082B0CE10112082B3DE10112082B71E1E3
:101EE3000112082B7CE10112082B9AE10112082B45
:101EF30063E20112082B6DE20112082BACE201121E
:101F0300082BC2E20112082B2CE30112082B40E339
:101F13000112082B38E40112082B4BE40112082BA1
:101F230060E40112082B00E50112082B64E501129D
:101F3300082B2BE60112082B36E60112082B55E776
:101F43000112082B71E70112082BC9E70112082BB4
:101F530000E80112082B1AE80112082B8EE801127F
:101F6300082B1FE90112082B67E90112082B8CEBE0
:101F73000112082BF6EB0112082B61EC0112082B5E
:101F8300A7EE0112082BB7EE0112082BBAEE0112CD
:101F9300082BC6EE0112082BDAEE0112082BE2EE33
:101FA3000112082B27EF0112082BD5EF0112082B82
:101FB30045F00112082BA9F00112082B42F101127E
:101FC300082BDCF10112082B0AF20112082BA9F2EB
:101FD3000112082BB5F20112082BE4F20112082BAF
:101FE300E7F20112082B5EF30112082B4EF40112E3
:101FF300082B26F50112082BB0F50112082BD1F698
:102003000112082B83F70112082BBCF70112082BCE
:10201300EDF70112082BF6F70112082B32F8011223
:10202300082B19F90112082B95F90112082B25FA2F
:102033000112082BEFFA0112082B73FB0112082B74
:10204300A9FB0112082BF2FB0112082B72ED0312FC
:10205300082B09ED0312082B7EEB0312082B08EB68
:102063000312082B50EA0312082BE3E90312082B8F
:102073007EE90312082BFEE60312082B3CE603124B
:10208300082BC3E50312082BB5E50312082B80E5E3
:102093000312082B2FE50312082B0AE50312082B62
:1020A300F5E40312082BDDE40312082BCFE403123B
:1020B300082BB8E40312082B9EE40312082B2AE42E
:1020C3000312082B59E30312082BFBE20312082B1C
:1020D300E1E20312082BB0E20312082B3EE10312E4
:1020E300082B29E10312082B87950412082B2E9540
:1020F3000412082BE6940412082BC7940412082B2D
:102103005D940412082B3B940412082BD6FF031290
:10211300082B70FF0312082BECFE0312082BC19D42
:102123000412082B609D0412082B459D0412082BF2
:10213300359D0412082BE67F0012082B648F0412CE
:10214300082B568F0412082B3A730012082BE6FF54
:102153000212082B48FF0212082B37FF0212082B2A
:10216300D09D0412082BC27C0012082B887C00121D
:10217300082B567C0012082B207C0012082BBF7BF7
:102183000012082BA97B0012082B5F7B0012082B7F
:1021930077780012082B8A760012082B327400120B
:1021A300082BE7730012082B48730012082BB77330
:1021B3000012082B71920200000080FBE4730001FF
:1021C300363601010001020100010301000104018F
:1021D300060605020000070100340801000F090488
:1021E30001010D0100FF0E08000017020000190194
:1021F30000FF1A0100011B0100FE1C0100081D0263
:1022030000001F0100012001000121020000230141
:10221300000F240200002601000127010008280204
:1022230000FF2A0100072B0102402C0100002D01B1
:1022330000012E0100012F0100FF30010B1C3108AA
:1022430000003A0100083B01000F2F0100000300CA
:10225300710030016000110070003102200350044E
:10226300800010006100000014006300730072001E
:102273006200430000001300060000000000040099
:1022830012000000000000000000040004003700FA
:1022930037003C024400000000000000000065001D
:1022A30000003500810000000500000083000000ED
:1022B30003047104020460041104700402040204A0
:1022C300010402041004610400041404630473048D
:1022D30072046204430400041304060400040004AB
:1022E3000404120400040004000400045104640004
:1022F3000004000400044404000400040004000477
:1023030065040004350481046400050400048304A7
:10231300000401037103010301030103010301032A
:10232300220302030103100300030003000300035D
:102333000003000300034203000324030603000316
:1023430000030403120325032303250323030403C8
:1023530004030003000300034403000300032303F7
:102363000003650321003503810300030503000314
:1023730000030003030271023001600211027002C4
:102383000102020202028002100261023A004100CD
:1023930063027302720262024302000213023800F4
:1023A3000002000204021202000200020002000204
:1023B30004020402370037003C02440200023900E1
:1023C30000020002650200023502810200020502DA
:1023D3008202830200020101710101010101110165
:1023E30001013101010101018001100161013B0083
:1023F30014006301730172016201430100011301BF
:1024030006013D0135000401120100010001000134
:10241300000104010401330133013C014401320191
:102423003600000100016501000135008101000152
:10243300050182018301000136000100060000004E
:102443000F0000000000000000000000000003FF78
:10245300FF00000403FFFF0000FFFF0FF40100056E
:10246300C4040320000100000B0000000000000072
:102473000003010F0000FC1213009C120100FC1268
:102483000200541203005A1204006012050066127F
:102493000600721211009012140096121500841295
:1024A300FFFF000001CA1A06F41A08EE1A0B061BF6
:1024B30010341A02D01A05E21A07D61A0CAC1A0DF8
:1024C300BE1AFF0000961EC61E9C1EA21EC01EB48E
:1024D3001EAE1ECC1ED21ED81EE41EA81E901E8A3F
:1024E3001E03EAF5E5D5D5C5B5A59595858575751D
:1024F3006565555545453535252515150500160FD3
:1025030000000B150B020002220F32000006000030
:102513000000000000008967452301EFCDAB56772B
:10252300777777777777777777777777777703051E
:1025330004060503040F00020406080A0C0D861F97
:10254300981F9E1F601EA41F5A1E661E9A1D941D6F
:10255300D01DD61DCA1D821DE61F04200A20EC1FB4
:10256300F81FF21F0C0E020B040B0A0708000F00E2
:102573000119161816161523030000034948424D86
:10258300181725050200383C3E363B3B352B432CC0
:10259300303016181920231A1C1E30303017181922
:1025A30021301B1D1F30DA1FAA1FB01FBC1FB61F0F
:1025B300BA1EDE1EFE1FEA1EF01E02040201010106
:1025C300010902A61DAC1DA01DDC1D0005150D098A
:1025D300100804000000000000B21DC41D00BE046A
:1025E3000A04001500E80328000E00101008040177
:1025F3001E0C1E05080F03FF09000009030AC08211
:10260300C083E9901977F0E490192CF0120F009031
:10261300198BE4F0A3F0901978F0A3F0121CB01218
:1026230017E212198C120F069018ECE4F0A3F09045
:10263300199DE07002A3E0600990199D125B591285
:1026430021BF9025F8E493FA79021214BE024B6A73
:1026530074F2120383EAFEEBFF74805FF9E4700106
:10266300E96061901977E0F9120F7E8A088B09EA15
:102673007001EB60467B0080010BEB75F003A42433
:10268300A7F8E5F03424F988828983E493FA74FF88
:102693006A6021850882850983E06A70DCAA08AB39
:1026A3000988828983A3E493C0E0740193F583D0FE
:1026B300821221BFAA08AB09120F72EEFA74806F5F
:1026C300FB02289374205FF9E47001E9601D121B7B
:1026D300848A088B09EA7001EB600A121ABEAA0801
:1026E300AB09120F72EEFA742080D4EE54207003FB
:1026F3000227C4750C001247D07001EB700B7C02EB
:102703007D007A207B00126BFC7C0079047A007BCD
:1027130000121B4E8A088B09800D740188828983FD
:10272300F0850A08850B09E5087002E509606D7CF0
:10273300007904AA08AB09121B4E8A0A8B0B750C8D
:1027430001E5082404126C4E24FFF0A3E034FF12C9
:102753006EB47002A3E070C9E5082409F8E50934F2
:1027630000F9850882850983A3A3A3A3A3A3A3A335
:10277300A3A3E0640170A3850882850983A3A3A3AF
:10278300A3A3A3E054047092740688828983F07A29
:10279300B78508828509831229DE8085121B1E7C7A
:1027A3000079017A007B00121B4EEA7001EB70097D
:1027B300E50C70057A2012289F74206EFAEF02262A
:1027C300C3EE541060071219C2741080EEEE544029
:1027D3006007121A1C744080E2EE548060071218DE
:1027E300D8748080D674015FF9E47001E9601A90AF
:1027F300199FE07002A3E0600990199F125B5912C0
:1028030021BFEEFA74010226C274085FF9E4700175
:10281300E9602D12199890188CE06401701B9018D0
:102823008DE06015FC75F0E8A4CCAAF075F003A464
:102833002AFD7A007B08126BFCEEFA74080226C2AA
:1028430074105FF9E47001E96012901989E0600582
:10285300E4F0121998EEFA74100226C274025FF9BA
:10286300E47001E9600A121CAAEEFA74020226C29D
:1028730074045FF9E47001E96012125EFC125D52A8
:1028830079011239F3EEFA74040226C27A007B004E
:10289300800574031208407F0602058D7B009019A2
:1028A30077E0F91210B02274F712038374E112096E
:1028B3000CEAFEEBFFEE7001EF6033851882851999
:1028C30083AC82AD83121BAE7406120B09E0601E4B
:1028D3007417120B09E0FD7401120B09E0FCEEFA08
:1028E300EFFB7900121758E9600479A4800279009C
:1028F300024CBF74F5120383EAFEEBFF8E828F83D3
:10290300A3A3A3A3A3A3E0544060181265666006C3
:102913007AFF7BFF806A8E828F83125092FAA3E044
:10292300FB8053901917E0A2E15048126292241CD5
:10293300F8EB1247BB7508FE7509FF7808120863A8
:1029430012358F12069079008C828D83126186A3D3
:10295300A3A3E0F5088C828D83125EE9A3A3E0FDB7
:10296300AC088A828B8312583A12199E7404120897
:10297300408003121BD274FE6A700374FF6B6043C2
:10298300125B55126083121C50E98E828F8360069E
:102993001229D7E480051229D77401F07C8E7D1AA1
:1029A3008E828F8312583A1214B8E9F5087017EE25
:1029B3007001EF60097901EEFAEFFB121B2AA908F7
:1029C3000263F57508CDAA088E828F831229DEE98A
:1029D30060DD80EAE0240D1252EE22E0240C124D59
:1029E3000AF9121A9A2274F6120383E9FEEAFF7AAD
:1029F3000F7B00120F6CEA7001EB6019740C8A8272
:102A03008B83F0EEA3A3F0EF8A828B83A3F0125D96
:102A13004379008028EEF9121B548A088B09A80811
:102A2300A909E87001E96013740688828983126E2C
:102A3300B9E0F9121A2EEEF9121B307910025B502D
:102A4300EAFCEBFD7A017B00901977E0F91210A400
:102A530022C082C0837900EA241DF582EB123595EA
:102A630012583A901917E0A2E18A828B83E0500E44
:102A730012071501010A7E2A00922A098011120702
:102A8300150103047E2A02077E2A0A7E2A922A025D
:102A93004B6A74EE120383EAFEEBFF8C088D0989FF
:102AA3000E7412120B09E0F510A3E0F511851082E4
:102AB300F583E4F0A3F0122BC7EE241DF8EF3400E6
:102AC300F9880C890D8882122BE0601F850A8285A4
:102AD3000B83122E9F7014850A82850B83124E4A34
:102AE300851082851183125D528003750E00850C5B
:102AF30082850D831250921206560109662B152BFF
:102B03002D2B3B2B462B662B702B662B8A2BA32B53
:102B1300B62B7810120863AC08AD09EEFAEFFB127E
:102B230019AA7402120840022BBFAC08AD09EEFAD1
:102B3300EFFB1219B0022BC2A90EEEFAEFFB121C27
:102B430068807912703564027019E50E700A122BD1
:102B5300D47003A3E0697067EEFAEFFBA90E121CB1
:102B6300208059750E007901120F128052122BD456
:102B73007003A3E06970EC127035640270E5EEFA3D
:102B8300EFFB121C0880389019A1E07002A3E060EB
:102B93002EEEFAEFFB9019A1125B591221BF801F91
:102BA300122BD47003A3E06970B9EEFAEFFB121C89
:102BB30074800CEEFAEFFBA90E121C80E9F50EA946
:102BC3000E0247ACEE2409F8EF3400F9880A890BAA
:102BD30022850A82850B831263EEE06822F5831255
:102BE3005096F9121C32E92274ED12038374DE123B
:102BF300090C8A088B09EA2402F510EB12546AF9CE
:102C0300121B548A0A8B0BAE0AAF0BEE7001EF70E6
:102C130003022CD2E508240C12605E122DFD24065B
:102C2300123587850882850983A3858208858309F0
:102C3300E064F16017E064CD6012E0641A600DE0B7
:102C430064E96008E064E16003022D5C850E82851F
:102C53000F83A3E05408F9E47001E9607F740585EC
:102C63000A82850B83F09019A5E07002A3E0600946
:102C73009019A5125B591221BF9019A7E07002A306
:102C8300E06033901917E0A2E1502B8E828F8312FC
:102C93006560A3A3A3A3A3A3A3124CC91235A1EAFE
:102CA3007001EB6011850882850983E0F99019A70B
:102CB300125B591221BF850A82850B83E06402707F
:102CC300037406F0851082851183E0F9121B30121C
:102CD3001B1E74221208407F0B02058D7900121B04
:102CE3002AE96075901917E0A2E14003022C6912EA
:102CF300692C7002A3E07003022C697403120B09A0
:102D0300126913850882850983E064E9701A122E1B
:102D130005120867850882850983E0F51278121287
:102D23000867123EA2120840740C120B0912583A9B
:102D3300125B551260837900740E120B0912506CEA
:102D4300740C120B091235D17003022C69850E82A3
:102D5300850F83125076022C68850882850983E0EB
:102D6300C0E07402120B09D0E0F0126AAAEE240B41
:102D7300127038851882851983AA82AB8370051275
:102D830019148003121C2C7402120B09E064E970FD
:102D930014122E051208677512E9781212086712C9
:102DA3003EA2120840901917E0A2E14003022CB999
:102DB300850A82850B83E064027027850E82850F66
:102DC30083E05404601C1265667013125B5574FF34
:102DD300F0A3F07405850A82850B83022CC6740365
:102DE30080F3850882850983E064E96003022CB9D6
:102DF300EEFAEFFB121C86022CB9EE2409126C05C5
:102E0300EE2212629775120178122274F51203836F
:102E13008A088B09750A00EA2409124E3DFEE9FF70
:102E23008E828F83122E9F7003750A018E828F8389
:102E33001257487003A3E06B7006E50AD2E1F50A66
:102E4300E5082402FEE5093400FFE50A60138E82DB
:102E53008F83E07006E50AD2E58004E50AD2E6F541
:102E63000A121C50E964017006E50AD2E0F50A8EE5
:102E7300828F83E06017E508241DF582E50934009D
:102E8300122BE064016006E50AC2E0F50AE50AA236
:102E9300E14004D2E7F50AA90A0263F512657164F9
:102EA3000222C082C08379018A828B83A3A3E0C3F9
:102EB30094024001198A828B83A3A3A3A3E0C39442
:102EC30002400279008A828B83A3A3A3A3A3A3A3B3
:102ED300A3A312506C74F86C700374FF6D601E74BE
:102EE300F96C700374FF6D601474FA6C700374FFF3
:102EF3006D600A74FB6C700374FF6D700279008A55
:102F0300828B83A3A3A3E0FC90191AE06C6002797F
:102F1300009025F3E493C394805018E493C333C023
:102F2300E0EA2411F582EB12703BFAD0E0C39A5029
:102F3300027900024B6A74E812038374DC12090CF1
:102F4300EAFEEBFF7403120B09125E55751400754C
:102F530015007405120B09AC82AD838E828F83A397
:102F6300A3A312606F12583A121BAEE9600F7405E7
:102F7300120B09AA82AB83121AB8E97008790112FD
:102F83000F1202357DEE241B124E447412120B09EC
:102F9300125D52740B120B09E06023741C120B09AF
:102FA300E0FD7406120B09E0FC8E828F83A3A3124B
:102FB300583A7901121758E96004790280C17405FF
:102FC300120B09AA82AB83121AB2E9F508740B1229
:102FD3000B09E07029901914E060237422550864EA
:102FE30022601B74425508644270CF7422120B098D
:102FF300125092FA74066A600574076A70BCE9A2FB
:10300300E650127405120B09AA82AB83121AA0E9C7
:103013007003022F80EE2412F516EF3400F517EE3D
:10302300242A122E00242C123592123BB4E068702D
:1030330003A3E069701C7509007809120867780911
:10304300120867EE242E1235991235AD123EB212D4
:103053000840740B120B09E070030230F71235AD10
:103063001235A18A0A8B0BA80AA90BE87001E97033
:103073000302319B7406120B091235A8FAA3E0343C
:1030830000FB740D2AF582E43BF583E0FAE824049F
:10309300F50AE9126C08E82403F582E912703B6A29
:1030A300600DEAF090824B780C120AB21235F27975
:1030B300047406120B091235A8FCA3E034008C82B9
:1030C300F583A3AA82AB83120F5A8A0C8B0D8C0E45
:1030D3008D0F850A82850B837810120AB2781079D6
:1030E3000C120A64500302357D908237780C120962
:1030F300751235F2EE2424123587EE2430F50CEFE9
:10310300126062EE242F126C05901917E0A2E150B1
:103113000302323490192CE0FA74046A60087409CB
:103123006A600302357DE508A2E540030231E1123E
:1031330035D9C0E07401120B09D0E0123EDCC0E0C7
:103143007402120B09D0E0F07416120B09E064014B
:1031530070207410120B091235BD7003A3E069705F
:1031630011740E120B09122E9F70077416120B099D
:10317300E4F0850E82850F8312068C7404120B090A
:10318300AC82AD837409120B09AA82AB8312191A9C
:10319300740412084002357D901971E064016003E4
:1031A3000230F77422120B0912509264067009E57B
:1031B30008A2E650030230F77412120B09E064FF11
:1031C3007004A3E064FF700302357DEEFCEFFD7431
:1031D30005120B09AA82AB83121AC402357DA2E63B
:1031E300400302357D7422120B091235C9701E7417
:1031F3001C120B09E06402600302357D7405120B97
:1032030009AA82AB837900121C2002357D74076AF8
:10321300600302357D741C120B09E0640460030231
:10322300357D7405120B09AA82AB83121C14023577
:103233007D7416120B09E0601D8E828F83A3A31287
:103243003ECE1412563CA3123ECEC0E07416120BAF
:1032530009D0E0F07006E508C2E7F50890192CE004
:10326300FA74046A600574096A7061740E120B09BA
:103273001257487003A3E06B6017121C50E96402F5
:10328300600F740A120B09E05403640160030235F2
:103293007D7407120B09E0701B1235D9C0E074016D
:1032A300120B09D0E0123EDCC0E07402120B09D00D
:1032B300E00231747422120B091235C97003023112
:1032C300F274076A600302357D02321875090074CF
:1032D30061550870030233E8E508A2E050708516D3
:1032E3008285178312506C7405120B09AA82AB8373
:1032F300121A22E97055121BDEE9F5097416120B36
:1033030009E0700F7410120B091235BD7003A3E0AE
:1033130069603BA90985168285178312506C740571
:10332300120B09AA82AB83121A28E96013740E12D6
:103333000B0912646E120B09125D52751404800E90
:10334300E508C2E5F508750900800353089FE50801
:10335300A2E5503C1235D9C0E07401120B09D0E04C
:10336300123EDCC0E07402120B09D0E0F0850E823D
:10337300850F8312068C7404120B09AC82AD83741F
:1033830009120B09AA82AB8312191A74041208409A
:10339300E508A2E640030234B57403120B098582E3
:1033A3000A85830B780A120863A909851682851793
:1033B3008312506C7407120B09AA82AB83121AA6EC
:1033C3007402120840E9F50970030234B57422123D
:1033D3000B09125092640160030234B57410451452
:1033E300F5140234B57407120B09E06401703B74E1
:1033F30022120B091250926405702F7403120B09E9
:103403008582088583097808120863790085168206
:1034130085178312506C7407120B09AA82AB8312AF
:103423001AA6740212084002357D7416120B09E0C5
:1034330070127422120B091250926403600302315A
:10344300CE02357D121B24E9600302357D740E1212
:103453000B0912646E120B09125D52780912086788
:10346300741E120B09AC82AD83740F120B09125830
:103473003A740A120B09E0F9121A64740112084033
:10348300E9600F7514208E828F83A3A31250925488
:103493003FF079007410120B0912506C740E120B6A
:1034A300091235D1600674204514F514121BDEE9A8
:1034B300F5097403120B09E064FE7004A3E064FFD2
:1034C3007003750900E508A2E7400302357DE509AD
:1034D300700302357D8E828F83A3A3A3A3E0FA7BBF
:1034E30000120FEA8A0A8B0BEA7001EB70030235B4
:1034F3007D8E828F83A3A3E0F50CA3E0F50D750EFB
:1035030000780C12085F8E828F83A3A3A3A3E0FC31
:103513007D001244BE1208407407120B09E085189F
:1035230082851983F07401120B09E4F0A312552468
:1035330085820C85830D780C120863781412086356
:10354300E509F5087808120867851682851783123E
:1035530006908E828F83A3A3A3A3E0F9740A120BB0
:103563000912506CAA0AAB0B121B9C740712084079
:10357300E96007AA0AAB0B120FF074241208407F0C
:103583001002058DF50EEF3400F50F22EE240EF533
:1035930082EF126C7922F582EF125F24F922124D29
:1035A30004121CD4221268612A22850A82850B83A5
:1035B300124E608516828517832212516A85168200
:1035C300851783E06822125096FA74046A22124D1A
:1035D300041219A4E922EE242E125F218518828594
:1035E30019831235E922F0850A82850B83E022854F
:1035F3000A82850B83E50CF0A3E50DF0A3E50EF03D
:10360300A3E50FF02274F2120383EAFEEBFF8C08AA
:103613008D09122BC78882F58312583A90188CE0D3
:10362300601190191DE06A7003A3E06B7005121915
:103633009880537900121A408A828B83E582700244
:10364300E583603AA3A3A3A3A3A3E05418602FE5E3
:1036530008241BF582E509123595120690E5082426
:1036630012F582E509123595120690EE24181235EB
:103673009912368C121A707404120840800879006B
:1036830012368C1219BC02289A850A82850B831282
:103693004E60EE240B124CFD2274EE12038374EA87
:1036A30012090C8A0C8B0DEA2402F50EEB12358AF3
:1036B3000A0AFB1218068A088B09AE08AF097509B6
:1036C30001850C82850D83A3E0F508750A01AC0E14
:1036D300AD0F851882851983AA82AB831210FE74FD
:1036E30008120B09125E55740A120B097402F07466
:1036F30013120B09E4F0E50C240AF50CE50D126036
:1037030062901A9DE07010EE7001EF700AE5087088
:10371300067509C302387290192CE06408600675B7
:1037230009C202386E850C82850D83E0A2E1500E3A
:10373300A2E35005750A04800C750A038007A2E30F
:103743005003750A02EE7001EF60648E828F83A3CB
:10375300A3A3A3E0FA74046A600574036A700C748B
:1037630004650A601C7403650A601674026A6005C6
:1037730074016A70207402650A60067401650A7038
:103783000F8E828F831241B6120B09125D52801F76
:1037930074026A600574016A700A8E828F83124311
:1037A300131221BFAA0EAB0F1218127E007F0074F2
:1037B30008120B09E064FE7004A3E064FF70381282
:1037C30017DCE97032E5086017901969E06402704C
:1037D3000F901AA41241B6120B09E8F0A3E9801660
:1037E300850C82850D83E05402F91219CE740812F8
:1037F3000B09EAF0A3EBF07408120B0912391270EB
:103803000374FF6B70057509C78060E508F50B78D5
:103813000B120867850C82850D83E0F9AC0EAD0FA2
:103823001219327401120840E97040A90AAC0EADB6
:103833000F7408120B091239EC8A108B11AE10AFFA
:1038430011EE7001EF601C74026508700BEE240525
:1038530012703854FB4408F0740A120B09E4F0F5B3
:103863000980087408120B09125E55E508700F856C
:103873001882851983AA82AB8312149A8010FCA93B
:103883000A851882851983AA82AB83121C0EE9FA72
:10389300EE7001EF603EEE2405F8EF3400F9E50821
:1038A300601288828983E0D2E6F0740265087004AE
:1038B300E0D2E5F0850C82850D83E0A2E65008880E
:1038C300828983E0D2E7F08E828F83A3A3A3A3A38D
:1038D300A3E004F0E5097003EA602FFC7D007A01A0
:1038E3007B10120F0CEE7001EF6007AA0EAB0F12E4
:1038F30018127408120B09123912700374FF6B60EB
:1039030009901904125B591221BF74160247A912B8
:103913004D0474FE6A2274F612038374F712090CC1
:103923008A088B0990192CE0FA74036A600D7401FC
:103933006A600874096A60030239E98508828B8327
:10394300A3AE82AF83E060030239CE7C007D007AB0
:10395300027B00120F0CE50824021247C21263EA2D
:10396300125D52795312148E79001239F390192C87
:10397300E06409600990192A12583A121CCE7401A6
:10398300125B86740490192CF07401120B09AA823D
:10399300AB83794A1214887401120B09AC82AD838C
:1039A3007A227B191210FE79007401120B09AC8282
:1039B300AD839019201239EC901917E0A2E350045B
:1039C300D2F08002C2F0125B6E8018FC7D007A0395
:1039D3007B10120F0C8E828F83E0F91239F3E4907F
:1039E300192CF0121B00025B4B124D041217F42228
:1039F30090192A124D0412192C22C082C0839018E8
:103A0300ECE07002A3E0704190192CE0120715005E
:103A130003011F3A052E3A063D3A4C3A9018F4E05A
:103A23007002A3E060769018F4806B9018F0E07059
:103A330002A3E060679018F0805C9018F2E07002D7
:103A4300A3E060589018F2804D9018ECE07002A348
:103A5300E06009123ECBFC74016C7023790090196D
:103A630078800909EA12667EEB123595124A9A703C
:103A730001EB70EF90197812583A121920801D74D7
:103A8300026C7005121C9E80139019A3E07002A3B0
:103A9300E060099019A3125B591221BF024B6A74AB
:103AA300F412038374FB12090C8A088B097A0F7BC7
:103AB30000120F6C8A0A8B0BAE0AAF0BEE7001EF8C
:103AC3007003023BAF74028E828F831263FB7950C3
:103AD300121488850882850983A385820885830952
:103AE300E06003023B9890192A126C1D700374FF67
:103AF30069602F74FE68700374FF696025851882FE
:103B0300851983E0687003A3E069601674EA850889
:103B1300828509831240907A2A7B19795012148E78
:103B23008073851882851983123BB4125D527A1D06
:103B33007B19795312148890191D125D4C7A207BDE
:103B430019794B1214887A1F7B1979E11214889022
:103B53001931E0C3940F502290191FE0C0E07402A2
:103B6300120B09D0E0F07404120B097401F0740213
:103B7300120B09AA82AB831214B2750A00780A12D7
:103B83000867780A120867901A49E0F91245641227
:103B93003EB2120840850882850983123E8EF07476
:103BA3000390192CF0EEFAEFFB125D4374050256F5
:103BB300E112516A90192A2274EC12038374ED12F4
:103BC300090C8A828B83A3123E93EA2408124E3D8A
:103BD300FEE9FF851882851983AC82AD838E828FBF
:103BE30083123EBBA3A3A3A312583A121B12851838
:103BF30082851983E070768E828F83E0C3940B40B5
:103C03006C850882850983A3A3A3A3A3A3A3A3E02D
:103C13006402705990192CE0FAE5082410F510E5B8
:103C2300093400F511E508240912605E74026A6024
:103C33004174066A603C9018ECE07002A3E06007F0
:103C4300123ECB6401605474086A600574046A70A0
:103C53001C7402120B09E0F97407120B09AC82AD54
:103C630083850C82850D8312583A121B1874130234
:103C730067E09018ECE07002A3E0701F750A00780B
:103C83000A120867780A1208678510828511831261
:103C93003E851247CA123EB2120840901978126C40
:103CA300A39019781267D8E508240DF50EE50912DB
:103CB300358A80318E828F83E0F8A3123E85E068D7
:103CC3007003A3E06970128E828F83A3A3E0FA8549
:103CD3000E82850F83E06A606B8E0A8F0BEE12668D
:103CE3007EEF126CA0EE7001EF70C97A187B0012A0
:103CF3000FEA8A128B13AE12AF13EE7001EF70034B
:103D0300023C707C18126DF8125E4CEE240C1235D6
:103D13009274FFF0E508240B126C4E123E7C126E77
:103D2300B3C4123E7CA3A3F0901978E07002A3E021
:103D33007005901978800AE50A12667EE50B123544
:103D430095126AB07401120B09123E9DA3F074021E
:103D5300120B09123E9DF0850E82850F83123E8E53
:103D6300A3123EDC123E73125647240DFAEF3400C1
:103D7300FB7402120B09E06401600E7407120B0955
:103D8300AC82AD831210FE80097C087D0079FF129E
:103D93000F547412120B09E0C0E0EE241512359291
:103DA300D0E0123ED3FC901A49E0C39C4003023C8E
:103DB30070126C2BE509123595A3E05480F9E47079
:103DC30001E9700990178CE07003023C707D00EEEE
:103DD300240CF8EF3400F9EE240BFAEF3400FB90D7
:103DE3001969E06402701D8A828B83E0F50AC39C23
:103DF300500D7405120B09E0C39405401B801AE5AE
:103E03000A6C70157405120B09E0C0E0888289837F
:103E1300E0FCD0E0C39C50010D7404120B09E06078
:103E230020ED601D850882850983126407ECF0A3E9
:103E3300ED123ED38A828B83F07405120B09125064
:103E4300877406120B09E0600D74018E828F83A3C1
:103E5300A3A3A3A3A3F07404120B09E07003023C11
:103E63007074018E828F83A3A3A3A3A3F0023C707B
:103E7300F8A3E0F98E828F8322540F8E828F83A35F
:103E8300A322E0F9850C82850D83221243EEA3223F
:103E9300A3A3E0F508A3E0F509221243EE802185F0
:103EA3000C82850D83123EBB124E5C8A828B831279
:103EB3004D04121BE4740222E0F98A828B83800290
:103EC300A3A3A3A3A3A3A3229018EC1252FEE02260
:103ED300F0851082851183E022F0850C82850D83A5
:103EE300E02274F612038374C912090C90192CE0B2
:103EF3006408606290193DE0F8243DF582E4341AC9
:103F0300F583E0FA90190EF0E82443F582E4341ABD
:103F1300F583E0FB90190CF07508FF7509FFEA784B
:103F230008120A20E508F4FCE509F4FD3395E0FEE8
:103F33009019351240857508FF7509FFEBC39A7810
:103F430008120A20E508F4FCE509F4FD3395E0FEC8
:103F5300901939124085E4125B7C790412148E9017
:103F6300193DE07009741E120B0974018006741E5A
:103F7300120B09E4F0740F851882851983F0901AE7
:103F8300A21263FB794612148E7401120B09E4F03A
:103F9300901A86E0C0E07402120B09D0E0F0901989
:103FA3001AE0C0E07403120B09D0E0F07404120BA2
:103FB30009E4F07405120B09E4F07407120B09E429
:103FC300F090193DE0FAC3940F74065006120B09E2
:103FD300EA8005120B09740FF07C3E7D19740812F8
:103FE3000B09AA82AB831210FE7C037D0079FF7458
:103FF30010120B09AA82AB83120F54901976E0C0FA
:10400300E07413120B09D0E0125C7C120B09125CF2
:104013006B121BFC901931E0C0E0741C120B09D029
:10402300E0F0901932E0C0E0741D120B09D0E0F00B
:1040330090191FE0C0E0741A120B09D0E0F0901938
:104043002A124E4A7418120B09125D527420120B75
:1040530009E4F0901934E0C0E0741F120B09D0E0BA
:10406300F07434120B09E4F07429120B09E41240C2
:10407300907414120B09AA82AB831214AC74370226
:104083005B4DECF0A3EDF0A3EEF0A3F022F07A1D6C
:104093007B19795312409B2212148E7A207B197953
:1040A3004B12148E22C082C0838A828B83A3E0606A
:1040B30007E490192CF0804A740890192CF0901999
:1040C3003DE0701F9018F6E07002A3E0600B7900EA
:1040D3009018F6125B591221BF90192A12506C7A6C
:1040E30005801A790012192690191D12506C7A0650
:1040F3007B00120F0C90192012506C7A047B001273
:104103000F0C024B6A74F412038374EA12090CEA6B
:104113002402FEEB3400FF0A0AFB1218068A088BFE
:1041230009EA7001EB70030241B18A828B83125258
:10413300E0600F74026A600A74036A600574046ABB
:10414300706CEEFCEFFD85188285198312621912DB
:1041530041B6120B09125D52740A120B097401F075
:104163007413120B091263FA1214A0890AAC0A7DA4
:10417300007A077B00120F0C850882850983A3A3AD
:10418300A3A3A3E0C2E0F07401850882850983A399
:10419300A3A3A3A3A3A3A3A3126C7E120233E88554
:1041A3000882850983A3A3A3A3A3A3A3A3F07416DF
:1041B3000256E112516A74082274F012038374F8F0
:1041C30012090C8A0C8B0D8C0A8D0B890E851882B3
:1041D300851983AC82AD837583827582037408125B
:1041E3000784F50FAC0CAD0D851882851983AA825F
:1041F300AB8312688A7003750F019019788030AC15
:104203000CAD0DEE240DFAEF3400126EA6601A8584
:104213000882850983E0650E700F8E828F83E065C7
:104223000A7004A3E0650B6032EE24161235921275
:104233004B5E7001EF6024EE24021247B1E50F706C
:10424300BE8E828F83E0650A7004A3E0650B70D98C
:10425300850882850983E0650E70CEEEFAEFFB02D6
:10426300563274F7120383901978E0FAA3E0800CB6
:10427300EA2416126C9D120FF0EEFAEFFBEA7001BE
:10428300EB70ED901978E4F0A3F0024CC474F412CF
:1042930003838A088B09EA240BFEEB3400FFEA242C
:1042A30013F582EB12703B64037009EEFAEFFB1215
:1042B3001806800CE0640270548E828F83126C5A4D
:1042C300EA7001EB6047EA2406F8EB122BCC850871
:1042D30082850983A3E07007E488828983802D6443
:1042E300F16005E064E1701A88828983E0640170FB
:1042F300118A828B831243131221BFEEFAEFFB1252
:104303001812850A82850B83E0600214F00256E4DA
:10431300124D04901904125B5D2274F11203838A17
:10432300088B09ECFEEDFF890A8A828B8312680DE4
:104333008A828B831243EDF0EEF8EFF9A30EAF837D
:104343008A828B83A3A3E0C454F0FA88828983E032
:104353004A1243F71243EE1243F2E0333354FCFAAA
:104363008E828F83E04A1243F2A3E033333354F84F
:10437300FA8E828F83E04AF008EFF9A30EAF8385AC
:1043830008828B83A3A3A3A3A3A3E0A2E0E492E008
:1043930013135480FA88828983E04AF0E5082407DE
:1043A300F50CEB126062750E00780C12085F7C0846
:1043B3001254531208401267F7E508240F12605E87
:1043C300780C12085F7C03125453120840E50AC3A9
:1043D300940F4011E5082412F582E5091235951270
:1043E3003E8EA3A3F07F0702058DA3E0023E771262
:1043F30043F7A322F08508828B83A3A3A32274F13E
:10440300120383EAFEEBFF890A8C088D098E828FE3
:1044130083E08C828D8312563CAE82AF83E01256CA
:10442300F91244D0C41256F91244C4E054038C82E6
:104433008D831244CEA2E2E492E08C828D831244F7
:10444300CD131313541F1256F9A31244CDA2E7E45C
:1044530092E08C828D83A3A3A3A31244C48E0C8FFA
:104463000D750E00780C12085F7C087D00E50824AA
:10447300071244B81208401267F78E0C8F0D780CA0
:1044830012085F7C037D00E508240F1244B812086C
:1044930040E5082412F8E5093400F9E50AC3940F4E
:1044A300400A8E828F83A3A3A3E08001E4888289DC
:1044B30083F00243E8FAE5093400FB120F48740362
:1044C30022A3A31256400EAF8322A3A3A3A3F002F9
:1044D30068A874F412038374F912090CEAFEEBFF63
:1044E3009018ECE07002A3E06010123ECB640270FF
:1044F30009EEFAEFFB121C98806290192AE06E70A5
:1045030003A3E06F705674016960097A3E7B191248
:10451300688A70487A007B021247D47001EB703CC2
:1045230090192D7808120AB28518828519837808A4
:10453300120AA3901933E0C0E07404120B09D0E00F
:10454300F07405120B097401F07406120B0974025E
:104553001263FB1218CCE960981218D27407025642
:10456300E190192A124E6090192022E0F9024B6A59
:1045730074F612038390198AE0701F7C0079017A24
:10458300007B00121B4EEA7001EB600E8A828B8364
:10459300E07002A3E06003121A94025B50C082C071
:1045A30083124A05401079FF121B48E9FA9025F45B
:1045B300E493C39A5004790180027900024B6A7430
:1045C300EE1203838A088B09890D750E00EA24080D
:1045D300F50AEB125060E0F9121B548A108B11AEEE
:1045E30010AF11750C01EE7001EF60030246888570
:1045F3000882850983A3A312507D12552C12583AC1
:10460300121B3C8A0A8B0BAE0AAF0BEE7001EF70E4
:10461300030247A28E828F83A3A3A3A3E4F0A3F094
:10462300E508240B1247C2E0C0E0EE240B123592DA
:10463300D0E0F0121C5CEE240C12607CE508240E22
:10464300F582E509124E4712358F125D52750E0140
:10465300EE2406F8EF124A14E0547FF0A3E054FC72
:1046630012495AE054046003024710901A7F12550E
:104673001D74077808120A208A828B83E04508F0AC
:10468300A3E04509F0EE24061247B98C828D83120C
:10469300583A74805AF50874035BF509740778086F
:1046A300120A94E508F510EE2404122E00240912D0
:1046B30047B1E50D60607402850882850983124461
:1046C300D1240D1252EAE0A2E2500F901918124EB3
:1046D3004A850A82850B83125D52E51070030247F7
:1046E3006F747F5AFA74FC5BFB74FF2510F510742A
:1046F300FF3400F51174077810120A20E5104AF808
:10470300E5114BF98C828D83125D52805FE044800A
:10471300F0A3E0024687E5107005750C00804DEAB2
:1047230054206015120F668A10747F5510F8745F59
:1047330028850A82850B83801BEA5410600E120FB2
:10474300668A10740F5510F8740A80E4850A82850E
:104753000B837401F0A3E4F0740485088285098354
:10476300F01247D07001EB7003125B287401650EE1
:104773007030850A82850B831247CAE0F9EEFAEF9F
:10478300FB121B42E9601BEE240C123592124A9A6B
:104793007001EB6003120FF0EEFAEFFB120FF075EE
:1047A3000C00A90C80031208407F0A02058DF5084E
:1047B300EF3400F50922F8EF124E3FFCE9FD22FA2F
:1047C300E5093400024961124E60025F117A207BD1
:1047D30000901977E0F91210B6EA2274F6120383F7
:1047E30074F712090C7E00121B54EA7001EB70037C
:1047F3000248AB8A828B83A3A3A3A3A3A3A3A3A3EC
:10480300E0640660030248AB8A828B83A3A3A3A35D
:10481300A3A3A3E0FF8A828B831252F8E0C0E07463
:1048230008120B09D0E012495A125B591261931214
:104833005D52121B7274085FF9E47001E9606785C9
:10484300188285198312506C7A007B00121B36EA9A
:104853007001EB705190192A124E4E1214CA7C004B
:104863007D007A007B0080288E828F83125F06E0B2
:1048730064FF7004A3E064FF602C90192A12506C4B
:10488300120B3AE9641A601E7C007D00EEFAEFFB1E
:10489300121B368A088B09AE08AF09EE7001EF7060
:1048A300C779001214D07E01EEF9025B4B74F71244
:1048B3000383EA7001EB700590198B80068A828B63
:1048C30083A3A3124A9A7001EB60288A828B83A385
:1048D300A3A3A3A3A3A3E05408F9E47001E960DD53
:1048E300EC7001ED601112508E6C7003A3E06D70DB
:1048F300CC80047A007B00024CC474F2120383EA76
:10490300FEEBFF890A8C088D097A107B00120FEAEF
:10491300EA7001EB603CE48A828B83A3A3A3A3A385
:10492300A3A3A3124967E50A124CCF125E448A82FD
:104933008B83A3A3A3A3E4F0124967124958126A15
:10494300B0EA240CF582EB126EAD124959A3A3F021
:10495300A3F002289AA3A312495E22F08001FB8AE6
:10496300828B8322A3124CD3A3A32274F512038355
:10497300EAFEEBFF890A8C088D09EE7001EF6056A1
:104983007401650A70147901121B48E9FA9025F73E
:10499300E493C39A500F791180657404650A7030EB
:1049A300124A0540F18E828F83A3A3A3A3A3A3A3DB
:1049B300A3A3E50A12565512711BE4F0A3F0901954
:1049C3008BE07002A3E090198B6024124E4A800A98
:1049D3007402650A60CF79C18025E824020808E9DA
:1049E300124A14124B087001E970EF8A828B83120A
:1049F3006AB01247D07001EB7003125B2879000292
:104A030063F57904121B48E9FA9025F6E493C39AF7
:104A130022124E3FFAE9024961C082C083E9FC7960
:104A23000090198B801D8A828B83A3A3A3A3A3A3C6
:104A3300A3A3A3E06C600574FF6C7001098A828BE9
:104A430083A3A3124A9A7001EB70DB024B6A74F7DB
:104A5300120383EA7001EB700590198B80068A823A
:104A63008B83A3A3124A9A7001EB60248A828B83FF
:104A7300A3A3A3A3A3A3A3A3A3E06970E1EC60147E
:104A83008A828B83E0240D1268A2A2E240D08004C4
:104A93007A007B00024CC4124D04EA22C082C08318
:104AA30090198B80068A828B83A3A3124A9A700182
:104AB300EB60128A828B83A3A3A3A3A3A3A3A3E084
:104AC3006970E280047A007B00024B6AC082C08373
:104AD30090198B800688828983A3A3124B087001E7
:104AE300E9601B88828983E0FCA3E0F5838C82E084
:104AF3006A7003A3E06B70DDE8FAE9FB80047A00D7
:104B03007B00024B6A12516AE82274F11203838A12
:104B13000A8B0B8C0C8D0D750800750900EA70016A
:104B2300EB603190198B80068E828F83A3A3124B87
:104B33005E7001EF601EAC0CAD0DEEFAEFFB850A63
:104B430082850B831221BFE9640170DCEEF8EFF973
:104B530088088909AA08AB090243E8E0FEA3E0FF3D
:104B6300EE227402120840D083D082020828790012
:104B730002082874F712038390198B124E4A7C00A3
:104B83007D008007E8FCE9FD124E4AE87001E96008
:104B93003AE82402F582E9123595EA687002EB6976
:104BA30070E212583A90198B126CA3E86E7002E906
:104BB3006F700990198BEAF0A3EB800EEAF8EBF91A
:104BC3008C828D83A3A3E8F0A3E9F0024CC474F7AD
:104BD300120383EAFEEBFFEE7001EF6016121B6C0B
:104BE300124CDBEA7001EB6003120FF0EEFAEFFBFD
:104BF300120FF0024CC474F712038312508EFCA3FD
:104C0300E0FD90198B124E4A7508007E00803388B0
:104C1300828983A3A3A3A3A3A3A3A3A3E06405708F
:104C2300180E88828983E0FFA3E0F5838F82E06C0E
:104C33007003A3E06D7002050888828983A3A31221
:104C43004E4AE87001E970C7EA2404F8EB3400F92E
:104C53009025F9E493FCE508C39C500B9025FBE4F5
:104C630093FCEEC39C400B888289837401F0A3E418
:104C7300800A901918124CC9ECF0A3EDF074058A60
:104C8300828B83A3A3A3A3A3A3A3A3A3124CCFE0C9
:104C9300F0A3E0440812564E8A828B83E064FF70CF
:104CA30004A3E064FF600E90192A12506C1214C41E
:104CB300E9641A700579011214D08005741F120873
:104CC300407F0102058D124E60026AA5124CD32269
:104CD300F08A828B83023EC48E828F83E0241C126F
:104CE3004D0AFAA3E0FB120FF08E828F83124D045C
:104CF300120FF0EE240C124CFD22F582EF3400F576
:104D030083E0FAA3E0FB221252F2E022C082C083C6
:104D1300EAFCEBFDEC7001ED70047905804CEC24AA
:104D2300FBF582ED34FFF583E07002A3E07011EC34
:104D330024FFF8ED34FFF988828983E064FF60057E
:104D4300120F7280D5901977125087902600E49342
:104D5300F97A8D7B19120FA2E96401700B7A007B3B
:104D630020125B2C790080027904024B6A74F412DE
:104D73000383A2AFE492E0F508C2AF90198D124B02
:104D83005E7001EF603DEE24FBF582EF34FFF583A7
:104D9300E07002A3E07A007B209019776005125B34
:104DA3002F8005E0F9120FAE750A00750B00780A23
:104DB300120863EEFCEFFD7A8D7B19120F9C7402CF
:104DC300120840E508A2E092AFEEFAEFFB0256E4C8
:104DD30074F712038374E112090CEA2413F582EBCE
:104DE30012703BC0E07411120B09D0E012516174D0
:104DF30009120B0912515A124E37FCE9FD8C828DB0
:104E030083124E4A740B120B0912515A2414F58261
:104E1300EB12703BC0E07412120B09D0E0F0EA24ED
:104E23000EF582EB12359C8C828D83124E4E121A34
:104E330028024CBF2404124E3D22F8EB3400F9E85B
:104E430022F582EF126C7912516A22124E60851894
:104E530082851983AA82AB8322A3A3A3A3E0FCA325
:104E6300E0FD2274EE12038374FC12090CEAFEEBDC
:104E7300FF121B24E96005791102505BEE2412F541
:104E830010EF3400F511EE2402F50AEF1250601210
:104E9300656D6008E4851082851183F0EE2413129A
:104EA300545C700C9025F3E493850C82850D83F09C
:104EB300EE2411F8EF1260677019901A88E0600D04
:104EC300901914E0700D8E828F83E07006E488825F
:104ED3008983F0EE2414080808EF126C51700C90CB
:104EE3001909125087901909E004F0EE240F1247B4
:104EF300B1EE240B123587901917E0A2E1504F85CC
:104F03000A82850B8312656D60448E828F83E06015
:104F13000B850E82850F83122BE260328508828512
:104F23000983E05440601A850C82850D83E0640197
:104F3300700F850882850983E054FBF0A3E0F080BD
:104F43000DEEFAEFFB121B8AE97003024E7A8E8292
:104F53008F83E06401701A850E82850F831250924D
:104F63006402700D850882850983E04440F0A3E064
:104F7300F0850882850983E054407052901917E048
:104F8300A2E1504A750C00780C120867EE2406FC67
:104F9300EF3400FD850A82850B8312583A8510820F
:104FA300851183E0F9121A647401120840E9600C58
:104FB300E4851082851183F0125070F079008E829F
:104FC3008F8312507D1235D16004125070F0851812
:104FD30082851983AC82AD83EEFAEFFB121BA28AA2
:104FE3000C8B0D850A82850B8312506CEA7001EBE2
:104FF30060628E828F83E0C0E07401120B09D0E0FF
:10500300F07402120B09126AB07401120B09858243
:105013000A85830B780A120863850882850983123F
:105023000690EE240E127038F5087808120867907F
:10503300191D1206907407120B09E0F9121B9C74D8
:1050430007120840E9FE74106E700BAA0CAB0D1228
:105053000FF080027E10EEF974040247A9126C0867
:10506300850A82F58322126C76124E6022850882AD
:10507300850983E04420F0A3E022124E5C850A8276
:10508300850B8322E088828983F0228A828B8312B4
:10509300509622125B61E022C082C08374DE120943
:1050A3000C8A828B83A3A3A3A3124E4A740E120B02
:1050B30009E8F0A3E9125161740C120B0912515A59
:1050C300240DF582EB12703BC0E0741A120B09D069
:1050D300E0F0EA126C2DEB124E477420120B09120A
:1050E300515A2415F582EB12703BC0E07408120B81
:1050F30009D0E0F0EA241CF582EB124E4774121239
:105103000B0912515A2411F582EB12703BC0E07463
:1051130009120B09D0E0F074FF851882851983F01A
:105123007401120B0974FFF07402120B0974FFF07F
:1051330090824B12068C7404120B09AC82AD8374FB
:1051430007120B09AA82AB8312191A7404120840BE
:1051530079007422024B67E8F0A3E9F0EA221249CE
:105163005EA3A312516A2212516E22E0F8A3E0F962
:105173002274EA12038374EE12090C8A148B15EC61
:10518300FEEDFF890F7428120B091267D8742A12D7
:105193000B09E0F50C742B120B09123E95742D12BA
:1051A3000B09E0F512A3E0F513750D107A1E7B00D1
:1051B300120FEA7402120B091260837402120B09B4
:1051C300E07002A3E070030252D4750E00EEFAEF12
:1051D300FB1218008A828B83E5827002E5836016D6
:1051E3001252E0600574036A700CE50854407006BF
:1051F30074044509F50974045509F9E47001E9607B
:1052030003750E01851882851983AA82AB837950B1
:105213001258317402120B091252F8A312608374EC
:1052230010120B09E50AF0A3E50BF07402120B0947
:10523300E0240B1252EA7402F0120B091252F874B2
:1052430002F0120B09125B59126AB07402120B09B5
:105253001262A3E50FF07402120B09E0240C125240
:10526300EAE50CF07402120B09E0241C1252EAE581
:1052730014F0A3E515F07408120B09125E44740AC6
:10528300120B09E50CF0851282851383C082C0835B
:10529300740D120B09AC82AD83D083D082740312D8
:1052A3000784A90E7402120B09AA82AB83121B2A6C
:1052B300E964017011E50E6008A90C121B54121B5E
:1052C30078750D00800B7402120B0912583A120FF5
:1052D300F0A90D74121208407F0E02058DA3A3A33B
:1052E300A3E0FA74016A221252EE221252F222F859
:1052F300A3E0026AA21252FEA3A32212618E023E0F
:10530300C574EA120383EAFEEBFF8C088D098E82D3
:105313008F83A385820A85830B7408F0EE2416120B
:10532300545C60097410850A82850B83F0EE2417A0
:10533300F510EF12546A600A850A82850B83E02414
:1053430008F0EE2411F8EF126C516005750E0E8013
:1053530003750E00EE240DF514EF3400F515850AE0
:1053630082850B83E0851482851583FAE02A250E56
:105373008C828D83126EB46013901915E0F91217A5
:105383005EE9FA850882850983E02AF0850882852B
:105393000983E0FAC3947540097508007509000292
:1053A300544C7B00126B5E7001EB700302544CEEA5
:1053B300FAEFFB121BA8EA85088285098312608431
:1053C300EE2402F8125F0C12547FF0EE2404080856
:1053D300125F0CA3A312547FA3A3F0EE2413125461
:1053E30075F0EE2414125475A3F07A08850C8285A7
:1053F3000D83E0600FEE2418125069E508240812AB
:1054030067CE7A10851082851183E0600FEE241A2F
:105413001250698A0CE508250C1267CEEE240B1294
:105423007038F510A3E0F511751200781012085FBB
:10543300851482851583E0FC7D0012583EE50E2815
:10544300FAE439125458120840AA08AB090252DB95
:105453007D00EEFAEFFB0244BEF50CEF3400F50DD0
:10546300850C82F583E0223400F511851082F583E3
:10547300E022126C76125489A3A3A322A3A3126C75
:1054830019A312548922E0850882850983A3A3A363
:105493002274F61203838A828B83E0FC90191A121A
:1054A300551D74027808120A20E5084CFCAD09EA80
:1054B300241212551774067808120A20E5084CFCCA
:1054C300E5094DFDEA241112551774097808120AEB
:1054D30020E5094DFDEA2416125517740B780812BE
:1054E3000A20E5094DFDEA2417125517740C7808B4
:1054F300120A20E5094DFD8A828B83A3A3A3A3A3EC
:10550300A312551D740A7808120A20ECFAE5094D16
:10551300FB025B50F582EB126C79E0F5087509002C
:1055230022F085188285198322E0F9025F1174F055
:105533001203838A088B09ECFEEDFF750A01E9C3A8
:10554300940850057900025630E98E828F831256F3
:105553004E121BB4E96003750A00125883C0E0EED3
:105563002411123592D0E012587EC0E0EE241212BC
:105573003592D0E012563CA882A98312585060108D
:10558300E5082408FAE5093400FBEE2413125661FA
:105593008E828F83A3A3A3A3A3A3A3A3E0601588F1
:1055A300828983E0FAE5082AFAE5093400FBEE2450
:1055B30015125661EE2419126EAAEE241B126EAA5E
:1055C300126EB3F50B8E828F83E0F50CC3950B50EF
:1055D30003025547850B0EE508250EF8E50934004F
:1055E300F9EE241DFAEF3400FBEAFCEBFD8C828D0F
:1055F300831256472417FAEF3400FB8A088B09E518
:105603000CC3950B8A828B83125655A3A3E0601BB0
:105613008A828B83E024F2F0E8240EF8E912585AC8
:10562300FA850882850983E0C39AF0A90A80057484
:10563300081208407F0802058D12564022F08E8220
:105643008F83A322E8F0A3E9F0EE2212495E124D04
:10565300042212565922F08E828F83023EC6126CA8
:1056630076EAF0A3EB126C19E02408F02274F4122A
:1056730003838A088B09EA125700F0EA1313543F95
:105683001256F9A3A3A3F0EAC41313125700A3A35A
:10569300F0E48C828D83A3A3A3A3A3F08A0A8B0BCC
:1056A3007409780A120A941256EEF0EC2418F58263
:1056B300ED126EAD8A0A8B0B740B780A120A9412E0
:1056C30056E9F08A0A8B0B740C780A120A94125664
:1056D300E9A3F0740D7808120A94A908800312084C
:1056E300407F0402058D1256EEA322E50A54018C75
:1056F300828D83023EC4540F8C828D832254038C8B
:10570300828D83A3A322C082C083790090191412CF
:105713005EF3A3A3A3A3E0600FEC70268A828B83BE
:10572300A3A3E0701D09801AEC60178A828B83A300
:10573300A3A3A3A3A3A3A3A31257487003A3E06B3C
:1057430070E3024B6A124D0490191DE06A2274EE55
:105753001203838A088B09890CECFEEDFF8A828B86
:105763008312583A121BB4125883C0E0EE2411126C
:105773003592D0E012587EC0E0EE2412123592D05A
:10578300E012563C85820A85830B1258506010E55F
:10579300082408F8E5093400F9EE24131258708E32
:1057A300828F83A3A3A3A3A3A3A3A3E06009125897
:1057B3003EEE2415125870EEFAEFFB121BBAE9F510
:1057C3000D7066850A82850B83E0F50EF510E508FA
:1057D3002510FAE5093400FBEE2417F8EF3400F93D
:1057E30088088909EE241D1247B98E828F83A3A3EB
:1057F300A3A3A3A3E07012EAF8EBF98C828D8312C2
:105803005D52E50CC3950E8019EA240EF8EB12588D
:105813005AFB850A82850B83E0FAE50CC39A24F2CE
:10582300C39B850882850983F0A90D0247AC121436
:1058330088851882851983124D0422850A82850B77
:1058430083E0F8E50828F8E5093400F92274081222
:105853005659A3A3A3E0223400F98C828D83E8F088
:10586300A3E9F0901915E0F912175EE922126C769C
:10587300E8F0A3E91235E92408F02212605080D23F
:10588300850882850983A3A31258B8E0F9EA8E82BA
:105893008F83A3A3A3A3A3A3A3A3A31258BD1258A7
:1058A300B8A3A3E0F9EAF8EE240B126C76E81258D9
:1058B300BDA3A3E022E0FA02548AF0A3E9126054E4
:1058C30022C082C0837A927B1979E21214887A9279
:1058D3007B19024B6AC082C08390191D12583A0289
:1058E3004B6AC082C08374FE12090C851882851925
:1058F30083AA82AB83794B125831024B65C082C0B5
:1059030083794A121488024B6A74F612038390193E
:105913009AE0FE04F0EEF9121B54EA7001EB70EE0C
:10592300EE60EBF9025B5074EC120383EAFEEBFFCB
:105933008C128D13890E7414120B09E0F50A741579
:10594300120B09E0F50B750C00750D00121CD48ABF
:10595300088B09EA7001EB7017E50B6003025A40EC
:10596300A90EAC12AD13EEFAEFFB121CE6025AF9C4
:10597300EA2402F8EB3400F9E50E60168882898385
:10598300E0FAE50E2AFAE4340013EA13F070037424
:1059930001F0E50B7003025A2B9019A5E07002A3E6
:1059A300E060099019A5125B591221BFE50A700E38
:1059B300E4850882850983F0750D01025A5990190F
:1059C30017E0A2E14003025A619019A7E07002A315
:1059D300E0600FA90AAA08AB099019A7125B591234
:1059E30021BF850882850983E0FA9025FF126C8E1A
:1059F300EA98E499C365D033500985088285098301
:105A0300E004F0850882850983E0FA9025FFE4939A
:105A13006A7043750C01EEFAEFFB121A76E48508FF
:105A230082850983A3F0802E901A49E0C0E0888222
:105A33008983E0FAD0E0C39A501C0259BB74016514
:105A43000B7013E50E600F901917E0A2E15015EEED
:105A5300FAEFFB121A76901917E0A2E140257401C0
:105A6300650B701FE50A60169019A9E004F0C0E009
:105A7300901A80E0FAD0E0C39A4008750C01E490D4
:105A830019A9F0E50D7004E50C606B901917E0A2FD
:105A9300E15030EEFAEFFB1218008A088B09A808D0
:105AA300A909E87001E9601BE82405F582E91235CC
:105AB30095E50D6004E0C2E0F0E50C6039E0D2E06A
:105AC300F08004E50C602F901917E0A2E15012EE6C
:105AD300FAEFFB1217FAE96008EEFAEFFB790080A0
:105AE30012901920E06E7003A3E06F7009EEFAEFD5
:105AF300FB79011219440267E3C082C08374016A0F
:105B03007001EB70077A01125B2A8016901A7712E4
:105B13006083EA7001EB6005122A4380057A011263
:105B2300289F024B6A7A207B00901977E0F9120FC5
