:020000040000FA
:06000000020A400201D3D8
:03002B000208A721
:030033000205F5CE
:0300430002073B76
:0300530002012285
:03006B000205CFBC
:1000830002016F0102020000FA0D000000000000EF
:10009300960E00000000000000000606060606009B
:1000A30014141414140006FFF20A62616E616E6187
:1000B300000000000000000305672B6170706C6591
:1000C30000000000000E0001010100931700000072
:1000D3000718E80364006400B80102020008000086
:1000E300050107051E02051E020A03B80B803E0127
:1000F300FFFF0114010101010503010F10FEFFD6EB
:100103001CD61CD61CD61C8C1B861BD61CA11F0000
:10011300000000C720000000000C0000000C00C01D
:10012300E074F21203EBA2AFE433FED2AFA9A7A8A7
:10013300A1E85954106008120B9C75A1EF8023E8C5
:10014300A2E092F0E9A2E082F05017906198E0F803
:10015300900577E0C398A2D265D0335002E8F075DA
:10016300A1FEEEA2E092AF7F0102044AC0E074F266
:100173001203EBA2AFE433FED2AF9061A4E0F875B3
:100183009B00E59158540860087591F7120BDE80C7
:1001930023E59158541060087591EF120BE4801415
:1001A300E591A2E092F0E8A2E082F05007E0C2E01D
:1001B300F0120D1C9061A3E0F8E5E9585404600EB9
:1001C300120CF275E9FB906193E0A2E640F2809293
:1001D300C0E074F21203EBA2AFE433FED2AF90613E
:1001E300A5E0F8E5BF585404600675BFFB120D3453
:1001F300020165C3E498F8E499F91202378026C333
:10020300E49AFAE49BFBE920E7E9120237E498F861
:10021300E499F922C3E498F8E499F9120237E498CF
:10022300F8E499F9C3E49AFAE49BFB22EB20E7CFC5
:10023300E920E7E0B90010BB0008E88AF084F8AAD7
:10024300F022E4FBC8FA22EB70227B10C833C8C942
:1002530033C9335007C39AC3DBF280069A50012A8D
:10026300DBEAC833F4C8C933F4C9FA2275F008E4E9
:10027300C833C8C933C933C99AC99B5004C92AC9E9
:100283003BD5F0ECFBC833F4C8E4C9FA22080808EC
:10029300EAC0E0EBC0E086F0E7A4FA180986F0E7CD
:1002A300A42AFA180986F0E7A42AFA180986F0E7BF
:1002B300A42AFA1986F0E7A4FBE5F02AFA190886BE
:1002C300F0E7A42BFBE5F03AFA190886F0E7A42B34
:1002D300FBE5F03AFA18180986F0E7A4C5F02BFB02
:1002E300E43AFA1908E7C5F0C6A426F6E5F03BFBA5
:1002F300E43AFA1886F0E7A4F6E5F00826F6E43BBC
:1003030008F6E43A08F6D0E0FBD0E0FA22E4CFC0E6
:10031300E0E4CEC0E0E4CDC0E0E4CCC0E075F02082
:10032300E626F608E633F608E633F608E633F6186B
:100333001818EC33FCED33FDEE33FEEF33FFC3EC63
:100343009709ED9709EE9709EF97191919400FFFD0
:10035300EC97FC09ED97FD09EE97FE191906D5F008
:10036300BFECF709EDF709EEF709EFF7191919D003
:10037300E0FCD0E0FDD0E0FED0E0FF222518C582EE
:10038300C0E0E51934FFC583C0E0E518C3958224B6
:10039300F810AF088583198582188008858319852D
:1003A3008218D2AFCEF0A3E520F0A37808E608F0D8
:1003B300A3DEFAEFF0A3E58124FAF8E608F0A3E65A
:1003C30008F0A3E608F0A30808E608F0A3E608F09F
:1003D300A315811581D0E0FED0E0F81581158115B4
:1003E30081E8C0E0EEC0E022C0D02518C582C0E09D
:1003F300E51934FFC583C0E0E518C3958224F310E3
:10040300AF0885831985821880088583198582182A
:10041300D2AFC8F0A3E9F0A3EAF0A3EBF0A3790805
:10042300E709F0A3D8FAECF0A3EDF0A3EEF0A3EF05
:10043300F0A3D0E0F0A3D0E0F0A3D0E0F0A3E52058
:10044300F0A3E5F0F0A322851983851882E0C0E0CC
:10045300A3E0F9A3E0FAA3E0FBA37808E0F608A37E
:10046300DFFAE0FCA3E0FDA3E0FEA3E0FFA3E0C00E
:10047300E0A3E0C0E0A3E0F5D0A3E0F520A3E0A370
:10048300F5F010AF088583198582188008858319D4
:10049300858218D2AFD082D083D0E0F8D0E0321278
:1004A3000AFAB900030204E1E490030178EF791733
:1004B3008002F0A3D8FCD9FA7AEF7B1990008678F2
:1004C3009D79018015E493A3AD82AE838A828B83E9
:1004D300F0A3AA82AB838D828E83D8E9D9E7758294
:1004E300F675837C740012081E75820A75831F7467
:1004F3000012081ED083D082ECC0E0EDC0E0E4938C
:10050300A3FCE493A3FDED4C600D120613EC24FF52
:10051300FCED34FFFD80EFE493A3FCE493A3FDED36
:100523004C600D1206E6EC24FFFCED34FFFD80EF7A
:10053300D0E0FDD0E0FCE493A3C0E0E493C0E0226C
:10054300D083D082E9C0E0E493A3C386F0C5F095DD
:10055300F0F908E493A386F0C5F095F0700BE493EB
:10056300A3C3994005E9048002A3E475F002A4251E
:1005730082F582E5F03583F583D0E0F9E493A3C0F7
:10058300E0E493C0E022851983851882E0A3FEE0AE
:10059300A3F5207808E0A3F608DFFAE0A3FFE0A3C1
:1005A300C0E0E0A3C0E0E0A3C0E0E0A3C0E0E0A3BC
:1005B300C0E010AF088582188583198008858218EA
:1005C300858319D2AFD083D082020824C0E074F2AD
:1005D3001203EBA2AFE433FED2AFE589A2E15003ED
:1005E300121E38758900C2C5EEA2E092AF7F0102E8
:1005F300044AC0E074F21203EBA2AFE433FED2AFBD
:10060300E58BA2E05003121E38758B00C2E880D838
:10061300C0E0C3E49396087401939618400FE493E3
:1006230066700808740193661870007019A3A3C359
:10063300E49396087401939618A3A3400DD0E0D0D9
:10064300E0D0E0020533A3A3A3A3A3A3D0E022D069
:1006530083D082C5F0E493A3C5F0C395F0F5F0E42D
:1006630093A3C395F04005E5F0048001E475F0021F
:10067300A42582F582E5F03583F583E493A3C0E0F6
:10068300E493C0E0227404800474028000CCC0E0D0
:10069300EDC0E0E518C39CCCAD1950011D10AF06A9
:1006A3008C188D1980068C188D19D2AF120780D043
:1006B300E0FDD0E0FC2274028000CCC0E0EDC0E09D
:1006C300E518C39CCCAD1950011D10AF068C188DD5
:1006D3001980068C188D19D2AF12075ED0E0FDD0B9
:1006E300E0FC22C0E0C0F088F0E493667008087470
:1006F300019366187000A8F0A3A3700BD0F0D0E0AC
:10070300D0E0D0E0020533A3A3D0F0D0E022D08321
:10071300D082CCC0E0E493A360061207E01470FA21
:10072300E493A360061208F21470FAD0E0FCE49399
:10073300A3C0E0E493C0E022C0E074F21203EBA292
:10074300AFE433FED2AFC2C0E5D1A2E4500312142A
:1007530054EEA2E092AF7F0102044ACAC0E0E493E0
:10076300A3C582CCC582C583CDC583F0A3C582CC86
:10077300C582C583CDC583DAE5D0E0CA22CAC0E00D
:10078300E0A3C582CCC582C583CDC583F0A3C58252
:10079300CCC582C583CDC583DAE6D0E0CA2225184D
:1007A300F8E43519F9222518FAE43519FB2225183E
:1007B300FCE43519FD222518FEE43519FF227009E2
:1007C300080808226016181818C6C333C608C633AB
:1007D300C608C633C608C633C6D5E0EA22C0E0E47D
:1007E30093A3D39C5010E493A3C39C400AD0E0D0BE
:1007F300E0D0E002072EA3A3A3D0E022C008C3E009
:1008030096F50808A3E096420808A3E09642080874
:10081300A3E09645087001D3D00822C09FF59FE45A
:1008230073D09F22D083D082C09FE493C0E0740131
:1008330093C0E0740293F59F2200C0D0251810AF37
:1008430008F518500C05198008F51850020519D23F
:10085300AFD0D0227404800A74038006740280022D
:100863007401C0E0F404120872D0E0120ABD22251C
:1008730018F58210AF08F518400C15198008F51803
:1008830040021519D2AF85198322BB0102E722C0AA
:1008930082C08389828A83BB0003E08002E493D011
:1008A30083D08222C0E0C0D0E8C0E0A8A8D2AFC203
:1008B300C7E8A2E792AFD0E0F8D0D0D0E03260161C
:1008C300080808C6C313C618C613C618C613C61825
:1008D300C613C6D5E0EA22C3E0C696F608A3E0C66F
:1008E30096F608A3E0C696F608A3E0C696F622C0DD
:1008F300E0E493A36C7009D0E0D0E0D0E002072ECF
:10090300A3A3D0E022251810AF08F518400C151941
:100913008008F51840021519D2AF22C3E7960809DB
:10092300E7960809E7960809E796A2D265D033222D
:10093300C3E09608A3E09608A3E09608A3E096A276
:10094300D265D03322E066701008A3E066700A080F
:10095300A3E066700408A3E06622C3E096F008A350
:10096300E096F008A3E096F008A3E096F022E026D4
:10097300F608A3E036F608A3E036F608A3E036F659
:1009830022E026F008A3E036F008A3E036F008A33F
:10099300E036F022E046F008A3E046F008A3E04684
:1009A300F008A3E046F022E046F608A3E046F60886
:1009B300A3E046F608A3E046F622E647F60809E672
:1009C30047F60809E647F60809E647F622E056F037
:1009D30008A3E056F008A3E056F008A3E056F0227F
:1009E300E056F608A3E056F608A3E056F608A3E09F
:1009F30056F622E657F60809E657F60809E657F6CB
:100A03000809E657F622E627F60809E637F6080945
:100A1300E637F60809E637F622700422600D18C699
:100A2300C333C608C633C6D5E0F41822E4C396F62A
:100A330008E496F608E496F608E496F62275D000E4
:100A4300758140751801751903000204A2600D0831
:100A5300C6A2E713C618C613C6D5E0F322C3E796AA
:100A63000809E7960809E7960809E79622C3E0967E
:100A730008A3E09608A3E09608A3E09622C6F4C66E
:100A830008C6F4C608C6F4C608C6F4C622600C0835
:100A9300C6C313C618C613C6D5E0F422E6F008A3EE
:100AA300E6F008A3E6F008A3E6F022E0F608A3E0E8
:100AB300F608A3E0F608A3E0F622CAC0E0E6F0A336
:100AC30008DAFAD0E0FA22E8F0A3E9F0A3EAF0A307
:100AD300EBF022EAF0A3EBF0A3ECF0A3EDF022E0BD
:100AE300F8A3E0F9A3E0FAA3E0FB22E0FAA3E0FB1A
:100AF300A3E0FCA3E0FD22E5C754F84401F5C77960
:100B030001222518F582E43519F58322C2AF75D683
:100B13009F02000022120827A3FF01120827ACFF3F
:100B230001120827BBFF01120827D1FF0112082772
:100B3300E4FF01120827EDFF01120827DF940312D7
:100B4300082734950312082733970312082767975A
:100B530003120827899703120827A297031208276D
:100B6300BB97031208279598031208274899031285
:100B73000827EEC30312082720C4031208272CC436
:100B8300031208275EC40312082786C4031208272A
:100B9300B3C40312082730C5031208275EC5031226
:100BA30008272BB4031208274BB4031208278AB46F
:100BB3000312082799B403120827B8B403120827AD
:100BC3001EB50312082727B50312082784B503129D
:100BD3000827A8B50312082769B60312082776B6B3
:100BE3000312082787B603120827F6D7031208272C
:100BF30013D803120827B4AD03120827F5AE031266
:100C0300082703AF0312082716AF031208272BAFD9
:100C13000312082740AF0312082753AF0312082714
:100C2300CCAF0312082763B003120827B7B003122F
:100C33000827C7B003120827EAD4031208270ED5E2
:100C43000312082736D5031208275ED50312082797
:100C5300F5BF031208271CC0031208273AC003126A
:100C63000827A2C0031208273CB90312082755B965
:100C73000312082761B90312082775B9031208275D
:100C830093B9031208279DB903120827A7B90312C2
:100C93000827BAB9031208270CBA0312082745BA62
:100CA3000312082774BA03120827C2BA03120827CB
:100CB30011BB031208272CBB0312082736BB0312F0
:100CC300082747BB031208278ABB0312082784D6C9
:100CD300031208270080031208272C800312082719
:100CE3004980031208275C800312082772800312CD
:100CF3000827DF800312082712810312082786843E
:100D030003120827C08503120827F3850312082757
:100D13005786031208274587031208276D87031296
:100D23000827828703120827928703120827D6878A
:100D3300031208272588031208273588031208277A
:100D4300F4CE031208270ECF0312082736CF03125F
:100D530008274FCF0312082773CF0312082791CF19
:100D630003120827A8CF03120827D6CF0312082798
:100D7300F1CF03120827B2D70312082714AA0312CC
:100D8300082724AA0312082729AB031208275BAB01
:100D93000312082781AB03120827A4AB0312082709
:100DA300BBAB03120827F5AB031208275AAC031297
:100DB300082793AC03120827D2AC0312082703AD0C
:100DC3000312082723AD0312082743CC0312082775
:100DD30061CC03120827AFCC03120827F7CC031208
:100DE300082796CD0312082722D3031208272CC9FC
:100DF300031208276BCA03120827E48E031208277D
:100E0300638F03120827838F03120827AA8F031205
:100E13000827BE8F031208271690031208273A905B
:100E230003120827AC9103120827709203120827B4
:100E3300D092031208272193031208275893031211
:100E43000827C49303120827F093031208276D940D
:100E530003120827C19403120827B9C503120827F0
:100E6300D2C50312082759C60312082701C7031264
:100E7300082729C703120827B5B60312082729B77D
:100E83000312082734B70312082755B7031208279C
:100E930069EF021208276CEF0212082715F00212FD
:100EA300082754F00212082783F002120827B9F02A
:100EB30002120827E7F00212082731F1021208276D
:100EC30078F102120827EBF20212082718F3021234
:100ED300082745F302120827C8F30212082769F40A
:100EE300021208279FF40212082737F60212082776
:100EF30001F702120827F1F7021208272DF8021250
:100F0300082765F802120827E2BD031208271EBE50
:100F13000312082708BF03120827F2BF031208278A
:100F2300ABCD03120827E1CD03120827FBCD031233
:100F330008273DCE031208274DCE03120827E7CE1C
:100F430003120827F1CE031208270BE60212082723
:100F530015E60212082756E602120827DBE60212FC
:100F63000827F8E60212082798E70212082736EA4C
:100F7300021208273FEA0212082786EA021208270C
:100F8300AFEA0212082707EB021208278FEB0212BF
:100F93000827CFEB0212082727EC021208278FEC51
:100FA30002120827C2EC0212082736ED02120827A4
:100FB3008DED02120827C8ED02120827FBED02127D
:100FC30008270DEE021208271FEE021208273EEE35
:100FD30002120827E7EE021208272FEF0212082752
:100FE30027D20312082706C20312082774C203126A
:100FF300082793C20312082789C30312082700A2F4
:10100300021208272BA30212082760A30212082743
:10101300FBA4021208272CA502120827B6A7021266
:101023000827F6A7021208278AA90212082727AA67
:101033000212082779AA02120827FBAA021208271C
:1010430033AB0212082775AB02120827EBAC02126E
:10105300082789AE02120827D8B00212082706B162
:10106300021208272AB10212082733B102120827F5
:1010730089B10212082724B202120827E6B5021228
:101083000827BED803120827D4D80312082721D76C
:1010930003120827D6B003120827E8B00312082763
:1010A30082B103120827BDB103120827D8B1031276
:1010B3000827FCB1031208273DB2031208276DB2BB
:1010C300031208279EB20312082714B40312082739
:1010D3006588031208278989031208273E8A0312A9
:1010E3000827D78B031208273A8E03120827948EFA
:1010F3000312082727D10312082786D103120827D2
:10110300C4D10312082705D2031208271070001256
:1011130008275E70001208273A7100120827C97168
:101123000012082716720012082768720012082797
:10113300C57200120827D97200120827C37400125F
:1011430008272F75001208275975001208272777DB
:101153000012082742770012082783770012082716
:10116300BF77001208271878001208273178001279
:101173000827447800120827B87800120827387A1D
:10118300001208276D7A00120827957A00120827A3
:101193009A7A00120827F27A00120827947B001229
:1011A3000827B97B00120827C37B00120827C67BD8
:1011B300001208272E7C00120827497C00120827FA
:1011C3005C7C00120827C07C00120827F37C001205
:1011D3000827D5D603120827EDD603120827ABF844
:1011E30002120827FAF8021208279DFA02120827AA
:1011F30035FC0212082777FC0212082793FD02121E
:101203000827CEFE02120827F0FE021208273AFF33
:1012130002120827BBFF02120827C6CA02120827B8
:10122300FACA02120827D1CB021208274ACC0212AB
:101233000827A6CC02120827E8CC021208275ECDA5
:1012430002120827E1CD021208275ACE02120827FC
:10125300A1CE02120827B1D2021208276ED40212BD
:10126300082793D40212082772D50212082775D5CE
:101273000212082748D60212082787D70212082726
:10128300A9D802120827E8D80212082709DA02129D
:101293000827FCDA0212082795DB021208276FB62B
:1012A3000212082712B70212082786B7021208276C
:1012B30095B70212082713B8021208278AB8021238
:1012C3000827B3B902120827D7B90212082750BA60
:1012D300021208279BBA02120827F9BA021208273A
:1012E300D9BD02120827FEBE0212082774BF0212DC
:1012F300082760C1021208270EC202120827B8C2CB
:101303000212082717C3021208277CC302120827F8
:10131300EAC4021208278BC602120827B7C70212B3
:10132300082751C802120827BBC80212082797C909
:10133300021208270AD9031208270DD90312082716
:1013430095BB03120827C8BB0312082781BC0312ED
:101353000827E9BC031208275DBD031208275DA611
:10136300031208277CA603120827CBA6031208271B
:10137300E7A60312082717A70312082727A70312B4
:1013830008273DA70312082756A70312082720A8FA
:101393000312082759A80312082763A80312082772
:1013A30074A9031208277FA90312082791A903121E
:1013B30008279AA903120827A4A90312082735A20C
:1013C30003120827E8A503120827F6A50312082726
:1013D3001B7E001208276CD70312082769D8031253
:1013E300082732D80312082795D803120827DED816
:1013F300031208270080021208273A8002120827E6
:10140300678002120827128102120827D98102126B
:101413000827268202120827808302120827B68330
:10142300021208274D8602120827AE8802120827E7
:10143300608902120827ED8902120827F98902122E
:101443000827C98C02120827FA8C02120827528D2A
:101453000212082754FF01120827008E02120827E0
:10146300ED8E02120827FA8E021208270E8F02123F
:1014730008271C8F021208271F8F021208274E8F7E
:1014830002120827878F02120827059102120827E4
:10149300B59102120827D59102120827CC920212A5
:1014A3000827CF92021208272B9302120827D694FB
:1014B30002120827359502120827EA950212082717
:1014C3000296021208275F960212082787960212D5
:1014D3000827A89902120827689A02120827B09AC7
:1014E30002120827109B021208272F9B02120827BB
:1014F300239C02120827A69E0212082718A0021294
:101503000827B4A002120827B7A102120827D5A101
:1015130002120827808201120827928201120827EB
:10152300B182011208271D8301120827AA83011221
:1015330008277C8401120827ED84011208270885F7
:10154300011208272C850112082767850112082735
:10155300A48501120827C7850112082715860112E1
:101563000827EF8601120827A08701120827308871
:10157300011208272089011208276389011208270D
:10158300878901120827D98901120827FE890112C8
:101593000827308B011208275D8B011208276F8BF8
:1015A30001120827798B011208270C8C01120827D6
:1015B3007B8C01120827248D011208272C8D011220
:1015C3000827058E011208277B8E01120827B88E83
:1015D300011208271B8F0112082771900112082797
:1015E300919001120827F390011208278D9101129F
:1015F3000827E691011208277592011208273193F3
:10160300011208276F9301120827DE93011208279E
:10161300389401120827709401120827A295011229
:101623000827DC96011208273D97011208278697A1
:1016330001120827AE9701120827319801120827D3
:10164300B19801120827249901120827359901122C
:101653000827A99901120827449A01120827869A94
:10166300011208270C9B01120827489B0112082727
:101673005B9B01120827A99B01120827EA9B011211
:1016830008276F9D01120827049F01120827399F1D
:1016930001120827D69F0112082715A00112082757
:1016A30050A00112082734A10112082770A30112C8
:1016B30008277AA30112082784A3011208278EA3FF
:1016C30001120827A8A301120827B2A301120827B1
:1016D300BCA301120827C6A301120827EBA301121A
:1016E300082748A4011208276CA40112082790A414
:1016F30001120827EFA40112082746A501120827A3
:1017030064A501120827D4A50112082711A6011206
:10171300082758A601120827C0A6011208274FA7B9
:10172300011208278AA801120827DAA8011208273C
:1017330010AA0112082774AB0112082700AE011288
:101743000827D2AF0112082789B101120827EFB188
:1017530001120827FFB201120827B0B301120827AC
:10176300F5B301120827A6B40112082734B50112F4
:1017730008275CB5011208271EB60112082704B911
:101783000112082729B9011208277BB9011208277A
:1017930079BA01120827B1BA01120827F1BA011266
:1017A300082750BB011208276EBC01120827CEBCC4
:1017B30001120827B2BD01120827BCBF0112082776
:1017C300DEBF0112082771C101120827B7C1011238
:1017D30008278BC2011208271EC3011208274DC315
:1017E3000112082778C30112082763C401120827CE
:1017F3009FC40112082701C5011208278FC50112D2
:10180300082792C50112082701C6011208272123C0
:1018130000120827732300120827CA25001208277D
:10182300162600120827092700120827742700121A
:101833000827B527001208270B29001208272E2B8B
:1018430000120827C52B00120827592C001208275D
:10185300283300120827BC33001208273936001238
:1018630008271D3700120827C23700120827DB3864
:1018730000120827053C00120827C83D001208275C
:10188300283E00120827DC3E00120827853F00127D
:101893000827B03F001208273D40001208272141C6
:1018A30000120827F5410012082793420012082767
:1018B300C04200120827E24200120827FE44001229
:1018C3000827D045001208271D46001208278E4618
:1018D300001208273C470012082771470012082707
:1018E300BF4700120827EF47001208272D480012B0
:1018F3000827914800120827964800120827F14844
:10190300001208271949001208272F4A0012082736
:10191300904A00120827F34A00120827864B001248
:101923000827BB4D00120827944E001208272450A5
:1019330000120827B4510012082751520012082739
:1019430090530012082729540012082771540012DB
:101953000827E45500120827F855001208270556F2
:10196300001208272056001208272C5600120827B9
:101973004A56001208271C5800120827555800120F
:101983000827625800120827AF5800120827A259E7
:1019930000120827E65900120827785A0012082770
:1019A3007D5B001208274A5C00120827B45D001211
:1019B3000827B95E001208274F5F00120827D25F7D
:1019C30000120827E95F001208270D60001208279C
:1019D30017600012082723600012082741600012D5
:1019E3000827856000120827D66000120827336194
:1019F300001208279461001208279B62001208272F
:101A0300AB63001208274A640012082737650012E7
:101A13000827CE6500120827656600120827356778
:101A230000120827646700120827D66700120827E8
:101A3300846800120827AA6800120827C9690012DF
:101A43000827E86900120827576A00120827D06A96
:101A530000120827F66A00120827226B00120827D3
:101A63006D6B00120827F16B00120827986D0012A6
:101A73000827C16D00120827466E00120827A06EC2
:101A830000120827C56E001208270B6F00120827E3
:101A9300286F00120827D66F00120827A27F0012B2
:101AA3000827ED7F00120827CFC60112082709C7B0
:101AB30001120827DCC701120827B2C80112082740
:101AC300E1C9011208276ACB01120827E8CB0112EA
:101AD3000827AECC01120827CFCD0112082741CE2B
:101AE30001120827A3CE0112082705CF01120827E8
:101AF3000FCF011208274DCF01120827B6CF0112CD
:101B0300082755D001120827D3D00112082786D100
:101B130001120827F8D1011208271ED20112082743
:101B23004ED2011208277BD20112082721D30112BA
:101B3300082731D30112082784D30112082790D331
:101B4300011208279CD301120827A5D301120827E5
:101B530008D40112082768D401120827B9D4011246
:101B63000827D4D40112082704D50112082725D544
:101B73000112082731D501120827B8D60112082708
:101B8300D6D6011208273FD70112082752D70112D0
:101B9300082763D701120827F6D701120827F9D8B7
:101BA30001120827EFD90112082772DA0112082758
:101BB3007BDA01120827DEDA01120827F5DA0112AF
:101BC300082737DB011208277CDB01120827ABDB70
:101BD30001120827E2DB01120827FFDB01120827A5
:101BE30023DC0112082764DC0112082757DD0112E8
:101BF30008279DDD01120827D8DD0112082737DEEB
:101C0300011208275FDE0112082798DE0112082758
:101C1300A6DE0112082707DF0112082744DF01129D
:101C2300082786DF01120827B7DF01120827EBDF39
:101C330001120827F6DF0112082714E00112082712
:101C4300DDE001120827E7E00112082726E101126F
:101C530008273CE101120827A6E101120827BAE18F
:101C630001120827B2E201120827C5E20112082770
:101C7300DAE2011208277AE301120827DEE30112F0
:101C83000827A5E401120827B0E401120827CFE5CD
:101C930001120827EBE50112082743E60112082782
:101CA3007AE60112082794E60112082708E70112D1
:101CB300082799E701120827E1E70112082706EA36
:101CC3000112082770EA01120827DBEA011208272C
:101CD30021ED0112082731ED0112082734ED01121D
:101CE300082740ED0112082754ED011208275CED87
:101CF30001120827A1ED011208274FEE0112082750
:101D0300BFEE0112082723EF01120827BCEF0112CF
:101D1300082756F00112082784F00112082723F13F
:101D2300011208272FF1011208275EF1011208277B
:101D330061F101120827D8F101120827C8F2011234
:101D43000827A0F3011208272AF4011208274BF5EC
:101D530001120827FDF50112082736F6011208279C
:101D630067F60112082770F601120827ACF6011274
:101D7300082793F7011208270FF8011208279FF885
:101D83000112082769F901120827EDF90112082742
:101D930023FA011208276CFA01120827EBFE01123D
:101DA300082760FD011208274DFC01120827D7FB05
:101DB300011208271FFB01120827B2FA0112082794
:101DC300D0A103120827509F031208278E9E0312E7
:101DD3000827159E03120827079E03120827D29D82
:101DE30003120827819D031208275C9D031208270D
:101DF300479D031208272F9D03120827219D0312D5
:101E030008270A9D03120827F09C031208277C9CCD
:101E130003120827AB9B031208274D9B03120827C5
:101E2300339B03120827029B03120827909903127E
:101E330008277B99031208270BCC03120827B2CB80
:101E4300031208276ACB031208274BCB0312082778
:101E5300E1CA03120827BFCA031208270ED10312CF
:101E63000827A8D00312082724D0031208270FD667
:101E730003120827AED50312082793D503120827A8
:101E830083D50312082712D90312082788C7031220
:101E930008277AC70312082730DC02120827CBD49D
:101EA300031208272DD4031208271CD40312082772
:101EB3001ED603120827B8E5021208277EE5021290
:101EC30008274CE50212082716E502120827B5E495
:101ED300021208279FE40212082755E4021208277A
:101EE3006DE10212082780DF0212082728DD0212A3
:101EF3000827DDDC021208273EDC02120827ADDCCE
:101F0300021208278C8D0200000080FBE47300019D
:101F13003636010100010201000103010001040141
:101F2300060605020000070100340801000F09043A
:101F330001010D0100FF0E08000017020000190146
:101F430000FF1A0100011B0100FE1C0100081D0215
:101F530000001F01000120010001210200002301F4
:101F6300000F2402000026010001270100082802B7
:101F730000FF2A0100072B0102402C0100002D0164
:101F830000012E0100012F0100FF30010B1C31085D
:101F930000003A0100083B01000F2F01000003007D
:101FA3007100300160001100700031022003500401
:101FB30080001000610000001400630073007200D1
:101FC300620043000000130006000000000004004C
:101FD30012000000000000000000040004003700AD
:101FE30037003C02440000000000000000006500D0
:101FF30000003500810000000500000083000000A0
:102003000302710230016002110270020102020236
:1020130002028002100261023A004100630273026D
:10202300720262024302000213023800000200023D
:10203300040212020002000200020002040204026F
:10204300370037003C02440200023900000200025C
:102053006502000235028102000205028202830248
:1020630000020304710402046004110470040204F6
:102073000204010402041004610400041404630450
:10208300730472046204430400041304060400048A
:1020930000040404120400040004000400045104B6
:1020A3006400000400040004440400040004000469
:1020B300000465040004350481046400050400047D
:1020C30083040004010371030103010301030103FA
:1020D30001032203020301031003000300030003AF
:1020E3000003000300030003420300032403060369
:1020F300000300030403120325032303250323031F
:102103000403040300030003000344030003000368
:102113002303000365032100350381030003050343
:102123000003000300030101710101010101110119
:1021330001013101010101018001100161013B0035
:102143001400630173017201620143010001130171
:1021530006013D01350004011201000100010001E7
:10216300000104010401330133013C014401320144
:102173003600000100016501000135008101000105
:102183000501820183010001360001000600000001
:102193000F0000000000000000000000000003FF2B
:1021A300FF00000403FFFF0000FFFF0FF401000521
:1021B300C4040320000100000B0000000000000025
:1021C3000003010F0000DA1213007A120100DA1281
:1021D300020032120300381204003E1205004412BA
:1021E3000600501211006E121400741215006212D0
:1021F300FFFF0000015618068018087A180B921882
:1022030010C017025C18056E180762180C38180DF9
:102213004A18FF0000E61B161CEC1BF21B101C04E3
:102223001CFE1B1C1C221C281C341CF81BE01BDA84
:102233001B03EAF5E5D5D5C5B5A5959585857575D2
:102243006565555545453535252515150500160F85
:1022530000000B150B020002220F32000006D61CF1
:10226300E81CEE1CB01BF41CAA1BB61BEA1AE41AEA
:10227300201B261B1A1BD21A361D541D5A1D3C1D2A
:10228300481D421D00383C3E363B3B352B432C302A
:102293003016181920231A1C1E3000034948424DDA
:1022A30018172505020C0E020B040B0A0708000F72
:1022B30000011916181616152303003030171819C4
:1022C30021301B1D1F302A1DFA1C001D0C1D061D6D
:1022D3000A1C2E1C4E1D3A1C401C02040201010163
:1022E3000109020005150D09100804F61AFC1AF07D
:1022F3001A2C1B00000000000000BE040A021B147D
:102303001B2800E803040015000E00030908101041
:1023130004011E0C05080F1EFF000009030AC082FA
:10232300C083E9901942F0E49018F7F0120F089077
:102333001956E4F0A3F0901943F0A3F0121A3C12DB
:10234300157A121718120F0E9018B7E4F0A3F09035
:102353001968E07002A3E0600990196812587912B5
:102363001F0F902319E493FA79021213A002488AEB
:1023730074F212037FEAFEEBFF74805FF9E47001ED
:10238300E96061901942E0F9120F868A088B09EA25
:102393007001EB60467B0080010BEB75F003A42416
:1023A300F7F8E5F03421F988828983E493FA74FF1E
:1023B3006A6021850882850983E06A70DCAA08AB1C
:1023C3000988828983A3E493C0E0740193F583D0E1
:1023D30082121F0FAA08AB09120F7AEEFA74806FEC
:1023E300FB0225B374205FF9E47001E9601D121943
:1023F300108A088B09EA7001EB600A12184AAA08CE
:10240300AB09120F7AEEFA742080D4EE54207003D5
:102413000224E4750C001244F07001EB700B7C0293
:102423007D007A207B0012691C7C0079047A007B92
:10243300001218DA8A088B09800D74018882898357
:10244300F0850A08850B09E5087002E509606D7CD3
:10245300007904AA08AB091218DA8A0A8B0B750CE7
:1024630001E508240412696E24FFF0A3E034FF128F
:102473006BD47002A3E070C9E5082409F8E50934B8
:1024830000F9850882850983A3A3A3A3A3A3A3A318
:10249300A3A3E0640170A3850882850983A3A3A392
:1024A300A3A3A3E054047092740688828983F07A0C
:1024B300B78508828509831226FE80851218AA7CB7
:1024C3000079017A007B001218DAEA7001EB7009D7
:1024D300E50C70057A201225BF74206EFAEF0223F3
:1024E300E3EE5410600712174E741080EEEE544062
:1024F30060071217A8744080E2EE5480600712163A
:102503006A748080D674015FF9E47001E9601A90FF
:10251300196AE07002A3E0600990196A12587912EF
:102523001F0FEEFA74010223E274085FF9E47001ED
:10253300E9602D121724901862E06401701B901853
:1025430063E06015FC75F0E8A4CCAAF075F003A471
:102553002AFD7A007B0812691CEEFA74080223E252
:1025630074105FF9E47001E96012901954E060059A
:10257300E4F0121724EEFA74100223E274025FF9F6
:10258300E47001E9600A121A36EEFA74020223E2D9
:1025930074045FF9E47001E96012125C1C125A7250
:1025A3007901123713EEFA74040223E27A007B00F6
:1025B3008005740312083C7F060205897B0090198D
:1025C30042E0F91210B82274F712037F74E1120982
:1025D30008EAFEEBFFEE7001EF6033851882851980
:1025E30083AC82AD8312193A7406120B05E0601EA8
:1025F3007417120B05E0FD7401120B05E0FCEEFAF3
:10260300EFFB7900121508E9600479A480027900D0
:102613000249DF74F512037FEAFEEBFF8E828F839C
:10262300A3A3A3A3A3A3E054406018126286600689
:102633007AFF7BFF806A8E828F83124DB2FAA3E00A
:10264300FB80539018E2E0A2E15048125FB2241CD1
:10265300F8EB1244DB7508FE7509FF780812085F72
:102663001232AF12068C79008C828D83125EA6A380
:10267300A3A3E0F5088C828D83125C09A3A3E0FD7C
:10268300AC088A828B8312555A12172A74041208D3
:102693003C800312195E74FE6A700374FF6B60431F
:1026A300125875125DA31219DCE98E828F836006BE
:1026B3001226F7E480051226F77401F07C1A7D18C0
:1026C3008E828F8312555A12139AE9F5087017EE0A
:1026D3007001EF60097901EEFAEFFB1218B6A90851
:1026E3000261157508CDAA088E828F831226FEE932
:1026F30060DD80EAE0240D12500E22E0240C124A21
:102703002AF91218262274F612037FE9FEEAFF7AE9
:102713000F7B00120F74EA7001EB6019740C8A824C
:102723008B83F0EEA3A3F0EF8A828B83A3F0125A7C
:102733006379008028EEF91218E08A088B09A8084B
:10274300A909E87001E96013740688828983126B12
:10275300D9E0F91217BAEEF91218BC7910025870C1
:10276300EAFCEBFD7A017B00901942E0F91210AC10
:1027730022C082C0837900EA241DF582EB1232B5B0
:1027830012555A9018E2E0A2E18A828B83E0500E40
:1027930012071101010A9E2700B2270980111207AF
:1027A300110103049E2702079E270A9E27B22702D0
:1027B300488A74EE12037FEAFEEBFF8C088D0989C9
:1027C3000E7412120B05E0F510A3E0F511851082CB
:1027D300F583E4F0A3F01228E7EE241DF8EF3400AC
:1027E300F9880C890D8882122900601F850A828569
:1027F3000B83122BBF7014850A82850B83124B6ADD
:10280300851082851183125A728003750E00850C20
:1028130082850D83124DB21206520109862835288E
:102823004D285B286628862890288628AA28C3284E
:10283300D628781012085FAC08AD09EEFAEFFB1248
:102843001736740212083C0228DFAC08AD09EEFA11
:10285300EFFB12173C0228E2A90EEEFAEFFB121966
:10286300F48079126D5564027019E50E700A12280E
:10287300F47003A3E0697067EEFAEFFBA90E121977
:10288300AC8059750E007901120F1A80521228F488
:102893007003A3E06970EC126D55640270E5EEFA03
:1028A300EFFB121994803890196CE07002A3E0607A
:1028B3002EEEFAEFFB90196C125879121F0F801F3E
:1028C3001228F47003A3E06970B9EEFAEFFB121A51
:1028D30000800CEEFAEFFBA90E121A0CE9F50EA913
:1028E3000E0244CCEE2409F8EF3400F9880A890B70
:1028F30022850A82850B8312610EE06822F583121A
:102903004DB6F91219BEE92274ED12037F74DE127B
:1029130009088A088B09EA2402F510EB12518AF997
:102923001218E08A0A8B0BAE0AAF0BEE7001EF7040
:10293300030229F2E508240C125D7E122B1D2406E6
:102943001232A7850882850983A3858208858309B6
:10295300E064F16017E064CD6012E0641A600DE09A
:1029630064E96008E064E16003022A7C850E8285E5
:102973000F83A3E05408F9E47001E9607F740585CF
:102983000A82850B83F0901970E07002A3E060095E
:10299300901970125879121F0F901972E07002A3E8
:1029A300E060339018E2E0A2E1502B8E828F831215
:1029B3006280A3A3A3A3A3A3A31249E91232C1EA8A
:1029C3007001EB6011850882850983E0F990197223
:1029D300125879121F0F850A82850B83E0640270F7
:1029E300037406F0851082851183E0F91218BC1276
:1029F30018AA742212083C7F0B0205897900121869
:102A0300B6E960759018E2E0A2E140030229891259
:102A1300664C7002A3E070030229897403120B054C
:102A2300126633850882850983E064E9701A122BE4
:102A330025120863850882850983E0F5127812124E
:102A43000863123BC212083C740C120B0512555A50
:102A5300125875125DA37900740E120B05124D8C7A
:102A6300740C120B051232F17003022989850E8250
:102A7300850F83124D96022988850882850983E094
:102A8300C0E07402120B05D0E0F01267CAEE240B0B
:102A9300126D58851882851983AA82AB837005123B
:102AA30016A080031219B87402120B05E064E970D2
:102AB30014122B251208637512E978121208631297
:102AC3003BC212083C9018E2E0A2E140030229D97C
:102AD300850A82850B83E064027027850E82850F49
:102AE30083E05404601C126286701312587574FFDD
:102AF300F0A3F07405850A82850B830229E674032B
:102B030080F3850882850983E064E960030229D99B
:102B1300EEFAEFFB121A120229D9EE2409126925E3
:102B2300EE22125FB775120178122274F512037F39
:102B33008A088B09750A00EA2409124B5DFEE9FF36
:102B43008E828F83122BBF7003750A018E828F834F
:102B53001254687003A3E06B7006E50AD2E1F50A2C
:102B6300E5082402FEE5093400FFE50A60138E82BE
:102B73008F83E07006E50AD2E58004E50AD2E6F524
:102B83000A1219DCE964017006E50AD2E0F50A8E3F
:102B9300828F83E06017E508241DF582E509340080
:102BA30012290064016006E50AC2E0F50AE50AA2FB
:102BB300E14004D2E7F50AA90A02611512629164A1
:102BC3000222C082C08379018A828B83A3A3E0C3DC
:102BD30094024001198A828B83A3A3A3A3E0C39425
:102BE30002400279008A828B83A3A3A3A3A3A3A396
:102BF300A3A3124D8C74F86C700374FF6D601E7484
:102C0300F96C700374FF6D601474FA6C700374FFD5
:102C13006D600A74FB6C700374FF6D700279008A37
:102C2300828B83A3A3A3E0FC9018E5E06C60027998
:102C330000902315E493C394805018E493C333C0E6
:102C4300E0EA2411F582EB126D5BFAD0E0C39A50EF
:102C530002790002488A74E812037F74DC120908BF
:102C6300EAFEEBFF7403120B05125B757514007516
:102C730015007405120B05AC82AD838E828F83A37E
:102C8300A3A3125D8F12555A12193AE9600F740506
:102C9300120B05AA82AB83121844E970087901125A
:102CA3000F1A02329DEE241B124B647412120B0591
:102CB300125A72740B120B05E06023741C120B057D
:102CC300E0FD7406120B05E0FC8E828F83A3A31232
:102CD300555A7901121508E96004790280C1740517
:102CE300120B05AA82AB8312183EE9F508740B1286
:102CF3000B05E070299018DFE06023742255086407
:102D030022601B74425508644270CF7422120B0573
:102D1300124DB2FA74066A600574076A70BCE9A2C0
:102D2300E650127405120B05AA82AB8312182CE924
:102D33007003022CA0EE2412F516EF3400F517EE03
:102D4300242A122B20242C1232B21238D4E06870B9
:102D530003A3E069701C75090078091208637809F8
:102D6300120863EE242E1232B91232CD123BD21264
:102D7300083C740B120B05E07003022E171232CDC0
:102D83001232C18A0A8B0BA80AA90BE87001E970F9
:102D930003022EBB7406120B051232C8FAA3E034E9
:102DA30000FB740D2AF582E43BF583E0FAE8240482
:102DB300F50AE9126928E82403F582E9126D5B6AD2
:102DC300600DEAF0908266780C120AAE1233127923
:102DD300047406120B051232C8FCA3E034008C8283
:102DE300F583A3AA82AB83120F628A0C8B0D8C0E20
:102DF3008D0F850A82850B837810120AAE781079BD
:102E03000C120A60500302329D908272780C1209F0
:102E130071123312EE24241232A7EE2430F50CEF94
:102E2300125D82EE242F1269259018E2E0A2E15090
:102E330003022F549018F7E0FA74046A60087409C7
:102E43006A600302329DE508A2E54003022F0112E6
:102E530032F9C0E07401120B05D0E0123BFCC0E074
:102E63007402120B05D0E0F07416120B05E0640136
:102E730070207410120B051232DD7003A3E0697029
:102E830011740E120B05122BBF70077416120B056B
:102E9300E4F0850E82850F831206887404120B05F5
:102EA300AC82AD837409120B05AA82AB831216A6FA
:102EB300740412083C02329D90193CE064016003E3
:102EC300022E177422120B05124DB264067009E527
:102ED30008A2E65003022E177412120B05E064FFDA
:102EE3007004A3E064FF700302329DEEFCEFFD74F7
:102EF30005120B05AA82AB8312185002329DA2E67B
:102F0300400302329D7422120B051232E9701E74C3
:102F13001C120B05E06402600302329D7405120B60
:102F230005AA82AB8379001219AC02329D74076A39
:102F3300600302329D741C120B05E06404600302FB
:102F4300329D7405120B05AA82AB831219A00232BB
:102F53009D7416120B05E0601D8E828F83A3A3124E
:102F63003BEE1412535CA3123BEEC0E07416120B3B
:102F730005D0E0F07006E508C2E7F5089018F7E021
:102F8300FA74046A600574096A7061740E120B05A1
:102F93001254687003A3E06B60171219DCE9640232
:102FA300600F740A120B05E05403640160030232DC
:102FB3009D7407120B05E0701B1232F9C0E0740117
:102FC300120B05D0E0123BFCC0E07402120B05D0DB
:102FD300E0022E947422120B051232E97003022FC1
:102FE3001274076A600302329D022F387509007458
:102FF3006155087003023108E508A2E05070851698
:1030030082851783124D8C7405120B05AA82AB833C
:103013001217AEE9705512196AE9F5097416120B05
:1030230005E0700F7410120B051232DD7003A3E07C
:1030330069603BA909851682851783124D8C740537
:10304300120B05AA82AB831217B4E96013740E1234
:103053000B0512618E120B05125A72751404800E41
:10306300E508C2E5F508750900800353089FE508E4
:10307300A2E5503C1232F9C0E07401120B05D0E016
:10308300123BFCC0E07402120B05D0E0F0850E8207
:10309300850F831206887404120B05AC82AD83740A
:1030A30009120B05AA82AB831216A6740412083CFC
:1030B300E508A2E640030231D57403120B058582AD
:1030C3000A85830B780A12085FA90985168285177A
:1030D30083124D8C7407120B05AA82AB831218322C
:1030E300740212083CE9F50970030231D574221207
:1030F3000B05124DB2640160030231D574104514FF
:10310300F5140231D57407120B05E06401703B74AA
:1031130022120B05124DB26405702F7403120B05B6
:10312300858208858309780812085F7900851682ED
:10313300851783124D8C7407120B05AA82AB831279
:103143001832740212083C02329D7416120B05E009
:1031530070127422120B05124DB264036003022E27
:10316300EE02329D1218B0E9600302329D740E1212
:103173000B0512618E120B05125A7278091208633D
:10318300741E120B05AC82AD83740F120B0512551E
:103193005A740A120B05E0F91217F0740112083C75
:1031A300E9600F7514208E828F83A3A3124DB2544E
:1031B3003FF079007410120B05124D8C740E120B34
:1031C300051232F1600674204514F51412196AE9E8
:1031D300F5097403120B05E064FE7004A3E064FFB9
:1031E3007003750900E508A2E7400302329DE50973
:1031F300700302329D8E828F83A3A3A3A3E0FA7B85
:1032030000120FF28A0A8B0BEA7001EB7003023291
:103213009D8E828F83A3A3E0F50CA3E0F50D750EBD
:1032230000780C12085B8E828F83A3A3A3A3E0FC18
:103233007D001241DE12083C7407120B05E085186D
:1032430082851983F07401120B05E4F0A312524432
:1032530085820C85830D780C12085F781412085F41
:10326300E509F50878081208638516828517831225
:10327300068C8E828F83A3A3A3A3E0F9740A120B97
:1032830005124D8CAA0AAB0B121928740712083CBD
:10329300E96007AA0AAB0B120FF8742412083C7FEB
:1032A30010020589F50EEF3400F50F22EE240EF51A
:1032B30082EF12699922F582EF125C44F922124AD5
:1032C30024121A60221265812A22850A82850B83C1
:1032D300124B8085168285178322124E8A851682A9
:1032E300851783E06822124DB6FA74046A22124AE3
:1032F30024121730E922EE242E125C4185188285B0
:10330300198312330922F0850A82850B83E0228513
:103313000A82850B83E50CF0A3E50DF0A3E50EF01F
:10332300A3E50FF02274F212037FEAFEEBFF8C0891
:103333008D091228E78882F58312555A901862E0A6
:1033430060119018E8E06A7003A3E06B7005121730
:1033530024805379001217CC8A828B83E582700212
:10336300E583603AA3A3A3A3A3A3E05418602FE5C6
:1033730008241BF582E5091232B512068CE50824F0
:1033830012F582E5091232B512068CEE24181232B8
:10339300B91233AC1217FC740412083C800879008C
:1033A3001233AC1217480225BA850A82850B8312A1
:1033B3004B80EE240B124A1D2274EE12037F74EA33
:1033C3001209088A0C8B0DEA2402F50EEB1232AABD
:1033D3000A0AFB12159E8A088B09AE08AF09750904
:1033E30001850C82850D83A3E0F508750A01AC0EF7
:1033F300AD0F851882851983AA82AB8312110674D7
:1034030008120B05125B75740A120B057402F07433
:1034130013120B05E4F0E50C240AF50CE50D125D1F
:1034230082901A62E07010EE7001EF700AE5087086
:10343300067509C30235929018F7E06408600675B3
:1034430009C202358E850C82850D83E0A2E1500E00
:10345300A2E35005750A04800C750A038007A2E3F2
:103463005003750A02EE7001EF60648E828F83A3AE
:10347300A3A3A3E0FA74046A600574036A700C746E
:1034830004650A601C7403650A601674026A6005A9
:1034930074016A70207402650A60067401650A701B
:1034A3000F8E828F83123ED6120B05125A72801F23
:1034B30074026A600574016A700A8E828F831240F7
:1034C30033121F0FAA0EAB0F1215AA7E007F0074D2
:1034D30008120B05E064FE7004A3E064FF70381269
:1034E3001574E97032E5086017901934E0640270CE
:1034F3000F901A69123ED6120B05E8F0A3E9801665
:10350300850C82850D83E05402F912175A74081250
:103513000B05EAF0A3EBF07408120B0512363270B8
:103523000374FF6B70057509C78060E508F50B78B8
:103533000B120863850C82850D83E0F9AC0EAD0F89
:103543001216BE740112083CE97040A90AAC0EAD14
:103553000F7408120B0512370C8A108B11AE10AFC3
:1035630011EE7001EF601C74026508700BEE240508
:10357300126D5854FB4408F0740A120B05E4F0F57D
:103583000980087408120B05125B75E508700F8536
:103593001882851983AA82AB8312137C8010FCA93D
:1035A3000A851882851983AA82AB8312199AE9FACC
:1035B300EE7001EF603EEE2405F8EF3400F9E50804
:1035C300601288828983E0D2E6F074026508700491
:1035D300E0D2E5F0850C82850D83E0A2E6500888F1
:1035E300828983E0D2E7F08E828F83A3A3A3A3A370
:1035F300A3E004F0E5097003EA602FFC7D007A0183
:103603007B10120F14EE7001EF6007AA0EAB0F12BE
:1036130015AA7408120B05123632700374FF6B601F
:10362300099018CF125879121F0F74160244C91249
:103633004A2474FE6A2274F612037F74F71209088F
:103643008A088B099018F7E0FA74036A600D740115
:103653006A600874096A60030237098508828B83EC
:10366300A3AE82AF83E060030236EE7C007D007A76
:10367300027B00120F14E50824021244E212610ACD
:10368300125A72795312137079001237139018F784
:10369300E0640960099018F512555A121A5A740118
:1036A3001258A674049018F7F07401120B05AA823D
:1036B300AB83794A12136A7401120B05AC82AD8392
:1036C3007AED7B1812110679007401120B05AC8296
:1036D300AD839018EB12370C9018E2E0A2E350048C
:1036E300D2F08002C2F012588E8018FC7D007A035B
:1036F3007B10120F148E828F83E0F9123713E4903C
:1037030018F7F012188C02586B124A2412158C22E7
:103713009018F5124A241216B822C082C08390185A
:10372300B7E07002A3E070419018F7E012071100B0
:1037330003013F37054E37065D376C379018BFE0FE
:103743007002A3E060769018BF806B9018BBE070A6
:1037530002A3E060679018BB805C9018BDE0700224
:10376300A3E060589018BD804D9018B7E07002A395
:10377300E06009123BEBFC74016C70237900901933
:1037830043800909EA12639EEB1232B51247BA70FD
:1037930001EB70EF90194312555A1216AC801D7449
:1037A300026C7005121A2A801390196EE07002A33E
:1037B300E0600990196E125879121F0F02488A743B
:1037C300F412037F74FB1209088A088B097A0F7BB2
:1037D30000120F748A0A8B0BAE0AAF0BEE7001EF67
:1037E30070030238CF74028E828F8312611B79506B
:1037F30012136A850882850983A385820885830954
:10380300E060030238B89018F512693D700374FF45
:1038130069602F74FE68700374FF696025851882E0
:10382300851983E0687003A3E069601674EA85086C
:1038330082850983123DB07AF57B18795012137093
:1038430080738518828519831238D4125A727AE8E4
:103853007B18795312136A9018E8125A6C7AEB7B2F
:1038630018794B12136A7AEA7B1879E112136A907A
:1038730018FCE0C3940F50229018EAE0C0E07402F1
:10388300120B05D0E0F07404120B057401F07402FE
:10389300120B05AA82AB83121394750A00780A12DD
:1038A3000863780A120863901A12E0F9124284122C
:1038B3003BD212083C850882850983123BAEF07423
:1038C300039018F7F0EEFAEFFB125A6374050254F3
:1038D30001124E8A9018F52274EC12037F74ED12D4
:1038E30009088A828B83A3123BB3EA2408124B5D37
:1038F300FEE9FF851882851983AC82AD838E828FA2
:1039030083123BDBA3A3A3A312555A12189E851857
:1039130082851983E070768E828F83E0C3940B4097
:103923006C850882850983A3A3A3A3A3A3A3A3E010
:10393300640270599018F7E0FAE5082410F510E5D1
:10394300093400F511E5082409125D7E74026A60EA
:103953004174066A603C9018B7E07002A3E0600708
:10396300123BEB6401605474086A600574046A7066
:103973001C7402120B05E0F97407120B05AC82AD3F
:1039830083850C82850D8312555A1218A474130271
:1039930065009018B7E07002A3E0701F750A007805
:1039A3000A120863780A120863851082851183124C
:1039B3003BA51244EA123BD212083C901943126908
:1039C300C39019431264F8E508240DF50EE50912B6
:1039D30032AA80318E828F83E0F8A3123BA5E06880
:1039E3007003A3E06970128E828F83A3A3E0FA852C
:1039F3000E82850F83E06A606B8E0A8F0BEE126373
:103A03009EEF1269C0EE7001EF70C97A187B001245
:103A13000FF28A128B13AE12AF13EE7001EF700325
:103A23000239907C18126B18125B6CEE240C123264
:103A3300B274FFF0E508240B12696E123B9C126B03
:103A4300D3C4123B9CA3A3F0901943E07002A3E0FC
:103A53007005901943800AE50A12639EE50B123242
:103A6300B51267D07401120B05123BBDA3F07402AB
:103A7300120B05123BBDF0850E82850F83123BAE00
:103A8300A3123BFC123B93125367240DFAEF34004D
:103A9300FB7402120B05E06401600E7407120B0540
:103AA300AC82AD8312110680097C087D0079FF1278
:103AB3000F5C7412120B05E0C0E0EE24151232B253
:103AC300D0E0123BF3FC901A12E0C39C400302398E
:103AD3009012694BE5091232B5A3E05480F9E47002
:103AE30001E9700990178AE070030239907D00EEB6
:103AF300240CF8EF3400F9EE240BFAEF3400FB90BA
:103B03001934E06402701D8A828B83E0F50AC39C3A
:103B1300500D7405120B05E0C39405401B801AE594
:103B23000A6C70157405120B05E0C0E08882898366
:103B3300E0FCD0E0C39C50010D7404120B05E0605F
:103B430020ED601D850882850983126127ECF0A3AF
:103B5300ED123BF38A828B83F07405120B05124D31
:103B6300A77406120B05E0600D74018E828F83A388
:103B7300A3A3A3A3A3F07404120B05E070030239FB
:103B83009074018E828F83A3A3A3A3A3F002399021
:103B9300F8A3E0F98E828F8322540F8E828F83A342
:103BA300A322E0F9850C82850D832212410EA32204
:103BB300A3A3E0F508A3E0F5092212410E802185B5
:103BC3000C82850D83123BDB124B7C8A828B831222
:103BD3004A24121970740222E0F98A828B838002CC
:103BE300A3A3A3A3A3A3A3229018B712501EE0225A
:103BF300F0851082851183E022F0850C82850D8388
:103C0300E02274F612037F74C91209089018F7E0D2
:103C130064086062901908E0F82406F582E4341A17
:103C2300F583E0FA9018D9F0E8240CF582E4341A0D
:103C3300F583E0FB9018D7F07508FF7509FFEA7864
:103C430008120A1CE508F4FCE509F4FD3395E0FECF
:103C5300901900123DA57508FF7509FFEBC39A780B
:103C630008120A1CE508F4FCE509F4FD3395E0FEAF
:103C7300901904123DA5E412589C79041213709014
:103C83001908E07009741E120B0574018006741E76
:103C9300120B05E4F0740F851882851983F0901ACE
:103CA3006712611B79461213707401120B05E4F05D
:103CB300901A4DE0C0E07402120B05D0E0F09018AA
:103CC300E5E0C0E07403120B05D0E0F07404120BBE
:103CD30005E4F07405120B05E4F07407120B05E418
:103CE300F0901908E0FAC3940F74065006120B05FE
:103CF300EA8005120B05740FF07C097D1974081214
:103D03000B05AA82AB831211067C037D0079FF7435
:103D130010120B05AA82AB83120F5C901941E0C00D
:103D2300E07413120B05D0E012599C120B051259C3
:103D33008B1219889018FCE0C0E0741C120B05D09C
:103D4300E0F09018FDE0C0E0741D120B05D0E0F028
:103D53009018EAE0C0E0741A120B05D0E0F0901856
:103D6300F5124B6A7418120B05125A727420120B57
:103D730005E4F09018FFE0C0E0741F120B05D0E0DB
:103D8300F07434120B05E4F07429120B05E4123DB0
:103D9300B07414120B05AA82AB8312138E7437020C
:103DA300586DECF0A3EDF0A3EEF0A3F022F07AE867
:103DB3007B187953123DBB221213707AEB7B18796F
:103DC3004B12137022C082C0838A828B83A3E0606C
:103DD30007E49018F7F0804A74089018F7F09019E8
:103DE30008E0701F9018C1E07002A3E0600B790037
:103DF3009018C1125879121F0F9018F5124D8C7A32
:103E030005801A79001216B29018E8124D8C7A06C2
:103E13007B00120F149018EB124D8C7A047B001266
:103E23000F1402488A74F412037F74EA120908EA31
:103E33002402FEEB3400FF0A0AFB12159E8A088B4C
:103E430009EA7001EB7003023ED18A828B83125020
:103E530000600F74026A600A74036A600574046A7E
:103E6300706CEEFCEFFD851882851983125F3912A1
:103E73003ED6120B05125A72740A120B057401F026
:103E83007413120B0512611A121382890AAC0A7D8C
:103E9300007A077B00120F14850882850983A3A388
:103EA300A3A3A3E0C2E0F07401850882850983A37C
:103EB300A3A3A3A3A3A3A3A312699E12022FE8851E
:103EC3000882850983A3A3A3A3A3A3A3A3F07416C2
:103ED300025401124E8A74082274F012037F74F89C
:103EE3001209088A0C8B0D8C0A8D0B890E8518829A
:103EF300851983AC82AD837583817582FE74081244
:103F03000780F50FAC0CAD0D851882851983AA8245
:103F1300AB831265AA7003750F019019438030AC0F
:103F23000CAD0DEE240DFAEF3400126BC6601A854A
:103F33000882850983E0650E700F8E828F83E065AA
:103F43000A7004A3E0650B6032EE24161232B2123B
:103F5300487E7001EF6024EE24021244D1E50F7015
:103F6300BE8E828F83E0650A7004A3E0650B70D96F
:103F7300850882850983E0650E70CEEEFAEFFB02B9
:103F8300535274F712037F901943E0FAA3E0800CB5
:103F9300EA24161269BD120FF8EEFAEFFBEA70017C
:103FA300EB70ED901943E4F0A3F00249E474F412CA
:103FB300037F8A088B09EA240BFEEB3400FFEA2413
:103FC30013F582EB126D5B64037009EEFAEFFB12DB
:103FD300159E800CE0640270548E828F8312697A7E
:103FE300EA7001EB6047EA2406F8EB1228EC850837
:103FF30082850983A3E07007E488828983802D6426
:10400300F16005E064E1701A88828983E0640170DD
:10401300118A828B83124033121F0FEEFAEFFB12C9
:1040230015AA850A82850B83E0600214F00254040A
:10403300124A249018CF12587D2274F112037F8AFA
:10404300088B09ECFEEDFF890A8A828B8312652DAA
:104053008A828B8312410DF0EEF8EFF9A30EAF8342
:104063008A828B83A3A3E0C454F0FA88828983E015
:104073004A12411712410E124112E0333354FCFA33
:104083008E828F83E04A124112A3E033333354F814
:10409300FA8E828F83E04AF008EFF9A30EAF83858F
:1040A30008828B83A3A3A3A3A3A3E0A2E0E492E0EB
:1040B30013135480FA88828983E04AF0E5082407C1
:1040C300F50CEB125D82750E00780C12085B7C0810
:1040D30012517312083C126517E508240F125D7E16
:1040E300780C12085B7C0312517312083CE50AC377
:1040F300940F4011E5082412F582E5091232B51236
:104103003BAEA3A3F07F07020589A3E0023B97120E
:104113004117A322F08508828B83A3A3A32274F102
:1041230012037FEAFEEBFF890A8C088D098E828FCA
:1041330083E08C828D8312535CAE82AF83E0125492
:10414300191241F0C41254191241E4E054038C8251
:104153008D831241EEA2E2E492E08C828D831241C0
:10416300ED131313541F125419A31241EDA2E7E4E4
:1041730092E08C828D83A3A3A3A31241E48E0C8FC0
:104183000D750E00780C12085B7C087D00E5082491
:10419300071241D812083C1265178E0C8F0D780C4C
:1041A30012085B7C037D00E508240F1241D8120836
:1041B3003CE5082412F8E5093400F9E50AC3940F35
:1041C300400A8E828F83A3A3A3E08001E4888289BF
:1041D30083F0024108FAE5093400FB120F5074031F
:1041E30022A3A31253600EAF8322A3A3A3A3F002BF
:1041F30065C874F412037F74F9120908EAFEEBFF31
:104203009018B7E07002A3E06010123BEB640270F9
:1042130009EEFAEFFB121A2480629018F5E06E7033
:1042230003A3E06F705674016960097A097B191260
:1042330065AA70487A007B021244F47001EB703C6B
:104243009018F87808120AAE8518828519837808C1
:10425300120A9F9018FEE0C0E07404120B05D0E030
:10426300F07405120B057401F07406120B05740249
:1042730012611B12165EE9609812166474070254E9
:10428300019018F5124B809018EB22E0F902488A4E
:1042930074F612037F901955E0701F7C0079017A40
:1042A300007B001218DAEA7001EB600E8A828B83BE
:1042B300E07002A3E06003121820025870C082C0AD
:1042C30083124725401079FF1218D4E9FA90231678
:1042D300E493C39A500479018002790002488A74F6
:1042E300EE12037F8A088B09890D750E00EA2408F4
:1042F300F50AEB124D80E0F91218E08A108B11AE2B
:1043030010AF11750C01EE7001EF60030243A88535
:104313000882850983A3A3124D9D12524C12555A4C
:104323001218C88A0A8B0BAE0AAF0BEE7001EF703E
:10433300030244C28E828F83A3A3A3A3E4F0A3F05A
:10434300E508240B1244E2E0C0E0EE240B1232B283
:10435300D0E0F01219E8EE240C125D9CE508240E5F
:10436300F582E509124B671232AF125A72750E01CC
:10437300EE2406F8EF124734E0547FF0A3E054FC38
:1043830012467AE054046003024430901A461252F3
:104393003D74077808120A1C8A828B83E04508F073
:1043A300A3E04509F0EE24061244D98C828D8312D2
:1043B300555A74805AF50874035BF5097407780835
:1043C300120A90E508F510EE2404122B202409129A
:1043D30044D1E50D6060740285088285098312412A
:1043E300F1240D12500AE0A2E2500F9018E3124B91
:1043F3006A850A82850B83125A72E51070030244A0
:104403008F747F5AFA74FC5BFB74FF2510F51074EC
:10441300FF3400F51174077810120A1CE5104AF8EE
:10442300E5114BF98C828D83125A72805FE04480D0
:10443300F0A3E00243A7E5107005750C00804DEA78
:1044430054206015120F6E8A10747F5510F8745F34
:1044530028850A82850B83801BEA5410600E120F95
:104463006E8A10740F5510F8740A80E4850A8285E9
:104473000B837401F0A3E4F0740485088285098337
:10448300F01244F07001EB70031258487401650E8A
:104493007030850A82850B831244EAE0F9EEFAEF65
:1044A300FB1218CEE9601BEE240C1232B21247BA8B
:1044B3007001EB6003120FF8EEFAEFFB120FF875C1
:1044C3000C00A90C800312083C7F0A020589F50839
:1044D300EF3400F50922F8EF124B5FFCE9FD22FAF5
:1044E300E5093400024681124B80025C317A207B5D
:1044F30000901942E0F91210BEEA2274F612037F0B
:1045030074F71209087E001218E0EA7001EB7003D9
:104513000245CB8A828B83A3A3A3A3A3A3A3A3A3B1
:10452300E0640660030245CB8A828B83A3A3A3A323
:10453300A3A3A3E0FF8A828B83125018E0C0E07428
:1045430008120B05D0E012467A125879125EB312A4
:104553005A721218FE74085FF9E47001E960678506
:104563001882851983124D8C7A007B001218C2EAD7
:104573007001EB70519018F5124B6E1213AC7C0066
:104583007D007A007B0080288E828F83125C26E078
:1045930064FF7004A3E064FF602C9018F5124D8C47
:1045A300120B42E9641A601E7C007D00EEFAEFFBF9
:1045B3001218C28A088B09AE08AF09EE7001EF70BA
:1045C300C779001213B27E01EEF902586B74F71229
:1045D300037FEA7001EB700590195680068A828B7F
:1045E30083A3A31247BA7001EB60288A828B83A34B
:1045F300A3A3A3A3A3A3E05408F9E47001E960DD36
:10460300EC7001ED6011124DAE6C7003A3E06D70A0
:10461300CC80047A007B000249E474F212037FEA3F
:10462300FEEBFF890A8C088D097A107B00120FF2CA
:10463300EA7001EB603CE48A828B83A3A3A3A3A368
:10464300A3A3A3124687E50A1249EF125B648A8289
:104653008B83A3A3A3A3E4F01246871246781267C1
:10466300D0EA240CF582EB126BCD124679A3A3F0AA
:10467300A3F00225BAA3A312467E22F08001FB8A8F
:10468300828B8322A31249F3A3A32274F512037F1F
:10469300EAFEEBFF890A8C088D09EE7001EF605684
:1046A3007401650A701479011218D4E9FA90231879
:1046B300E493C39A500F791180657404650A7030CE
:1046C30012472540F18E828F83A3A3A3A3A3A3A3A1
:1046D300A3A3E50A125375126E3BE4F0A3F09019FD
:1046E30056E07002A3E09019566024124B6A800AC8
:1046F3007402650A60CF79C18025E824020808E9BD
:104703001247341248287001E970EF8A828B8312B2
:1047130067D01244F07001EB70031258487900021D
:10472300611579041218D4E9FA902317E493C39A14
:1047330022124B5FFAE9024681C082C083E9FC7909
:1047430000901956801D8A828B83A3A3A3A3A3A3DE
:10475300A3A3A3E06C600574FF6C7001098A828BCC
:1047630083A3A31247BA7001EB70DB02488A74F784
:1047730012037FEA7001EB700590195680068A8256
:104783008B83A3A31247BA7001EB60248A828B83C5
:10479300A3A3A3A3A3A3A3A3A3E06970E1EC601461
:1047A3008A828B83E0240D1265C2A2E240D080048A
:1047B3007A007B000249E4124A24EA22C082C083C1
:1047C30090195680068A828B83A3A31247BA70017D
:1047D300EB60128A828B83A3A3A3A3A3A3A3A3E067
:1047E3006970E280047A007B0002488AC082C08339
:1047F300901956800688828983A3A31248287001E2
:10480300E9601B88828983E0FCA3E0F5838C82E066
:104813006A7003A3E06B70DDE8FAE9FB80047A00B9
:104823007B0002488A124E8AE82274F112037F8ABF
:104833000A8B0B8C0C8D0D750800750900EA70014D
:10484300EB603190195680068E828F83A3A31248A2
:104853007E7001EF601EAC0CAD0DEEFAEFFB850A26
:1048630082850B83121F0FE9640170DCEEF8EFF908
:1048730088088909AA08AB09024108E0FEA3E0FF02
:10488300EE22740212083CD083D0820208247900FD
:1048930002082474F712037F901956124B6A7C00A6
:1048A3007D008007E8FCE9FD124B6AE87001E960CE
:1048B3003AE82402F582E91232B5EA687002EB693C
:1048C30070E212555A9019561269C3E86E7002E9E4
:1048D3006F7009901956EAF0A3EB800EEAF8EBF932
:1048E3008C828D83A3A3E8F0A3E9F00249E474F773
:1048F30012037FEAFEEBFFEE7001EF60161218F869
:104903001249FBEA7001EB6003120FF8EEFAEFFBBA
:10491300120FF80249E474F712037F124DAEFCA3A1
:10492300E0FD901956124B6A7508007E00803388AB
:10493300828983A3A3A3A3A3A3A3A3A3E064057072
:10494300180E88828983E0FFA3E0F5838F82E06CF1
:104953007003A3E06D7002050888828983A3A31204
:104963004B6AE87001E970C7EA2404F8EB3400F9F4
:1049730090230EE493FCE508C39C500B90230FE4B3
:1049830093FCEEC39C400B888289837401F0A3E4FB
:10499300800A9018E31249E9ECF0A3EDF074058A5C
:1049A300828B83A3A3A3A3A3A3A3A3A31249EFE08F
:1049B300F0A3E0440812536E8A828B83E064FF7095
:1049C30004A3E064FF600E9018F5124D8C1213A639
:1049D300E9641A700579011213B28005741F120875
:1049E3003C7F01020589124B800267C51249F322FD
:1049F300F08A828B83023BE48E828F83E0241C1235
:104A03004A2AFAA3E0FB120FF88E828F83124A24FC
:104A1300120FF8EE240C124A1D22F582EF3400F532
:104A230083E0FAA3E0FB22125012E022C082C0838B
:104A3300EAFCEBFDEC7001ED70047905804CEC248D
:104A4300FBF582ED34FFF583E07002A3E07011EC17
:104A530024FFF8ED34FFF988828983E064FF600561
:104A6300120F7A80D5901942124DA7902320E49318
:104A7300F97A587B19120FAAE96401700B7A007B4B
:104A83002012584C79008002790402488A74F41287
:104A9300037FA2AFE492E0F508C2AF901958124821
:104AA3007E7001EF603DEE24FBF582EF34FFF5836A
:104AB300E07002A3E07A007B20901942600512584F
:104AC3004F8005E0F9120FB6750A00750B00780ADE
:104AD30012085FEEFCEFFD7A587B19120FA47402E3
:104AE30012083CE508A2E092AFEEFAEFFB02540491
:104AF30074F712037F74E1120908EA2413F582EBB9
:104B0300126D5BC0E07411120B05D0E0124E81747C
:104B130009120B05124E7A124B57FCE9FD8C828D5C
:104B230083124B6A740B120B05124E7A2414F5820E
:104B3300EB126D5BC0E07412120B05D0E0F0EA24B7
:104B43000EF582EB1232BC8C828D83124B6E1217E0
:104B5300B40249DF2404124B5D22F8EB3400F9E878
:104B630022F582EF126999124E8A22124B80851820
:104B730082851983AA82AB8322A3A3A3A3E0FCA308
:104B8300E0FD2274EE12037F74FC120908EAFEEBC7
:104B9300FF1218B0E960057911024D7BEE2412F57E
:104BA30010EF3400F511EE2402F50AEF124D8012D6
:104BB300628D6008E4851082851183F0EE24131260
:104BC300517C700C902315E493850C82850D83F042
:104BD300EE2411F8EF125D877019901859E0600DFB
:104BE3009018DFE0700D8E828F83E07006E4888278
:104BF3008983F0EE2414080808EF126971700C9091
:104C030018D4124DA79018D4E004F0EE240F1244E8
:104C1300D1EE240B1232A79018E2E0A2E1504F85A7
:104C23000A82850B8312628D60448E828F83E060DB
:104C33000B850E82850F83122902603285088285D7
:104C43000983E05440601A850C82850D83E064017A
:104C5300700F850882850983E054FBF0A3E0F080A0
:104C63000DEEFAEFFB121916E97003024B9A8E82CE
:104C73008F83E06401701A850E82850F83124DB213
:104C83006402700D850882850983E04440F0A3E047
:104C9300F0850882850983E0544070529018E2E061
:104CA300A2E1504A750C00780C120863EE2406FC4E
:104CB300EF3400FD850A82850B8312555A851082D5
:104CC300851183E0F91217F0740112083CE9600CB6
:104CD300E4851082851183F0124D90F079008E8265
:104CE3008F83124D9D1232F16004124D90F085189E
:104CF30082851983AC82AD83EEFAEFFB12192E8AFB
:104D03000C8B0D850A82850B83124D8CEA7001EBA7
:104D130060628E828F83E0C0E07401120B05D0E0E5
:104D2300F07402120B051267D07401120B05858211
:104D33000A85830B780A12085F8508828509831226
:104D4300068CEE240E126D58F5087808120863904D
:104D530018E812068C7407120B05E0F9121928746F
:104D63000712083CE9FE74106E700BAA0CAB0D120F
:104D73000FF880027E10EEF974040244C912692808
:104D8300850A82F58322126996124B802285088256
:104D9300850983E04420F0A3E022124B7C850A823C
:104DA300850B8322E088828983F0228A828B831297
:104DB3004DB622125881E022C082C08374DE1209EC
:104DC300088A828B83A3A3A3A3124B6A740E120BCC
:104DD30005E8F0A3E9124E81740C120B05124E7A0A
:104DE300240DF582EB126D5BC0E0741A120B05D033
:104DF300E0F0EA12694DEB124B677420120B0512B7
:104E03004E7A2415F582EB126D5BC0E07408120B29
:104E130005D0E0F0EA241CF582EB124B6774121202
:104E23000B05124E7A2411F582EB126D5BC0E07410
:104E330009120B05D0E0F074FF851882851983F001
:104E43007401120B0574FFF07402120B0574FFF06A
:104E53009082661206887404120B05AC82AD8374CB
:104E630007120B05AA82AB831216A6740412083C20
:104E730079007422024887E8F0A3E9F0EA22124697
:104E83007EA3A3124E8A22124E8E22E0F8A3E0F9EB
:104E93002274EA12037F74EE1209088A148B15EC4C
:104EA300FEEDFF890F7428120B051264F8742A12A1
:104EB3000B05E0F50C742B120B05123BB5742D1288
:104EC3000B05E0F512A3E0F513750D107A1E7B00B8
:104ED300120FF27402120B05125DA37402120B057A
:104EE300E07002A3E07003024FF4750E00EEFAEFD8
:104EF300FB1215988A828B83E5827002E583601624
:104F0300125000600574036A700CE5085440700683
:104F130074044509F50974045509F9E47001E9605D
:104F230003750E01851882851983AA82AB83795094
:104F33001255517402120B05125018A3125DA3747B
:104F430010120B05E50AF0A3E50BF07402120B0532
:104F5300E0240B12500A7402F0120B05125018745D
:104F630002F0120B051258791267D07402120B0566
:104F7300125FC3E50FF07402120B05E0240C12500C
:104F83000AE50CF07402120B05E0241C12500AE52A
:104F930014F0A3E515F07408120B05125B64740A90
:104FA300120B05E50CF0851282851383C082C08342
:104FB300740D120B05AC82AD83D083D082740312BF
:104FC3000780A90E7402120B05AA82AB831218B6CE
:104FD300E964017011E50E6008A90C1218E01219BA
:104FE30004750D00800B7402120B0512555A120F33
:104FF300F8A90D741212083C7F0E020589A3A3A31E
:10500300A3E0FA74016A2212500E2212501222F8FF
:10501300A3E00267C212501EA3A322125EAE023B9C
:10502300E574EA12037FEAFEEBFF8C088D098E829A
:105033008F83A385820A85830B7408F0EE241612EE
:10504300517C60097410850A82850B83F0EE241766
:10505300F510EF12518A600A850A82850B83E024DA
:1050630008F0EE2411F8EF1269716005750E0E80D9
:1050730003750E00EE240DF514EF3400F515850AC3
:1050830082850B83E0851482851583FAE02A250E39
:105093008C828D83126BD460139018E0E0F91215A3
:1050A3000EE9FA850882850983E02AF0850882855E
:1050B3000983E0FAC3947540097508007509000275
:1050C300516C7B0012687E7001EB700302516CEE31
:1050D300FAEFFB121934EA850882850983125DA46D
:1050E300EE2402F8125C2C12519FF0EE24040808FF
:1050F300125C2CA3A312519FA3A3F0EE241312510D
:1051030095F0EE2414125195A3F07A08850C82854C
:105113000D83E0600FEE2418124D89E50824081270
:1051230064EE7A10851082851183E0600FEE241AF5
:10513300124D898A0CE508250C1264EEEE240B123D
:105143006D58F510A3E0F511751200781012085B85
:10515300851482851583E0FC7D0012555EE50E28DB
:10516300FAE43912517812083CAA08AB09024FFB42
:105173007D00EEFAEFFB0241DEF50CEF3400F50D96
:10518300850C82F583E0223400F511851082F583C6
:10519300E0221269961251A9A3A3A322A3A3126921
:1051A30039A31251A922E0850882850983A3A3A309
:1051B3002274F612037F8A828B83E0FC9018E51237
:1051C300523D74027808120A1CE5084CFCAD09EA4A
:1051D300241212523774067808120A1CE5084CFC94
:1051E300E5094DFDEA241112523774097808120AB1
:1051F3001CE5094DFDEA2416125237740B78081288
:105203000A1CE5094DFDEA2417125237740C78087D
:10521300120A1CE5094DFD8A828B83A3A3A3A3A3D2
:10522300A312523D740A7808120A1CECFAE5094DE0
:10523300FB025870F582EB126999E0F508750900D5
:1052430022F085188285198322E0F9025C3174F01B
:1052530012037F8A088B09ECFEEDFF750A01E9C38F
:10526300940850057900025350E98E828F831253BC
:105273006E121940E96003750A001255A3C0E0EEEF
:1052830024111232B2D0E012559EC0E0EE24121265
:1052930032B2D0E012535CA882A983125570601019
:1052A300E5082408FAE5093400FBEE2413125381C0
:1052B3008E828F83A3A3A3A3A3A3A3A3E0601588D4
:1052C300828983E0FAE5082AFAE5093400FBEE2433
:1052D30015125381EE2419126BCAEE241B126BCAEA
:1052E300126BD3F50B8E828F83E0F50CC3950B50B5
:1052F30003025267850B0EE508250EF8E509340015
:10530300F9EE241DFAEF3400FBEAFCEBFD8C828DF1
:10531300831253672417FAEF3400FB8A088B09E5DD
:105323000CC3950B8A828B83125375A3A3E0601B76
:105333008A828B83E024F2F0E8240EF8E912557A8E
:10534300FA850882850983E0C39AF0A90A80057467
:105353000812083C7F0802058912536022F08E82EE
:105363008F83A322E8F0A3E9F0EE2212467E124ACD
:10537300242212537922F08E828F83023BE6126934
:1053830096EAF0A3EB126939E02408F02274F412D0
:10539300037F8A088B09EA125420F0EA1313543F5F
:1053A300125419A3A3A3F0EAC41313125420A3A302
:1053B300F0E48C828D83A3A3A3A3A3F08A0A8B0BAF
:1053C3007409780A120A9012540EF0EC2418F5822C
:1053D300ED126BCD8A0A8B0B740B780A120A9012AA
:1053E3005409F08A0A8B0B740C780A120A9012542F
:1053F30009A3F0740D7808120A90A9088003120813
:105403003C7F0402058912540EA322E50A54018C41
:10541300828D83023BE4540F8C828D832254038C50
:10542300828D83A3A322C082C08379009018DF12E8
:105433005C13A3A3A3A3E0600FEC70268A828B8383
:10544300A3A3E0701D09801AEC60178A828B83A3E3
:10545300A3A3A3A3A3A3A3A31254687003A3E06B02
:1054630070E302488A124A249018E8E06A2274EE34
:1054730012037F8A088B09890CECFEEDFF8A828B6D
:105483008312555A1219401255A3C0E0EE2411128B
:1054930032B2D0E012559EC0E0EE24121232B2D0E6
:1054A300E012535C85820A85830B1255706010E508
:1054B300082408F8E5093400F9EE24131255908EF8
:1054C300828F83A3A3A3A3A3A3A3A3E0600912557D
:1054D3005EEE2415125590EEFAEFFB121946E9F52C
:1054E3000D7066850A82850B83E0F50EF510E508DD
:1054F3002510FAE5093400FBEE2417F8EF3400F920
:1055030088088909EE241D1244D98E828F83A3A3B0
:10551300A3A3A3A3E07012EAF8EBF98C828D8312A4
:105523005A72E50CC3950E8019EA240EF8EB125556
:105533007AFB850A82850B83E0FAE50CC39A24F291
:10554300C39B850882850983F0A90D0244CC1213FD
:105553006A851882851983124A2422850A82850B5B
:1055630083E0F8E50828F8E5093400F92274081205
:105573005379A3A3A3E0223400F98C828D83E8F04E
:10558300A3E9F09018E0E0F912150EE922126996EA
:10559300E8F0A3E91233092408F022125D7080D2E7
:1055A300850882850983A3A31255D8E0F9EA8E8280
:1055B3008F83A3A3A3A3A3A3A3A3A31255DD125570
:1055C300D8A3A3E0F9EAF8EE240B126996E8125582
:1055D300DDA3A3E022E0FA0251AAF0A3E9125D746D
:1055E30022C082C0837A5D7B1979E212136A7A5DE5
:1055F3007B1902488AC082C0839018E812555A0268
:10560300488AC082C08374FE1209088518828519EE
:1056130083AA82AB83794B125551024885C082C05D
:1056230083794A12136A02488A74F612037F901927
:1056330065E0FE04F0EEF91218E0EA7001EB70EE9B
:10564300EE60EBF902587074EC12037FEAFEEBFF95
:105653008C128D13890E7414120B05E0F50A741560
:10566300120B05E0F50B750C00750D00121A608A1C
:10567300088B09EA7001EB7017E50B6003025760B2
:10568300A90EAC12AD13EEFAEFFB121A72025819FF
:10569300EA2402F8EB3400F9E50E60168882898368
:1056A300E0FAE50E2AFAE4340013EA13F070037407
:1056B30001F0E50B700302574B901970E07002A3E1
:1056C300E06009901970125879121F0FE50A700EE5
:1056D300E4850882850983F0750D010257799018D6
:1056E300E2E0A2E14003025781901972E07002A345
:1056F300E0600FA90AAA08AB09901972125879122F
:105703001F0F850882850983E0FA90231F1269AE73
:10571300EA98E499C365D0335009850882850983E3
:10572300E004F0850882850983E0FA90231FE4935F
:105733006A7043750C01EEFAEFFB121802E4850858
:1057430082850983A3F0802E901A12E0C0E088823C
:105753008983E0FAD0E0C39A501C0256DB740165DA
:105763000B7013E50E600F9018E2E0A2E15015EE06
:10577300FAEFFB1218029018E2E0A2E1402574014F
:10578300650B701FE50A6016901974E004F0C0E021
:10579300901A47E0FAD0E0C39A4008750C01E490F0
:1057A3001974F0E50D7004E50C606B9018E2E0A24B
:1057B300E15030EEFAEFFB1215988A088B09A8081E
:1057C300A909E87001E9601BE82405F582E91232B2
:1057D300B5E50D6004E0C2E0F0E50C6039E0D2E02D
:1057E300F08004E50C602F9018E2E0A2E15012EE85
:1057F300FAEFFB121592E96008EEFAEFFB790080ED
:10580300129018EBE06E7003A3E06F7009EEFAEFED
:10581300FB79011216D0026503C082C08374016A4A
:105823007001EB70077A0112584A8016901A3E12E3
:105833005DA3EA7001EB600512276380057A01120C
:1058430025BF02488A7A207B00901942E0F9120FA3
:10585300B022C082C083901A40125DA302488AC05E
:1058630082C083901A4280F1740912083C7F0202BD
:1058730005898E828F8312587D22125881221258F5
:105883008522E0F8A3E0F583888222A2F0E492E087
:1058930012589C795212137022851882851983F04D
:1058A300024B7712589C79421213702274F412033C
:1058B3007F74EC1209087401120B05AC82AD8312DC
:1058C30059D9901934E0640270367A0479001215BC
:1058D3008012692DEA98EB995017121574E970112B
:1058E3007405120B057401F07407120B0574018023
:1058F300527405120B05E4F07407120B05E48043A0
:105903009082667808120AAE75831975820078084A
:1059130012094860047A0180027A007405120B05AB
:10592300EAF09082667808120AAE758319758204CC
:10593300780812094860047A0180027A0074071219
:105943000B05EA12599C120B0512598B7407120BA3
:1059530005E0700B7405120B05E07003E48002741C
:1059630001851882851983F0901A63E0901A62FA10
:10597300E05AFA851882851983E05A1258A27941B0
:105983001213707414025401AA82AB831218987A0A
:10599300457B197945121370221259CE7401227472
:1059A300F712037F74ED120908E9FE901941125FA3
:1059B300CA1259D97412120B05EE1259CE851882E8
:1059C30085198312598B74130249E1F0901A67E029
:1059D300F97C457D1922901A67E0F97A457B191203
:1059E300189E2274F412037FEAFEEBFF901A69E01B
:1059F30064FE7004A3E064FF705F7A16125BFE70AE
:105A030001EB605574018A828B83126952A3A3A3AD
:105A1300A3A3E06004740280027401888289831264
:105A23005F438A828B83A3A3A3A3A3A3A3A3A312EA
:105A33005C38FCA3E0FDEA24020A0AEB1264F1E5F8
:105A4300082413F582E509126BCD125A5FEE240B7D
:105A53001232B2126103125A72025404AA08AB0939
:105A6300901942E0F9120F8022E0123B93A3A3E8BE
:105A7300F0A3E9F02274F212037F74FD1209088A7D
:105A8300088B09890A8C0B7401120B057404125DCF
:105A9300A98A0C8B0DAE0CAF0DEE7001EF700302F3
:105AA3005B35EE240B124B64740788828983F0A361
:105AB300A882A983E50824081244E2125B598A826A
:105AC3008B83A3125B59850882850983A3A3A3A3B0
:105AD300A3A3A3A3A3A3124DA7EE2416125B51EE17
:105AE30024181232B2125B64EE2417F582EF1263AC
:105AF300A3EE241A125D9C125B4012698E74036537
:105B03000A60067401650A70087440F0A374048087
:105B1300057440F0A3E4F0901A69125A6C7401659D
:105B23000B7006EE2411126BCAEEFAEFFB12164C41
