:020000040000FA
:06000000020A270201BA0A
:03002B0002088E3A
:030033000205DCE7
:030043000207228F
:030053000201099E
:03006B000205B6D5
:100083000201560102020000E10D00000000000021
:100093007D0E0000000000000000060606060600B4
:1000A30014141414140006FFF20AE5817A81010185
:1000B30001007E17000000F217E80364006400B833
:1000C30001020200080000050107051E02051E02C9
:1000D3000A03B80B803E01FFFF0114010101010572
:1000E30003010F10FEFFB71CB71CB71CB71C6D1B19
:1000F300671BB71C821F00000000A820000000003F
:100103000C0000000C00C0E074F21203D2A2AFE4B2
:1001130033FED2AFA9A7A8A1E85954106008120B67
:100123008375A1EF8023E8A2E092F0E9A2E082F0D8
:100133005017906198E0F8900577E0C398A2D265D4
:10014300D0335002E8F075A1FEEEA2E092AF7F013A
:10015300020431C0E074F21203D2A2AFE433FED240
:10016300AF9061A4E0F8759B00E5915854086008CE
:100173007591F7120BC58023E591585410600875EB
:1001830091EF120BCB8014E591A2E092F0E8A2E08C
:1001930082F05007E0C2E0F0120D039061A3E0F893
:1001A300E5E9585404600E120CD975E9FB9061938C
:1001B300E0A2E640F28092C0E074F21203D2A2AF52
:1001C300E433FED2AF9061A5E0F8E5BF5854046074
:1001D3000675BFFB120D1B02014CC3E498F8E499AA
:1001E300F912021E8026C3E49AFAE49BFBE920E796
:1001F300E912021EE498F8E499F922C3E498F8E4BA
:1002030099F912021EE498F8E499F9C3E49AFAE41E
:100213009BFB22EB20E7CFE920E7E0B90010BB000E
:1002230008E88AF084F8AAF022E4FBC8FA22EB700B
:10023300227B10C833C8C933C9335007C39AC3DB01
:10024300F280069A50012ADBEAC833F4C8C933F4B2
:10025300C9FA2275F008E4C833C8C933C933C99A47
:10026300C99B5004C92AC93BD5F0ECFBC833F4C879
:10027300E4C9FA22080808EAC0E0EBC0E086F0E728
:10028300A4FA180986F0E7A42AFA180986F0E7A465
:100293002AFA180986F0E7A42AFA1986F0E7A4FBDC
:1002A300E5F02AFA190886F0E7A42BFBE5F03AFA01
:1002B300190886F0E7A42BFBE5F03AFA181809862B
:1002C300F0E7A4C5F02BFBE43AFA1908E7C5F0C63A
:1002D300A426F6E5F03BFBE43AFA1886F0E7A4F629
:1002E300E5F00826F6E43B08F6E43A08F6D0E0FB2E
:1002F300D0E0FA22E4CFC0E0E4CEC0E0E4CDC0E039
:10030300E4CCC0E075F020E626F608E633F608E60E
:1003130033F608E633F6181818EC33FCED33FDEE2C
:1003230033FEEF33FFC3EC9709ED9709EE9709EF1F
:1003330097191919400FFFEC97FC09ED97FD09EE8A
:1003430097FE191906D5F0BFECF709EDF709EEF79B
:1003530009EFF7191919D0E0FCD0E0FDD0E0FED089
:10036300E0FF222518C582C0E0E51934FFC583C02C
:10037300E0E518C3958224F810AF088583198582B8
:10038300188008858319858218D2AFCEF0A3E520A3
:10039300F0A37808E608F0A3DEFAEFF0A3E58124E2
:1003A300FAF8E608F0A3E608F0A3E608F0A30808C5
:1003B300E608F0A3E608F0A315811581D0E0FED08E
:1003C300E0F8158115811581E8C0E0EEC0E022C098
:1003D300D02518C582C0E0E51934FFC583C0E0E528
:1003E30018C3958224F310AF08858319858218807A
:1003F30008858319858218D2AFC8F0A3E9F0A3EA70
:10040300F0A3EBF0A37908E709F0A3D8FAECF0A383
:10041300EDF0A3EEF0A3EFF0A3D0E0F0A3D0E0F073
:10042300A3D0E0F0A3E520F0A3E5F0F0A322851923
:1004330083851882E0C0E0A3E0F9A3E0FAA3E0FB20
:10044300A37808E0F608A3DFFAE0FCA3E0FDA3E04D
:10045300FEA3E0FFA3E0C0E0A3E0C0E0A3E0F5D08B
:10046300A3E0F520A3E0A3F5F010AF088583198579
:1004730082188008858319858218D2AFD082D083F1
:10048300D0E0F8D0E032120AE1B900030204C8E474
:1004930090030178DA79178002F0A3D8FCD9FA7AAD
:1004A300DA7B19900086788479018015E493A3ADF3
:1004B30082AE838A828B83F0A3AA82AB838D828EE2
:1004C30083D8E9D9E77582D775837C740012080550
:1004D3007582EB75831E7400120805D083D082ECFD
:1004E300C0E0EDC0E0E493A3FCE493A3FDED4C6016
:1004F3000D1205FAEC24FFFCED34FFFD80EFE493CD
:10050300A3FCE493A3FDED4C600D1206CDEC24FF98
:10051300FCED34FFFD80EFD0E0FDD0E0FCE493A3DD
:10052300C0E0E493C0E022D083D082E9C0E0E4934A
:10053300A3C386F0C5F095F0F908E493A386F0C54C
:10054300F095F0700BE493A3C3994005E90480028E
:10055300A3E475F002A42582F582E5F03583F583E3
:10056300D0E0F9E493A3C0E0E493C0E022851983CB
:10057300851882E0A3FEE0A3F5207808E0A3F6083F
:10058300DFFAE0A3FFE0A3C0E0E0A3C0E0E0A3C084
:10059300E0E0A3C0E0E0A3C0E010AF0885821885C7
:1005A30083198008858218858319D2AFD083D082BE
:1005B30002080BC0E074F21203D2A2AFE433FED2FE
:1005C300AFE589A2E15003121E19758900C2C5EE79
:1005D300A2E092AF7F01020431C0E074F21203D2B1
:1005E300A2AFE433FED2AFE58BA2E05003121E1993
:1005F300758B00C2E880D8C0E0C3E4939608740109
:10060300939618400FE49366700808740193661874
:1006130070007019A3A3C3E493960874019396180A
:10062300A3A3400DD0E0D0E0D0E002051AA3A3A31A
:10063300A3A3A3D0E022D083D082C5F0E493A3C5C3
:10064300F0C395F0F5F0E493A3C395F04005E5F00E
:10065300048001E475F002A42582F582E5F0358378
:10066300F583E493A3C0E0E493C0E0227404800420
:1006730074028000CCC0E0EDC0E0E518C39CCCADB3
:100683001950011D10AF068C188D1980068C188D1A
:1006930019D2AF120767D0E0FDD0E0FC22740280CC
:1006A30000CCC0E0EDC0E0E518C39CCCAD1950010F
:1006B3001D10AF068C188D1980068C188D19D2AFBA
:1006C300120745D0E0FDD0E0FC22C0E0C0F088F086
:1006D300E4936670080874019366187000A8F0A389
:1006E300A3700BD0F0D0E0D0E0D0E002051AA3A3B2
:1006F300D0F0D0E022D083D082CCC0E0E493A360DA
:10070300061207C71470FAE493A360061208D914FB
:1007130070FAD0E0FCE493A3C0E0E493C0E022C00D
:10072300E074F21203D2A2AFE433FED2AFC2C0E54B
:10073300D1A2E45003121435EEA2E092AF7F01027E
:100743000431CAC0E0E493A3C582CCC582C583CD7E
:10075300C583F0A3C582CCC582C583CDC583DAE545
:10076300D0E0CA22CAC0E0E0A3C582CCC582C5835B
:10077300CDC583F0A3C582CCC582C583CDC583DA3D
:10078300E6D0E0CA222518F8E43519F9222518FA2B
:10079300E43519FB222518FCE43519FD222518FE42
:1007A300E43519FF22700908080822601618181882
:1007B300C6C333C608C633C608C633C608C633C65F
:1007C300D5E0EA22C0E0E493A3D39C5010E493A3C2
:1007D300C39C400AD0E0D0E0D0E0020715A3A3A356
:1007E300D0E022C008C3E096F50808A3E0964208CB
:1007F30008A3E096420808A3E09645087001D3D009
:100803000822C09FF59FE473D09F22D083D082C07B
:100813009FE493C0E0740193C0E0740293F59F22B8
:1008230000C0D0251810AF08F518500C0519800822
:10083300F51850020519D2AFD0D0227404800A747F
:10084300038006740280027401C0E0F404120859A4
:10085300D0E0120AA4222518F58210AF08F518403B
:100863000C15198008F51840021519D2AF851983A4
:1008730022BB0102E722C082C08389828A83BB0034
:1008830003E08002E493D083D08222C0E0C0D0E8AA
:10089300C0E0A8A8D2AFC2C7E8A2E792AFD0E0F801
:1008A300D0D0D0E0326016080808C6C313C618C6F5
:1008B30013C618C613C618C613C6D5E0EA22C3E08A
:1008C300C696F608A3E0C696F608A3E0C696F60811
:1008D300A3E0C696F622C0E0E493A36C7009D0E0CF
:1008E300D0E0D0E0020715A3A3D0E022251810AF73
:1008F30008F518400C15198008F51840021519D28F
:10090300AF22C3E7960809E7960809E7960809E7BF
:1009130096A2D265D03322C3E09608A3E09608A33B
:10092300E09608A3E096A2D265D03322E066701069
:1009330008A3E066700A08A3E066700408A3E066F3
:1009430022C3E096F008A3E096F008A3E096F0082F
:10095300A3E096F022E026F608A3E036F608A3E02B
:1009630036F608A3E036F622E026F008A3E036F0D8
:1009730008A3E036F008A3E036F022E046F008A32F
:10098300E046F008A3E046F008A3E046F022E04684
:10099300F608A3E046F608A3E046F608A3E046F609
:1009A30022E647F60809E647F60809E647F6080986
:1009B300E647F622E056F008A3E056F008A3E05617
:1009C300F008A3E056F022E056F608A3E056F60836
:1009D300A3E056F608A3E056F622E657F60809E622
:1009E30057F60809E657F60809E657F622E627F60A
:1009F3000809E637F60809E637F60809E637F62266
:100A0300700422600D18C6C333C608C633C6D5E0CA
:100A1300F41822E4C396F608E496F608E496F6087A
:100A2300E496F62275D00075814075180175190397
:100A330000020489600D08C6A2E713C618C613C6D0
:100A4300D5E0F322C3E7960809E7960809E7960875
:100A530009E79622C3E09608A3E09608A3E0960868
:100A6300A3E09622C6F4C608C6F4C608C6F4C608B0
:100A7300C6F4C622600C08C6C313C618C613C6D56F
:100A8300E0F422E6F008A3E6F008A3E6F008A3E604
:100A9300F022E0F608A3E0F608A3E0F608A3E0F6E8
:100AA30022CAC0E0E6F0A308DAFAD0E0FA22E8F0BE
:100AB300A3E9F0A3EAF0A3EBF022EAF0A3EBF0A39F
:100AC300ECF0A3EDF022E0F8A3E0F9A3E0FAA3E051
:100AD300FB22E0FAA3E0FBA3E0FCA3E0FD22E5C7D1
:100AE30054F84401F5C77901222518F582E4351934
:100AF300F58322C2AF75D69F0200002212080E5161
:100B0300930312080E5A930312080E6993031208F3
:100B13000E7F930312080E92930312080E9B930306
:100B230012080EAE930312080E03940312080E026A
:100B3300960312080E36960312080E5896031208EF
:100B43000E71960312080E8A960312080E64970319
:100B530012080E17980312080EBDC20312080EEFF7
:100B6300C20312080EFBC20312080E2DC3031208A0
:100B73000E55C30312080E82C30312080EFFC303EC
:100B830012080E2DC40312080EFAB20312080E1A2D
:100B9300B30312080E59B30312080E68B303120805
:100BA3000E87B30312080EEDB30312080EF6B30358
:100BB30012080E53B40312080E77B40312080E384A
:100BC300B50312080E45B50312080E56B5031208F5
:100BD3000E69D60312080E86D60312080E83AC03E1
:100BE30012080EC4AD0312080ED2AD0312080EE5AF
:100BF300AD0312080EFAAD0312080E0FAE0312086E
:100C03000E22AE0312080E9BAE0312080E32AF0380
:100C130012080E86AF0312080E96AF0312080EB920
:100C2300D30312080EDDD30312080E05D4031208F2
:100C33000E2DD40312080EC4BE0312080EEBBE031E
:100C430012080E09BF0312080E71BF0312080E0B20
:100C5300B80312080E24B80312080E30B8031208A2
:100C63000E44B80312080E62B80312080E6CB803E0
:100C730012080E76B80312080E89B80312080EDBA9
:100C8300B80312080E14B90312080E43B90312086D
:100C93000E91B90312080EE0B90312080EFBB90353
:100CA30012080E05BA0312080E16BA0312080E59DB
:100CB300BA0312080E3DD50312080E008003120872
:100CC3000E2C800312080E49800312080E5C800369
:100CD30012080E72800312080EDF800312080E1230
:100CE300810312080E86840312080EC085031208BE
:100CF3000EF3850312080E57860312080E45870369
:100D030012080E6D870312080E82870312080E92D3
:100D1300870312080ED6870312080E2588031208CC
:100D23000E35880312080EC3CD0312080EDDCD0362
:100D330012080E05CE0312080E1ECE0312080E4231
:100D4300CE0312080E60CE0312080E77CE031208EC
:100D53000EA5CE0312080EC0CE0312080E25D6032D
:100D630012080EE3A80312080EF3A80312080EF8E4
:100D7300A90312080E2AAA0312080E50AA03120886
:100D83000E73AA0312080E8AAA0312080EC4AA033A
:100D930012080E29AB0312080E62AB0312080EA150
:100DA300AB0312080ED2AB0312080EF2AB03120808
:100DB3000E12CB0312080E30CB0312080E7ECB03A8
:100DC30012080EC6CB0312080E65CC0312080EF1EF
:100DD300D10312080EFBC70312080E3AC903120807
:100DE3000E65880312080EE4880312080E048903B3
:100DF30012080E2B890312080E3F890312080E975F
:100E0300890312080EBB890312080E2D8B031208E7
:100E13000EF18B0312080E518C0312080EA28C03E1
:100E230012080ED98C0312080E458D0312080E7199
:100E33008D0312080EEE8D0312080E428E03120864
:100E43000E88C40312080EA1C40312080E28C5039A
:100E530012080ED0C50312080EF8C50312080E843B
:100E6300B50312080EF8B50312080E03B6031208F1
:100E73000E24B60312080E69EF0212080E6CEF027D
:100E830012080E15F00212080E54F00212080E8317
:100E9300F00212080EB9F00212080EE7F00212086F
:100EA3000E31F10212080E78F10212080EEBF20273
:100EB30012080E18F30212080E45F30212080EC8A8
:100EC300F30212080E69F40212080E9FF4021208CC
:100ED3000E37F60212080E01F70212080EF1F7029E
:100EE30012080E2DF80212080E65F80212080EB150
:100EF300BC0312080EEDBC0312080ED7BD03120883
:100F03000EC1BE0312080E7ACC0312080EB0CC0336
:100F130012080ECACC0312080E0CCD0312080E1CC5
:100F2300CD0312080EB6CD0312080EC0CD0312086E
:100F33000E0BE60212080E15E60212080E56E60222
:100F430012080EDBE60212080EF8E60212080E98EB
:100F5300E70212080E36EA0212080E3FEA021208EE
:100F63000E86EA0212080EAFEA0212080E07EB021F
:100F730012080E8FEB0212080ECFEB0212080E2797
:100F8300EC0212080E8FEC0212080EC2EC021208D9
:100F93000E36ED0212080E8DED0212080EC8ED0298
:100FA30012080EFBED0212080E0DEE0212080E1FC0
:100FB300EE0212080E3EEE0212080EE7EE021208CF
:100FC3000E2FEF0212080EF6D00312080ED5C0033F
:100FD30012080E43C10312080E62C10312080E5811
:100FE300C20312080E00A20212080E2BA30212085B
:100FF3000E60A30212080EFBA40212080E2CA50217
:1010030012080EB6A70212080EF6A70212080E8ADD
:10101300A90212080E27AA0212080E79AA021208C0
:101023000EFBAA0212080E33AB0212080E75AB02B6
:1010330012080EEBAC0212080E89AE0212080ED88B
:10104300B00212080E06B10212080E2AB1021208EB
:101053000E33B10212080E89B10212080E24B20235
:1010630012080EE6B50212080E31D70312080E4716
:10107300D70312080EDAD50312080EA5AF03120820
:101083000EB7AF0312080E51B00312080E8CB00353
:1010930012080EA7B00312080ECBB00312080E0CF1
:1010A300B10312080E3CB10312080E6DB10312080E
:1010B3000EE3B20312080EF6CF0312080E55D00347
:1010C30012080E93D00312080ED4D00312080E692F
:1010D300FA0112080E96FB0112080E4BFC011208CE
:1010E3000EF5FC0112080E56FF0112080E9BFF01BC
:1010F30012080EF16F0012080E3F700012080E1B4B
:10110300710012080EAA710012080EF7710012087E
:101113000E49720012080EA6720012080EBA72006F
:1011230012080EA4740012080E10750012080E3A6D
:10113300750012080E08770012080E2377001208B4
:101143000E64770012080EA0770012080EF97700DC
:1011530012080E12780012080E25780012080E9954
:10116300780012080E197A0012080E4E7A0012083F
:101173000E767A0012080E7B7A0012080ED37A00DC
:1011830012080E757B0012080E9A7B0012080EA43B
:101193007B0012080EA77B0012080E0F7C001208BA
:1011A3000E2A7C0012080E3D7C0012080EA17C0062
:1011B30012080ED47C0012080E8ED50312080EA658
:1011C300D50312080EABF80212080EFAF802120841
:1011D3000E9DFA0212080E35FC0212080E77FC026D
:1011E30012080E93FD0212080ECEFE0212080EF034
:1011F300FE0212080E3AFF0212080EBBFF0212088B
:101203000EC6CA0212080EFACA0212080ED1CB0287
:1012130012080E4ACC0212080EA6CC0212080EE8DF
:10122300CC0212080E5ECD0212080EE1CD021208A6
:101233000E5ACE0212080EA1CE0212080EB1D2022D
:1012430012080E6ED40212080E93D40212080E7204
:10125300D50212080E75D50212080E48D6021208DE
:101263000E87D70212080EA9D80212080EE8D80278
:1012730012080E09DA0212080EFCDA0212080E95A1
:10128300DB0212080E6FB60212080E12B702120822
:101293000E86B70212080E95B70212080E13B80293
:1012A30012080E8AB80212080EB3B90212080ED73A
:1012B300B90212080E50BA0212080E9BBA021208A3
:1012C3000EF9BA0212080ED9BD0212080EFEBE02B2
:1012D30012080E74BF0212080E60C10212080E0E2D
:1012E300C20212080EB8C20212080E17C302120875
:1012F3000E7CC30212080EEAC40212080E8BC60249
:1013030012080EB7C70212080E51C80212080EBB0C
:10131300C80212080E97C90212080E7DD7031208DD
:101323000E80D70312080E64BA0312080E97BA038D
:1013330012080E50BB0312080EB8BB0312080E2C82
:10134300BC0312080E2CA50312080E4BA5031208AA
:101353000E9AA50312080EB6A50312080EE6A503FE
:1013630012080EF6A50312080E0CA60312080E258A
:10137300A60312080EEFA60312080E28A7031208ED
:101383000E32A70312080E43A80312080E4EA80339
:1013930012080E60A80312080E69A80312080E7340
:1013A300A80312080E04A10312080EB7A40312081F
:1013B3000EC5A40312080EFC7D0012080EDCD60332
:1013C30012080EA5D60312080E08D70312080E51F1
:1013D300D70312080E00800212080E3A8002120888
:1013E3000E67800212080E12810212080ED98102C2
:1013F30012080E26820212080E80830212080EB60D
:10140300830212080E4D860212080EAE88021208DD
:101413000E60890212080EED890212080EF9890284
:1014230012080EC98C0212080EFA8C0212080E5210
:101433008D0212080E02930312080E008E02120888
:101443000EED8E0212080EFA8E0212080E0E8F0295
:1014530012080E1C8F0212080E1F8F0212080E4E66
:101463008F0212080E878F0212080E0591021208CE
:101473000EB5910212080ED5910212080ECC9202FB
:1014830012080ECF920212080E2B930212080ED6E8
:10149300940212080E35950212080EEA95021208FC
:1014A3000E02960212080E5F960212080E8796022B
:1014B30012080EA8990212080E689A0212080EB0BA
:1014C3009A0212080E109B0212080E2F9B0212089A
:1014D3000E239C0212080EA69E0212080E18A002EA
:1014E30012080EB4A00212080EB7A10212080ED5FC
:1014F300A10212080E37820112080E498201120856
:101503000E68820112080ED4820112080E61830153
:1015130012080E33840112080EA4840112080EBFB0
:10152300840112080EE3840112080E1E85011208BD
:101533000E5B850112080E7E850112080ECC850113
:1015430012080EA6860112080E57870112080EE72D
:10155300870112080ED7880112080E1A8901120892
:101563000E3E890112080E90890112080EB58901F9
:1015730012080EE78A0112080E148B0112080E26B8
:101583008B0112080E308B0112080EC38B01120857
:101593000E328C0112080EDB8C0112080EE38C0153
:1015A30012080EBC8D0112080E328E0112080E6F46
:1015B3008E0112080ED28E0112080E289001120815
:1015C3000E48900112080EAA900112080E449101D0
:1015D30012080E9D910112080E2C920112080EE8BA
:1015E300920112080E26930112080E959301120818
:1015F3000EEF930112080E27940112080E5995015C
:1016030012080E93960112080EF4960112080E3D6D
:10161300970112080E65970112080EE89701120848
:101623000E68980112080EDB980112080EEC98015F
:1016330012080E60990112080EFB990112080E3D63
:101643009A0112080EC39A0112080EFF9A0112089A
:101653000E129B0112080E609B0112080EA19B0142
:1016630012080E269D0112080EBB9E0112080EF0F1
:101673009E0112080E8D9F0112080ECC9F011208C5
:101683000E07A00112080EEBA00112080E27A301FA
:1016930012080E31A30112080E3BA30112080E45D6
:1016A300A30112080E5FA30112080E69A301120819
:1016B3000E73A30112080E7DA30112080EA2A3014B
:1016C30012080EFFA30112080E23A40112080E47ED
:1016D300A40112080EA6A40112080EFDA40112080B
:1016E3000E1BA50112080E8BA50112080EC8A50139
:1016F30012080E0FA60112080E77A60112080E0695
:10170300A70112080E41A80112080E91A8011208A0
:101713000EC7A90112080E2BAB0112080EB7AD01BB
:1017230012080E89AF0112080E40B10112080EA66D
:10173300B10112080EB6B20112080E67B301120806
:101743000EACB30112080E5DB40112080EEBB40126
:1017530012080E13B50112080ED5B50112080EBBFF
:10176300B80112080EE0B80112080E32B9011208CE
:101773000E30BA0112080E68BA0112080EA8BA0197
:1017830012080E07BB0112080E25BC0112080E85B4
:10179300BC0112080E69BD0112080E73BF011208C5
:1017A3000E95BF0112080E28C10112080E6EC10169
:1017B30012080E42C20112080ED5C20112080E040D
:1017C300C30112080E2FC30112080E1AC401120816
:1017D3000E56C40112080EB8C40112080E46C50104
:1017E30012080E49C50112080EB8C50112080E02EF
:1017F300230012080E54230012080EAB2500120812
:101803000EF7250012080EEA260012080E552700CF
:1018130012080E96270012080EEC280012080E0F6D
:101823002B0012080EA62B0012080E3A2C001208E9
:101833000E09330012080E9D330012080E1A3600EB
:1018430012080EFE360012080EA3370012080EBC53
:10185300380012080EE63B0012080EA93D001208DC
:101863000E093E0012080EBD3E0012080E663F0030
:1018730012080E913F0012080E1E400012080E02BD
:10188300410012080ED6410012080E7442001208DD
:101893000EA1420012080EC3420012080EDF4400DC
:1018A30012080EB1450012080EFE450012080E6F15
:1018B300460012080E1D470012080E524700120878
:1018C3000EA0470012080ED0470012080E0E480063
:1018D30012080E72480012080E77480012080ED242
:1018E300480012080EFA480012080E104A001208A7
:1018F3000E714A0012080ED44A0012080E674B00FC
:1019030012080E9C4D0012080E754E0012080E05AB
:10191300500012080E95510012080E3252001208A0
:101923000E71530012080E0A540012080E5254008E
:1019330012080EC5550012080ED9550012080EE6FE
:10194300550012080E01560012080E0D560012081B
:101953000E2B560012080EFD570012080E365800C3
:1019630012080E43580012080E90580012080E83F6
:10197300590012080EC7590012080E595A001208CE
:101983000E5E5B0012080E2B5C0012080E955D00C4
:1019930012080E9A5E0012080E305F0012080EB392
:1019A3005F0012080ECA5F0012080EEE5F001208F5
:1019B3000EF85F0012080E04600012080E22600089
:1019C30012080E66600012080EB7600012080E14AB
:1019D300610012080E75610012080E7C6200120885
:1019E3000E8C630012080E2B640012080E1865009B
:1019F30012080EAF650012080E46660012080E1696
:101A0300670012080E45670012080EB76700120838
:101A13000E65680012080E8B680012080EAA690092
:101A230012080EC9690012080E386A0012080EB1B6
:101A33006A0012080ED76A0012080E036B00120820
:101A43000E4E6B0012080ED26B0012080E796D0059
:101A530012080EA26D0012080E276E0012080E81E6
:101A63006E0012080EA66E0012080EEC6E0012082D
:101A73000E096F0012080EB76F0012080EE8D403A8
:101A830012080E33D50312080E86C60112080EC0C3
:101A9300C60112080E93C70112080E69C801120885
:101AA3000E98C90112080E21CB0112080E9FCB011B
:101AB30012080E65CC0112080E86CD0112080EF82D
:101AC300CD0112080E5ACE0112080EBCCE01120827
:101AD3000EC6CE0112080E04CF0112080E6DCF01FF
:101AE30012080E0CD00112080E8AD00112080E3D06
:101AF300D10112080EAFD10112080ED5D10112087F
:101B03000E05D20112080E32D20112080ED8D201EC
:101B130012080EE8D20112080E3BD30112080E4739
:101B2300D30112080E53D30112080E5CD30112081D
:101B33000EBFD30112080E1FD40112080E70D40178
:101B430012080E8BD40112080EBBD40112080EDC4E
:101B5300D40112080EE8D40112080E6FD601120840
:101B63000E8DD60112080EF6D60112080E09D70102
:101B730012080E1AD70112080EADD70112080EB0C3
:101B8300D80112080EA6D90112080E29DA0112088B
:101B93000E32DA0112080E95DA0112080EACDA01E0
:101BA30012080EEEDA0112080E33DB0112080E6280
:101BB300DB0112080E99DB0112080EB6DB011208D5
:101BC3000EDADB0112080E1BDC0112080E0EDD011A
:101BD30012080E54DD0112080E8FDD0112080EEEFD
:101BE300DD0112080E16DE0112080E4FDE01120887
:101BF3000E5DDE0112080EBEDE0112080EFBDE01D1
:101C030012080E3DDF0112080E6EDF0112080EA24C
:101C1300DF0112080EADDF0112080ECBDF0112083F
:101C23000E94E00112080E9EE00112080EDDE001A1
:101C330012080EF3E00112080E5DE10112080E71A5
:101C4300E10112080E69E20112080E7CE20112089A
:101C53000E91E20112080E31E30112080E95E30121
:101C630012080E5CE40112080E67E40112080E86E6
:101C7300E50112080EA2E50112080EFAE5011208A9
:101C83000E31E60112080E4BE60112080EBFE60103
:101C930012080E50E70112080E98E70112080EBD54
:101CA300E90112080E27EA0112080E92EA0112084E
:101CB3000ED8EC0112080EE8EC0112080EEBEC0151
:101CC30012080EF7EC0112080E0BED0112080E13A9
:101CD300ED0112080E58ED0112080E06EE0112086E
:101CE3000E76EE0112080EDAEE0112080E73EF0102
:101CF30012080E0DF00112080E3BF00112080EDA65
:101D0300F00112080EE6F00112080E15F101120897
:101D13000E18F10112080E8FF10112080E7FF20165
:101D230012080E57F30112080EE1F30112080E0216
:101D3300F50112080EB4F50112080EEDF5011208B3
:101D43000E1EF60112080E27F60112080E63F601A5
:101D530012080E4AF70112080EC6F70112080E56B2
:101D6300F80112080E20F90112080EA4F901120855
:101D73000EDAF90112080E23FA0112080E999203E2
:101D830012080E0E910312080EFB8F0312080E8524
:101D93008F0312080ECD8E0312080E608E031208F5
:101DA3000E9FA00312080E1F9E0312080E5D9D03D3
:101DB30012080EE49C0312080ED69C0312080EA10F
:101DC3009C0312080E509C0312080E2B9C0312084E
:101DD3000E169C0312080EFE9B0312080EF09B03C3
:101DE30012080ED99B0312080EBF9B0312080E4B59
:101DF3009B0312080E7A9A0312080E1C9A03120808
:101E03000E029A0312080ED1990312080E5F98036B
:101E130012080E4A980312080EDACA0312080E813A
:101E2300CA0312080E39CA0312080E1ACA0312088B
:101E33000EB0C90312080E8EC90312080EDDCF03BC
:101E430012080E77CF0312080EF3CE0312080EDE2C
:101E5300D40312080E7DD40312080E62D4031208B1
:101E63000E52D40312080E85D70312080E57C60369
:101E730012080E49C60312080E30DC0212080E9A2D
:101E8300D30312080EFCD20312080EEBD20312087E
:101E93000E887F0012080EB8E50212080E7EE502D6
:101EA30012080E4CE50212080E16E50212080EB5D2
:101EB300E40212080E9FE40212080E55E40212080F
:101EC3000E6DE10212080E80DF0212080E28DD02F9
:101ED30012080EDDDC0212080E3EDC0212080EAD03
:101EE300DC0212080E8C8D0200000080FBE47300FC
:101EF3000136360101000102010001030100010462
:101F030001060605020000070100340801000F095D
:101F13000401010D0100FF0E080000170200001963
:101F23000100FF1A0100011B0100FE1C0100081D36
:101F33000200001F01000120010001210200002313
:101F430001000F24020000260100012701000828D8
:101F53000200FF2A0100072B0102402C0100002D83
:101F63000100012E0100012F0100FF30010B1C3184
:101F73000800003A0100083B01000F2F0100000395
:101F83000071003001600011007000310220035025
:101F930004800010006100000014006300730072ED
:101FA300006200430000001300060000000000046C
:101FB30000120000000000000000000400040037CD
:101FC3000037003C024400000000000000000065F0
:101FD30000000035008100000005000000830000C0
:101FE3000003027102300160021102700201020259
:101FF3000202028002100261023A0041006302738E
:10200300027202620243020002130238000002005D
:10201300020402120200020002000200020402048F
:1020230002370037003C024402000239000002007C
:102033000265020002350281020002050282028368
:102043000200020304710402046004110470040218
:102053000402040104020410046104000414046370
:1020630004730472046204430400041304060400AA
:1020730004000404041204000400040004000451D6
:102083000464000004000400044404000400040089
:10209300040004650400043504810464000504009D
:1020A3000483040004010371030103010301030119
:1020B30003010322030203010310030003000300CF
:1020C3000300030003000300034203000324030689
:1020D300030003000304031203250323032503233F
:1020E3000304030403000300030003440300030089
:1020F3000323030003650321003503810300030564
:102103000300030003000301017101010101011137
:102113000101013101010101018001100161013B54
:102123000014006301730172016201430100011392
:102133000106013D01350004011201000100010007
:1021430001000104010401330133013C0144013264
:102153000136000001000165010001350081010025
:102163000105018201830100013600010006000020
:10217300000F00000000000000000000000000034A
:10218300FFFF00000403FFFF0000FFFF0FF4010047
:1021930005C4040320000100000B00000000000040
:1021A300000003010F0000C112130061120100C1FE
:1021B300120200191203001F120400251205002B3E
:1021C30012060037121100551214005B1215004954
:1021D30012FFFF0000013718066118085B180B7324
:1021E3001810A117023D18054F180743180C1918AA
:1021F3000D2B18FF0000C71BF71BCD1BD31BF11BB7
:10220300E51BDF1BFD1B031C091C151CD91BC11B74
:10221300BB1B03EAF5E5D5D5C5B5A59595858575AC
:10222300756565555545453535252515150500163F
:102233000F00000B150B020002220F32000006B73D
:102243001CC91CCF1C911BD51C8B1B971BCB1AC500
:102253001A011B071BFB1AB31A171D351D3B1D1D46
:102263001D291D231D00383C3E363B3B352B432C9B
:10227300303016181920231A1C1E30000349484217
:102283004D18172505020C0E020B040B0A07080054
:102293000F000119161816161523030030301718EE
:1022A3001921301B1D1F300B1DDB1CE11CED1CE72E
:1022B3001CEB1B0F1C2F1D1B1C211C020402010104
:1022C300010109020005150D09100804D71ADD1ACA
:1022D300D11A0D1B00000000000000BE040AE31A1F
:1022E300F51A2800E803040015000E00030908107E
:1022F3001004011E0C05080F1EFF000009030AC08D
:1023030082C083E990192DF0E49018E2F0120EEFE9
:10231300901941E4F0A3F090192EF0A3F0121A1DC6
:1023230012155B1216F9120EF59018A2E4F0A3F041
:10233300901953E07002A3E0600990195312585AA0
:10234300121EF09022FAE493FA79021213870248DC
:102353006B74F2120366EAFEEBFF74805FF9E470BC
:1023630001E9606190192DE0F9120F6D8A088B095C
:10237300EA7001EB60467B0080010BEB75F003A470
:1023830024D8F8E5F03421F988828983E493FA7438
:10239300FF6A6021850882850983E06A70DCAA08E8
:1023A300AB0988828983A3E493C0E0740193F58326
:1023B300D082121EF0AA08AB09120F61EEFA7480E4
:1023C3006FFB02259474205FF9E47001E9601D122C
:1023D30018F18A088B09EA7001EB600A12182BAA1C
:1023E30008AB09120F61EEFA742080D4EE5420700A
:1023F300030224C5750C001244D17001EB700B7CF1
:10240300027D007A207B001268FD7C0079047A004B
:102413007B001218BB8A088B09800D74018882899E
:1024230083F0850A08850B09E5087002E509606DEC
:102433007C007904AA08AB091218BB8A0A8B0B75B6
:102443000C01E508240412694F24FFF0A3E034FFD4
:10245300126BB57002A3E070C9E5082409F8E50919
:102463003400F9850882850983A3A3A3A3A3A3A3A7
:10247300A3A3A3E0640170A3850882850983A3A3B2
:10248300A3A3A3A3E054047092740688828983F003
:102493007AB78508828509831226DF808512188B17
:1024A3007C0079017A007B001218BBEA7001EB70A3
:1024B30009E50C70057A201225A074206EFAEF024C
:1024C30023C4EE5410600712172F741080EEEE54DD
:1024D300406007121789744080E2EE54806007124F
:1024E300164B748080D674015FF9E47001E9601AB9
:1024F300901955E07002A3E0600990195512585ADB
:10250300121EF0EEFA74010223C374085FF9E4703B
:1025130001E9602D12170590184DE06401701B90BE
:10252300184EE06015FC75F0E8A4CCAAF075F00332
:10253300A42AFD7A007B081268FDEEFA74080223D0
:10254300C374105FF9E47001E9601290193FE06011
:1025530005E4F0121705EEFA74100223C374025F48
:10256300F9E47001E9600A121A17EEFA7402022301
:10257300C374045FF9E47001E96012125BFD125A3F
:102583005379011236F4EEFA74040223C37A007B02
:1025930000800574031208237F060205707B0090F8
:1025A300192DE0F912109F2274F712036674E112D9
:1025B30008EFEAFEEBFFEE7001EF603385188285CA
:1025C3001983AC82AD8312191B7406120AECE06006
:1025D3001E7417120AECE0FD7401120AECE0FCEE23
:1025E300FAEFFB79001214E9E9600479A480027917
:1025F300000249C074F5120366EAFEEBFF8E828F78
:1026030083A3A3A3A3A3A3E054406018126267604B
:10261300067AFF7BFF806A8E828F83124D93FAA323
:10262300E0FB80539018CDE0A2E15048125F932461
:102633001CF8EB1244BC7508FE7509FF78081208F4
:102643004612329012067379008C828D83125E8754
:10265300A3A3A3E0F5088C828D83125BEAA3A3E016
:10266300FDAC088A828B8312553B12170B7404123C
:102673000823800312193F74FE6A700374FF6B60B2
:1026830043125856125D841219BDE98E828F8360FE
:10269300061226D8E480051226D87401F07CFB7D4F
:1026A300178E828F8312553B121381E9F508701739
:1026B300EE7001EF60097901EEFAEFFB121897A9AA
:1026C300080260F67508CDAA088E828F831226DF72
:1026D300E960DD80EAE0240D124FEF22E0240C12C2
:1026E3004A0BF91218072274F6120366E9FEEAFF91
:1026F3007A0F7B00120F5BEA7001EB6019740C8A8E
:10270300828B83F0EEA3A3F0EF8A828B83A3F01274
:102713005A4479008028EEF91218C18A088B09A857
:1027230008A909E87001E960137406888289831295
:102733006BBAE0F912179BEEF912189D7910025843
:1027430051EAFCEBFD7A017B0090192DE0F91210A0
:102753009322C082C0837900EA241DF582EB1232F2
:102763009612553B9018CDE0A2E18A828B83E0500C
:102773000E1206F801010A7F270093270980111220
:1027830006F80103047F2702077F270A7F27932781
:1027930002486B74EE120366EAFEEBFF8C088D09A8
:1027A300890E7412120AECE0F510A3E0F5118510FE
:1027B30082F583E4F0A3F01228C8EE241DF8EF3469
:1027C30000F9880C890D88821228E1601F850A822E
:1027D300850B83122BA07014850A82850B83124B01
:1027E3004B851082851183125A538003750E008521
:1027F3000C82850D83124D93120639010967281641
:10280300282E283C2847286728712867288B28A466
:1028130028B7287810120846AC08AD09EEFAEFFB8A
:1028230012171774021208230228C0AC08AD09EE70
:10283300FAEFFB12171D0228C3A90EEEFAEFFB12E3
:1028430019D58079126D3664027019E50E700A127B
:1028530028D57003A3E0697067EEFAEFFBA90E12A7
:10286300198D8059750E007901120F0180521228BB
:10287300D57003A3E06970EC126D36640270E5EE67
:10288300FAEFFB1219758038901957E07002A3E034
:10289300602EEEFAEFFB90195712585A121EF08071
:1028A3001F1228D57003A3E06970B9EEFAEFFB128B
:1028B30019E1800CEEFAEFFBA90E1219EDE9F50E02
:1028C300A90E0244ADEE2409F8EF3400F9880A8911
:1028D3000B22850A82850B831260EFE06822F58361
:1028E300124D97F912199FE92274ED12036674DEF3
:1028F3001208EF8A088B09EA2402F510EB12516BD8
:10290300F91218C18A0A8B0BAE0AAF0BEE7001EFF6
:1029130070030229D3E508240C125D5F122AFE24FA
:1029230006123288850882850983A38582088583F8
:1029330009E064F16017E064CD6012E0641A600D91
:10294300E064E96008E064E16003022A5D850E82C9
:10295300850F83A3E05408F9E47001E9607F7405EF
:10296300850A82850B83F090195BE07002A3E06017
:102973000990195B12585A121EF090195DE070020B
:10298300A3E060339018CDE0A2E1502B8E828F83B9
:10299300126261A3A3A3A3A3A3A31249CA1232A2DF
:1029A300EA7001EB6011850882850983E0F99019CB
:1029B3005D12585A121EF0850A82850B83E0640269
:1029C30070037406F0851082851183E0F912189D57
:1029D30012188B74221208237F0B020570790012E0
:1029E3001897E960759018CDE0A2E1400302296AC7
:1029F30012662D7002A3E0700302296A7403120A9F
:102A0300EC126614850882850983E064E9701A1262
:102A13002B0612084A850882850983E0F51278128D
:102A230012084A123BA3120823740C120AEC125523
:102A33003B125856125D847900740E120AEC124D43
:102A43006D740C120AEC1232D2700302296A850EDD
:102A530082850F83124D7702296985088285098350
:102A6300E0C0E07402120AECD0E0F01267ABEE248F
:102A73000B126D39851882851983AA82AB83700581
:102A830012168180031219997402120AECE064E9A8
:102A93007014122B0612084A7512E9781212084AAA
:102AA300123BA31208239018CDE0A2E140030229B0
:102AB300BA850A82850B83E064027027850E8285BE
:102AC3000F83E05404601C1262677013125856742B
:102AD300FFF0A3F07405850A82850B830229C7746E
:102AE3000380F3850882850983E064E96003022992
:102AF300BAEEFAEFFB1219F30229BAEE24091269AE
:102B030006EE22125F9875120178122274F51203F1
:102B1300668A088B09750A00EA2409124B3EFEE90E
:102B2300FF8E828F83122BA07003750A018E828F12
:102B3300831254497003A3E06B7006E50AD2E1F5F2
:102B43000AE5082402FEE5093400FFE50A60138E56
:102B5300828F83E07006E50AD2E58004E50AD2E6B7
:102B6300F50A1219BDE964017006E50AD2E0F50A17
:102B73008E828F83E06017E508241DF582E5093412
:102B8300001228E164016006E50AC2E0F50AE50ADD
:102B9300A2E14004D2E7F50AA90A0260F6126272C2
:102BA300640222C082C08379018A828B83A3A3E05B
:102BB300C394024001198A828B83A3A3A3A3E0C316
:102BC3009402400279008A828B83A3A3A3A3A3A3C5
:102BD300A3A3A3124D6D74F86C700374FF6D601E94
:102BE30074F96C700374FF6D601474FA6C70037481
:102BF300FF6D600A74FB6C700374FF6D70027900E3
:102C03008A828B83A3A3A3E0FC9018D0E06C6002BC
:102C130079009022F6E493C394805018E493C3336D
:102C2300C0E0EA2411F582EB126D3CFAD0E0C39ABE
:102C33005002790002486B74E812036674DC1208D0
:102C4300EFEAFEEBFF7403120AEC125B56751400F5
:102C53007515007405120AECAC82AD838E828F83E6
:102C6300A3A3A3125D7012553B12191BE9600F74E5
:102C730005120AECAA82AB83121825E970087901C0
:102C8300120F0102327EEE241B124B457412120AFC
:102C9300EC125A53740B120AECE06023741C120AF0
:102CA300ECE0FD7406120AECE0FC8E828F83A3A392
:102CB30012553B79011214E9E96004790280C17469
:102CC30005120AECAA82AB8312181FE9F508740BEC
:102CD300120AECE070299018CAE0602374225508A8
:102CE3006422601B74425508644270CF7422120A36
:102CF300EC124D93FA74066A600574076A70BCE9B6
:102D0300A2E650127405120AECAA82AB8312180DC4
:102D1300E97003022C81EE2412F516EF3400F51747
:102D2300EE242A122B01242C1232931238B5E068B8
:102D33007003A3E069701C750900780912084A78CA
:102D43000912084AEE242E12329A1232AE123BB303
:102D5300120823740B120AECE07003022DF81232EE
:102D6300AE1232A28A0A8B0BA80AA90BE87001E9FA
:102D73007003022E9C7406120AEC1232A9FAA3E025
:102D83003400FB740D2AF582E43BF583E0FAE82472
:102D930004F50AE9126909E82403F582E9126D3C96
:102DA3006A600DEAF0908215780C120A951232F3DC
:102DB30079047406120AEC1232A9FCA3E034008CE5
:102DC30082F583A3AA82AB83120F498A0C8B0D8CE5
:102DD3000E8D0F850A82850B837810120A95781061
:102DE300790C120A47500302327E908221780C122A
:102DF30009581232F3EE2424123288EE2430F50CF3
:102E0300EF125D63EE242F1269069018CDE0A2E164
:102E13005003022F359018E2E0FA74046A600874D4
:102E2300096A600302327EE508A2E54003022EE24E
:102E33001232DAC0E07401120AECD0E0123BDDC0BA
:102E4300E07402120AECD0E0F07416120AECE064AB
:102E53000170207410120AEC1232BE7003A3E069F1
:102E63007011740E120AEC122BA070077416120A5A
:102E7300ECE4F0850E82850F8312066F7404120A48
:102E8300ECAC82AD837409120AECAA82AB831216EE
:102E930087740412082302327E901927E0640160CC
:102EA30003022DF87422120AEC124D936406700982
:102EB300E508A2E65003022DF87412120AECE0644E
:102EC300FF7004A3E064FF700302327EEEFCEFFDAB
:102ED3007405120AECAA82AB8312183102327EA265
:102EE300E6400302327E7422120AEC1232CA701ECA
:102EF300741C120AECE06402600302327E74051251
:102F03000AECAA82AB83790012198D02327E740710
:102F13006A600302327E741C120AECE064046003EC
:102F230002327E7405120AECAA82AB831219810263
:102F3300327E7416120AECE0601D8E828F83A3A387
:102F4300123BCF1412533DA3123BCFC0E0741612B1
:102F53000AECD0E0F07006E508C2E7F5089018E245
:102F6300E0FA74046A600574096A7061740E120AE7
:102F7300EC1254497003A3E06B60171219BDE964A6
:102F830002600F740A120AECE05403640160030246
:102F9300327E7407120AECE0701B1232DAC0E0745E
:102FA30001120AECD0E0123BDDC0E07402120AEC1D
:102FB300D0E0022E757422120AEC1232CA70030298
:102FC3002EF374076A600302327E022F197509001B
:102FD3007461550870030230E9E508A2E05070857A
:102FE3001682851783124D6D7405120AECAA82AB03
:102FF3008312178FE9705512194BE9F509741612EC
:103003000AECE0700F7410120AEC1232BE7003A3C4
:10301300E069603BA909851682851783124D6D749B
:1030230005120AECAA82AB83121795E96013740E9A
:10303300120AEC12616F120AEC125A5375140480CF
:103043000EE508C2E5F508750900800353089FE5FE
:1030530008A2E5503C1232DAC0E07401120AECD047
:10306300E0123BDDC0E07402120AECD0E0F0850E02
:1030730082850F8312066F7404120AECAC82AD834F
:103083007409120AECAA82AB83121687740412081D
:1030930023E508A2E640030231B67403120AEC8565
:1030A300820A85830B780A120846A9098516828548
:1030B3001783124D6D7407120AECAA82AB831218A0
:1030C300137402120823E9F50970030231B674225E
:1030D300120AEC124D93640160030231B674104579
:1030E30014F5140231B67407120AECE06401703B64
:1030F3007422120AEC124D936405702F7403120AA2
:10310300EC858208858309780812084679008516BC
:1031130082851783124D6D7407120AECAA82AB8362
:10312300121813740212082302327E7416120AEC68
:10313300E070127422120AEC124D936403600302CE
:103143002ECF02327E121891E9600302327E740E92
:10315300120AEC12616F120AEC125A537809120820
:103163004A741E120AECAC82AD83740F120AEC127D
:10317300553B740A120AECE0F91217D174011208D4
:1031830023E9600F7514208E828F83A3A3124D93BE
:10319300543FF079007410120AEC124D6D740E1244
:1031A3000AEC1232D2600674204514F51412194B3E
:1031B300E9F5097403120AECE064FE7004A3E06409
:1031C300FF7003750900E508A2E7400302327EE5BC
:1031D30009700302327E8E828F83A3A3A3A3E0FA36
:1031E3007B00120FD98A0A8B0BEA7001EB70030282
:1031F300327E8E828F83A3A3E0F50CA3E0F50D75D9
:103203000E00780C1208428E828F83A3A3A3A3E03F
:10321300FC7D001241BF1208237407120AECE085FB
:103223001882851983F07401120AECE4F0A3125298
:103233002585820C85830D780C12084678141208B4
:1032430046E509F508780812084A8516828517832A
:103253001206738E828F83A3A3A3A3E0F9740A12C9
:103263000AEC124D6DAA0AAB0B1219097407120866
:1032730023E96007AA0AAB0B120FDF742412082399
:103283007F10020570F50EEF3400F50F22EE240EC9
:10329300F582EF12697A22F582EF125C25F9221288
:1032A3004A05121A41221265622A22850A82850B77
:1032B30083124B6185168285178322124E6B851606
:1032C30082851783E06822124D97FA74046A2212EA
:1032D3004A05121711E922EE242E125C2285188268
:1032E3008519831232EA22F0850A82850B83E02254
:1032F300850A82850B83E50CF0A3E50DF0A3E50EAB
:10330300F0A3E50FF02274F2120366EAFEEBFF8CE2
:10331300088D091228C88882F58312553B90184DF1
:10332300E060119018D3E06A7003A3E06B7005129C
:103333001705805379001217AD8A828B83E582705B
:1033430002E583603AA3A3A3A3A3A3E05418602FC9
:10335300E508241BF582E509123296120673E50887
:103363002412F582E509123296120673EE2418121E
:10337300329A12338D1217DD7404120823800879F0
:103383000012338D12172902259B850A82850B8330
:10339300124B61EE240B1249FE2274EE1203667483
:1033A300EA1208EF8A0C8B0DEA2402F50EEB1232B7
:1033B3008B0A0AFB12157F8A088B09AE08AF0975C1
:1033C3000901850C82850D83A3E0F508750A01AC1C
:1033D3000EAD0F851882851983AA82AB831210C99B
:1033E3007408120AEC125B56740A120AEC7402F0A7
:1033F3007413120AECE4F0E50C240AF50CE50D1243
:103403005D63901A34E07010EE7001EF700AE50806
:1034130070067509C30235739018E2E0640860060C
:103423007509C202356F850C82850D83E0A2E150D8
:103433000EA2E35005750A04800C750A038007A2E7
:10344300E35003750A02EE7001EF60648E828F838E
:10345300A3A3A3A3E0FA74046A600574036A700C5F
:103463007404650A601C7403650A601674026A605A
:103473000574016A70207402650A60067401650AA6
:10348300700F8E828F83123EB7120AEC125A53804A
:103493001F74026A600574016A700A8E828F831238
:1034A3004014121EF0AA0EAB0F12158B7E007F0084
:1034B3007408120AECE064FE7004A3E064FF703841
:1034C300121555E97032E508601790191FE0640280
:1034D300700F901A3B123EB7120AECE8F0A3E98092
:1034E30016850C82850D83E05402F912173B74088C
:1034F300120AECEAF0A3EBF07408120AEC1236138A
:10350300700374FF6B70057509C78060E508F50BE0
:10351300780B12084A850C82850D83E0F9AC0EAD59
:103523000F12169F7401120823E97040A90AAC0E0A
:10353300AD0F7408120AEC1236ED8A108B11AE101F
:10354300AF11EE7001EF601C74026508700BEE247E
:1035530005126D3954FB4408F0740A120AECE4F0C6
:10356300F50980087408120AEC125B56E508700F1F
:10357300851882851983AA82AB831213638010FC9A
:10358300A90A851882851983AA82AB8312197BE95C
:10359300FAEE7001EF603EEE2405F8EF3400F9E532
:1035A30008601288828983E0D2E6F07402650870AD
:1035B30004E0D2E5F0850C82850D83E0A2E6500895
:1035C30088828983E0D2E7F08E828F83A3A3A3A3AB
:1035D300A3A3E004F0E5097003EA602FFC7D007A01
:1035E300017B10120EFBEE7001EF6007AA0EAB0F0A
:1035F30012158B7408120AEC123613700374FF6BE6
:1036030060099018BA12585A121EF074160244AA8E
:10361300124A0574FE6A2274F612036674F71208DE
:10362300EF8A088B099018E2E0FA74036A600D745C
:10363300016A600874096A60030236EA8508828BAE
:1036430083A3AE82AF83E060030236CF7C007D00AC
:103653007A027B00120EFBE50824021244C31260B7
:10366300EB125A53795312135779001236F4901808
:10367300E2E0640960099018E012553B121A3B74AA
:103683000112588774049018E2F07401120AECAA2C
:1036930082AB83794A1213517401120AECAC82ADE6
:1036A300837AD87B181210C979007401120AECAC22
:1036B30082AD839018D61236ED9018CDE0A2E35078
:1036C30004D2F08002C2F012586F8018FC7D007A99
:1036D300037B10120EFB8E828F83E0F91236F4E423
:1036E3009018E2F012186D02584C124A0512156D2B
:1036F300229018E0124A0512169922C082C08390C4
:1037030018A2E07002A3E070419018E2E01206F8FC
:103713000003012037052F37063E374D379018AA8F
:10372300E07002A3E060769018AA806B9018A6E080
:103733007002A3E060679018A6805C9018A8E07000
:1037430002A3E060589018A8804D9018A2E0700280
:10375300A3E06009123BCCFC74016C7023790090E8
:10376300192E800909EA12637FEB12329612479BE6
:103773007001EB70EF90192E12553B12168D801DC0
:1037830074026C7005121A0B8013901959E07002C1
:10379300A3E0600990195912585A121EF002486B9F
:1037A30074F412036674FB1208EF8A088B097A0F0C
:1037B3007B00120F5B8A0A8B0BAE0AAF0BEE700114
:1037C300EF70030238B074028E828F831260FC792B
:1037D30050121351850882850983A3858208858346
:1037E30009E060030238999018E012691E700374AF
:1037F300FF69602F74FE68700374FF696025851884
:1038030082851983E0687003A3E069601674EA8512
:103813000882850983123D917AE07B18795012134F
:103823005780738518828519831238B5125A537AD3
:10383300D37B1879531213519018D3125A4D7AD659
:103843007B18794B1213517AD57B1879E1121351F6
:103853009018E7E0C3940F50229018D5E0C0E074AD
:1038630002120AECD0E0F07404120AEC7401F07452
:1038730002120AECAA82AB8312137B750A00780A40
:1038830012084A780A12084A9019FDE0F9124265B3
:10389300123BB3120823850882850983123B8FF0FC
:1038A30074039018E2F0EEFAEFFB125A4474050227
:1038B30053E2124E6B9018E02274EC12036674ED1F
:1038C3001208EF8A828B83A3123B94EA2408124BDB
:1038D3003EFEE9FF851882851983AC82AD838E8213
:1038E3008F83123BBCA3A3A3A312553B12187F855E
:1038F3001882851983E070768E828F83E0C3940BE0
:10390300406C850882850983A3A3A3A3A3A3A3A3D0
:10391300E0640270599018E2E0FAE5082410F5100B
:10392300E5093400F511E5082409125D5F74026AA4
:10393300604174066A603C9018A2E07002A3E060E4
:1039430007123BCC6401605474086A600574046A0E
:10395300701C7402120AECE0F97407120AECAC82D0
:10396300AD83850C82850D8312553B121885741324
:103973000264E19018A2E07002A3E0701F750A00D0
:10398300780A12084A780A12084A85108285118338
:10399300123B861244CB123BB312082390192E120A
:1039A30069A490192E1264D9E508240DF50EE509D2
:1039B30012328B80318E828F83E0F8A3123B86E034
:1039C300687003A3E06970128E828F83A3A3E0FA69
:1039D300850E82850F83E06A606B8E0A8F0BEE1271
:1039E300637FEF1269A1EE7001EF70C97A187B0053
:1039F300120FD98A128B13AE12AF13EE7001EF7050
:103A0300030239717C18126AF9125B4DEE240C1211
:103A1300329374FFF0E508240B12694F123B7D12B9
:103A23006BB4C4123B7DA3A3F090192EE07002A3E4
:103A3300E0700590192E800AE50A12637FE50B12E8
:103A430032961267B17401120AEC123B9EA3F07412
:103A530002120AEC123B9EF0850E82850F83123B05
:103A63008FA3123BDD123B74125348240DFAEF343B
:103A730000FB7402120AECE06401600E7407120A80
:103A8300ECAC82AD831210C980097C087D0079FFFC
:103A9300120F437412120AECE0C0E0EE2415123246
:103AA30093D0E0123BD4FC9019FDE0C39C40030289
:103AB300397112692CE509123296A3E05480F9E4B6
:103AC3007001E97009901775E070030239717D0088
:103AD300EE240CF8EF3400F9EE240BFAEF3400FB7C
:103AE30090191FE06402701D8A828B83E0F50AC37C
:103AF3009C500D7405120AECE0C39405401B801A18
:103B0300E50A6C70157405120AECE0C0E08882893E
:103B130083E0FCD0E0C39C50010D7404120AECE076
:103B23006020ED601D850882850983126108ECF031
:103B3300A3ED123BD48A828B83F07405120AEC1234
:103B43004D887406120AECE0600D74018E828F8337
:103B5300A3A3A3A3A3A3F07404120AECE0700302CB
:103B6300397174018E828F83A3A3A3A3A3F00239B7
:103B730071F8A3E0F98E828F8322540F8E828F8394
:103B8300A3A322E0F9850C82850D83221240EFA3C3
:103B930022A3A3E0F508A3E0F509221240EF802158
:103BA300850C82850D83123BBC124B5D8A828B830D
:103BB300124A05121951740222E0F98A828B83801A
:103BC30002A3A3A3A3A3A3A3229018A2124FFFE0CF
:103BD30022F0851082851183E022F0850C82850D09
:103BE30083E02274F612036674C91208EF9018E298
:103BF300E0640860629018F3E0F824F1F582E4349D
:103C030019F583E0FA9018C4F0E824F7F582E43458
:103C130019F583E0FB9018C2F07508FF7509FFEAF8
:103C23007808120A03E508F4FCE509F4FD3395E08E
:103C3300FE9018EB123D867508FF7509FFEBC39ADA
:103C43007808120A03E508F4FCE509F4FD3395E06E
:103C5300FE9018EF123D86E412587D790412135733
:103C63009018F3E07009741E120AEC740180067454
:103C73001E120AECE4F0740F851882851983F09004
:103C83001A391260FC79461213577401120AECE4D4
:103C9300F0901A1FE0C0E07402120AECD0E0F0903A
:103CA30018D0E0C0E07403120AECD0E0F074041200
:103CB3000AECE4F07405120AECE4F07407120AEC5F
:103CC300E4F09018F3E0FAC3940F74065006120A56
:103CD300ECEA8005120AEC740FF07CF47D1874088A
:103CE300120AECAA82AB831210C97C037D0079FF10
:103CF3007410120AECAA82AB83120F4390192CE0C2
:103D0300C0E07413120AECD0E012597D120AEC12CF
:103D1300596C1219699018E7E0C0E0741C120AECA0
:103D2300D0E0F09018E8E0C0E0741D120AECD0E097
:103D3300F09018D5E0C0E0741A120AECD0E0F090CD
:103D430018E0124B4B7418120AEC125A53742012D7
:103D53000AECE4F09018EAE0C0E0741F120AECD019
:103D6300E0F07434120AECE4F07429120AECE41261
:103D73003D917414120AECAA82AB83121375743743
:103D830002584EECF0A3EDF0A3EEF0A3F022F07A8C
:103D9300D37B187953123D9C221213577AD67B1882
:103DA300794B12135722C082C0838A828B83A3E08C
:103DB3006007E49018E2F0804A74089018E2F090EB
:103DC30018F3E0701F9018ACE07002A3E0600B7969
:103DD300009018AC12585A121EF09018E0124D6D54
:103DE3007A05801A79001216939018D3124D6D7AC2
:103DF300067B00120EFB9018D6124D6D7A047B00E1
:103E0300120EFB02486B74F412036674EA1208EF95
:103E1300EA2402FEEB3400FF0A0AFB12157F8A082C
:103E23008B09EA7001EB7003023EB28A828B831224
:103E33004FE1600F74026A600A74036A60057404D8
:103E43006A706CEEFCEFFD851882851983125F1A88
:103E5300123EB7120AEC125A53740A120AEC740196
:103E6300F07413120AEC1260FB121369890AAC0A8C
:103E73007D007A077B00120EFB850882850983A3E8
:103E8300A3A3A3A3E0C2E0F074018508828509839C
:103E9300A3A3A3A3A3A3A3A3A312697F120216E858
:103EA300850882850983A3A3A3A3A3A3A3A3F07473
:103EB300160253E2124E6B74082274F012036674F6
:103EC300F81208EF8A0C8B0D8C0A8D0B890E85185E
:103ED30082851983AC82AD837583817582B774083B
:103EE300120767F50FAC0CAD0D851882851983AAEF
:103EF30082AB8312658B7003750F0190192E80308E
:103F0300AC0CAD0DEE240DFAEF3400126BA7601A62
:103F1300850882850983E0650E700F8E828F83E0AA
:103F2300650A7004A3E0650B6032EE241612329327
:103F330012485F7001EF6024EE24021244B2E50FD1
:103F430070BE8E828F83E0650A7004A3E0650B70F8
:103F5300D9850882850983E0650E70CEEEFAEFFB02
:103F630002533374F712036690192EE0FAA3E0802C
:103F73000CEA241612699E120FDFEEFAEFFBEA70C9
:103F830001EB70ED90192EE4F0A3F00249C574F42F
:103F93001203668A088B09EA240BFEEB3400FFEA5E
:103FA3002413F582EB126D3C64037009EEFAEFFB08
:103FB30012157F800CE0640270548E828F83126925
:103FC3005BEA7001EB6047EA2406F8EB1228CD8523
:103FD3000882850983A3E07007E488828983802DA2
:103FE30064F16005E064E1701A88828983E064010A
:103FF30070118A828B83124014121EF0EEFAEFFBCB
:1040030012158B850A82850B83E0600214F002533C
:10401300E5124A059018BA12585E2274F11203662B
:104023008A088B09ECFEEDFF890A8A828B8312656D
:104033000E8A828B831240EEF0EEF8EFF9A30EAFF7
:10404300838A828B83A3A3E0C454F0FA8882898392
:10405300E04A1240F81240EF1240F3E0333354FCCD
:10406300FA8E828F83E04A1240F3A3E03333335452
:10407300F8FA8E828F83E04AF008EFF9A30EAF833C
:104083008508828B83A3A3A3A3A3A3E0A2E0E49266
:10409300E013135480FA88828983E04AF0E5082408
:1040A30007F50CEB125D63750E00780C1208427C69
:1040B300081251541208231264F8E508240F125D04
:1040C3005F780C1208427C03125154120823E50A4C
:1040D300C3940F4011E5082412F582E509123296C4
:1040E300123B8FA3A3F07F07020570A3E0023B7886
:1040F3001240F8A322F08508828B83A3A3A3227422
:10410300F1120366EAFEEBFF890A8C088D098E82A1
:104113008F83E08C828D8312533DAE82AF83E01296
:1041230053FA1241D1C41253FA1241C5E054038C1D
:10413300828D831241CFA2E2E492E08C828D8312BE
:1041430041CE131313541F1253FAA31241CEA2E705
:10415300E492E08C828D83A3A3A3A31241C58E0CAA
:104163008F0D750E00780C1208427C087D00E5085F
:1041730024071241B91208231264F88E0C8F0D78AC
:104183000C1208427C037D00E508240F1241B9128A
:104193000823E5082412F8E5093400F9E50AC39475
:1041A3000F400A8E828F83A3A3A3E08001E4888259
:1041B3008983F00240E9FAE5093400FB120F3774F2
:1041C3000322A3A31253410EAF8322A3A3A3A3F0FD
:1041D3000265A974F412036674F91208EFEAFEEBA0
:1041E300FF9018A2E07002A3E06010123BCC6402BF
:1041F3007009EEFAEFFB121A0580629018E0E06E88
:104203007003A3E06F705674016960097AF47B1838
:1042130012658B70487A007B021244D57001EB70F3
:104223003C9018E37808120A9585188285198378DB
:1042330008120A869018E9E0C0E07404120AECD070
:10424300E0F07405120AEC7401F07406120AEC74BF
:10425300021260FC12163FE96098121645740702B9
:1042630053E29018E0124B619018D622E0F902480D
:104273006B74F6120366901940E0701F7C0079019D
:104283007A007B001218BBEA7001EB600E8A828B06
:1042930083E07002A3E06003121801025851C08248
:1042A300C083124706401079FF1218B5E9FA90222D
:1042B300F7E493C39A500479018002790002486BB2
:1042C30074EE1203668A088B09890D750E00EA24C1
:1042D30008F50AEB124D61E0F91218C18A108B112F
:1042E300AE10AF11750C01EE7001EF60030243894C
:1042F300850882850983A3A3124D7E12522D125580
:104303003B1218A98A0A8B0BAE0AAF0BEE7001EFB2
:1043130070030244A38E828F83A3A3A3A3E4F0A319
:10432300F0E508240B1244C3E0C0E0EE240B123284
:1043330093D0E0F01219C9EE240C125D7DE5082438
:104343000EF582E509124B48123290125A53750E3C
:1043530001EE2406F8EF124715E0547FF0A3E05472
:10436300FC12465BE054046003024411901A1812D5
:10437300521E74077808120A038A828B83E0450869
:10438300F0A3E04509F0EE24061244BA8C828D8333
:1043930012553B74805AF50874035BF5097407786A
:1043A30008120A77E508F510EE2404122B012409FC
:1043B3001244B2E50D606074028508828509831298
:1043C30041D2240D124FEBE0A2E2500F9018CE120F
:1043D3004B4B850A82850B83125A53E510700302F7
:1043E3004470747F5AFA74FC5BFB74FF2510F5105C
:1043F30074FF3400F51174077810120A03E5104AAC
:10440300F8E5114BF98C828D83125A53805FE04497
:1044130080F0A3E0024388E5107005750C00804D21
:10442300EA54206015120F558A10747F5510F874E2
:104433005F28850A82850B83801BEA5410600E1265
:104443000F558A10740F5510F8740A80E4850A8298
:10445300850B837401F0A3E4F07404850882850955
:1044630083F01244D17001EB700312582974016573
:104473000E7030850A82850B831244CBE0F9EEFA85
:10448300EFFB1218AFE9601BEE240C1232931247B4
:104493009B7001EB6003120FDFEEFAEFFB120FDFED
:1044A300750C00A90C80031208237F0A020570F51E
:1044B30008EF3400F50922F8EF124B40FCE9FD2226
:1044C300FAE5093400024662124B61025C127A205B
:1044D3007B0090192DE0F91210A5EA2274F612035D
:1044E3006674F71208EF7E001218C1EA7001EB70D0
:1044F300030245AC8A828B83A3A3A3A3A3A3A3A391
:10450300A3E0640660030245AC8A828B83A3A3A362
:10451300A3A3A3A3E0FF8A828B83124FF9E0C0E039
:104523007408120AECD0E012465B12585A125E94D9
:10453300125A531218DF74085FF9E47001E96067D7
:10454300851882851983124D6D7A007B001218A39A
:10455300EA7001EB70519018E0124B4F1213937CE9
:10456300007D007A007B0080288E828F83125C0797
:10457300E064FF7004A3E064FF602C9018E0124D28
:104583006D120B29E9641A601E7C007D00EEFAEFC0
:10459300FB1218A38A088B09AE08AF09EE7001EF6E
:1045A30070C779001213997E01EEF902584C74F723
:1045B300120366EA7001EB700590194180068A8246
:1045C3008B83A3A312479B7001EB60288A828B83A2
:1045D300A3A3A3A3A3A3A3E05408F9E47001E96090
:1045E300DDEC7001ED6011124D8F6C7003A3E06D73
:1045F30070CC80047A007B000249C574F212036612
:10460300EAFEEBFF890A8C088D097A107B00120FF2
:10461300D9EA7001EB603CE48A828B83A3A3A3A352
:10462300A3A3A3A3124668E50A1249D0125B458AE5
:10463300828B83A3A3A3A3E4F01246681246591204
:1046430067B1EA240CF582EB126BAE12465AA3A3B0
:10465300F0A3F002259BA3A312465F22F08001FB87
:104663008A828B8322A31249D4A3A32274F5120353
:1046730066EAFEEBFF890A8C088D09EE7001EF6094
:10468300567401650A701479011218B5E9FA90227B
:10469300F9E493C39A500F791180657404650A7025
:1046A3003012470640F18E828F83A3A3A3A3A3A353
:1046B300A3A3A3E50A125356126E1CE4F0A3F090D1
:1046C3001941E07002A3E09019416024124B4B8022
:1046D3000A7402650A60CF79C18025E824020808BC
:1046E300E91247151248097001E970EF8A828B833A
:1046F3001267B11244D17001EB700312582979008B
:104703000260F679041218B5E9FA9022F8E493C32B
:104713009A22124B40FAE9024662C082C083E9FC46
:104723007900901941801D8A828B83A3A3A3A3A33D
:10473300A3A3A3A3E06C600574FF6C7001098A82D4
:104743008B83A3A312479B7001EB70DB02486B744E
:10475300F7120366EA7001EB700590194180068A2F
:10476300828B83A3A312479B7001EB60248A828B05
:1047730083A3A3A3A3A3A3A3A3A3E06970E1EC6012
:10478300148A828B83E0240D1265A3A2E240D080B9
:10479300047A007B000249C5124A05EA22C082C09E
:1047A3008390194180068A828B83A3A312479B704F
:1047B30001EB60128A828B83A3A3A3A3A3A3A3A366
:1047C300E06970E280047A007B0002486BC082C01B
:1047D30083901941800688828983A3A312480970B4
:1047E30001E9601B88828983E0FCA3E0F5838C8266
:1047F300E06A7003A3E06B70DDE8FAE9FB80047AFA
:10480300007B0002486B124E6BE82274F1120366C0
:104813008A0A8B0B8C0C8D0D750800750900EA70E4
:1048230001EB603190194180068E828F83A3A3121E
:10483300485F7001EF601EAC0CAD0DEEFAEFFB8527
:104843000A82850B83121EF0E9640170DCEEF8EF37
:10485300F988088909AA08AB090240E9E0FEA3E048
:10486300FFEE227402120823D083D08202080B7950
:104873000002080B74F7120366901941124B4B7C2C
:10488300007D008007E8FCE9FD124B4BE87001E96D
:10489300603AE82402F582E9123296EA687002EB84
:1048A3006970E212553B9019411269A4E86E7002D7
:1048B300E96F7009901941EAF0A3EB800EEAF8EB77
:1048C300F98C828D83A3A3E8F0A3E9F00249C574B0
:1048D300F7120366EAFEEBFFEE7001EF60161218A3
:1048E300D91249DCEA7001EB6003120FDFEEFAEF35
:1048F300FB120FDF0249C574F7120366124D8FFCDA
:10490300A3E0FD901941124B4B7508007E008033E4
:1049130088828983A3A3A3A3A3A3A3A3A3E064057A
:1049230070180E88828983E0FFA3E0F5838F82E00D
:104933006C7003A3E06D7002050888828983A3A3CA
:10494300124B4BE87001E970C7EA2404F8EB34001A
:10495300F99022EFE493FCE508C39C500B9022F0FE
:10496300E493FCEEC39C400B888289837401F0A31B
:10497300E4800A9018CE1249CAECF0A3EDF0740556
:104983008A828B83A3A3A3A3A3A3A3A3A31249D024
:10499300E0F0A3E0440812534F8A828B83E064FF64
:1049A3007004A3E064FF600E9018E0124D6D1213C3
:1049B3008DE9641A700579011213998005741F1229
:1049C30008237F01020570124B610267A61249D4C6
:1049D30022F08A828B83023BC58E828F83E0241C64
:1049E300124A0BFAA3E0FB120FDF8E828F83124A67
:1049F30005120FDFEE240C1249FE22F582EF34007C
:104A0300F583E0FAA3E0FB22124FF3E022C082C059
:104A130083EAFCEBFDEC7001ED70047905804CEC4E
:104A230024FBF582ED34FFF583E07002A3E07011FF
:104A3300EC24FFF8ED34FFF988828983E064FF609A
:104A430005120F6180D590192D124D88902301E432
:104A530093F97A437B19120F91E96401700B7A0081
:104A63007B2012582D79008002790402486B74F47C
:104A7300120366A2AFE492E0F508C2AF90194312A5
:104A8300485F7001EF603DEE24FBF582EF34FFF5E4
:104A930083E07002A3E07A007B2090192D60051259
:104AA30058308005E0F9120F9D750A00750B0078E8
:104AB3000A120846EEFCEFFD7A437B19120F8B7442
:104AC30002120823E508A2E092AFEEFAEFFB0253CD
:104AD300E574F712036674E11208EFEA2413F58212
:104AE300EB126D3CC0E07411120AECD0E0124E627E
:104AF3007409120AEC124E5B124B38FCE9FD8C82EE
:104B03008D83124B4B740B120AEC124E5B2414F57B
:104B130082EB126D3CC0E07412120AECD0E0F0EAB2
:104B2300240EF582EB12329D8C828D83124B4F1231
:104B330017950249C02404124B3E22F8EB3400F9C6
:104B4300E822F582EF12697A124E6B22124B6185CD
:104B53001882851983AA82AB8322A3A3A3A3E0FCB3
:104B6300A3E0FD2274EE12036674FC1208EFEAFE62
:104B7300EBFF121891E960057911024D5CEE2412E6
:104B8300F510EF3400F511EE2402F50AEF124D6132
:104B930012626E6008E4851082851183F0EE24139F
:104BA30012515D700C9022F6E493850C82850D837F
:104BB300F0EE2411F8EF125D687019901844E0606C
:104BC3000D9018CAE0700D8E828F83E07006E48822
:104BD300828983F0EE2414080808EF126952700CDE
:104BE3009018BF124D889018BFE004F0EE240F1206
:104BF30044B2EE240B1232889018CDE0A2E1504F5C
:104C0300850A82850B8312626E60448E828F83E0F5
:104C1300600B850E82850F831228E360328508823C
:104C2300850983E05440601A850C82850D83E06416
:104C330001700F850882850983E054FBF0A3E0F03F
:104C4300800DEEFAEFFB1218F7E97003024B7B8E2F
:104C5300828F83E06401701A850E82850F83124D63
:104C6300936402700D850882850983E04440F0A3B4
:104C7300E0F0850882850983E0544070529018CD96
:104C8300E0A2E1504A750C00780C12084AEE2406A3
:104C9300FCEF3400FD850A82850B8312553B85109A
:104CA30082851183E0F91217D17401120823E96098
:104CB3000CE4851082851183F0124D71F079008E1A
:104CC300828F83124D7E1232D26004124D71F085B1
:104CD3001882851983AC82AD83EEFAEFFB12190FAC
:104CE3008A0C8B0D850A82850B83124D6DEA700148
:104CF300EB60628E828F83E0C0E07401120AECD015
:104D0300E0F07402120AEC1267B17401120AEC8526
:104D1300820A85830B780A120846850882850983EF
:104D2300120673EE240E126D39F508780812084A3C
:104D33009018D31206737407120AECE0F9121909DA
:104D43007407120823E9FE74106E700BAA0CAB0DE6
:104D5300120FDF80027E10EEF974040244AA126976
:104D630009850A82F58322126977124B612285082D
:104D730082850983E04420F0A3E022124B5D850A7B
:104D830082850B8322E088828983F0228A828B8347
:104D9300124D9722125862E022C082C08374DE1241
:104DA30008EF8A828B83A3A3A3A3124B4B740E1227
:104DB3000AECE8F0A3E9124E62740C120AEC124EEC
:104DC3005B240DF582EB126D3CC0E0741A120AEC01
:104DD300D0E0F0EA12692EEB124B487420120AEC71
:104DE300124E5B2415F582EB126D3CC0E074081281
:104DF3000AECD0E0F0EA241CF582EB124B48741263
:104E0300120AEC124E5B2411F582EB126D3CC0E0EA
:104E13007409120AECD0E0F074FF851882851983B7
:104E2300F07401120AEC74FFF07402120AEC74FFBE
:104E3300F090821512066F7404120AECAC82AD83F3
:104E43007407120AECAA82AB831216877404120841
:104E53002379007422024868E8F0A3E9F0EA2212F9
:104E6300465FA3A3124E6B22124E6F22E0F8A3E01B
:104E7300F92274EA12036674EE1208EF8A148B1592
:104E8300ECFEEDFF890F7428120AEC1264D9742A20
:104E9300120AECE0F50C742B120AEC123B96742DFB
:104EA300120AECE0F512A3E0F513750D107A1E7BE0
:104EB30000120FD97402120AEC125D847402120AF2
:104EC300ECE07002A3E07003024FD5750E00EEFA1A
:104ED300EFFB1215798A828B83E5827002E583608A
:104EE30016124FE1600574036A700CE508544070B4
:104EF3000674044509F50974045509F9E47001E9D8
:104F03006003750E01851882851983AA82AB8379A4
:104F1300501255327402120AEC124FF9A3125D8437
:104F23007410120AECE50AF0A3E50BF07402120AFE
:104F3300ECE0240B124FEB7402F0120AEC124FF95F
:104F43007402F0120AEC12585A1267B17402120A70
:104F5300EC125FA4E50FF07402120AECE0240C12C9
:104F63004FEBE50CF07402120AECE0241C124FEB39
:104F7300E514F0A3E515F07408120AEC125B45740E
:104F83000A120AECE50CF0851282851383C082C0F5
:104F930083740D120AECAC82AD83D083D082740388
:104FA300120767A90E7402120AECAA82AB831218C5
:104FB30097E964017011E50E6008A90C1218C1127B
:104FC30018E5750D00800B7402120AEC12553B12A2
:104FD3000FDFA90D74121208237F0E020570A3A31D
:104FE300A3A3E0FA74016A22124FEF22124FF322B5
:104FF300F8A3E00267A3124FFFA3A322125E8F025E
:105003003BC674EA120366EAFEEBFF8C088D098E39
:10501300828F83A385820A85830B7408F0EE24169E
:1050230012515D60097410850A82850B83F0EE24AA
:1050330017F510EF12516B600A850A82850B83E026
:105043002408F0EE2411F8EF1269526005750E0E74
:105053008003750E00EE240DF514EF3400F515856D
:105063000A82850B83E0851482851583FAE02A255D
:105073000E8C828D83126BB560139018CBE0F912FE
:1050830014EFE9FA850882850983E02AF08508820E
:10509300850983E0FAC39475400975080075090012
:1050A30002514D7B0012685F7001EB700302514D9A
:1050B300EEFAEFFB121915EA850882850983125D62
:1050C30085EE2402F8125C0D125180F0EE240408E0
:1050D30008125C0DA3A3125180A3A3F0EE241312B4
:1050E3005176F0EE2414125176A3F07A08850C82DF
:1050F300850D83E0600FEE2418124D6AE50824083D
:105103001264CF7A10851082851183E0600FEE243C
:105113001A124D6A8A0CE508250C1264CFEE240B93
:10512300126D39F510A3E0F511751200781012080D
:1051330042851482851583E0FC7D0012553FE50E00
:1051430028FAE439125159120823AA08AB09024F6D
:10515300DC7D00EEFAEFFB0241BFF50CEF3400F506
:105163000D850C82F583E0223400F511851082F55C
:1051730083E02212697712518AA3A3A322A3A31265
:10518300691AA312518A22E0850882850983A3A3A1
:10519300A32274F61203668A828B83E0FC9018D0F4
:1051A30012521E74027808120A03E5084CFCAD097A
:1051B300EA241212521874067808120A03E5084CFE
:1051C300FCE5094DFDEA24111252187409780812FE
:1051D3000A03E5094DFDEA2416125218740B7808E8
:1051E300120A03E5094DFDEA2417125218740C78CC
:1051F30008120A03E5094DFD8A828B83A3A3A3A3A7
:10520300A3A312521E740A7808120A03ECFAE509E2
:105213004DFB025851F582EB12697AE0F5087509E6
:105223000022F085188285198322E0F9025C12744A
:10523300F01203668A088B09ECFEEDFF750A01E99B
:10524300C3940850057900025331E98E828F83128B
:10525300534F121921E96003750A00125584C0E007
:10526300EE2411123293D0E012557FC0E0EE2412E7
:10527300123293D0E012533DA882A9831255516094
:1052830010E5082408FAE5093400FBEE2413125351
:10529300628E828F83A3A3A3A3A3A3A3A3E060151A
:1052A30088828983E0FAE5082AFAE5093400FBEEEF
:1052B3002415125362EE2419126BABEE241B126BEE
:1052C300AB126BB4F50B8E828F83E0F50CC3950B99
:1052D3005003025248850B0EE508250EF8E5093404
:1052E30000F9EE241DFAEF3400FBEAFCEBFD8C829F
:1052F3008D831253482417FAEF3400FB8A088B0975
:10530300E50CC3950B8A828B83125356A3A3E060EB
:105313001B8A828B83E024F2F0E8240EF8E912550D
:105323005BFA850882850983E0C39AF0A90A8005A0
:1053330074081208237F0802057012534122F08E6D
:10534300828F83A322E8F0A3E9F0EE2212465F12D4
:105353004A052212535A22F08E828F83023BC712D0
:105363006977EAF0A3EB12691AE02408F02274F4D7
:105373001203668A088B09EA125401F0EA131354E4
:105383003F1253FAA3A3A3F0EAC41313125401A3C5
:10539300A3F0E48C828D83A3A3A3A3A3F08A0A8B37
:1053A3000B7409780A120A771253EFF0EC2418F5FC
:1053B30082ED126BAE8A0A8B0B740B780A120A7792
:1053C3001253EAF08A0A8B0B740C780A120A7712CA
:1053D30053EAA3F0740D7808120A77A90880031220
:1053E30008237F040205701253EFA322E50A540138
:1053F3008C828D83023BC5540F8C828D8322540390
:105403008C828D83A3A322C082C08379009018CAA3
:10541300125BF4A3A3A3A3E0600FEC70268A828B34
:1054230083A3A3E0701D09801AEC60178A828B8323
:10543300A3A3A3A3A3A3A3A3A31254497003A3E009
:105443006B70E302486B124A059018D3E06A22742A
:10545300EE1203668A088B09890CECFEEDFF8A8243
:105463008B8312553B121921125584C0E0EE24118F
:10547300123293D0E012557FC0E0EE241212329321
:10548300D0E012533D85820A85830B12555160107B
:10549300E5082408F8E5093400F9EE2413125571E0
:1054A3008E828F83A3A3A3A3A3A3A3A3E060091264
:1054B300553FEE2415125571EEFAEFFB121927E949
:1054C300F50D7066850A82850B83E0F50EF510E510
:1054D300082510FAE5093400FBEE2417F8EF340031
:1054E300F988088909EE241D1244BA8E828F83A39A
:1054F300A3A3A3A3A3E07012EAF8EBF98C828D8334
:10550300125A53E50CC3950E8019EA240EF8EB12D8
:10551300555BFB850A82850B83E0FAE50CC39A246D
:10552300F2C39B850882850983F0A90D0244AD125D
:105533001351851882851983124A0522850A8285AB
:105543000B83E0F8E50828F8E5093400F92274082C
:1055530012535AA3A3A3E0223400F98C828D83E86B
:10556300F0A3E9F09018CBE0F91214EFE9221269E5
:1055730077E8F0A3E91232EA2408F022125D5180A1
:10558300D2850882850983A3A31255B9E0F9EA8E6F
:10559300828F83A3A3A3A3A3A3A3A3A31255BE1282
:1055A30055B9A3A3E0F9EAF8EE240B126977E812E0
:1055B30055BEA3A3E022E0FA02518BF0A3E9125DEA
:1055C3005522C082C0837A487B1979E21213517A3B
:1055D300487B1902486BC082C0839018D312553B95
:1055E30002486BC082C08374FE1208EF851882855F
:1055F3001983AA82AB83794B125532024866C08263
:10560300C083794A12135102486B74F612036690F1
:105613001950E0FE04F0EEF91218C1EA7001EB70C4
:10562300EEEE60EBF902585174EC120366EAFEEBFE
:10563300FF8C128D13890E7414120AECE0F50A74B0
:1056430015120AECE0F50B750C00750D00121A41EA
:105653008A088B09EA7001EB7017E50B60030257A8
:1056630041A90EAC12AD13EEFAEFFB121A53025717
:10567300FAEA2402F8EB3400F9E50E601688828911
:1056830083E0FAE50E2AFAE4340013EA13F0700318
:105693007401F0E50B700302572C90195BE0700264
:1056A300A3E0600990195B12585A121EF0E50A70C4
:1056B3000EE4850882850983F0750D0102575A901F
:1056C30018CDE0A2E1400302576290195DE0700239
:1056D300A3E0600FA90AAA08AB0990195D12585AF2
:1056E300121EF0850882850983E0FA90230012696F
:1056F3008FEA98E499C365D03350098508828509F8
:1057030083E004F0850882850983E0FA902300E4AE
:10571300936A7043750C01EEFAEFFB1217E3E4850D
:105723000882850983A3F0802E9019FDE0C0E088EC
:10573300828983E0FAD0E0C39A501C0256BC7401FC
:10574300650B7013E50E600F9018CDE0A2E15015C4
:10575300EEFAEFFB1217E39018CDE0A2E1402574B7
:1057630001650B701FE50A601690195FE004F0C035
:10577300E0901A19E0FAD0E0C39A4008750C01E4EE
:1057830090195FF0E50D7004E50C606B9018CDE0A7
:10579300A2E15030EEFAEFFB1215798A088B09A8C3
:1057A30008A909E87001E9601BE82405F582E912FC
:1057B3003296E50D6004E0C2E0F0E50C6039E0D21A
:1057C300E0F08004E50C602F9018CDE0A2E15012C8
:1057D300EEFAEFFB121573E96008EEFAEFFB7900BE
:1057E30080129018D6E06E7003A3E06F7009EEFA92
:1057F300EFFB79011216B10264E4C082C083740125
:105803006A7001EB70077A0112582B8016901A10F8
:10581300125D84EA7001EB600512274480057A016A
:105823001225A002486B7A207B0090192DE0F91213
:105833000F9722C082C083901A12125D8402486BB4
:10584300C082C083901A1480F174091208237F0266
:105853000205708E828F8312585E221258622212C2
:10586300586622E0F8A3E0F583888222A2F0E4924E
:10587300E012587D795212135722851882851983B5
:10588300F0024B5812587D79421213572274F412C6
:10589300036674EC1208EF7401120AECAC82AD8358
:1058A3001259BA90191FE0640270367A0479001213
:1058B300156112690EEA98EB995017121555E970A4
:1058C300117405120AEC7401F07407120AEC7401E6
:1058D30080527405120AECE4F07407120AECE480B7
:1058E300439082157808120A957583187582EB78B0
:1058F3000812092F60047A0180027A007405120AE3
:10590300ECEAF09082157808120A9575831875826F
:10591300EF780812092F60047A0180027A00740775
:10592300120AECEA12597D120AEC12596C7407122E
:105933000AECE0700B7405120AECE07003E48002D9
:105943007401851882851983F0901A35E0901A3412
:10595300FAE05AFA851882851983E05A1258837936
:105963004112135774140253E2AA82AB83121879BB
:105973007A307B197945121357221259AF740122D9
:1059830074F712036674ED1208EFE9FE90192C12F6
:105993005FAB1259BA7412120AECEE1259AF8518A2
:1059A3008285198312596C74130249C2F0901A3913
:1059B300E0F97C307D1922901A39E0F97A307B19AD
:1059C30012187F2274F4120366EAFEEBFF901A3B6F
:1059D300E064FE7004A3E064FF705F7A16125BDF7D
:1059E3007001EB605574018A828B83126933A3A320
:1059F300A3A3A3E0600474028002740188828983F4
:105A0300125F248A828B83A3A3A3A3A3A3A3A3A329
:105A1300125C19FCA3E0FDEA24020A0AEB1264D229
:105A2300E5082413F582E509126BAE125A40EE2401
:105A33000B1232931260E4125A530253E5AA08ABD5
:105A43000990192DE0F9120F6722E0123B74A3A30A
:105A5300E8F0A3E9F02274F212036674FD1208EF72
:105A63008A088B09890A8C0B7401120AEC740412DC
:105A73005D8A8A0C8B0DAE0CAF0DEE7001EF7003D7
:105A8300025B16EE240B124B45740788828983F060
:105A9300A3A882A983E50824081244C3125B3A8AA7
:105AA300828B83A3125B3A850882850983A3A3A310
:105AB300A3A3A3A3A3A3A3124D88EE2416125B32C0
:105AC300EE2418123293125B45EE2417F582EF127F
:105AD3006384EE241A125D7D125B2112696F7403D5
:105AE300650A60067401650A70087440F0A37404C3
:105AF30080057440F0A3E4F0901A3B125A4D7401F0
:105B0300650B7006EE2411126BABEEFAEFFB121667
:105B13002D80027910901A3B125B56022596EE24D3
:105B230013F582EF125B2B223400F583740122F507
