:020000040000FA
:06000000020A420201D5D4
:03002B000208A91F
:030033000205F7CC
:0300430002073D74
:0300530002012483
:03006B000205D1BA
:1000830002017101000000000000000000000000F8
:1000930000000000006E6F7468696E670000000264
:1000A300020000200E000000000000BC0E00000053
:1000B30000000000000606060606001414141414BB
:1000C3000006FFB10B010200F717000000E8036A06
:1000D3001803E80364000202000800000501070199
:1000E30001051E02051E020A03B80B803E0101FF33
:1000F300FF1402000000010101010503010F10FEBE
:10010300FFBA1FBA1FBA1FBA1F761E701EBA1F7F0F
:1001130022000000004323000000000C0000000C3C
:1001230000C0E074F21203EDA2AFE433FED2AFA934
:10013300A7A8A1E85954106008120BC275A1EF805B
:1001430023E8A2E092F0E9A2E082F05017906198D0
:10015300E0F8900636E0C398A2D265D0335002E8A7
:10016300F075A1FEEEA2E092AF7F0102044CC0E065
:1001730074F21203EDA2AFE433FED2AF9061A4E0B8
:10018300F8759B00E59158540860087591F7120CB7
:10019300048023E59158541060087591EF120C0AFE
:1001A3008014E591A2E092F0E8A2E082F05007E02B
:1001B300C2E0F0120D429061A3E0F8E5E95854045F
:1001C300600E120D1875E9FB906193E0A2E640F210
:1001D3008092C0E074F21203EDA2AFE433FED2AF1B
:1001E3009061A5E0F8E5BF585404600675BFFB12A3
:1001F3000D5A020167C3E498F8E499F912023980B1
:1002030026C3E49AFAE49BFBE920E7E9120239E406
:1002130098F8E499F922C3E498F8E499F9120239B9
:10022300E498F8E499F9C3E49AFAE49BFB22EB20FF
:10023300E7CFE920E7E0B90010BB0008E88AF084C3
:10024300F8AAF022E4FBC8FA22EB70227B10C83331
:10025300C8C933C9335007C39AC3DBF280069A5027
:10026300012ADBEAC833F4C8C933F4C9FA2275F0AA
:1002730008E4C833C8C933C933C99AC99B5004C9F0
:100283002AC93BD5F0ECFBC833F4C8E4C9FA220809
:100293000808EAC0E0EBC0E086F0E7A4FA18098694
:1002A300F0E7A42AFA180986F0E7A42AFA180986BF
:1002B300F0E7A42AFA1986F0E7A4FBE5F02AFA1975
:1002C3000886F0E7A42BFBE5F03AFA190886F0E775
:1002D300A42BFBE5F03AFA18180986F0E7A4C5F059
:1002E3002BFBE43AFA1908E7C5F0C6A426F6E5F0B5
:1002F3003BFBE43AFA1886F0E7A4F6E5F00826F6A5
:10030300E43B08F6E43A08F6D0E0FBD0E0FA22E456
:10031300CFC0E0E4CEC0E0E4CDC0E0E4CCC0E07503
:10032300F020E626F608E633F608E633F608E63369
:10033300F6181818EC33FCED33FDEE33FEEF33FF04
:10034300C3EC9709ED9709EE9709EF97191919402F
:100353000FFFEC97FC09ED97FD09EE97FE191906BF
:10036300D5F0BFECF709EDF709EEF709EFF7191927
:1003730019D0E0FCD0E0FDD0E0FED0E0FF2225184C
:10038300C582C0E0E51934FFC583C0E0E518C39515
:100393008224F810AF088583198582188008858325
:1003A30019858218D2AFCEF0A3E520F0A37808E632
:1003B30008F0A3DEFAEFF0A3E58124FAF8E608F0EB
:1003C300A3E608F0A3E608F0A30808E608F0A3E60E
:1003D30008F0A315811581D0E0FED0E0F815811552
:1003E300811581E8C0E0EEC0E022C0D02518C582A7
:1003F300C0E0E51934FFC583C0E0E518C395822446
:10040300F310AF08858319858218800885831985C1
:100413008218D2AFC8F0A3E9F0A3EAF0A3EBF0A3EC
:100423007908E709F0A3D8FAECF0A3EDF0A3EEF016
:10043300A3EFF0A3D0E0F0A3D0E0F0A3D0E0F0A3CB
:10044300E520F0A3E5F0F0A322851983851882E067
:10045300C0E0A3E0F9A3E0FAA3E0FBA37808E0F689
:1004630008A3DFFAE0FCA3E0FDA3E0FEA3E0FFA303
:10047300E0C0E0A3E0C0E0A3E0F5D0A3E0F520A353
:10048300E0A3F5F010AF08858319858218800885ED
:100493008319858218D2AFD082D083D0E0F8D0E020
:1004A30032120AFCB900030204E3E4900301788BDF
:1004B30079188002F0A3D8FCD9FA7A8B7B1A9000C2
:1004C30086789F79018015E493A3AD82AE838A82F7
:1004D3008B83F0A3AA82AB838D828E83D8E9D9E77D
:1004E30075827775838974041208207582E8758391
:1004F300217400120820D083D082ECC0E0EDC0E06C
:10050300E493A3FCE493A3FDED4C600D120615ECFC
:1005130024FFFCED34FFFD80EFE493A3FCE493A3FD
:10052300FDED4C600D1206E8EC24FFFCED34FFFDFD
:1005330080EFD0E0FDD0E0FCE493A3C0E0E493C0FF
:10054300E022D083D082E9C0E0E493A3C386F0C560
:10055300F095F0F908E493A386F0C5F095F0700BDD
:10056300E493A3C3994005E9048002A3E475F00270
:10057300A42582F582E5F03583F583D0E0F9E49391
:10058300A3C0E0E493C0E022851983851882E0A329
:10059300FEE0A3F5207808E0A3F608DFFAE0A3FF66
:1005A300E0A3C0E0E0A3C0E0E0A3C0E0E0A3C0E0BC
:1005B300E0A3C0E010AF0885821885831980088501
:1005C3008218858319D2AFD083D082020826C0E077
:1005D30074F21203EDA2AFE433FED2AFE589A2E1D8
:1005E30050031220F2758900C2C5EEA2E092AF7FDC
:1005F3000102044CC0E074F21203EDA2AFE433FE37
:10060300D2AFE58BA2E050031220F2758B00C2E853
:1006130080D8C0E0C3E49396087401939618400F02
:10062300E49366700808740193661870007019A348
:10063300A3C3E49396087401939618A3A3400DD023
:10064300E0D0E0D0E0020535A3A3A3A3A3A3D0E0A9
:1006530022D083D082C5F0E493A3C5F0C395F0F50F
:10066300F0E493A3C395F04005E5F0048001E4753D
:10067300F002A42582F582E5F03583F583E493A3A4
:10068300C0E0E493C0E0227404800474028000CCD0
:10069300C0E0EDC0E0E518C39CCCAD1950011D10BE
:1006A300AF068C188D1980068C188D19D2AF1207DE
:1006B30082D0E0FDD0E0FC2274028000CCC0E0EDEB
:1006C300C0E0E518C39CCCAD1950011D10AF068CDA
:1006D300188D1980068C188D19D2AF120760D0E0DF
:1006E300FDD0E0FC22C0E0C0F088F0E4936670081F
:1006F3000874019366187000A8F0A3A3700BD0F0E0
:10070300D0E0D0E0D0E0020535A3A3D0F0D0E022C2
:10071300D083D082CCC0E0E493A360061207E21436
:1007230070FAE493A360061208F41470FAD0E0FCA4
:10073300E493A3C0E0E493C0E022C0E074F21203A8
:10074300EDA2AFE433FED2AFC2C0E5D1A2E45003C1
:10075300120B38EEA2E092AF7F0102044CCAC0E054
:10076300E493A3C582CCC582C583CDC583F0A3C55D
:1007730082CCC582C583CDC583DAE5D0E0CA22CA5F
:10078300C0E0E0A3C582CCC582C583CDC583F0A3F9
:10079300C582CCC582C583CDC583DAE6D0E0CA2243
:1007A3002518F8E43519F9222518FAE43519FB223E
:1007B3002518FCE43519FD222518FEE43519FF221E
:1007C3007009080808226016181818C6C333C6082B
:1007D300C633C608C633C608C633C6D5E0EA22C048
:1007E300E0E493A3D39C5010E493A3C39C400AD0AA
:1007F300E0D0E0D0E0020730A3A3A3D0E022C008FA
:10080300C3E096F50808A3E096420808A3E09642E1
:100813000808A3E09645087001D3D00822C09FF5CD
:100823009FE473D09F22D083D082C09FE493C0E023
:10083300740193C0E0740293F59F2200C0D0251881
:1008430010AF08F518500C05198008F5185002056B
:1008530019D2AFD0D0227404800A740380067402C4
:1008630080027401C0E0F404120874D0E0120ABFDD
:10087300222518F58210AF08F518400C15198008C9
:10088300F51840021519D2AF85198322BB0102E77F
:1008930022C082C08389828A83BB0003E08002E492
:1008A30093D083D08222C0E0C0D0E8C0E0A8A8D211
:1008B300AFC2C7E8A2E792AFD0E0F8D0D0D0E03221
:1008C3006016080808C6C313C618C613C618C6138D
:1008D300C618C613C6D5E0EA22C3E0C696F608A337
:1008E300E0C696F608A3E0C696F608A3E0C696F619
:1008F30022C0E0E493A36C7009D0E0D0E0D0E00222
:100903000730A3A3D0E022251810AF08F518400C38
:1009130015198008F51840021519D2AF22C3E796BE
:100923000809E7960809E7960809E796A2D265D071
:100933003322C3E09608A3E09608A3E09608A3E059
:1009430096A2D265D03322E066701008A3E06670E9
:100953000A08A3E066700408A3E06622C3E096F0E9
:1009630008A3E096F008A3E096F008A3E096F0222F
:10097300E026F608A3E036F608A3E036F608A3E07F
:1009830036F622E026F008A3E036F008A3E036F0BE
:1009930008A3E036F022E046F008A3E046F008A3FF
:1009A300E046F008A3E046F022E046F608A3E0465E
:1009B300F608A3E046F608A3E046F622E647F60863
:1009C30009E647F60809E647F60809E647F622E08E
:1009D30056F008A3E056F008A3E056F008A3E0564B
:1009E300F022E056F608A3E056F608A3E056F60810
:1009F300A3E056F622E657F60809E657F60809E695
:100A030057F60809E657F622E627F60809E637F609
:100A13000809E637F60809E637F622700422600D66
:100A230018C6C333C608C633C6D5E0F41822E4C3D8
:100A330096F608E496F608E496F608E496F6227528
:100A4300D000758140751801751903000204A46074
:100A53000D08C6A2E713C618C613C6D5E0F322C312
:100A6300E7960809E7960809E7960809E79622C377
:100A7300E09608A3E09608A3E09608A3E09622C6B2
:100A8300F4C608C6F4C608C6F4C608C6F4C622608F
:100A93000C08C6C313C618C613C6D5E0F422E6F085
:100AA30008A3E6F008A3E6F008A3E6F022E0F608C0
:100AB300A3E0F608A3E0F608A3E0F622CAC0E0E646
:100AC300F0A308DAFAD0E0FA22E8F0A3E9F0A3EA07
:100AD300F0A3EBF022EAF0A3EBF0A3ECF0A3EDF02C
:100AE30022E0F8A3E0F9A3E0FAA3E0FB22E0FAA3F3
:100AF300E0FBA3E0FCA3E0FD22E5C754F84401F5C5
:100B0300C77901222518F582E43519F58322C2AF8E
:100B130075D69F020000221208296ED703120829F6
:100B230026D8031208299CD803120829AFD9031227
:100B330008293ADB03120829A3DB03120829F2DB95
:100B430003120829FBDB031208290ADC0312082914
:100B530020DC0312082933DC031208293CDC0312CE
:100B630008294FDC03120829A4DC03120829A3DE99
:100B730003120829D7DE03120829F9DE0312082914
:100B830012DF031208292BDF0312082905E00312E1
:100B93000829B8E003120829C19404120829F39420
:100BA30004120829FF940412082931950412082914
:100BB30059950412082986950412082903960412EC
:100BC300082931960412082971FD0312082991FDA1
:100BD30003120829D0FD03120829DFFD0312082997
:100BE300FEFD0312082964FE031208296DFE031299
:100BF3000829CAFE03120829EEFE03120829AFFFD3
:100C030003120829BCFF03120829CDFF0312082988
:100C13008BA704120829A8A70412082939800412F3
:100C230008297A81041208298881041208299B81E2
:100C330004120829B08104120829C5810412082965
:100C4300D88104120829518204120829E882041267
:100C530008293C83041208294C8304120829EAA3B7
:100C6300041208290EA40412082936A40412082920
:100C73005EA404120829C89004120829EF900412F4
:100C830008290D9104120829759104120829857DFC
:100C9300001208299E7D00120829AA7D0012082946
:100CA300BE7D00120829DC7D00120829E67D0012B2
:100CB3000829F07D00120829037E00120829557EB9
:100CC300001208298E7E00120829BD7E0012082911
:100CD3000B7F001208295A7F00120829757F001222
:100CE30008297F7F00120829907F00120829D37FEB
:100CF300001208291AA60412082958C70312082942
:100D030084C703120829A1C703120829B4C7031211
:100D13000829CAC70312082937C8031208296AC851
:100D230003120829DECB0312082918CD0312082960
:100D33004BCD03120829AFCD031208299DCE031210
:100D43000829C5CE03120829DACE03120829EACEF0
:100D5300031208292ECF031208297DCF0312082975
:100D63008DCF03120829F49D041208290E9E041244
:100D73000829369E041208294F9E04120829739EDF
:100D830004120829919E04120829A89E0412082916
:100D9300D69E04120829F19E0412082947A70412BB
:100DA300082900FA0312082910FA0312082915FB6F
:100DB3000312082947FB031208296DFB03120829B4
:100DC30090FB03120829A7FB03120829E1FB031276
:100DD300082946FC031208297FFC03120829BEFCDC
:100DE30003120829EFFC031208290FFD0312082937
:100DF300439B04120829619B04120829AF9B041228
:100E03000829F79B04120829969C0412082922A298
:100E1300041208292C98041208296B990412082932
:100E2300E2F90112082961FA0112082981FA011273
:100E33000829A8FA01120829BCFA0112082914FB8F
:100E43000112082938FB01120829AAFC01120829FA
:100E53006EFD01120829CEFD011208291FFE0112A1
:100E6300082956FE01120829C2FE01120829EEFEC6
:100E7300011208296BFF01120829BFFF011208297B
:100E83008C9604120829A596041208292C9704129B
:100E93000829C79704120829EF9704120829238CFD
:100EA30004120829978C04120829A28C0412082919
:100EB300C38C0412082935B50312082938B5031267
:100EC3000829E1B50312082920B6031208294FB6F1
:100ED3000312082985B603120829B3B60312082999
:100EE300FDB60312082944B703120829B7B8031241
:100EF3000829E4B80312082911B90312082994B97F
:100F03000312082935BA031208296BBA03120829F8
:100F130003BC03120829CDBC03120829BDBD03126B
:100F23000829F9BD0312082931BE03120829AA8E24
:100F330004120829E68E04120829DB8F04120829FB
:100F4300C59004120829AB9C04120829E19C0412E1
:100F53000829FB9C041208293D9D041208294D9D74
:100F630004120829E79D04120829F19D0412082997
:100F7300DDF402120829E7F40212082928F5021207
:100F83000829ADF502120829CAF5021208296AF6E2
:100F93000212082908F90212082911F90212082974
:100FA30058F90212082981F902120829D9F9021203
:100FB300082961FA02120829A1FA02120829F9FA8A
:100FC3000212082961FB0212082994FB0212082964
:100FD30008FC021208295FFC021208299AFC02127B
:100FE3000829CDFC02120829DFFC02120829F1FCB2
:100FF3000212082910FD02120829B9FD021208295C
:1010030001FE0212082927A104120829D992041209
:1010130008294793041208296693041208295C944B
:10102300041208290080031208292B8103120829BE
:10103300608103120829FB82031208292C830312FF
:101043000829B68503120829F685031208298A8719
:10105300031208292788031208297988031208290B
:10106300FB8803120829338903120829758903129F
:101073000829EB8A03120829898C03120829D88EC0
:1010830003120829068F031208292A8F031208293D
:10109300338F03120829898F03120829249003121E
:1010A3000829E69303120829DE7F00120829F47F3A
:1010B300001208296BA6041208295B83041208296D
:1010C3006D83041208290784041208294284041238
:1010D30008295D8404120829818404120829C28422
:1010E30004120829F284041208292385041208290A
:1010F30099860412082927A00412082986A004123D
:101103000829C4A00412082905A104120829C6A8A5
:101113000312082914A90312082984A90312082910
:1011230075AA031208290EAB031208299DAB0312FB
:101133000829EAAB031208293CAC0312082976AC50
:1011430003120829D3AC03120829E7AC03120829B8
:101153002FAD031208292CAE0312082967AE031220
:101163000829E1AE0312082962AF0312082972AFFE
:101173000312082985AF03120829C6AF03120829F1
:1011830002B0031208295BB00312082974B00312DA
:10119300082987B00312082900B1031208297EB277
:1011A30003120829A0B203120829D5B20312082991
:1011B300FDB20312082928B3031208298BB30312C3
:1011C30008292BB40312082950B4031208295AB46E
:1011D300031208295DB403120829BAB403120829BB
:1011E300E2B403120829F5B40312082928B503123F
:1011F30008292BB503120829B6A604120829CEA67E
:1012030004120829BDCF031208290CD003120829A0
:10121300AFD10312082947D30312082989D3031234
:101223000829A5D403120829E0D50312082902D6F8
:10123300031208294CD603120829CDD60312082914
:1012430098C102120829C2C10212082948C2021217
:101253000829C1C20212082941C3021208299DC3E9
:1012630002120829DFC30212082955C402120829F1
:10127300D8C40212082951C50212082998C50212BE
:101283000829A8C90212082965CB021208298ACBAA
:10129300021208298DCC0212082990CC02120829C7
:1012A30063CD02120829A2CE0212082922CF02120C
:1012B3000829A6D1021208291ED20212082915D321
:1012C3000212082971D60212082981D602120829AE
:1012D300E7D70212082926D8021208295ED902127A
:1012E300082964DA0212082918DB021208296F940C
:1012F3000312082912950312082986950312082957
:101303009595031208291396031208298A96031246
:101313000829B39703120829D7970312082950986D
:10132300031208299B9803120829F9980312082924
:10133300D99B03120829FE9C03120829749D0312EA
:101343000829609F031208290EA003120829B8A0D8
:101353000312082917A1031208297CA103120829E3
:10136300EAA2031208298BA403120829B7A50312C2
:10137300082951A603120829BBA60312082997A717
:1013830003120829B3DB0212082929DC02120829F7
:1013930099DC02120829E3DC0212082979DD021222
:1013A300082965DE02120829A7DE0212082926DFB2
:1013B3000212082982DF02120829C3DF0212082958
:1013C3002CE002120829A1E002120829EFE0021220
:1013D300082952E102120829AFE10212082929E281
:1013E3000212082950E2021208299BE2021208297C
:1013F300F6E2021208292AE3021208292EE4021255
:10140300082998E4021208298FE5021208294CE7FB
:101413000212082962E702120829A4E70212082926
:101423006BE802120829E5E8021208291FE90212F3
:1014330008298DE90212082954EA0212082965EAEB
:1014430002120829FEEA0212082941EB02120829B6
:10145300A9EB02120829D4EB02120829DEEB0212CF
:10146300082906EC021208295AEC0212082984EC16
:10147300021208295EED021208297CEE02120829E5
:10148300D7EE0212082925EF0212082943EF0212B0
:101493000829CCEF0212082989F0021208298EF0DC
:1014A30002120829F9F002120829F4F1021208299C
:1014B300D3F20212082993F302120829F1F302125C
:1014C300082909F402120829A686041208295F874D
:1014D300041208291888041208298088041208298C
:1014E300F4880412082963F60312082982F603120A
:1014F3000829D1F603120829EDF6031208291DF76E
:101503000312082933F7031208294CF70312082999
:1015130016F8031208294FF80312082960F9031279
:1015230008296BF9031208297DF90312082986F9A2
:101533000312082990F9031208293BF20312082920
:10154300EEF503120829FCF5031208299C8A0412FC
:10155300082901A704120829FEA704120829D9E9BA
:101563000312082919A50412082943A504120829FE
:10157300C7A7041208292AA804120829DDFF0112AB
:1015830008290080021208293A800212082967807C
:101593000212082915810212082942810212082920
:1015A300098202120829568202120829B083021204
:1015B3000829E683021208297D8602120829DE889B
:1015C3000212082901D7031208291D8A02120829C9
:1015D3003A8A021208290A8D021208293B8D021247
:1015E3000829938D02120829CD8D021208291F8E16
:1015F30002120829938E02120829268F0212082943
:10160300388F02120829DA8F021208299B900212DE
:1016130008294C91021208299091021208292B9251
:1016230002120829D19202120829B2930212082940
:101633000A940212082950940212082930950212C2
:1016430008293D9502120829519602120829569637
:10165300021208294C97021208295A9702120829E4
:101663005D97021208296097021208298F970212C8
:101673000829BE9702120829F797021208297599BB
:10168300021208292D9A021208294D9A02120829DA
:101693008F9A02120829139C02120829789C0212BD
:1016A3000829329D02120829649D021208297E9D91
:1016B30002120829819D02120829DD9D02120829C0
:1016C3008C9F02120829EB9F0212082923A0021201
:1016D3000829FEA002120829F9A202120829C3A3AD
:1016E30002120829F1A40212082909A502120829E5
:1016F30021A50212082932A50212082981A5021286
:1017030008298EA502120829F1A50212082919A693
:1017130002120829EEA70212082979A80212082941
:1017230058AA0212082918AB0212082960AB021248
:101733000829CCAB02120829EBAB02120829DFAC53
:101743000212082962AF02120829D8B0021208292E
:1017530074B10212082900B20212082924B202123B
:10176300082908B302120829BFB302120829ACB52D
:101773000212082944B6021208297CB6021208296B
:10178300F7B602120829DBB7021208298AB8021237
:101793000829C8B802120829DDB80212082978B945
:1017A30002120829A7BB021208296CBD02120829DC
:1017B3008ABD02120829A8BD0212082960BE0212BE
:1017C30008297AC1021208298A82011208299C82F7
:1017D30001120829BB820112082927830112082953
:1017E300B48301120829868401120829F78401129F
:1017F30008291285011208293685011208297185E5
:1018030001120829AE8501120829D1850112082980
:101813001F8601120829F98601120829AA870112D5
:1018230008293A88011208292A89011208296D8991
:1018330001120829918901120829E3890112082953
:10184300088A011208293A8B01120829678B0112B1
:101853000829798B01120829838B01120829168C18
:1018630001120829858C011208292E8D01120829DD
:10187300368D01120829A08D01120829608E0112EC
:101883000829D68E01120829138F01120829768F91
:1018930001120829CC9001120829EC9001120829A1
:1018A3004E9101120829EB91011208294492011269
:1018B3000829D392011208298F9301120829CD9385
:1018C300011208293C94011208299694011208294F
:1018D300CE94011208290096011208293A970112A1
:1018E30008299B9701120829E497011208290C98EB
:1018F300011208298F98011208290F99011208294A
:10190300829901120829A799011208291B9A011229
:101913000829B69A011208293C9B01120829639BE6
:1019230001120829889C011208299B9C011208298D
:10193300229D01120829319D01120829769E011268
:101943000829199F01120829589F01120829939FFA
:101953000112082977A001120829B3A2011208294C
:10196300BDA201120829C7A201120829D1A201129E
:101973000829DBA201120829F5A201120829FFA2F6
:101983000112082909A30112082913A30112082926
:1019930038A3011208298EA3011208299CA301125E
:1019A3000829C0A301120829E4A30112082943A4AA
:1019B300011208299AA401120829B8A401120829BE
:1019C30028A50112082965A501120829ACA5011251
:1019D300082914A601120829A3A601120829DEA7C3
:1019E300011208292EA80112082964A90112082945
:1019F300C8AA0112082954AD0112082926AF011201
:101A03000829DDB00112082943B10112082953B294
:101A13000112082904B30112082949B30112082944
:101A2300FAB30112082988B401120829B0B40112CB
:101A3300082972B5011208294AB8011208296FB89A
:101A430001120829C1B801120829BFB901120829D6
:101A5300F7B90112082937BA0112082996BA0112F7
:101A63000829B4BB0112082914BC01120829F8BCC7
:101A73000112082902BF0112082924BF01120829F3
:101A8300B7C001120829FDC001120829D1C10112F2
:101A9300082964C20112082993C201120829BEC28F
:101AA30001120829A9C301120829E5C30112082953
:101AB30047C401120829D5C401120829D8C4011248
:101AC300082947C5011208292F2600120829812653
:101AD30000120829D82800120829242900120829ED
:101AE300172A00120829822A00120829C32A001281
:101AF3000829192C001208293C2E00120829D32E7C
:101B030000120829672F0012082936360012082907
:101B1300CA36001208294739001208292B3A001245
:101B23000829D73A00120829083C00120829FE3C6C
:101B330000120829284000120829EB410012082945
:101B43004B4200120829FF42001208292A430012BF
:101B53000829B743001208299B44001208296F453E
:101B630000120829034600120829304600120829EA
:101B73005246001208296E480012082940490012F3
:101B830008298D4900120829FE4900120829AC4A88
:101B930000120829E14A001208292F4B00120829D4
:101BA3005F4B001208299D4B00120829014C0012BB
:101BB3000829064C00120829614C00120829894C97
:101BC300001208299F4D00120829004E001208290F
:101BD300634E00120829F64E001208292B510012F9
:101BE3000829045200120829945300120829245585
:101BF30000120829C15500120829005700120829AC
:101C0300995700120829E157001208295459001264
:101C13000829685900120829755900120829905992
:101C2300001208299C5900120829BA5900120829E0
:101C33008C5B00120829095C00120829FC5C001265
:101C43000829405D00120829D25D00120829D75ED9
:101C530000120829A45F001208290E610012082946
:101C6300136200120829A962001208292C630012CA
:101C73000829436300120829676300120829716366
:101C8300001208297D63001208299B6300120829AA
:101C9300DF63001208293064001208298D640012E2
:101CA3000829EE6400120829F56500120829066761
:101CB30000120829A5670012082992680012082952
:101CC300296900120829C06900120829906A0012C4
:101CD3000829BF6A00120829316B00120829DF6B3B
:101CE30000120829056C001208291D6D001208292D
:101CF3003C6D00120829AB6D00120829246E0012F6
:101D030008294A6E00120829766E00120829C16E4E
:101D130000120829416F00120829E87000120829EF
:101D2300117100120829967100120829F07100122E
:101D330008291572001208295B72001208297872AB
:101D4300001208292673001208296073001208295B
:101D530077BE03120829BBBE03120829DCBE031297
:101D6300082920BF031208298ABF0312082994BF38
:101D730003120829A4BF03120829D9BF0312082993
:101D830004C303120829BEC403120829AAC60312F6
:101D9300082915C6011208294FC60112082922C7AE
:101DA30001120829F8C70112082927C901120829B5
:101DB300B0CA011208292ECB01120829F4CB011253
:101DC300082915CD0112082987CD01120829E9CD6B
:101DD300011208294BCE0112082955CE01120829F8
:101DE30093CE01120829FCCE011208299BCF0112C0
:101DF300082919D001120829CCD0011208293ED193
:101E03000112082964D10112082994D10112082969
:101E1300C1D10112082967D20112082977D2011210
:101E23000829CAD201120829D6D201120829E2D2FE
:101E330001120829EBD2011208294ED301120829F5
:101E4300AED301120829FFD3011208291AD40112B3
:101E530008294AD4011208296BD40112082977D41E
:101E630001120829FED5011208291CD601120829DE
:101E730085D60112082998D601120829A9D601127C
:101E830008293CD7011208293FD80112082935D95E
:101E930001120829B8D901120829C1D90112082948
:101EA30024DA011208293BDA011208297DDA01122A
:101EB3000829C2DA01120829F1DA0112082928DBFC
:101EC3000112082945DB0112082969DB01120829DF
:101ED300AADB011208299DDC01120829E3DC0112A7
:101EE30008291EDD011208297DDD01120829A5DD5F
:101EF30001120829DEDD01120829ECDD011208298F
:101F03004DDE011208298ADE01120829CCDE0112F6
:101F13000829FDDE0112082931DF011208293CDFFF
:101F2300011208295ADF0112082923E001120829A6
:101F33002DE00112082972E001120829DCE00112E8
:101F43000829F0E001120829E8E101120829FBE160
:101F53000112082910E201120829B0E2011208292E
:101F630014E301120829DBE301120829E6E3011255
:101F7300082905E50112082921E50112082979E557
:101F830001120829B0E501120829CAE5011208293E
:101F93003EE601120829CFE60112082917E70112CC
:101FA30008293CE901120829A6E90112082911EAC6
:101FB3000112082957EC0112082967EC01120829BC
:101FC3006AEC0112082976EC011208298AEC011245
:101FD300082992EC01120829D7EC0112082985ED92
:101FE30001120829F5ED0112082959EE01120829F9
:101FF300F2EE011208298CEF01120829BAEF01123F
:1020030008295FF0011208298EF00112082991F0C6
:102013000112082908F101120829F8F1011208290F
:10202300D0F2011208295AF3011208297BF4011294
:1020330008292DF50112082966F50112082997F5DB
:1020430001120829A0F501120829DCF5011208295B
:10205300C3F6011208293FF701120829CFF701122D
:10206300082999F8011208291DF90112082953F9C1
:10207300011208299CF901120829D6F10312082933
:1020830056EF0312082994EE031208291BEE0312DC
:1020930008290DEE0312082942E503120829F1E489
:1020A30003120829CCE403120829B7E40312082910
:1020B3009FE40312082991E4031208297AE4031226
:1020C300082960E403120829ECE3031208291BE33F
:1020D30003120829BDE203120829A3E20312082907
:1020E30072E20312082900E103120829EBE003124C
:1020F30008290B9B04120829B29A041208296A9A28
:10210300041208294B9A04120829E1990412082998
:10211300BF99041208290EA004120829A89F0412CB
:102123000829249F041208290FA504120829AEA424
:102133000412082993A40412082983A40412082969
:1021430053A80412082949FE021208293BFE021271
:102153000829CBA3041208292DA3041208291CA3C0
:1021630004120829B4A50412082983E903120829D3
:102173003EE903120829AA73001208299BE80312F7
:1021830008295BE703120829A6E60312082977E565
:1021930003120829327D00120829F87C001208294D
:1021A300C67C00120829907C001208292F7C00129B
:1021B3000829197C00120829CF7B00120829E77827
:1021C30000120829FA7600120829A27400120829BD
:1021D300577400120829B8730012082927740012D3
:1021E300082990890200000080FBE4730001363661
:1021F30001010001020100010301000104010606BF
:1022030005020000070100340801000F0904010161
:102213000D0100FF0E08000017020000190100FF66
:102223001A0100011B0100FE1C0100081D02000031
:102233001F01000120010001210200002301000F02
:10224300240200002601000127010008280200FFE4
:102253002A0100072B0102402C0100002D0100017F
:102263002E0100012F0100FF30010B1C310800007B
:102273003A0100083B01000F2F0100000300710029
:10228300300160001100700031022003500480000F
:10229300100061000000140063007300720062000C
:1022A30043000000130006000000000004001200B9
:1022B30000000000000000000400040037003700A5
:1022C3003C02440000000000000000006500000024
:1022D30035008100000005000000830000000304B6
:1022E3007104020460041104700402040204010472
:1022F30002041004610400041404630473047204EC
:1023030062044304000413040604000400040404E8
:1023130012040004000400040004510464000004D7
:1023230000040004440400040004000400046504E1
:1023330000043504810464000504000483040004DC
:1023430001037103010301030103010301032203D9
:10235300020301031003000300030003000300034F
:1023630000030003420300032403060300030003E6
:102373000403120325032303250323030403040394
:1023830000030003000344030003000323030003CB
:1023930065032100350381030003050300030003E4
:1023A3000003030271023001600211027002010294
:1023B300020202028002100261023A00410063023B
:1023C3007302720262024302000213023800000227
:1023D30000020402120200020002000200020402D0
:1023E3000402370037003C024402000239000002B5
:1023F3000002650200023502810200020502820228
:1024030083020002010171010101010111010101B6
:102413003101010101018001100161013B00140040
:10242300630173017201620143010001130106019B
:102433003D0135000401120100010001000100010A
:1024430004010401330133013C014401320136002C
:102453000001000165010001350081010001050152
:1024630082018301000136000100060000000F0015
:1024730000000000000000000000000003FFFF0058
:10248300000403FFFF0000FFFF0FF4010005C40475
:102493000320000100000B00000000000000000307
:1024A300010F00002A131300A61201002A130200D1
:1024B3005E120300641204006A1205007012060023
:1024C3007C1211009A121400A01215008E12FFFF45
:1024D300000001101B06401B083A1B0B4C1B107A13
:1024E3001A02161B052E1B071C1B0CF21A0D041BCC
:1024F300FF0000D01E001FD61EDC1EFA1EEE1EE8D3
:102503001E061F0C1F121F1E1FE21ECA1EC41E031F
:10251300EAF5E5D5D5C5B5A5959585857575656543
:10252300555545453535252515150500160F00006C
:102533000B150B020002220F320000060000000000
:10254300000000008967452301EFCDAB567777770D
:1025530077777777777777777777777703050406D2
:102563000503040F00020406080A0C0DBA1FCC1F52
:10257300D21F9A1ED81F941EA01ED41DCE1D0A1E44
:10258300101E041EBC1D1420322038201A202620C1
:1025930020200C0E020B040B0A0708000F00011980
:1025A300161816161523030000034948424D181741
:1025B30025050200383C3E363B3B352B432C30305F
:1025C30016181920231A1C1E303030171819213001
:1025D3001B1D1F300820DE1FE41FF01FEA1FF41E1F
:1025E300181F2C20241F2A1F0204020101010109C4
:1025F30002E01DE61DDA1D161E0005150D09100863
:1026030004000000000000EC1DFE1D00BE040A04CF
:10261300001500E80328000E0010100804011E0C2A
:102623001E05080F03FF09000009030AC082C083C7
:10263300E99019DCF0E4901991F0120F2E9019F043
:10264300E4F0A3F09019DDF0A3F0121CEA12182EA7
:102653001219D2120F34901951E4F0A3F0901A0218
:10266300E07002A3E06009901A02125BD31221ED1D
:10267300902626E493FA790212151C024BFA74F29F
:10268300120381EAFEEBFF74805FF9E47001E960F5
:10269300619019DCE0F9120FAC8A088B09EA70012A
:1026A300EB60467B0080010BEB75F003A424D5F8A7
:1026B300E5F03424F988828983E493FA74FF6A602D
:1026C30021850882850983E06A70DCAA08AB098842
:1026D300828983A3E493C0E0740193F583D08212CB
:1026E30021EDAA08AB09120FA0EEFA74806FFB026A
:1026F30028C174205FF9E47001E9601D121BCA8AC6
:10270300088B09EA7001EB600A121B04AA08AB09E3
:10271300120FA0EEFA742080D4EE54207003022727
:10272300F2750C001248607001EB700B7C027D00A7
:102733007A207B00126C777C0079047A007B00128C
:102743001B948A088B09800D740188828983F08524
:102753000A08850B09E5087002E509606D7C0079BC
:1027630004AA08AB09121B948A0A8B0B750C01E5AA
:10277300082404126CC224FFF0A3E034FF126F2478
:102783007002A3E070C9E5082409F8E5093400F9EB
:10279300850882850983A3A3A3A3A3A3A3A3A3A3B8
:1027A300E0640170A3850882850983A3A3A3A3A37F
:1027B300A3E054047092740688828983F07AB78503
:1027C3000882850983122A0C8085121B647C007998
:1027D300017A007B00121B94EA7001EB7009E50C8F
:1027E30070057A201228CD74206EFAEF0226F1EEDE
:1027F30054106007121A08741080EEEE54406007FC
:10280300121A62744080E2EE548060071219247435
:102813008080D674015FF9E47001E9601A901A04AC
:10282300E07002A3E06009901A04125BD31221ED59
:10283300EEFA74010226F074085FF9E47001E960AE
:102843002D1219DE9018F0E06401701B9018F1E06E
:102853006015FC75F0E8A4CCAAF075F003A42AFD7A
:102863007A007B08126C77EEFA74080226F0741073
:102873005FF9E47001E960129019EEE06005E4F09D
:102883001219DEEEFA74100226F074025FF9E47096
:1028930001E9600A121CE4EEFA74020226F07404E1
:1028A3005FF9E47001E96012125F76125DCC790181
:1028B300123A21EEFA74040226F07A007B008005B6
:1028C300740312083E7F0602058B7B009019DCE03F
:1028D300F91210DE2274F712038174E112090AEA75
:1028E300FEEBFFEE7001EF6033851882851983AC30
:1028F30082AD83121BF47406120B07E0601E74177B
:10290300120B07E0FD7401120B07E0FCEEFAEFFB7C
:1029130079001217AAE9600479A480027900024DB4
:102923004F74F5120381EAFEEBFF8E828F83A3A31C
:10293300A3A3A3A3E0544060181265E060067AFFE6
:102943007BFF806A8E828F83125122FAA3E0FB8081
:102953005390197CE0A2E1504812630C241CF8EB5D
:1029630012484B7508FE7509FF7808120861123585
:10297300BD12068E79008C828D83126200A3A3A3FD
:10298300E0F5088C828D83125F63A3A3E0FDAC089E
:102993008A828B831258CA1219E4740412083E8087
:1029A30003121C1874FE6A700374FF6B6043125B9E
:1029B300CF1260FD121C8AE98E828F836006122A71
:1029C30005E48005122A057401F07CD47D1A8E82F9
:1029D3008F831258CA121516E9F5087017EE7001A5
:1029E300EF60097901EEFAEFFB121B70A90802648C
:1029F3006F7508CDAA088E828F83122A0CE960DDD9
:102A030080EAE0240D12537E22E0240C124D9AF941
:102A1300121AE02274F6120381E9FEEAFF7A0F7BB1
:102A230000120F9AEA7001EB6019740C8A828B838F
:102A3300F0EEA3A3F0EF8A828B83A3F0125DBD793E
:102A4300008028EEF9121B9A8A088B09A808A909A5
:102A5300E87001E96013740688828983126F29E0A4
:102A6300F9121A74EEF9121B767910025BCAEAFCAA
:102A7300EBFD7A017B009019DCE0F91210D222C041
:102A830082C0837900EA241DF582EB1235C3125804
:102A9300CA90197CE0A2E18A828B83E0500E120770
:102AA3001301010AAC2A00C02A098011120713017D
:102AB3000304AC2A0207AC2A0AAC2AC02A024BFA46
:102AC30074EE120381EAFEEBFF8C088D09890E7404
:102AD30012120B07E0F510A3E0F511851082F583C0
:102AE300E4F0A3F0122BF5EE241DF8EF3400F9887F
:102AF3000C890D8882122C0E601F850A82850B8338
:102B0300122ECD7014850A82850B83124EDA85103E
:102B130082851183125DCC8003750E00850C82853E
:102B23000D831251221206540109942B432B5B2B64
:102B3300692B742B942B9E2B942BB82BD12BE42B2A
:102B43007810120861AC08AD09EEFAEFFB1219F028
:102B5300740212083E022BEDAC08AD09EEFAEFFB4E
:102B63001219F6022BF0A90EEEFAEFFB121CA2804B
:102B7300791270A564027019E50E700A122C0270A6
:102B830003A3E0697067EEFAEFFBA90E121C5A80EB
:102B930059750E007901120F408052122C027003F6
:102BA300A3E06970EC1270A5640270E5EEFAEFFB26
:102BB300121C428038901A06E07002A3E0602EEEE9
:102BC300FAEFFB901A06125BD31221ED801F122C31
:102BD300027003A3E06970B9EEFAEFFB121CAE803A
:102BE3000CEEFAEFFBA90E121CBAE9F50EA90E02C0
:102BF300483CEE2409F8EF3400F9880A890B228552
:102C03000A82850B83126468E06822F583125126D9
:102C1300F9121C6CE92274ED12038174DE12090AA5
:102C23008A088B09EA2402F510EB1254FAF9121BF5
:102C33009A8A0A8B0BAE0AAF0BEE7001EF70030298
:102C43002D00E508240C1260D8122E2B2406123511
:102C5300B5850882850983A3858208858309E06495
:102C6300F16017E064CD6012E0641A600DE064E97E
:102C73006008E064E16003022D8A850E82850F837C
:102C8300A3E05408F9E47001E9607F7405850A82C2
:102C9300850B83F0901A0AE07002A3E06009901A92
:102CA3000A125BD31221ED901A0CE07002A3E060CC
:102CB3003390197CE0A2E1502B8E828F831265DA68
:102CC300A3A3A3A3A3A3A3124D591235CFEA700163
:102CD300EB6011850882850983E0F9901A0C125B79
:102CE300D31221ED850A82850B83E064027003749D
:102CF30006F0851082851183E0F9121B76121B649E
:102D0300742212083E7F0B02058B7900121B70E9B7
:102D1300607590197CE0A2E14003022C971269A729
:102D23007002A3E07003022C977403120B0712695D
:102D33008E850882850983E064E9701A122E3312A6
:102D43000865850882850983E0F512781212086503
:102D5300123FE512083E740C120B071258CA125B9D
:102D6300CF1260FD7900740E120B071250FC740C25
:102D7300120B071235FF7003022C97850E82850F05
:102D830083125106022C96850882850983E0C0E0F0
:102D93007402120B07D0E0F0126B25EE240B1270B5
:102DA300A8851882851983AA82AB83700512194EF0
:102DB3008003121C667402120B07E064E97014129C
:102DC3002E331208657512E97812120865123FE571
:102DD30012083E90197CE0A2E14003022CE7850A29
:102DE30082850B83E064027027850E82850F83E062
:102DF3005404601C1265E07013125BCF74FFF0A3E0
:102E0300F07405850A82850B83022CF4740380F326
:102E1300850882850983E064E96003022CE7EEFA02
:102E2300EFFB121CC0022CE7EE2409126C80EE2289
:102E330012631175120178122274F51203818A0844
:102E43008B09750A00EA2409124ECDFEE9FF8E8232
:102E53008F83122ECD7003750A018E828F831257D2
:102E6300D87003A3E06B7006E50AD2E1F50AE50822
:102E73002402FEE5093400FFE50A60138E828F8386
:102E8300E07006E50AD2E58004E50AD2E6F50A1207
:102E93001C8AE964017006E50AD2E0F50A8E828F86
:102EA30083E06017E508241DF582E5093400122C40
:102EB3000E64016006E50AC2E0F50AE50AA2E140F4
:102EC30004D2E7F50AA90A02646F1265EB640222D1
:102ED300C082C08379018A828B83A3A3E0C3940257
:102EE3004001198A828B83A3A3A3A3E0C394024066
:102EF3000279008A828B83A3A3A3A3A3A3A3A3A37F
:102F03001250FC74F86C700374FF6D601E74F96CDE
:102F1300700374FF6D601474FA6C700374FF6D605A
:102F23000A74FB6C700374FF6D700279008A828BE4
:102F330083A3A3A3E0FC90197FE06C600279009067
:102F43002621E493C394805018E493C333C0E0EA8A
:102F53002411F582EB1270ABFAD0E0C39A500279D8
:102F630000024BFA74E812038174DC12090AEAFEC8
:102F7300EBFF7403120B07125ECF75140075150077
:102F83007405120B07AC82AD838E828F83A3A3A338
:102F93001260E91258CA121BF4E9600F7405120B90
:102FA30007AA82AB83121AFEE970087901120F4057
:102FB3000235ABEE241B124ED47412120B07125DB2
:102FC300CC740B120B07E06023741C120B07E0FD9B
:102FD3007406120B07E0FC8E828F83A3A31258CAD8
:102FE30079011217AAE96004790280C17405120BF2
:102FF30007AA82AB83121AF8E9F508740B120B07C0
:10300300E07029901979E0602374225508642260E6
:103013001B74425508644270CF7422120B0712517D
:1030230022FA74066A600574076A70BCE9A2E65066
:10303300127405120B07AA82AB83121AE6E9700316
:10304300022FAEEE2412F516EF3400F517EE242A04
:10305300122E2E242C1235C0123AD0E0687003A32E
:10306300E069701C7509007809120865780912086F
:1030730065EE242E1235C71235DB123FF512083EDA
:10308300740B120B07E070030231251235DB123586
:10309300CF8A0A8B0BA80AA90BE87001E970030217
:1030A30031C97406120B071235D6FAA3E03400FBBC
:1030B300740D2AF582E43BF583E0FAE82404F50A6B
:1030C300E9126C83E82403F582E91270AB6A600DA0
:1030D300EAF0908254780C120AB012362079047404
:1030E30006120B071235D6FCA3E034008C82F5835D
:1030F300A3AA82AB83120F888A0C8B0D8C0E8D0FC3
:10310300850A82850B837810120AB07810790C1225
:103113000A6250030235AB908278780C120973125D
:103123003620EE24241235B5EE2430F50CEF126070
:10313300DCEE242F126C8090197CE0A2E150030294
:103143003262901991E0FA74046A600874096A6043
:10315300030235ABE508A2E5400302320F1236073E
:10316300C0E07401120B07D0E012401FC0E07402EC
:10317300120B07D0E0F07416120B07E06401702005
:103183007410120B071235EB7003A3E0697011740E
:103193000E120B07122ECD70077416120B07E4F0F4
:1031A300850E82850F8312068A7404120B07AC8284
:1031B300AD837409120B07AA82AB831219547404EA
:1031C30012083E0235AB9019D6E064016003023168
:1031D300257422120B0712512264067009E508A216
:1031E300E650030231257412120B07E064FF7004EA
:1031F300A3E064FF70030235ABEEFCEFFD74051230
:103203000B07AA82AB83121B0A0235ABA2E640036B
:103213000235AB7422120B071235F7701E741C12A1
:103223000B07E0640260030235AB7405120B07AAB7
:1032330082AB837900121C5A0235AB74076A6003B0
:103243000235AB741C120B07E0640460030235AB58
:103253007405120B07AA82AB83121C4E0235AB74A2
:1032630016120B07E0601D8E828F83A3A3124011F9
:10327300141256CCA3124011C0E07416120B07D0DF
:10328300E0F07006E508C2E7F508901991E0FA74DA
:10329300046A600574096A7061740E120B07125791
:1032A300D87003A3E06B6017121C8AE96402600FF5
:1032B300740A120B07E05403640160030235AB7414
:1032C30007120B07E0701B123607C0E07401120BE4
:1032D30007D0E012401FC0E07402120B07D0E002D7
:1032E30031A27422120B071235F7700302322074D5
:1032F300076A60030235AB023246750900746155F3
:10330300087003023416E508A2E050708516828522
:1033130017831250FC7405120B07AA82AB83121A8F
:1033230068E97055121C24E9F5097416120B07E0BD
:10333300700F7410120B071235EB7003A3E0696072
:103343003BA9098516828517831250FC7405120B5D
:1033530007AA82AB83121A6EE96013740E120B076D
:103363001264E8120B07125DCC751404800EE50895
:10337300C2E5F508750900800353089FE508A2E537
:10338300503C123607C0E07401120B07D0E0124024
:103393001FC0E07402120B07D0E0F0850E82850F88
:1033A3008312068A7404120B07AC82AD837409126C
:1033B3000B07AA82AB83121954740412083EE50862
:1033C300A2E640030234E37403120B0785820A85E5
:1033D300830B780A120861A909851682851783125F
:1033E30050FC7407120B07AA82AB83121AEC740207
:1033F30012083EE9F50970030234E37422120B0745
:10340300125122640160030234E374104514F5146D
:103413000234E37407120B07E06401703B74221259
:103423000B071251226405702F7403120B07858258
:103433000885830978081208617900851682851743
:10344300831250FC7407120B07AA82AB83121AEC87
:10345300740212083E0235AB7416120B07E07012A9
:103463007422120B07125122640360030231FC021F
:1034730035AB121B6AE960030235AB740E120B07FE
:103483001264E8120B07125DCC7809120865741EEA
:10349300120B07AC82AD83740F120B071258CA7458
:1034A3000A120B07E0F9121AAA740112083EE96026
:1034B3000F7514208E828F83A3A3125122543FF0E1
:1034C30079007410120B071250FC740E120B0712C2
:1034D30035FF600674204514F514121C24E9F50920
:1034E3007403120B07E064FE7004A3E064FF70032F
:1034F300750900E508A2E740030235ABE50970034F
:103503000235AB8E828F83A3A3A3A3E0FA7B0012C1
:1035130010188A0A8B0BEA7001EB70030235AB8E2D
:10352300828F83A3A3E0F50CA3E0F50D750E00785D
:103533000C12085D8E828F83A3A3A3A3E0FC7D00FE
:1035430012455812083E7407120B07E0851882854E
:103553001983F07401120B07E4F0A31255B48582AA
:103563000C85830D780C1208617814120861E50943
:10357300F508780812086585168285178312068E6A
:103583008E828F83A3A3A3A3E0F9740A120B0712FD
:1035930050FCAA0AAB0B121BE2740712083EE96047
:1035A30007AA0AAB0B12101E742412083E7F1002E6
:1035B300058BF50EEF3400F50F22EE240EF582EFA6
:1035C300126CED22F582EF125F9EF922124D9412D6
:1035D3001D0E221268DC2A22850A82850B83124E75
:1035E300F0851682851783221251FA851682851774
:1035F30083E06822125126FA74046A22124D94124F
:1036030019EAE922EE242E125F9B8518828519831D
:1036130012361722F0850A82850B83E022850A82FF
:10362300850B83E50CF0A3E50DF0A3E50EF0A3E510
:103633000FF02274F2120381EAFEEBFF8C088D096E
:10364300122BF58882F5831258CA9018F0E06011A6
:10365300901982E06A7003A3E06B70051219DE8093
:10366300537900121A868A828B83E5827002E5837E
:10367300603AA3A3A3A3A3A3E05418602FE50824EF
:103683001BF582E5091235C312068EE5082412F5EF
:1036930082E5091235C312068EEE24181235C712BD
:1036A30036BA121AB6740412083E8008790012362C
:1036B300BA121A020228C8850A82850B83124EF0B9
:1036C300EE240B124D8D2274EE12038174EA12095B
:1036D3000A8A0C8B0DEA2402F50EEB1235B80A0A9E
:1036E300FB1218528A088B09AE08AF0975090185C8
:1036F3000C82850D83A3E0F508750A01AC0EAD0FAE
:10370300851882851983AA82AB8312110874081263
:103713000B07125ECF740A120B077402F0741312B4
:103723000B07E4F0E50C240AF50CE50D1260DC90C0
:103733001B00E07010EE7001EF700AE5087006756B
:1037430009C30238A0901991E0640860067509C2A4
:1037530002389C850C82850D83E0A2E1500EA2E322
:103763005005750A04800C750A038007A2E3500311
:10377300750A02EE7001EF60648E828F83A3A3A3A8
:10378300A3E0FA74046A600574036A700C74046538
:103793000A601C7403650A601674026A600574018A
:1037A3006A70207402650A60067401650A700F8EE0
:1037B300828F831242F9120B07125DCC801F7402B1
:1037C3006A600574016A700A8E828F831243AD1298
:1037D30021EDAA0EAB0F12185E7E007F0074081253
:1037E3000B07E064FE7004A3E064FF70381218282E
:1037F300E97032E50860179019CEE06402700F900B
:103803001B071242F9120B07E8F0A3E98016850C97
:1038130082850D83E05402F9121A147408120B07FF
:10382300EAF0A3EBF07408120B071239407003742B
:10383300FF6B70057509C78060E508F50B780B12FF
:103843000865850C82850D83E0F9AC0EAD0F121966
:1038530072740112083EE97040A90AAC0EAD0F74F0
:1038630008120B07123A1A8A108B11AE10AF11EE21
:103873007001EF601C74026508700BEE2405127072
:10388300A854FB4408F0740A120B07E4F0F509800E
:10389300087408120B07125ECFE508700F851882B3
:1038A300851983AA82AB831214FE8010FCA90A85B2
:1038B3001882851983AA82AB83121C48E9FAEE7039
:1038C30001EF603EEE2405F8EF3400F9E5086012DD
:1038D30088828983E0D2E6F0740265087004E0D23E
:1038E300E5F0850C82850D83E0A2E6500888828985
:1038F30083E0D2E7F08E828F83A3A3A3A3A3A3E0E5
:1039030004F0E5097003EA602FFC7D007A017B1067
:10391300120F3AEE7001EF6007AA0EAB0F12185E9A
:103923007408120B07123940700374FF6B6009901F
:103933001969125BD31221ED7416024839124D94A2
:1039430074FE6A2274F612038174F712090A8A0854
:103953008B09901991E0FA74036A600D74016A602F
:103963000874096A6003023A178508828B83A3AE41
:1039730082AF83E060030239FC7C007D007A027B26
:1039830000120F3AE5082402124852126464125DD1
:10399300CC79531214F87900123A21901991E0640A
:1039A30009600990198F1258CA121D087401125C1C
:1039B300007404901991F07401120B07AA82AB836F
:1039C300794A1214F27401120B07AC82AD837A8721
:1039D3007B1912110879007401120B07AC82AD83B5
:1039E300901985123A1A90197CE0A2E35004D2F0A0
:1039F3008002C2F0125BE88018FC7D007A037B1022
:103A0300120F3A8E828F83E0F9123A21E4901991D2
:103A1300F0121B46025BC5124D94121840229019F6
:103A23008F124D9412196C22C082C083901951E0F9
:103A33007002A3E07041901991E012071300030193
:103A43004D3A055C3A066B3A7A3A901959E070029E
:103A5300A3E06076901959806B901955E07002A32A
:103A6300E06067901955805C901957E07002A3E0FD
:103A73006058901957804D901951E07002A3E0608F
:103A83000912400EFC74016C702379009019DD80DB
:103A93000909EA1266F9EB1235C3124B2A7001EBDE
:103AA30070EF9019DD1258CA12195A801D74026CF6
:103AB3007005121CD88013901A08E07002A3E0600E
:103AC30009901A08125BD31221ED024BFA1251FA34
:103AD30090198F2274F412038174EB12090AEA120B
:103AE3004EC7FAE9FB8A828B837808120AB07808FA
:103AF300120A8290199278081209D27F7F7E7F7C06
:103B030000750801750900750A00750B00EC78084B
:103B13001207C390199278081209E5908254780825
:103B230012094A602A7D009019DD801288828983F8
:103B3300A3A3E06C70010D1266F8E91235C3124BB2
:103B4300987001E970E6EDC39F5004EDFFECFE0CA5
:103B5300ECC3941B40AB8A828B837808120AB09023
:103B63008254780812094A60459019927808120A1B
:103B7300A18A828B837808120AB0851882851983FB
:103B83007808120AA17404120B077401F0901998B3
:103B9300E0C0E07405120B07D0E0F07407120B07C6
:103BA300123CF6805B12199690198F1260FD9019E2
:103BB300DD124B987001E9602290198F126B18E0A7
:103BC3006A7003A3E06B700A88828983A3A3E06E03
:103BD30060D31266F8E91235C380D6EE901984F0EB
:103BE300121B34E9601AE4901991F090195BE070AC
:103BF30002A3E0600B79C490195B125BD31221ED31
:103C0300741502577174F012038174EB12090A8A56
:103C1300828B83A3A3A3A3A3A3A3A3A3124B98FA67
:103C2300E9FB7C00750C01750D00750E00750F0026
:103C3300EC780C1207C3850C08850D09850E0A85DF
:103C43000F0B90199278081209E5908254780812A4
:103C5300094A6025901B06E0C0E08C08EA2508F5B8
:103C630082EB1270ABFDD0E0C39D500D780C120AAD
:103C730082901992780C1209D20CECC3941B40A4C5
:103C83009019927808120AB0908254780812094A5F
:103C930060398518828519837808120AA174041281
:103CA3000B077401F07407120B077401F090199855
:103CB300E0C0E07405120B07D0E0F07407120B07A5
:103CC300123CF67406901991F08023E4901991F058
:103CD300FCFD7A047B10120F3A90195BE07002A38B
:103CE300E0600B79C490195B125BD31221ED74155C
:103CF3000256C4E412647912150A2274EC12038189
:103D030074ED12090A8A828B83A3123FD6EA240830
:103D1300124ECDFEE9FF851882851983AC82AD83EF
:103D23008E828F83123FFEA3A3A3A31258CA121B32
:103D330058851882851983E070768E828F83E0C35D
:103D4300940B406C850882850983A3A3A3A3A3A333
:103D5300A3A3E064027059901991E0FAE5082410D6
:103D6300F510E5093400F511E50824091260D8744B
:103D7300026A604174066A603C901951E07002A3C4
:103D8300E0600712400E6401605474086A600574B1
:103D9300046A701C7402120B07E0F97407120B0714
:103DA300AC82AD83850C82850D831258CA121B5ECB
:103DB300741302685B901951E07002A3E0701F75E1
:103DC3000A00780A120865780A1208658510828548
:103DD3001183123FC812485A123FF512083E901938
:103DE300DD126D179019DD126853E508240DF50EE9
:103DF300E5091235B880318E828F83E0F8A3123F34
:103E0300C8E0687003A3E06970128E828F83A3A356
:103E1300E0FA850E82850F83E06A606B8E0A8F0B52
:103E2300EE1266F9EF126D14EE7001EF70C97A1895
:103E33007B001210188A128B13AE12AF13EE7001AF
:103E4300EF7003023DB37C18126E6C125EC6EE2453
:103E53000C1235C074FFF0E508240B126CC2123F3C
:103E6300BF126F23C4123FBFA3A3F09019DDE0700C
:103E730002A3E070059019DD800AE50A1266F9E5F0
:103E83000B1235C3126B2B7401120B07123FE0A305
:103E9300F07402120B07123FE0F0850E82850F8348
:103EA300123FD1A312401F123FB61256D7240DFA68
:103EB300EF3400FB7402120B07E06401600E740719
:103EC300120B07AC82AD8312110880097C087D00B8
:103ED30079FF120F827412120B07E0C0E0EE241573
:103EE3001235C0D0E0124016FC901AC9E0C39C40C2
:103EF30003023DB3126C9FE5091235C3A3E054805E
:103F0300F9E47001E970099017EEE07003023DB324
:103F13007D00EE240CF8EF3400F9EE240BFAEF34B5
:103F230000FB9019CEE06402701D8A828B83E0F55A
:103F33000AC39C500D7405120B07E0C39405401B84
:103F4300801AE50A6C70157405120B07E0C0E0884F
:103F5300828983E0FCD0E0C39C50010D7404120BF2
:103F630007E06020ED601D85088285098312648166
:103F7300ECF0A3ED1240168A828B83F07405120BCA
:103F8300071251177406120B07E0600D74018E823D
:103F93008F83A3A3A3A3A3A3F07404120B07E0705E
:103FA30003023DB374018E828F83A3A3A3A3A3F063
:103FB300023DB3F8A3E0F98E828F8322540F8E82E1
:103FC3008F83A3A322E0F9850C82850D83221244FB
:103FD30088A322A3A3E0F508A3E0F50922124488ED
:103FE3008021850C82850D83123FFE124EEC8A825E
:103FF3008B83124D94121C2A740222E0F98A828B5D
:10400300838002A3A3A3A3A3A3A3229019511253B2
:104013008EE022F0851082851183E022F0850C82E8
:10402300850D83E02274F612038174C912090A9084
:104033001991E0640860629019A2E0F824BDF5824A
:10404300E4341AF583E0FA901973F0E824C3F58297
:10405300E4341AF583E0FB901971F07508FF7509D4
:10406300FFEA7808120A1EE508F4FCE509F4FD33BB
:1040730095E0FE90199A1241C87508FF7509FFEB88
:10408300C39A7808120A1EE508F4FCE509F4FD3327
:1040930095E0FE90199E1241C8E4125BF679041272
:1040A30014F89019A2E07009741E120B07740180B2
:1040B30006741E120B07E4F0740F851882851983AA
:1040C300F0901B0512647579461214F87401120BF3
:1040D30007E4F0901AE5E0C0E07402120B07D0E0A9
:1040E300F090197FE0C0E07403120B07D0E0F07486
:1040F30004120B07E4F07405120B07E4F0740712C3
:104103000B07E4F09019A2E0FAC3940F740650066B
:10411300120B07EA8005120B07740FF07CA37D19BD
:104123007408120B07AA82AB831211087C037D006B
:1041330079FF7410120B07AA82AB83120F829019B6
:10414300DBE0C0E07413120B07D0E0125CF6120B35
:1041530007125CE5121C36901996E0C0E0741C123D
:104163000B07D0E0F0901997E0C0E0741D120B0725
:10417300D0E0F0901984E0C0E0741A120B07D0E08D
:10418300F090198F124EDA7418120B07125DCC746B
:1041930020120B07E4F0901999E0C0E0741F120B92
:1041A30007D0E0F07434120B07E4F07429120B0704
:1041B300E41241D37414120B07AA82AB83121510B5
:1041C3007437025BC7ECF0A3EDF0A3EEF0A3F0228B
:1041D300F07A827B1979531241DE221214F87A8520
:1041E3007B19794B1214F822C082C0838A828B8395
:1041F300A3E06007E4901991F0804A740890199144
:10420300F09019A2E0701F90195BE07002A3E060C8
:104213000B790090195B125BD31221ED90198F1269
:1042230050FC7A05801A790012196690198212508F
:10423300FC7A067B00120F3A9019851250FC7A041F
:104243007B00120F3A024BFA74F412038174EA12E0
:10425300090AEA2402FEEB3400FF0A0AFB12185291
:104263008A088B09EA7001EB70030242F48A828B9D
:1042730083125370600F74026A600A74036A6005E4
:1042830074046A706CEEFCEFFD8518828519831245
:1042930062931242F9120B07125DCC740A120B07D8
:1042A3007401F07413120B07126474121504890A53
:1042B300AC0A7D007A077B00120F3A8508828509D4
:1042C30083A3A3A3A3A3E0C2E0F0740185088285BE
:1042D3000983A3A3A3A3A3A3A3A3A3126CF2120210
:1042E30031E8850882850983A3A3A3A3A3A3A3A37A
:1042F300F074160257711251FA74082274F71203FC
:10430300819019DDE0FAA3E0800CEA2416126D1106
:1043130012101EEEFAEFFBEA7001EB70ED9019DD5F
:10432300E4F0A3F0024D5474F41203818A088B095C
:10433300EA240BFEEB3400FFEA2413F582EB127040
:10434300AB64037009EEFAEFFB121852800CE064C1
:104353000270548E828F83126CCEEA7001EB604739
:10436300EA2406F8EB122BFA850882850983A3E079
:104373007007E488828983802D64F16005E064E13D
:10438300701A88828983E0640170118A828B831298
:1043930043AD1221EDEEFAEFFB12185E850A82851A
:1043A3000B83E0600214F0025774124D9490196964
:1043B300125BD72274F11203818A088B09ECFEED9C
:1043C300FF890A8A828B831268888A828B831244CC
:1043D30087F0EEF8EFF9A30EAF838A828B83A3A352
:1043E300E0C454F0FA88828983E04A12449112446B
:1043F3008812448CE0333354FCFA8E828F83E04A74
:1044030012448CA3E033333354F8FA8E828F83E063
:104413004AF008EFF9A30EAF838508828B83A3A329
:10442300A3A3A3A3E0A2E0E492E013135480FA88C9
:10443300828983E04AF0E5082407F50CEB1260DC7F
:10444300750E00780C12085D7C081254E312083EC6
:10445300126872E508240F1260D8780C12085D7C8C
:10446300031254E312083EE50AC3940F4011E50812
:104473002412F582E5091235C3123FD1A3A3F07FBD
:104483000702058BA3E0023FBA124491A322F085F1
:1044930008828B83A3A3A32274F1120381EAFEEBA8
:1044A300FF890A8C088D098E828F83E08C828D832D
:1044B3001256CCAE82AF83E012578912456AC412FA
:1044C300578912455EE054038C828D83124568A29E
:1044D300E2E492E08C828D83124567131313541F19
:1044E300125789A3124567A2E7E492E08C828D8379
:1044F300A3A3A3A312455E8E0C8F0D750E00780C3B
:1045030012085D7C087D00E5082407124552120855
:104513003E1268728E0C8F0D780C12085D7C037D41
:1045230000E508240F12455212083EE5082412F84C
:10453300E5093400F9E50AC3940F400A8E828F839C
:10454300A3A3A3E08001E488828983F0024482FA72
:10455300E5093400FB120F76740322A3A31256D08D
:104563000EAF8322A3A3A3A3F002692374F412035F
:104573008174F912090AEAFEEBFF901951E0700207
:10458300A3E0601012400E64027009EEFAEFFB1212
:104593001CD2806290198FE06E7003A3E06F705697
:1045A30074016960097AA37B1912690570487A005E
:1045B3007B021248647001EB703C901992780812E8
:1045C3000AB08518828519837808120AA190199870
:1045D300E0C0E07404120B07D0E0F07405120B077F
:1045E3007401F07406120B07740212647512191227
:1045F300E960981219187407025771E0F9024BFA2F
:1046030074F61203819019EFE0701F7C0079017A30
:10461300007B00121B94EA7001EB600E8A828B838D
:10462300E07002A3E06003121ADA025BCAC082C020
:1046330083124A95401079FF121B8EE9FA902622C5
:10464300E493C39A5004790180027900024BFA740F
:10465300EE1203818A088B09890D750E00EA24087E
:10466300F50AEB1250F0E0F9121B9A8A108B11AE87
:1046730010AF11750C01EE7001EF6003024718854E
:104683000882850983A3A312510D1255BC1258CA7F
:10469300121B828A0A8B0BAE0AAF0BEE7001EF700E
:1046A300030248328E828F83A3A3A3A3E4F0A3F073
:1046B300E508240B124852E0C0E0EE240B1235C08B
:1046C300D0E0F0121C96EE240C1260F6E508240EDE
:1046D300F582E509124ED71235BD125DCC750E0178
:1046E300EE2406F8EF124AA4E0547FF0A3E054FC52
:1046F3001249EAE0540460030247A0901ADE1255FF
:10470300AD74077808120A1E8A828B83E04508F08D
:10471300A3E04509F0EE24061248498C828D8312EA
:1047230058CA74805AF50874035BF509740778084E
:10473300120A92E508F510EE2404122E2E24091213
:104743004841E50D6060740285088285098312453E
:104753006B240D12537AE0A2E2500F90197D124E92
:10476300DA850A82850B83125DCCE510700302475C
:10477300FF747F5AFA74FC5BFB74FF2510F5107409
:10478300FF3400F51174077810120A1EE5104AF879
:10479300E5114BF98C828D83125DCC805FE0448000
:1047A300F0A3E0024717E5107005750C00804DEA91
:1047B30054206015120F948A10747F5510F8745F9B
:1047C30028850A82850B83801BEA5410600E120F22
:1047D300948A10740F5510F8740A80E4850A828550
:1047E3000B837401F0A3E4F07404850882850983C4
:1047F300F01248607001EB7003125BB87401650E30
:104803007030850A82850B8312485AE0F9EEFAEF7D
:10481300FB121B88E9601BEE240C1235C0124B2AD5
:104823007001EB600312101EEEFAEFFB12101E75FF
:104833000C00A90C800312083E7F0A02058BF508C1
:10484300EF3400F50922F8EF124ECFFCE9FD22FA0E
:10485300E50934000249F1124EF0025F8B7A207BA6
:10486300009019DCE0F91210E4EA2274F6120381D5
:1048730074F712090A7E00121B9AEA7001EB7003A7
:1048830002493B8A828B83A3A3A3A3A3A3A3A3A3CA
:10489300E06406600302493B8A828B83A3A3A3A33C
:1048A300A3A3A3E0FF8A828B83125388E0C0E07442
:1048B30008120B07D0E01249EA125BD312620D1201
:1048C3005DCC121BB874085FF9E47001E960678579
:1048D30018828519831250FC7A007B00121B7CEA34
:1048E3007001EB705190198F124EDE1215287C0067
:1048F3007D007A007B0080288E828F83125F80E0A8
:1049030064FF7004A3E064FF602C90198F1250FCC5
:10491300120B68E9641A601E7C007D00EEFAEFFB5F
:10492300121B7C8A088B09AE08AF09EE7001EF7089
:10493300C7790012152E7E01EEF9025BC574F712DA
:104943000381EA7001EB70059019F080068A828B6F
:1049530083A3A3124B2A7001EB60288A828B83A363
:10496300A3A3A3A3A3A3E05408F9E47001E960DDC2
:10497300EC7001ED601112511E6C7003A3E06D70B9
:10498300CC80047A007B00024D5474F2120381EA56
:10499300FEEBFF890A8C088D097A107B0012101830
:1049A300EA7001EB603CE48A828B83A3A3A3A3A3F5
:1049B300A3A3A31249F7E50A124D5F125EBE8A82D2
:1049C3008B83A3A3A3A3E4F01249F71249E8126B64
:1049D3002BEA240CF582EB126F1D1249E9A3A3F015
:1049E300A3F00228C8A3A31249EE22F08001FB8A98
:1049F300828B8322A3124D63A3A32274F512038136
:104A0300EAFEEBFF890A8C088D09EE7001EF605610
:104A13007401650A70147901121B8EE9FA90262538
:104A2300E493C39A500F791180657404650A70305A
:104A3300124A9540F18E828F83A3A3A3A3A3A3A3BA
:104A4300A3A3E50A1256E512718BE4F0A3F09019C3
:104A5300F0E07002A3E09019F06024124EDA800AAD
:104A63007402650A60CF79C18025E824020808E949
:104A7300124AA4124B987001E970EF8A828B831259
:104A83006B2B1248607001EB7003125BB879000264
:104A9300646F7904121B8EE9FA902624E493C39A77
:104AA30022124ECFFAE90249F1C082C083E9FC79B0
:104AB300009019F0801D8A828B83A3A3A3A3A3A3D1
:104AC300A3A3A3E06C600574FF6C7001098A828B59
:104AD30083A3A3124B2A7001EB70DB024BFA74F72A
:104AE300120381EA7001EB70059019F080068A8247
:104AF3008B83A3A3124B2A7001EB60248A828B83DE
:104B0300A3A3A3A3A3A3A3A3A3E06970E1EC6014ED
:104B13008A828B83E0240D12691DA2E240D08004B7
:104B23007A007B00024D54124D94EA22C082C08366
:104B33009019F080068A828B83A3A3124B2A7001FB
:104B4300EB60128A828B83A3A3A3A3A3A3A3A3E0F3
:104B53006970E280047A007B00024BFAC082C08352
:104B63009019F0800688828983A3A3124B98700161
:104B7300E9601B88828983E0FCA3E0F5838C82E0F3
:104B83006A7003A3E06B70DDE8FAE9FB80047A0046
:104B93007B00024BFA1251FAE82274F11203818A64
:104BA3000A8B0B8C0C8D0D750800750900EA7001DA
:104BB300EB60319019F080068E828F83A3A3124B92
:104BC300EE7001EF601EAC0CAD0DEEFAEFFB850A43
:104BD30082850B831221EDE9640170DCEEF8EFF9B5
:104BE30088088909AA08AB09024482E0FEA3E0FF12
:104BF300EE22740212083ED083D082020826790086
:104C030002082674F71203819019F0124EDA7C0021
:104C13007D008007E8FCE9FD124EDAE87001E960E7
:104C23003AE82402F582E91235C3EA687002EB69B7
:104C330070E21258CA9019F0126D17E86E7002E90B
:104C43006F70099019F0EAF0A3EB800EEAF8EBF924
:104C53008C828D83A3A3E8F0A3E9F0024D5474F78B
:104C6300120381EAFEEBFFEE7001EF6016121BB236
:104C7300124D6BEA7001EB600312101EEEFAEFFBAC
:104C830012101E024D5474F712038112511EFCA31D
:104C9300E0FD9019F0124EDA7508007E008033882B
:104CA300828983A3A3A3A3A3A3A3A3A3E0640570FF
:104CB300180E88828983E0FFA3E0F5838F82E06C7E
:104CC3007003A3E06D7002050888828983A3A31291
:104CD3004EDAE87001E970C7EA2404F8EB3400F90E
:104CE300902627E493FCE508C39C500B902629E407
:104CF30093FCEEC39C400B888289837401F0A3E488
:104D0300800A90197D124D59ECF0A3EDF074058AD9
:104D1300828B83A3A3A3A3A3A3A3A3A3124D5FE0A7
:104D2300F0A3E044081256DE8A828B83E064FF70AE
:104D330004A3E064FF600E90198F1250FC12152239
:104D4300E9641A7005790112152E8005741F120883
:104D53003E7F0102058B124EF0026B20124D63223F
:104D6300F08A828B830240078E828F83E0241C1299
:104D73004D9AFAA3E0FB12101E8E828F83124D947C
:104D830012101EEE240C124D8D22F582EF3400F525
:104D930083E0FAA3E0FB22125382E022C082C083A5
:104DA300EAFCEBFDEC7001ED70047905804CEC241A
:104DB300FBF582ED34FFF583E07002A3E07011ECA4
:104DC30024FFF8ED34FFF988828983E064FF6005EE
:104DD300120FA080D59019DC12511790262EE49360
:104DE300F97AF27B19120FD0E96401700B7A007B18
:104DF30020125BBC790080027904024BFA74F4122E
:104E03000381A2AFE492E0F508C2AF9019F2124B0E
:104E1300EE7001EF603DEE24FBF582EF34FFF58386
:104E2300E07002A3E07A007B209019DC6005125B3E
:104E3300BF8005E0F9120FDC750A00750B00780AD4
:104E4300120861EEFCEFFD7AF27B19120FCA7402AD
:104E530012083EE508A2E092AFEEFAEFFB025774A8
:104E630074F712038174E112090AEA2413F582EB41
:104E73001270ABC0E07411120B07D0E01251F17441
:104E830009120B071251EA124EC7FCE9FD8C828D01
:104E930083124EDA740B120B071251EA2414F582B3
:104EA300EB1270ABC0E07412120B07D0E0F0EA24EF
:104EB3000EF582EB1235CA8C828D83124EDE121AE6
:104EC3006E024D4F2404124ECD22F8EB3400F9E864
:104ED30022F582EF126CED1251FA22124EF0851870
:104EE30082851983AA82AB8322A3A3A3A3E0FCA395
:104EF300E0FD2274EE12038174FC12090AEAFEEB50
:104F0300FF121B6AE9600579110250EBEE2412F5DA
:104F130010EF3400F511EE2402F50AEF1250F012EF
:104F230065E76008E4851082851183F0EE2413128F
:104F330054EC700C902621E493850C82850D83F04C
:104F4300EE2411F8EF1260E17019901AE7E0600D9A
:104F5300901979E0700D8E828F83E07006E4888269
:104F63008983F0EE2414080808EF126CC5700C90C6
:104F7300196E12511790196EE004F0EE240F1248C7
:104F830041EE240B1235B590197CE0A2E1504F8518
:104F93000A82850B831265E760448E828F83E0600B
:104FA3000B850E82850F83122C1060328508828553
:104FB3000983E05440601A850C82850D83E0640107
:104FC300700F850882850983E054FBF0A3E0F0802D
:104FD3000DEEFAEFFB121BD0E97003024F0A8E822B
:104FE3008F83E06401701A850E82850F831251222C
:104FF3006402700D850882850983E04440F0A3E0D4
:10500300F0850882850983E05440705290197CE052
:10501300A2E1504A750C00780C120865EE2406FCD8
:10502300EF3400FD850A82850B831258CA851082EE
:10503300851183E0F9121AAA740112083EE9600C83
:10504300E4851082851183F0125100F079008E827D
:105053008F8312510D1235FF6004125100F0851831
:1050630082851983AC82AD83EEFAEFFB121BE88ACB
:105073000C8B0D850A82850B831250FCEA7001EBC1
:1050830060628E828F83E0C0E07401120B07D0E070
:10509300F07402120B07126B2B7401120B0785823B
:1050A3000A85830B780A12086185088285098312B1
:1050B300068EEE240E1270A8F50878081208659083
:1050C300198212068E7407120B07E0F9121BE274A1
:1050D3000712083EE9FE74106E700BAA0CAB0D129A
:1050E300101E80027E10EEF97404024839126C839C
:1050F300850A82F58322126CEA124EF02285088219
:10510300850983E04420F0A3E022124EEC850A8255
:10511300850B8322E088828983F0228A828B831223
:10512300512622125BDBE022C082C08374DE1209A7
:105133000A8A828B83A3A3A3A3124EDA740E120BE3
:1051430007E8F0A3E91251F1740C120B071251EAAC
:10515300240DF582EB1270ABC0E0741A120B07D06A
:10516300E0F0EA126CA1EB124ED77420120B071277
:1051730051EA2415F582EB1270ABC0E07408120BF0
:1051830007D0E0F0EA241CF582EB124ED77412121A
:105193000B071251EA2411F582EB1270ABC0E074D5
:1051A30009120B07D0E0F074FF851882851983F08C
:1051B3007401120B0774FFF07402120B0774FFF0F3
:1051C30090825412068A7404120B07AC82AD837466
:1051D30007120B07AA82AB83121954740412083EF8
:1051E30079007422024BF7E8F0A3E9F0EA221249AE
:1051F300EEA3A31251FA221251FE22E0F8A3E0F922
:105203002274EA12038174EE12090A8A148B15ECD4
:10521300FEEDFF890F7428120B07126853742A12CC
:105223000B07E0F50C742B120B07123FD8742D12E9
:105233000B07E0F512A3E0F513750D107A1E7B0042
:105243001210187402120B071260FD7402120B077E
:10525300E07002A3E07003025364750E00EEFAEFF0
:10526300FB12184C8A828B83E5827002E5836016F9
:10527300125370600574036A700CE508544070069D
:1052830074044509F50974045509F9E47001E960EA
:1052930003750E01851882851983AA82AB83795021
:1052A3001258C17402120B07125388A31260FD74C3
:1052B30010120B07E50AF0A3E50BF07402120B07BB
:1052C300E0240B12537A7402F0120B071253887402
:1052D30002F0120B07125BD3126B2B7402120B0733
:1052E30012631DE50FF07402120B07E0240C125336
:1052F3007AE50CF07402120B07E0241C12537AE5D2
:1053030014F0A3E515F07408120B07125EBE740ABD
:10531300120B07E50CF0851282851383C082C083CC
:10532300740D120B07AC82AD83D083D08274031249
:105333000782A90E7402120B07AA82AB83121B7099
:10534300E964017011E50E6008A90C121B9A121B87
:10535300BE750D00800B7402120B071258CA12108F
:105363001EA90D741212083E7F0E02058BA3A3A380
:10537300A3E0FA74016A2212537E2212538222F8A6
:10538300A3E0026B1D12538EA3A3221262080240F4
:105393000874EA120381EAFEEBFF8C088D098E8202
:1053A3008F83A385820A85830B7408F0EE2416127B
:1053B30054EC60097410850A82850B83F0EE241780
:1053C300F510EF1254FA600A850A82850B83E024F4
:1053D30008F0EE2411F8EF126CC56005750E0E800F
:1053E30003750E00EE240DF514EF3400F515850A50
:1053F30082850B83E0851482851583FAE02A250EC6
:105403008C828D83126F24601390197AE0F912173E
:10541300B0E9FA850882850983E02AF08508828548
:105423000983E0FAC3947540097508007509000201
:1054330054DC7B00126BD97001EB70030254DCEE79
:10544300FAEFFB121BEEEA8508828509831260FEE0
:10545300EE2402F8125F8612550FF0EE24040808BA
:10546300125F86A3A312550FA3A3F0EE24131255C4
:1054730005F0EE2414125505A3F07A08850C8285F5
:105483000D83E0600FEE24181250F9E5082408128A
:1054930068497A10851082851183E0600FEE241A23
:1054A3001250F98A0CE508250C126849EE240B12F8
:1054B30070A8F510A3E0F511751200781012085DBD
:1054C300851482851583E0FC7D001258CEE50E28F5
:1054D300FAE4391254E812083EAA08AB0902536BE6
:1054E3007D00EEFAEFFB024558F50CEF3400F50DA5
:1054F300850C82F583E0223400F511851082F58353
:10550300E022126CEA125519A3A3A322A3A3126CDF
:1055130094A312551922E0850882850983A3A3A3C6
:105523002274F61203818A828B83E0FC90197F1226
:1055330055AD74027808120A1EE5084CFCAD09EA61
:1055430024121255A774067808120A1EE5084CFCAB
:10555300E5094DFDEA24111255A774097808120ACA
:105563001EE5094DFDEA24161255A7740B7808129F
:105573000A1EE5094DFDEA24171255A7740C780895
:10558300120A1EE5094DFD8A828B83A3A3A3A3A35D
:10559300A31255AD740A7808120A1EECFAE5094DF8
:1055A300FB025BCAF582EB126CEDE0F508750900AE
:1055B30022F085188285198322E0F9025F8B74F04B
:1055C3001203818A088B09ECFEEDFF750A01E9C31A
:1055D3009408500579000256C0E98E828F831256D3
:1055E300DE121BFAE96003750A00125913C0E0EEDC
:1055F30024111235C0D0E012590EC0E0EE2412126D
:1056030035C0D0E01256CCA882A9831258E06010AE
:10561300E5082408FAE5093400FBEE24131256F1D9
:105623008E828F83A3A3A3A3A3A3A3A3E060158860
:10563300828983E0FAE5082AFAE5093400FBEE24BF
:10564300151256F1EE2419126F1AEE241B126F1A5B
:10565300126F23F50B8E828F83E0F50CC3950B50ED
:10566300030255D7850B0EE508250EF8E50934002E
:10567300F9EE241DFAEF3400FBEAFCEBFD8C828D7E
:10568300831256D72417FAEF3400FB8A088B09E5F7
:105693000CC3950B8A828B831256E5A3A3E0601B90
:1056A3008A828B83E024F2F0E8240EF8E91258EAA8
:1056B300FA850882850983E0C39AF0A90A800574F4
:1056C3000812083E7F0802058B1256D022F08E8204
:1056D3008F83A322E8F0A3E9F0EE221249EE124DE4
:1056E30094221256E922F08E828F83024009126CB3
:1056F300EAEAF0A3EB126C94E02408F02274F412AB
:1057030003818A088B09EA125790F0EA1313543F76
:10571300125789A3A3A3F0EAC41313125790A3A3A8
:10572300F0E48C828D83A3A3A3A3A3F08A0A8B0B3B
:105733007409780A120A9212577EF0EC2418F58243
:10574300ED126F1D8A0A8B0B740B780A120A9212E0
:105753005779F08A0A8B0B740C780A120A92125743
:1057630079A3F0740D7808120A92A908800312082D
:105773003E7F0402058B12577EA322E50A54018C57
:10578300828D83024007540F8C828D832254038CB5
:10579300828D83A3A322C082C083790090197912DA
:1057A3005F6DA3A3A3A3E0600FEC70268A828B83B3
:1057B300A3A3E0701D09801AEC60178A828B83A370
:1057C300A3A3A3A3A3A3A3A31257D87003A3E06B1C
:1057D30070E3024BFA124D94901982E06A2274EE40
:1057E3001203818A088B09890CECFEEDFF8A828BF8
:1057F300831258CA121BFA125913C0E0EE24111275
:1058030035C0D0E012590EC0E0EE24121235C0D0DC
:10581300E01256CC85820A85830B1258E06010E5AE
:10582300082408F8E5093400F9EE24131259008E10
:10583300828F83A3A3A3A3A3A3A3A3E06009125806
:10584300CEEE2415125900EEFAEFFB121C00E9F517
:105853000D7066850A82850B83E0F50EF510E50869
:105863002510FAE5093400FBEE2417F8EF3400F9AC
:1058730088088909EE241D1248498E828F83A3A3C9
:10588300A3A3A3A3E07012EAF8EBF98C828D831231
:105893005DCCE50CC3950E8019EA240EF8EB125883
:1058A300EAFB850A82850B83E0FAE50CC39A24F2AE
:1058B300C39B850882850983F0A90D02483C121415
:1058C300F2851882851983124D9422850A82850BED
:1058D30083E0F8E50828F8E5093400F92274081292
:1058E30056E9A3A3A3E0223400F98C828D83E8F068
:1058F300A3E9F090197AE0F91217B0E922126CEAE1
:10590300E8F0A3E91236172408F0221260CA80D205
:10591300850882850983A3A3125948E0F9EA8E8298
:105923008F83A3A3A3A3A3A3A3A3A312594D125984
:1059330048A3A3E0F9EAF8EE240B126CEAE8125943
:105943004DA3A3E022E0FA02551AF0A3E91260CEB8
:1059530022C082C0837AF77B1979E21214F27AF7B4
:105963007B19024BFAC082C0839019821258CA0273
:105973004BFAC082C08374FE12090A851882851906
:1059830083AA82AB83794B1258C1024BF5C082C004
:1059930083794A1214F2024BFA74F61203819019B6
:1059A300FFE0FE04F0EEF9121B9AEA7001EB70EED1
:1059B300EE60EBF9025BCA74EC120381EAFEEBFFC3
:1059C3008C128D13890E7414120B07E0F50A7415EB
:1059D300120B07E0F50B750C00750D00121D0E8AF6
:1059E300088B09EA7001EB7017E50B6003025AD0CC
:1059F300A90EAC12AD13EEFAEFFB121D20025B8968
:105A0300EA2402F8EB3400F9E50E601688828983F4
:105A1300E0FAE50E2AFAE4340013EA13F070037493
:105A230001F0E50B7003025ABB901A0AE07002A35F
:105A3300E06009901A0A125BD31221EDE50A700E99
:105A4300E4850882850983F0750D01025AE99019EE
:105A53007CE0A2E14003025AF1901A0CE07002A329
:105A6300E0600FA90AAA08AB09901A0C125BD312C3
:105A730021ED850882850983E0FA90262D126D02B7
:105A8300EA98E499C365D033500985088285098370
:105A9300E004F0850882850983E0FA90262DE493DB
:105AA3006A7043750C01EEFAEFFB121ABCE4850829
:105AB30082850983A3F0802E901AC9E0C0E0888212
:105AC3008983E0FAD0E0C39A501C025A4B740165F3
:105AD3000B7013E50E600F90197CE0A2E15015EEF8
:105AE300FAEFFB121ABC90197CE0A2E14025740185
:105AF300650B701FE50A6016901A0EE004F0C0E013
:105B0300901ADFE0FAD0E0C39A4008750C01E490E4
:105B13001A0EF0E50D7004E50C606B90197CE0A2A1
:105B2300E15030EEFAEFFB12184C8A088B09A808F3
