:020000040000FA
:06000000020A1B0201AE22
:03002B0002088246
:030033000205D0F3
:030043000207169B
:030053000200FDAB
:03006B000205AAE1
:1000830002014A0102020000F30D0000000000001B
:100093008F0E0000000000000000060606060600A2
:1000A30014141414140006FF340B01020078170013
:1000B3000000EB17640002020008000005010705B9
:1000C3001E02051E020A03B80B803E01FFFF140146
:1000D3000101010503010F10FEFFAB1CAB1CAB1CA0
:1000E300AB1C671B611BAB1C701F0000000096203C
:1000F300000000000C0000000C00C0E074F21203CA
:10010300C6A2AFE433FED2AFA9A7A8A1E859541001
:100113006008120B9575A1EF8023E8A2E092F0E945
:10012300A2E082F05017906198E0F89005B9E0C31F
:1001330098A2D265D0335002E8F075A1FEEEA2E09A
:1001430092AF7F01020425C0E074F21203C6A2AF8E
:10015300E433FED2AF9061A4E0F8759B00E59158BB
:10016300540860087591F7120BD78023E591585412
:100173001060087591EF120BDD8014E591A2E092F7
:10018300F0E8A2E082F05007E0C2E0F0120D159013
:1001930061A3E0F8E5E9585404600E120CEB75E92D
:1001A300FB906193E0A2E640F28092C0E074F21209
:1001B30003C6A2AFE433FED2AF9061A5E0F8E5BF7A
:1001C300585404600675BFFB120D2D020140C3E4B1
:1001D30098F8E499F91202128026C3E49AFAE49B90
:1001E300FBE920E7E9120212E498F8E499F922C343
:1001F300E498F8E499F9120212E498F8E499F9C33F
:10020300E49AFAE49BFB22EB20E7CFE920E7E0B98D
:100213000010BB0008E88AF084F8AAF022E4FBC8C7
:10022300FA22EB70227B10C833C8C933C933500795
:10023300C39AC3DBF280069A50012ADBEAC833F47F
:10024300C8C933F4C9FA2275F008E4C833C8C933FE
:10025300C933C99AC99B5004C92AC93BD5F0ECFBE1
:10026300C833F4C8E4C9FA22080808EAC0E0EBC0BE
:10027300E086F0E7A4FA180986F0E7A42AFA180939
:1002830086F0E7A42AFA180986F0E7A42AFA198661
:10029300F0E7A4FBE5F02AFA190886F0E7A42BFBA4
:1002A300E5F03AFA190886F0E7A42BFBE5F03AFAF1
:1002B30018180986F0E7A4C5F02BFBE43AFA1908ED
:1002C300E7C5F0C6A426F6E5F03BFBE43AFA188648
:1002D300F0E7A4F6E5F00826F6E43B08F6E43A086E
:1002E300F6D0E0FBD0E0FA22E4CFC0E0E4CEC0E0F9
:1002F300E4CDC0E0E4CCC0E075F020E626F608E6E5
:1003030033F608E633F608E633F6181818EC33FC30
:10031300ED33FDEE33FEEF33FFC3EC9709ED9709A1
:10032300EE9709EF97191919400FFFEC97FC09EDA8
:1003330097FD09EE97FE191906D5F0BFECF709ED05
:10034300F709EEF709EFF7191919D0E0FCD0E0FD32
:10035300D0E0FED0E0FF222518C582C0E0E51934C5
:10036300FFC583C0E0E518C3958224F810AF088564
:1003730083198582188008858319858218D2AFCEA8
:10038300F0A3E520F0A37808E608F0A3DEFAEFF087
:10039300A3E58124FAF8E608F0A3E608F0A3E6084B
:1003A300F0A30808E608F0A3E608F0A31581158179
:1003B300D0E0FED0E0F8158115811581E8C0E0EEAC
:1003C300C0E022C0D02518C582C0E0E51934FFC5BE
:1003D30083C0E0E518C3958224F310AF0885831921
:1003E3008582188008858319858218D2AFC8F0A347
:1003F300E9F0A3EAF0A3EBF0A37908E709F0A3D8A7
:10040300FAECF0A3EDF0A3EEF0A3EFF0A3D0E0F04D
:10041300A3D0E0F0A3D0E0F0A3E520F0A3E5F0F053
:10042300A322851983851882E0C0E0A3E0F9A3E045
:10043300FAA3E0FBA37808E0F608A3DFFAE0FCA345
:10044300E0FDA3E0FEA3E0FFA3E0C0E0A3E0C0E083
:10045300A3E0F5D0A3E0F520A3E0A3F5F010AF08E7
:100463008583198582188008858319858218D2AF00
:10047300D082D083D0E0F8D0E032120AD5B900039D
:100483000204BCE490030178D479178002F0A3D866
:10049300FCD9FA7AD47B1990008678787901801593
:1004A300E493A3AD82AE838A828B83F0A3AA82AB4B
:1004B300838D828E83D8E9D9E77582D77583B37428
:1004C300031207F97582D975831E74001207F9D0D8
:1004D30083D082ECC0E0EDC0E0E493A3FCE493A3FB
:1004E300FDED4C600D1205EEEC24FFFCED34FFFD39
:1004F30080EFE493A3FCE493A3FDED4C600D12069F
:10050300C1EC24FFFCED34FFFD80EFD0E0FDD0E033
:10051300FCE493A3C0E0E493C0E022D083D082E95B
:10052300C0E0E493A3C386F0C5F095F0F908E49323
:10053300A386F0C5F095F0700BE493A3C39940052F
:10054300E9048002A3E475F002A42582F582E5F0B4
:100553003583F583D0E0F9E493A3C0E0E493C0E0EE
:1005630022851983851882E0A3FEE0A3F52078088D
:10057300E0A3F608DFFAE0A3FFE0A3C0E0E0A3C036
:10058300E0E0A3C0E0E0A3C0E0E0A3C0E010AF0858
:100593008582188583198008858218858319D2AFCF
:1005A300D083D0820207FFC0E074F21203C6A2AF69
:1005B300E433FED2AFE589A2E15003121DE9758948
:1005C30000C2C5EEA2E092AF7F01020425C0E07431
:1005D300F21203C6A2AFE433FED2AFE58BA2E05022
:1005E30003121DE9758B00C2E880D8C0E0C3E49311
:1005F30096087401939618400FE493667008087484
:100603000193661870007019A3A3C3E4939608744A
:1006130001939618A3A3400DD0E0D0E0D0E00205EB
:100623000EA3A3A3A3A3A3D0E022D083D082C5F0BB
:10063300E493A3C5F0C395F0F5F0E493A3C395F059
:100643004005E5F0048001E475F002A42582F582FB
:10065300E5F03583F583E493A3C0E0E493C0E0229F
:100663007404800474028000CCC0E0EDC0E0E5189F
:10067300C39CCCAD1950011D10AF068C188D198089
:10068300068C188D19D2AF12075BD0E0FDD0E0FCC9
:100693002274028000CCC0E0EDC0E0E518C39CCC1E
:1006A300AD1950011D10AF068C188D1980068C18DA
:1006B3008D19D2AF120739D0E0FDD0E0FC22C0E0A3
:1006C300C0F088F0E49366700808740193661870AC
:1006D30000A8F0A3A3700BD0F0D0E0D0E0D0E002EC
:1006E300050EA3A3D0F0D0E022D083D082CCC0E00B
:1006F300E493A360061207BB1470FAE493A36006A5
:100703001208CD1470FAD0E0FCE493A3C0E0E493A4
:10071300C0E022C0E074F21203C6A2AFE433FED2FB
:10072300AFC2C0E5D1A2E45003120B0BEEA2E092DC
:10073300AF7F01020425CAC0E0E493A3C582CCC500
:1007430082C583CDC583F0A3C582CCC582C583CDC5
:10075300C583DAE5D0E0CA22CAC0E0E0A3C582CCF3
:10076300C582C583CDC583F0A3C582CCC582C583AD
:10077300CDC583DAE6D0E0CA222518F8E43519F9A5
:10078300222518FAE43519FB222518FCE43519FD56
:10079300222518FEE43519FF227009080808226093
:1007A30016181818C6C333C608C633C608C633C6D8
:1007B30008C633C6D5E0EA22C0E0E493A3D39C5035
:1007C30010E493A3C39C400AD0E0D0E0D0E002073A
:1007D30009A3A3A3D0E022C008C3E096F50808A3A9
:1007E300E096420808A3E096420808A3E09645086D
:1007F3007001D3D00822C09FF59FE473D09F22D00D
:1008030083D082C09FE493C0E0740193C0E074027C
:1008130093F59F2200C0D0251810AF08F518500C8F
:1008230005198008F51850020519D2AFD0D02274EB
:1008330004800A74038006740280027401C0E0F429
:100843000412084DD0E0120A98222518F58210AF41
:1008530008F518400C15198008F51840021519D22F
:10086300AF85198322BB0102E722C082C08389823C
:100873008A83BB0003E08002E493D083D08222C04A
:10088300E0C0D0E8C0E0A8A8D2AFC2C7E8A2E79210
:10089300AFD0E0F8D0D0D0E0326016080808C6C365
:1008A30013C618C613C618C613C618C613C6D5E092
:1008B300EA22C3E0C696F608A3E0C696F608A3E0CC
:1008C300C696F608A3E0C696F622C0E0E493A36CAE
:1008D3007009D0E0D0E0D0E0020709A3A3D0E02262
:1008E300251810AF08F518400C15198008F51840A5
:1008F300021519D2AF22C3E7960809E7960809E75C
:10090300960809E796A2D265D03322C3E09608A3DE
:10091300E09608A3E09608A3E096A2D265D033221E
:10092300E066701008A3E066700A08A3E06670042E
:1009330008A3E06622C3E096F008A3E096F008A3BC
:10094300E096F008A3E096F022E026F608A3E0364E
:10095300F608A3E036F608A3E036F622E026F00810
:10096300A3E036F008A3E036F008A3E036F022E077
:1009730046F008A3E046F008A3E046F008A3E046EB
:10098300F022E046F608A3E046F608A3E046F608A0
:10099300A3E046F622E647F60809E647F60809E625
:1009A30047F60809E647F622E056F008A3E056F0BA
:1009B30008A3E056F008A3E056F022E056F608A399
:1009C300E056F608A3E056F608A3E056F622E657EB
:1009D300F60809E657F60809E657F60809E657F652
:1009E30022E627F60809E637F60809E637F6080986
:1009F300E637F622700422600D18C6C333C608C654
:100A030033C6D5E0F41822E4C396F608E496F60854
:100A1300E496F608E496F62275D0007581407518C1
:100A2300017519030002047D600D08C6A2E713C611
:100A330018C613C6D5E0F322C3E7960809E796085C
:100A430009E7960809E79622C3E09608A3E096080B
:100A5300A3E09608A3E09622C6F4C608C6F4C60827
:100A6300C6F4C608C6F4C622600C08C6C313C6186B
:100A7300C613C6D5E0F422E6F008A3E6F008A3E621
:100A8300F008A3E6F022E0F608A3E0F608A3E0F6F8
:100A930008A3E0F622CAC0E0E6F0A308DAFAD0E041
:100AA300FA22E8F0A3E9F0A3EAF0A3EBF022EAF0DC
:100AB300A3EBF0A3ECF0A3EDF022E0F8A3E0F9A39D
:100AC300E0FAA3E0FB22E0FAA3E0FBA3E0FCA3E04F
:100AD300FD22E5C754F84401F5C77901222518F52D
:100AE30082E43519F58322C2AF75D69F0200002236
:100AF30012080276F902120802ECF902120802FF48
:100B0300FA021208028AFC02120802F3FC0212081B
:100B13000242FD021208024BFD021208025AFD02B4
:100B230012080270FD0212080283FD021208028CF1
:100B3300FD02120802A79103120802FC9103120896
:100B430002FB93031208022F940312080251940329
:100B53001208026A94031208028394031208025DC6
:100B63009503120802109603120802F7C303120832
:100B73000229C40312080235C40312080267C4031E
:100B83001208028FC403120802BCC40312080239FC
:100B9300C50312080267C5031208028DB6031208C3
:100BA30002ADB603120802ECB603120802FBB60349
:100BB3001208021AB70312080280B7031208028947
:100BC300B703120802E6B7031208020AB8031208B1
:100BD30002CBB803120802D8B803120802E9B8031B
:100BE300120802C37F00120802E07F0012080262AB
:100BF300AA03120802A3AB03120802B1AB03120843
:100C030002C4AB03120802D9AB03120802EEAB0312
:100C130012080201AC031208027AAC031208021193
:100C2300AD0312080265AD0312080275AD03120885
:100C330002F0D30312080214D4031208023CD403B3
:100C430012080264D403120802FEBF03120802252D
:100C5300C00312080243C003120802ABC003120808
:100C6300029FFD02120802B8FD02120802C4FD022F
:100C7300120802D8FD02120802F6FD021208020051
:100C8300FE021208020AFE021208021DFE021208E8
:100C9300026FFE02120802A8FE02120802D7FE0229
:100CA30012080225FF0212080274FF021208028FC3
:100CB300FF0212080299FF02120802AAFF02120899
:100CC30002EDFF02120802DFD50312080242890374
:100CD3001208026E89031208028B89031208029E0E
:100CE3008903120802B48903120802218A03120835
:100CF30002548A03120802C88D03120802028F03EA
:100D0300120802358F03120802998F031208028713
:100D13009003120802AF9003120802C49003120852
:100D230002D4900312080218910312080267910378
:100D3300120802779103120802FDCE03120802176C
:100D4300CF031208023FCF0312080258CF03120841
:100D5300027CCF031208029ACF03120802B1CF0319
:100D6300120802DFCF03120802FACF031208020CA3
:100D7300D703120802C2A603120802D2A60312085E
:100D830002D7A70312080209A8031208022FA80317
:100D930012080252A80312080269A803120802A348
:100DA300A80312080208A90312080241A9031208A2
:100DB3000280A903120802B1A903120802D1A903F0
:100DC3001208024CCC031208026ACC03120802B8C0
:100DD300CC0312080200CD031208029FCD031208B0
:100DE3000228D20312080235C90312080274CA0387
:100DF300120802C87900120802477A001208026733
:100E03007A001208028E7A00120802A27A001208EF
:100E130002FA7A001208021E7B00120802907C007C
:100E2300120802547D00120802B47D001208020564
:100E33007E001208023C7E00120802A87E001208FF
:100E430002D47E00120802517F00120802A57F001F
:100E5300120802C2C503120802DBC50312080262AC
:100E6300C6031208020AC70312080232C703120894
:100E73000217B9031208028BB90312080296B903C9
:100E8300120802B7B9031208020080031208020312
:100E93008003120802AC8003120802EB80031208DD
:100EA300021A81031208025081031208027E810391
:100EB300120802C881031208020F82031208028279
:100EC3008303120802AF8303120802DC83031208B0
:100ED300025F8403120802008503120802368503A9
:100EE300120802CE860312080298870312080288AA
:100EF3008803120802C48803120802FC880312083C
:100F030002EBBD0312080227BE0312080211BF033E
:100F1300120802FBBF03120802B4CD03120802EA4F
:100F2300CD0312080204CE0312080246CE031208B0
:100F33000256CE03120802F0CE03120802FACE03C1
:100F4300120802F3EE02120802FDEE021208023E3C
:100F5300EF02120802C3EF02120802E0EF021208C6
:100F63000280F0021208021EF30212080227F302A3
:100F73001208026EF30212080297F302120802EF3C
:100F8300F30212080277F402120802B7F4021208FD
:100F9300020FF50212080277F502120802AAF502FF
:100FA3001208021EF60212080275F602120802B0B7
:100FB300F602120802E3F602120802F5F60212081C
:100FC3000207F70212080226F702120802CFF702FD
:100FD30012080217F8021208022DD1031208020F99
:100FE300C2031208027DC2031208029CC203120844
:100FF3000292C30312080256BC0212080281BD0208
:10100300120802B6BD0212080251BF021208028280
:10101300BF021208020CC2021208024CC2021208DA
:1010230002E0C3021208027DC402120802CFC40206
:1010330012080251C50212080289C502120802CB26
:10104300C50212080241C702120802DFC8021208D1
:10105300022ECB021208025CCB0212080280CB02E2
:1010630012080289CB02120802DFCB021208027AAD
:10107300CC021208023CD002120802DCD703120889
:1010830002F2D7031208027BD60312080284AD03CF
:1010930012080296AD0312080230AE031208026B67
:1010A300AE0312080286AE03120802AAAE031208A8
:1010B30002EBAE031208021BAF031208024CAF038C
:1010C300120802C2B0031208022DD0031208028CC8
:1010D300D003120802CAD0031208020BD10312086C
:1010E300021CE5021208026AE50212080246E60241
:1010F300120802D5E60212080222E702120802745D
:10110300E702120802D1E702120802E5E702120819
:101113000219E80212080216E90212080283E90220
:10112300120802A4E902120802E5E9021208021AEF
:10113300EA0212080273EA021208028CEA02120897
:10114300029FEA0212080218EB0212080296EC024E
:10115300120802B8EC02120802EDEC0212080215A2
:10116300ED021208021AED021208027DED021208C6
:10117300021FEE0212080244EE021208024EEE02B1
:1011830012080251EE02120802AEEE02120802C960
:10119300EE02120802E6EE02120802E9EE0212085B
:1011A3000230D60312080248D603120802A8F70138
:1011B300120802F7F7011208029AF9011208023223
:1011C300FB0112080274FB0112080290FC011208D1
:1011D30002CBFD01120802EDFD0112080237FE01E8
:1011E300120802B8FE0112080238A20212080262B3
:1011F300A202120802E8A20212080261A302120864
:1012030002E1A3021208023DA4021208027FA40213
:10121300120802F5A40212080278A502120802F1CC
:10122300A50212080238A60212080248AA021208EE
:101233000205AC021208022AAC0212080223AD0214
:1012430012080226AD02120802F9AD021208023892
:10125300AF02120802B8AF021208023CB20212082F
:1012630002B4B202120802ABB30212080214B702AC
:1012730012080224B7021208028AB802120802C92D
:10128300B80212080201BA0212080207BB021208CE
:1012930002BBBB02120802C5D00212080268D102C7
:1012A300120802DCD102120802EBD1021208026911
:1012B300D202120802E0D20212080209D402120872
:1012C300022DD402120802A6D402120802F1D4029B
:1012D3001208024FD5021208022FD8021208025434
:1012E300D902120802CAD902120802B6DB02120896
:1012F3000264DC021208020EDD021208026DDD0236
:10130300120802D2DD0212080240DF02120802E1D3
:10131300E0021208020DE202120802A7E20212081A
:101323000211E302120802EDE3021208023DD803A0
:101333001208023FD8031208029EBB03120802D10F
:10134300BB031208028ABC03120802F2BC03120890
:101353000266BD0312080225A30312080244A30375
:1013630012080293A303120802AFA303120802DFB9
:10137300A303120802F5A3031208020EA403120822
:1013830002D8A40312080211A50312080222A6031D
:101393001208022DA6031208023FA60312080248F0
:1013A300A60312080252A603120802FD9E031208A6
:1013B30002B0A203120802BEA203120802FCB40385
:1013C300120802C6D60312080287D7031208025076
:1013D300D703120802B3D703120802FCD70312087B
:1013E300020080021208023A800212080267800299
:1013F3001208021281021208023F81021208020639
:101403008202120802538202120802AD83021208FA
:1014130002E383021208027A8602120802DB8802C0
:101423001208028D8902120802BEF8021208023164
:101433008A02120802018D02120802328D0212087A
:10144300028A8D02120802C48D02120802388E022B
:10145300120802258F02120802328F021208024676
:101463008F02120802548F02120802578F021208C9
:1014730002868F02120802BF8F021208023D9102F8
:10148300120802ED91021208020D920212080204E0
:1014930093021208020793021208026393021208CE
:1014A300020E95021208026D95021208022296029C
:1014B3001208023A9602120802979602120802BF15
:1014C3009602120802E09902120802A09A02120878
:1014D30002E89A02120802489B02120802679B0262
:1014E3001208025B9C02120802DE9E0212080250DE
:1014F300A002120802ECA002120802EFA1021208D5
:10150300020DA202120802D18101120802E3810135
:101513001208020282011208026E8201120802FB03
:101523008201120802CD83011208023E84011208CF
:10153300025984011208027D8401120802B8840151
:10154300120802F5840112080218850112080266C6
:101553008501120802408601120802F18601120871
:1015630002818701120802718801120802B48801FE
:10157300120802D888011208022A89011208024FB0
:101583008901120802818A01120802AE8A01120837
:1015930002C08A01120802CA8A011208025D8B0185
:1015A300120802CC8B01120802758C011208027D0D
:1015B3008C01120802568D01120802CC8D0112080B
:1015C30002098E011208026C8E01120802C28F01F9
:1015D300120802E28F01120802449001120802E18C
:1015E30090011208023A9101120802C991011208EE
:1015F30002859201120802C392011208023293017A
:101603001208028C9301120802C49301120802F615
:1016130094011208023096011208029196011208F1
:1016230002DA960112080202970112080285970155
:101633001208020598011208027898011208029D07
:101643009801120802119901120802AC99011208BB
:1016530002329A01120802599A011208027E9B0172
:10166300120802919B01120802189C0112080247FA
:101673009C01120802DF9C011208021E9D01120840
:1016830002599D011208023D9E0112080279A00130
:1016930012080283A0011208028DA001120802970A
:1016A300A001120802A1A001120802BBA0011208A6
:1016B30002C5A001120802CFA001120802D9A0019D
:1016C300120802FEA00112080254A10112080262CC
:1016D300A10112080286A101120802AAA10112089F
:1016E3000209A20112080260A2011208027EA201ED
:1016F300120802EEA2011208022BA30112080272C1
:10170300A301120802DAA30112080269A401120854
:1017130002A4A501120802F4A5011208022AA701D6
:101723001208028EA8011208021AAB01120802EC79
:10173300AC01120802A3AE0112080209AF0112089C
:101743000219B001120802CAB0011208020FB10156
:10175300120802C0B1011208024EB2011208027649
:10176300B20112080238B30112080210B6011208BE
:101773000235B60112080287B60112080285B701C5
:10178300120802BDB701120802FDB7011208025C7C
:10179300B8011208027AB901120802DAB901120873
:1017A30002BEBA01120802C8BC01120802EABC0157
:1017B3001208027DBE01120802C3BE01120802977D
:1017C300BF011208022AC00112080259C0011208FF
:1017D3000284C0011208026FC101120802ABC101E9
:1017E3001208020DC2011208029BC2011208029ED6
:1017F300C2011208020DC301120802F022001208EE
:1018030002422300120802992500120802E525006E
:10181300120802D826001208023B27001208027C95
:101823002700120802D22800120802F52A00120823
:10183300028C2B00120802202C00120802EF320047
:10184300120802833300120802003600120802E471
:101853003600120802903700120802C1380012083D
:1018630002B73900120802E13C00120802A43E004C
:10187300120802043F00120802B83F00120802E3F4
:101883003F0012080270400012080254410012087F
:1018930002284200120802BC4200120802E9420078
:1018A3001208020B4300120802274500120802F92E
:1018B3004500120802464600120802B74600120805
:1018C300026547001208029A4700120802E847001F
:1018D300120802184800120802564800120802BAF9
:1018E3004800120802BF48001208021A49001208F1
:1018F30002424900120802584A00120802B94A007B
:101903001208021C4B00120802AF4B00120802E43B
:101913004D00120802BD4E001208024D500012087D
:1019230002DD51001208027A5200120802B9530074
:101933001208025254001208029A54001208020DAF
:1019430056001208022156001208022E56001208F1
:101953000249560012080255560012080273560037
:10196300120802965800120802895900120802CD83
:1019730059001208025F5A00120802645B00120841
:1019830002315C001208029B5D00120802A05E0097
:10199300120802365F00120802B95F00120802D073
:1019A3005F00120802F45F00120802FE5F001208D3
:1019B300020A60001208022860001208026C60002C
:1019C300120802BD60001208021A61001208027BAD
:1019D3006100120802826200120802936300120877
:1019E300023264001208021F6500120802B6650085
:1019F3001208024D66001208021D67001208024C0D
:101A03006700120802BE67001208026C6800120821
:101A130002926800120802AA6900120802C969004A
:101A2300120802386A00120802B16A00120802D7CB
:101A33006A00120802036B001208024E6B001208C0
:101A430002CE6B00120802756D001208029E6D0033
:101A5300120802236E001208027D6E00120802A211
:101A63006E00120802E86E00120802056F001208E9
:101A730002B36F001208028AD503120802D5D503F8
:101A8300120802DBC30112080215C401120802E89E
:101A9300C401120802BEC501120802EDC6011208F4
:101AA3000276C801120802F4C801120802BAC90179
:101AB300120802DBCA011208024DCB01120802AF61
:101AC300CB0112080211CC011208021BCC0112082F
:101AD3000259CC01120802C2CC0112080261CD01E5
:101AE300120802DFCD0112080292CE01120802048D
:101AF300CF011208022ACF011208025ACF0112089D
:101B03000287CF011208022DD0011208023DD00135
:101B130012080290D0011208029CD001120802A8F8
:101B2300D001120802B1D00112080214D101120827
:101B33000274D101120802C5D101120802E0D101D9
:101B430012080210D20112080231D2011208023D1A
:101B5300D201120802C4D301120802E2D30112080F
:101B6300024BD4011208025ED4011208026FD401A1
:101B730012080202D50112080205D601120802FB5F
:101B8300D6011208027ED70112080287D701120874
:101B930002EAD70112080201D80112080243D80150
:101BA30012080288D801120802B7D801120802EEFF
:101BB300D8011208020BD9011208022FD901120809
:101BC3000270D90112080263DA01120802A9DA01CC
:101BD300120802E4DA0112080243DB011208026B65
:101BE300DB01120802A4DB01120802B2DB011208B6
:101BF3000213DC0112080250DC0112080292DC011C
:101C0300120802C3DC01120802F7DC011208020207
:101C1300DD0112080220DD01120802E9DD011208CC
:101C230002F3DD0112080238DE01120802A2DE010E
:101C3300120802B6DE01120802AEDF01120802C169
:101C4300DF01120802D6DF0112080276E001120852
:101C530002DAE001120802A1E101120802ACE1017B
:101C6300120802CBE201120802E7E2011208023F66
:101C7300E30112080276E30112080290E30112085D
:101C83000204E40112080295E401120802DDE401F2
:101C930012080202E7011208026CE701120802D7D8
:101CA300E7011208021DEA011208022DEA011208D7
:101CB3000230EA011208023CEA0112080250EA016A
:101CC30012080258EA011208029DEA011208024BA7
:101CD300EB01120802BBEB011208021FEC01120810
:101CE30002B8EC0112080252ED0112080280ED0164
:101CF30012080225EE0112080254EE0112080257DF
:101D0300EE01120802CEEE01120802BEEF01120824
:101D13000296F00112080220F10112080241F201B9
:101D2300120802F3F2011208022CF3011208025DF9
:101D3300F30112080266F301120802A2F30112086A
:101D43000289F40112080205F50112080295F50152
:101D53001208025FF601120802E3F60112080219E3
:101D6300F70112080262F70112080251F802120881
:101D730002989E03120802189C03120802569B0342
:101D8300120802DD9A03120802CF9A031208029A7C
:101D93009A03120802499A03120802249A031208AA
:101DA300020F9A03120802F79903120802E9990332
:101DB300120802D29903120802B8990312080244C6
:101DC3009903120802739803120802159803120864
:101DD30002FB9703120802CA9703120802589603DC
:101DE30012080243960312080214CC03120802BB22
:101DF300CB0312080273CB0312080254CB0312085D
:101E030002EACA03120802C8CA03120802D6FF0173
:101E130012080270FF01120802ECFE0112080215FB
:101E2300D503120802B4D40312080299D40312088A
:101E33000289D4031208021AD80312080291C703B5
:101E430012080283C703120802D1D3031208023314
:101E5300D30312080222D30312080224D503120863
:101E63000281B303120802ED6F0012080235B303B7
:101E730012080299B203120802FCB103120802CF3E
:101E8300B0031208027579001208023B79001208A8
:101E930002097900120802D378001208027278004E
:101EA3001208025C78001208021278001208022A53
:101EB30075001208023D7300120802E57000120853
:101EC300029A7000120802FB6F001208026A700087
:101ED3001208021A8A0200000080FBE47300013634
:101EE30036010100010201000103010001040106A2
:101EF3000605020000070100340801000F09040170
:101F0300010D0100FF0E0800001702000019010077
:101F1300FF1A0100011B0100FE1C0100081D020045
:101F2300001F010001200100012102000023010024
:101F33000F240200002601000127010008280200E7
:101F4300FF2A0100072B0102402C0100002D010094
:101F5300012E0100012F0100FF30010B1C3108008D
:101F6300003A0100083B01000F2F0100000300713C
:101F73000030016000110070003102200350048022
:101F8300001000610000001400630073007200621F
:101F930000430000001300060000000000040012CC
:101FA30000000000000000000004000400370037B8
:101FB300003C024400000000000000000065000037
:101FC30000350081000000050000008300000003CD
:101FD3000271023001600211027002010202020268
:101FE300028002100261023A00410063027302722E
:101FF30002620243020002130238000002000204DC
:10200300021202000200020002000204020402376C
:102013000037003C0244020002390000020002655E
:1020230002000235028102000205028202830200DD
:102033000203047104020460041104700402040224
:10204300040104020410046104000414046304730F
:10205300047204620443040004130406040004002D
:102063000404041204000400040004000451046482
:1020730000000400040004440400040004000400FD
:10208300046504000435048104640005040004832A
:1020930004000401037103010301030103010301AC
:1020A30003220302030103100300030003000300E0
:1020B3000300030003000342030003240306030099
:1020C300030003040312032503230325032303044B
:1020D300030403000300030003440300030003237A
:1020E3000300036503210035038103000305030097
:1020F3000300030003010171010101010111010149
:10210300013101010101018001100161013B001452
:1021130000630173017201620143010001130106AF
:10212300013D01350004011201000100010001001D
:102133000104010401330133013C0144013201363E
:102143000000010001650100013500810100010566
:102153000182018301000136000100060000000F27
:102163000000000000000000000000000003FFFF6B
:1021730000000403FFFF0000FFFF0FF4010005C48C
:10218300040320000100000B000000000000000019
:1021930003010F0000D31213004F120100D31202E8
:1021A30000071203000D1204001312050019120692
:1021B300002512110043121400491215003712FFB3
:1021C300FF0000014318067318086D180B7F1810E1
:1021D300AD17024918056118074F180C25180D375C
:1021E30018FF0000C11BF11BC71BCD1BEB1BDF1B23
:1021F300D91BF71BFD1B031C0F1CD31BBB1BB51BE0
:1022030003EAF5E5D5D5C5B5A595958585757565B8
:1022130065555545453535252515150500160F001A
:10222300000B150B020002220F32000006AB1CBD8F
:102233001CC31C8B1BC91C851B911BC51ABF1AFB16
:102243001A011BF51AAD1A051D231D291D0B1D1798
:102253001D111D00383C3E363B3B352B432C3030A3
:1022630016181920231A1C1E3000034948424D1822
:10227300172505020C0E020B040B0A0708000F00BA
:1022830001191618161615230300303017181921D3
:10229300301B1D1F30F91CCF1CD51CE11CDB1CE5BA
:1022A3001B091C1D1D151C1B1C020402010101013D
:1022B30009020005150D09100804D11AD71ACB1A03
:1022C300071B00000000000000BE040ADD1AEF1A1D
:1022D3002800E803040015000E0003090810100489
:1022E300011E0C05080F1EFF000009030AC082C06F
:1022F30083E9901927F0E49018DCF0120F0190198C
:102303003BE4F0A3F0901928F0A3F0121A1712156A
:102313006D121705120F0790189CE4F0A3F09019A3
:102323004DE07002A3E0600990194D125860121E2F
:10233300DE9022E8E493FA790212138D0248B37413
:10234300F212035AEAFEEBFF74805FF9E47001E9CD
:102353006061901927E0F9120F7F8A088B09EA70F0
:1023630001EB60467B0080010BEB75F003A424C6F0
:10237300F8E5F03421F988828983E493FA74FF6ADB
:102383006021850882850983E06A70DCAA08AB09AD
:1023930088828983A3E493C0E0740193F583D08298
:1023A300121EDEAA08AB09120F73EEFA74806FFBDC
:1023B30002258274205FF9E47001E9601D1218FDA3
:1023C3008A088B09EA7001EB600A121837AA08AB76
:1023D30009120F73EEFA742080D4EE5420700302B6
:1023E30024B3750C001245197001EB700B7C027D50
:1023F300007A207B001269047C0079047A007B0058
:102403001218C78A088B09800D740188828983F0AA
:10241300850A08850B09E5087002E509606D7C00F3
:102423007904AA08AB091218C78A0A8B0B750C0129
:10243300E508240412694F24FFF0A3E034FF126B74
:10244300B17002A3E070C9E5082409F8E509340076
:10245300F9850882850983A3A3A3A3A3A3A3A3A3A5
:10246300A3E0640170A3850882850983A3A3A3A3C2
:10247300A3A3E054047092740688828983F07AB728
:102483008508828509831226CD80851218977C00E2
:1024930079017A007B001218C7EA7001EB7009E535
:1024A3000C70057A2012258E74206EFAEF0223B287
:1024B300EE5410600712173B741080EEEE54406028
:1024C30007121795744080E2EE5480600712165D80
:1024D300748080D674015FF9E47001E9601A901981
:1024E3004FE07002A3E0600990194F125860121E6A
:1024F300DEEEFA74010223B174085FF9E47001E9B6
:10250300602D121711901846E06401701B90184754
:10251300E06015FC75F0E8A4CCAAF075F003A42ADA
:10252300FD7A007B08126904EEFA74080223B17481
:10253300105FF9E47001E96012901939E06005E475
:10254300F0121711EEFA74100223B174025FF9E46A
:102553007001E9600A121A11EEFA74020223B174CF
:10256300045FF9E47001E96012125C03125A5979AD
:10257300011236DAEEFA74040223B17A007B00808A
:102583000574031208177F060205647B0090192760
:10259300E0F91210B12274F712035A74E11208E33E
:1025A300EAFEEBFFEE7001EF603385188285198335
:1025B300AC82AD831219277406120AE0E0601E7420
:1025C30017120AE0E0FD7401120AE0E0FCEEFAEFF4
:1025D300FB79001214FBE9600479A48002790002FC
:1025E3004A0874F512035AEAFEEBFF8E828F83A327
:1025F300A3A3A3A3A3E05440601812626D60067AFC
:10260300FF7BFF806A8E828F83124DDBFAA3E0FB90
:1026130080539018C7E0A2E15048125F99241CF838
:10262300EB1245047508FE7509FF780812083A1283
:10263300327612066779008C828D83125E8DA3A396
:10264300A3E0F5088C828D83125BF0A3A3E0FDACBD
:10265300088A828B83125583121717740412081782
:10266300800312194B74FE6A700374FF6B6043128C
:10267300585C125D8A1219B7E98E828F8360061245
:1026830026C6E480051226C67401F07C077D188EE9
:10269300828F83125583121387E9F5087017EE7042
:1026A30001EF60097901EEFAEFFB1218A3A9080202
:1026B30060FC7508CDAA088E828F831226CDE9604F
:1026C300DD80EAE0240D12503722E0240C124A5335
:1026D300F91218132274F612035AE9FEEAFF7A0F6D
:1026E3007B00120F6DEA7001EB6019740C8A828B08
:1026F30083F0EEA3A3F0EF8A828B83A3F0125A4AEE
:1027030079008028EEF91218CD8A088B09A808A948
:1027130009E87001E96013740688828983126BB635
:10272300E0F91217A7EEF91218A979100258579079
:102733001927E0F91210A522C082C0837900EA2488
:102743001DF582EB12327C1255839018C7E0A2E18B
:102753008A828B83E0500E1206EC01010A65270082
:1027630079270980111206EC010304652702076526
:10277300270A652779270248B374EE12035AEAFE43
:10278300EBFF8C088D09890E7412120AE0E0F51034
:10279300A3E0F511851082F583E4F0A3F01228AECF
:1027A300EE241DF8EF3400F9880C890D8882122875
:1027B300C7601F850A82850B83122B867014850AD6
:1027C30082850B83124B93851082851183125A598C
:1027D3008003750E00850C82850D83124DDB120676
:1027E3002D01094D28FC27142822282D284D285770
:1027F300284D2871288A289D28781012083AAC0899
:10280300AD09EEFAEFFB1217237402120817022820
:10281300A6AC08AD09EEFAEFFB1217290228A9A905
:102823000EEEFAEFFB1219CF8079126D326402704B
:1028330019E50E700A1228BB7003A3E0697067EEF6
:10284300FAEFFBA90E1219878059750E0079011250
:102853000F1380521228BB7003A3E06970EC126D52
:1028630032640270E5EEFAEFFB12196F80389019AB
:1028730051E07002A3E0602EEEFAEFFB90195112C3
:102883005860121EDE801F1228BB7003A3E069701C
:10289300B9EEFAEFFB1219DB800CEEFAEFFBA90E8F
:1028A3001219E7E9F50EA90E0244F5EE2409F8EF33
:1028B3003400F9880A890B22850A82850B8312600A
:1028C300F5E06822F583124DDFF9121999E92274B4
:1028D300ED12035A74DE1208E38A088B09EA240214
:1028E300F510EB1251B3F91218CD8A0A8B0BAE0A0D
:1028F300AF0BEE7001EF70030229B9E508240C1247
:102903005D65122AE4240612326E850882850983E6
:10291300A3858208858309E064F16017E064CD60D4
:1029230012E0641A600DE064E96008E064E16003AA
:10293300022A43850E82850F83A3E05408F9E470CD
:1029430001E9607F7405850A82850B83F090195530
:10295300E07002A3E06009901955125860121EDE60
:10296300901957E07002A3E060339018C7E0A2E12A
:10297300502B8E828F83126267A3A3A3A3A3A3A367
:10298300124A12123288EA7001EB601185088285BF
:102993000983E0F9901957125860121EDE850A82E6
:1029A300850B83E0640270037406F0851082851141
:1029B30083E0F91218A912189774221208177F0BD3
:1029C30002056479001218A3E960759018C7E0A2A4
:1029D300E140030229501266347002A3E07003023F
:1029E30029507403120AE012661B85088285098345
:1029F300E064E9701A122AEC12083E850882850900
:102A030083E0F512781212083E123C9E12081774E6
:102A13000C120AE012558312585C125D8A79007415
:102A23000E120AE0124DB5740C120AE01232B8709D
:102A330003022950850E82850F83124DBF02294F51
:102A4300850882850983E0C0E07402120AE0D0E0C1
:102A5300F01267B2EE240B126D3585188285198347
:102A6300AA82AB8370051216818003121993740234
:102A7300120AE0E064E97014122AEC12083E75129F
:102A8300E9781212083E123C9E1208179018C7E00C
:102A9300A2E140030229A0850A82850B83E0640238
:102AA3007027850E82850F83E05404601C12626DCB
:102AB300701312585C74FFF0A3F07405850A8285C5
:102AC3000B830229AD740380F3850882850983E0B3
:102AD30064E960030229A0EEFAEFFB1219ED022963
:102AE300A0EE240912690DEE22125F9E7512017881
:102AF300122274F512035A8A088B09750A00EA2414
:102B030009124B86FEE9FF8E828F83122B86700398
:102B1300750A018E828F831254917003A3E06B7048
:102B230006E50AD2E1F50AE5082402FEE5093400C8
:102B3300FFE50A60138E828F83E07006E50AD2E513
:102B43008004E50AD2E6F50A1219B7E964017006B2
:102B5300E50AD2E0F50A8E828F83E06017E5082448
:102B63001DF582E50934001228C764016006E50AF1
:102B7300C2E0F50AE50AA2E14004D2E7F50AA90A90
:102B83000260FC126278640222C082C08379018AE7
:102B9300828B83A3A3E0C394024001198A828B83AF
:102BA300A3A3A3A3E0C39402400279008A828B8388
:102BB300A3A3A3A3A3A3A3A3A3124DB574F86C70FB
:102BC3000374FF6D601E74F96C700374FF6D601401
:102BD30074FA6C700374FF6D600A74FB6C70037499
:102BE300FF6D700279008A828B83A3A3A3E0FC901C
:102BF30018CAE06C600279009022E4E493C39480E5
:102C03005018E493C333C0E0EA2411F582EB126D4C
:102C130038FAD0E0C39A500279000248B374E8123C
:102C2300035A74DC1208E3EAFEEBFF7403120AE0B2
:102C3300125B5C7514007515007405120AE0AC8212
:102C4300AD838E828F83A3A3A3125D761255831265
:102C53001927E9600F7405120AE0AA82AB831218E0
:102C630031E970087901120F13023264EE241B124A
:102C73004B8D7412120AE0125A59740B120AE0E0D7
:102C83006023741C120AE0E0FD7406120AE0E0FC03
:102C93008E828F83A3A312558379011214FBE960FB
:102CA30004790280C17405120AE0AA82AB83121868
:102CB3002BE9F508740B120AE0E070299018C4E0C0
:102CC3006023742255086422601B744255086442D1
:102CD30070CF7422120AE0124DDBFA74066A6005A3
:102CE30074076A70BCE9A2E650127405120AE0AADE
:102CF30082AB83121819E97003022C67EE2412F5D4
:102D030016EF3400F517EE242A122AE7242C123288
:102D130079123789E0687003A3E069701C750900B4
:102D2300780912083E780912083EEE242E123280EA
:102D3300123294123CAE120817740B120AE0E070C0
:102D430003022DDE1232941232888A0A8B0BA80AF0
:102D5300A90BE87001E97003022E827406120AE0DF
:102D630012328FFAA3E03400FB740D2AF582E43BA0
:102D7300F583E0FAE82404F50AE9126910E824036C
:102D8300F582E9126D386A600DEAF09081C3780C20
:102D9300120A891232D979047406120AE012328FA8
:102DA300FCA3E034008C82F583A3AA82AB83120FC9
:102DB3005B8A0C8B0D8C0E8D0F850A82850B8378B5
:102DC30010120A897810790C120A3B5003023264FC
:102DD3009081B7780C12094C1232D9EE24241232A6
:102DE3006EEE2430F50CEF125D69EE242F12690D9F
:102DF3009018C7E0A2E15003022F1B9018DCE0FA01
:102E030074046A600874096A6003023264E508A204
:102E1300E54003022EC81232C0C0E07401120AE07A
:102E2300D0E0123CD8C0E07402120AE0D0E0F074A3
:102E330016120AE0E0640170207410120AE01232E4
:102E4300A47003A3E0697011740E120AE0122B86BA
:102E530070077416120AE0E4F0850E82850F831260
:102E630006637404120AE0AC82AD837409120AE0AB
:102E7300AA82AB8312168774041208170232649075
:102E83001921E064016003022DDE7422120AE012AC
:102E93004DDB64067009E508A2E65003022DDE74DB
:102EA30012120AE0E064FF7004A3E064FF700302FF
:102EB3003264EEFCEFFD7405120AE0AA82AB8312C2
:102EC300183D023264A2E640030232647422120AFD
:102ED300E01232B0701E741C120AE0E06402600358
:102EE3000232647405120AE0AA82AB8379001219D4
:102EF3008702326474076A6003023264741C120A24
:102F0300E0E0640460030232647405120AE0AA82FA
:102F1300AB8312197B0232647416120AE0E0601D5F
:102F23008E828F83A3A3123CCA14125385A3123C2F
:102F3300CAC0E07416120AE0D0E0F07006E508C2D9
:102F4300E7F5089018DCE0FA74046A600574096A0E
:102F53007061740E120AE01254917003A3E06B6067
:102F6300171219B7E96402600F740A120AE0E054F9
:102F730003640160030232647407120AE0E0701B09
:102F83001232C0C0E07401120AE0D0E0123CD8C093
:102F9300E07402120AE0D0E0022E5B7422120AE00F
:102FA3001232B07003022ED974076A6003023264CE
:102FB300022EFF7509007461550870030230CFE5D6
:102FC30008A2E05070851682851783124DB57405EB
:102FD300120AE0AA82AB8312179BE97055121957A4
:102FE300E9F5097416120AE0E0700F7410120AE092
:102FF3001232A47003A3E069603BA9098516828598
:103003001783124DB57405120AE0AA82AB83121717
:10301300A1E96013740E120AE0126175120AE0123C
:103023005A59751404800EE508C2E5F508750900C0
:10303300800353089FE508A2E5503C1232C0C0E06C
:103043007401120AE0D0E0123CD8C0E07402120A04
:10305300E0D0E0F0850E82850F83120663740412BC
:103063000AE0AC82AD837409120AE0AA82AB831230
:1030730016877404120817E508A2E6400302319C80
:103083007403120AE085820A85830B780A12083AD0
:10309300A909851682851783124DB57407120AE0B4
:1030A300AA82AB8312181F7402120817E9F509707C
:1030B3000302319C7422120AE0124DDB64016003A7
:1030C30002319C74104514F51402319C7407120AE2
:1030D300E0E06401703B7422120AE0124DDB6405E8
:1030E300702F7403120AE085820885830978081219
:1030F300083A7900851682851783124DB574071235
:103103000AE0AA82AB8312181F7402120817023254
:10311300647416120AE0E070127422120AE0124D6F
:10312300DB64036003022EB502326412189DE9606A
:1031330003023264740E120AE0126175120AE0127D
:103143005A59780912083E741E120AE0AC82AD8304
:10315300740F120AE0125583740A120AE0E0F9129E
:1031630017DD7401120817E9600F7514208E828F22
:1031730083A3A3124DDB543FF079007410120AE0CD
:10318300124DB5740E120AE01232B860067420456F
:1031930014F514121957E9F5097403120AE0E064EF
:1031A300FE7004A3E064FF7003750900E508A2E75D
:1031B3004003023264E50970030232648E828F8316
:1031C300A3A3A3A3E0FA7B00120FEB8A0A8B0BEAFB
:1031D3007001EB70030232648E828F83A3A3E0F548
:1031E3000CA3E0F50D750E00780C1208368E828F55
:1031F30083A3A3A3A3E0FC7D00124211120817745A
:1032030007120AE0E0851882851983F07401120A17
:10321300E0E4F0A312526D85820C85830D780C12C5
:10322300083A781412083AE509F508780812083EB6
:103233008516828517831206678E828F83A3A3A3C5
:10324300A3E0F9740A120AE0124DB5AA0AAB0B12F5
:1032530019157407120817E96007AA0AAB0B120FB6
:10326300F174241208177F10020564F50EEF340081
:10327300F50F22EE240EF582EF12697A22F582EF22
:10328300125C2BF922124A4D121A3B221265692A4B
:1032930022850A82850B83124BA9851682851783A3
:1032A30022124EB3851682851783E06822124DDF02
:1032B300FA74046A22124A4D12171DE922EE242ED3
:1032C300125C288518828519831232D022F0850A70
:1032D30082850B83E022850A82850B83E50CF0A3AC
:1032E300E50DF0A3E50EF0A3E50FF02274F212034F
:1032F3005AEAFEEBFF8C088D091228AE8882F5830B
:10330300125583901846E060119018CDE06A70035F
:10331300A3E06B7005121711805379001217B98A55
:10332300828B83E5827002E583603AA3A3A3A3A300
:10333300A3E05418602FE508241BF582E509123237
:103343007C120667E5082412F582E50912327C1225
:103353000667EE24181232801233731217E97404CD
:103363001208178008790012337312173502258962
:10337300850A82850B83124BA9EE240B124A46223F
:1033830074EE12035A74EA1208E38A0C8B0DEA24D2
:1033930002F50EEB1232710A0AFB1215918A088BA1
:1033A30009AE08AF09750901850C82850D83A3E079
:1033B300F508750A01AC0EAD0F851882851983AA2D
:1033C30082AB831210DB7408120AE0125B5C740A8E
:1033D300120AE07402F07413120AE0E4F0E50C241C
:1033E3000AF50CE50D125D69901A22E07010EE707B
:1033F30001EF700AE50870067509C3023559901884
:10340300DCE0640860067509C2023555850C8285C7
:103413000D83E0A2E1500EA2E35005750A04800C6F
:10342300750A038007A2E35003750A02EE7001EFE9
:1034330060648E828F83A3A3A3A3E0FA74046A60FB
:103443000574036A700C7404650A601C7403650ACE
:10345300601674026A600574016A70207402650A5A
:1034630060067401650A700F8E828F83123FB21259
:103473000AE0125A59801F74026A600574016A7067
:103483000A8E828F83124066121EDEAA0EAB0F12C3
:10349300159D7E007F007408120AE0E064FE70044C
:1034A300A3E064FF7038121567E97032E50860170E
:1034B300901919E06402700F901A29123FB2120A90
:1034C300E0E8F0A3E98016850C82850D83E05402C1
:1034D300F91217477408120AE0EAF0A3EBF0740834
:1034E300120AE01235F9700374FF6B70057509C792
:1034F3008060E508F50B780B12083E850C82850D7C
:1035030083E0F9AC0EAD0F1216A57401120817E98A
:103513007040A90AAC0EAD0F7408120AE01236D33C
:103523008A108B11AE10AF11EE7001EF601C7402A4
:103533006508700BEE2405126D3554FB4408F074D6
:103543000A120AE0E4F0F50980087408120AE0128E
:103553005B5CE508700F851882851983AA82AB83AB
:1035630012136F8010FCA90A851882851983AA8219
:10357300AB83121975E9FAEE7001EF603EEE240594
:10358300F8EF3400F9E508601288828983E0D2E617
:10359300F0740265087004E0D2E5F0850C82850DB5
:1035A30083E0A2E6500888828983E0D2E7F08E8226
:1035B3008F83A3A3A3A3A3A3E004F0E5097003EA05
:1035C300602FFC7D007A017B10120F0DEE7001EF6E
:1035D3006007AA0EAB0F12159D7408120AE012358C
:1035E300F9700374FF6B60099018B4125860121ECF
:1035F300DE74160244F2124A4D74FE6A2274F61205
:10360300035A74F71208E38A088B099018DCE0FA6E
:1036130074036A600D74016A600874096A600302C6
:1036230036D08508828B83A3AE82AF83E06003022A
:1036330036B57C007D007A027B00120F0DE508246D
:103643000212450B1260F1125A5979531213697918
:10365300001236DA9018DCE0640960099018DA1277
:103663005583121A35740112588D74049018DCF0C6
:103673007401120AE0AA82AB83794A1213637401BC
:10368300120AE0AC82AD837AD27B181210DB790088
:103693007401120AE0AC82AD839018D01236D39035
:1036A30018C7E0A2E35004D2F08002C2F0125875AA
:1036B3008018FC7D007A037B10120F0D8E828F839E
:1036C300E0F91236DAE49018DCF012187902585255
:1036D300124A4D12157F229018DA124A4D12169F84
:1036E30022C082C08390189CE07002A3E0704190D6
:1036F30018DCE01206EC0003010637051537062433
:103703003733379018A4E07002A3E060769018A4D2
:10371300806B9018A0E07002A3E060679018A0800F
:103723005C9018A2E07002A3E060589018A2804D4C
:1037330090189CE07002A3E06009123CC7FC74017E
:103743006C70237900901928800909EA126386EBCB
:1037530012327C1247E37001EB70EF901928125577
:103763008312168D801D74026C7005121A05801366
:10377300901953E07002A3E0600990195312586046
:10378300121EDE0248B3124EB39018DA2274F412FA
:10379300035A74EB1208E3EA124B80FAE9FB8A82BC
:1037A3008B837808120A897808120A5B9018DD78EF
:1037B300081209AB7F7F7E7F7C00750801750900C5
:1037C300750A00750B00EC780812079C9018DD78D9
:1037D300081209BE9081C37808120923602A7D006C
:1037E300901928801288828983A3A3E06C70010D4D
:1037F300126385E912327C1248517001E970E6EDDB
:10380300C39F5004EDFFECFE0CECC3941B40AB8A4A
:10381300828B837808120A899081C378081209235E
:1038230060459018DD7808120A7A8A828B837808BB
:10383300120A898518828519837808120A7A740412
:10384300120AE07401F09018E3E0C0E07405120A74
:10385300E0D0E0F07407120AE01239AF805B121671
:10386300C99018DA125D8A9019281248517001E93B
:1038730060229018DA1267A5E06A7003A3E06B7008
:103883000A88828983A3A3E06E60D3126385E91259
:10389300327C80D6EE9018CFF0121867E9601AE4F4
:1038A3009018DCF09018A6E07002A3E0600B79C4D6
:1038B3009018A6125860121EDE741502542A74F072
:1038C30012035A74EB1208E38A828B83A3A3A3A384
:1038D300A3A3A3A3A3124851FAE9FB7C00750C012F
:1038E300750D00750E00750F00EC780C12079C85A2
:1038F3000C08850D09850E0A850F0B9018DD7808D5
:103903001209BE9081C378081209236025901A28F2
:10391300E0C0E08C08EA2508F582EB126D38FDD093
:10392300E0C39D500D780C120A5B9018DD780C12E1
:1039330009AB0CECC3941B40A49018DD7808120A61
:10394300899081C378081209236039851882851903
:10395300837808120A7A7404120AE07401F0740777
:10396300120AE07401F09018E3E0C0E07405120A53
:10397300E0D0E0F07407120AE01239AF7406901831
:10398300DCF08023E49018DCF0FCFD7A047B101259
:103993000F0D9018A6E07002A3E0600B79C4901895
:1039A300A6125860121EDE741502537DE4126106DE
:1039B30012137B2274EC12035A74ED1208E38A8209
:1039C3008B83A3123C8FEA2408124B86FEE9FF8502
:1039D3001882851983AC82AD838E828F83123CB7A4
:1039E300A3A3A3A312558312188B85188285198369
:1039F300E070768E828F83E0C3940B406C850882DF
:103A0300850983A3A3A3A3A3A3A3A3E0640270597B
:103A13009018DCE0FAE5082410F510E5093400F508
:103A230011E5082409125D6574026A604174066A2F
:103A3300603C90189CE07002A3E06007123CC764EE
:103A430001605474086A600574046A701C7402127D
:103A53000AE0E0F97407120AE0AC82AD83850C82B8
:103A6300850D8312558312189174130264E890181C
:103A73009CE07002A3E0701F750A00780A12083EEA
:103A8300780A12083E851082851183123C81124503
:103A930013123CAE1208179019281269A490192822
:103AA3001264E0E508240DF50EE509123271803148
:103AB3008E828F83E0F8A3123C81E0687003A3E059
:103AC3006970128E828F83A3A3E0FA850E82850F1D
:103AD30083E06A606B8E0A8F0BEE126386EF1269C6
:103AE300A1EE7001EF70C97A187B00120FEB8A12F6
:103AF3008B13AE12AF13EE7001EF7003023A6C7CBE
:103B030018126AF9125B53EE240C12327974FFF027
:103B1300E508240B12694F123C78126BB0C4123CB7
:103B230078A3A3F0901928E07002A3E07005901920
:103B330028800AE50A126386E50B12327C1267B805
:103B43007401120AE0123C99A3F07402120AE01203
:103B53003C99F0850E82850F83123C8AA3123CD8D0
:103B6300123C6F125390240DFAEF3400FB740212CF
:103B73000AE0E06401600E7407120AE0AC82AD83D0
:103B83001210DB80097C087D0079FF120F55741237
:103B9300120AE0E0C0E0EE2415123279D0E0123CC4
:103BA300CFFC9019F7E0C39C4003023A6C12692CD6
:103BB300E50912327CA3E05480F9E47001E970094D
:103BC30090176FE07003023A6C7D00EE240CF8EF5F
:103BD3003400F9EE240BFAEF3400FB901919E0647A
:103BE30002701D8A828B83E0F50AC39C500D740515
:103BF300120AE0E0C39405401B801AE50A6C7015B5
:103C03007405120AE0E0C0E088828983E0FCD0E01A
:103C1300C39C50010D7404120AE0E06020ED601DA6
:103C230085088285098312610EECF0A3ED123CCF67
:103C33008A828B83F07405120AE0124DD074061247
:103C43000AE0E0600D74018E828F83A3A3A3A3A374
:103C5300A3F07404120AE0E07003023A6C74018E5C
:103C6300828F83A3A3A3A3A3F0023A6CF8A3E0F982
:103C73008E828F8322540F8E828F83A3A322E0F937
:103C8300850C82850D8322124141A322A3A3E0F573
:103C930008A3E0F509221241418021850C82850D9C
:103CA30083123CB7124BA58A828B83124A4D121999
:103CB3005D740222E0F98A828B838002A3A3A3A30B
:103CC300A3A3A32290189C125047E022F0851082F0
:103CD300851183E022F0850C82850D83E02274F642
:103CE30012035A74C91208E39018DCE06408606296
:103CF3009018EDE0F824EBF582E43419F583E0FA4B
:103D03009018BEF0E824F1F582E43419F583E0FB62
:103D13009018BCF07508FF7509FFEA78081209F7D7
:103D2300E508F4FCE509F4FD3395E0FE9018E5128F
:103D33003E817508FF7509FFEBC39A78081209F7EE
:103D4300E508F4FCE509F4FD3395E0FE9018E9126B
:103D53003E81E412588379041213699018EDE070E0
:103D630009741E120AE074018006741E120AE0E44C
:103D7300F0740F851882851983F0901A2712610257
:103D830079461213697401120AE0E4F0901A0EE006
:103D9300C0E07402120AE0D0E0F09018CAE0C0E07C
:103DA3007403120AE0D0E0F07404120AE0E4F07441
:103DB30005120AE0E4F07407120AE0E4F09018ED4B
:103DC300E0FAC3940F74065006120AE0EA80051263
:103DD3000AE0740FF07CEE7D187408120AE0AA82E0
:103DE300AB831210DB7C037D0079FF7410120AE0B1
:103DF300AA82AB83120F55901926E0C0E074131208
:103E03000AE0D0E0125983120AE0125972121963C0
:103E13009018E1E0C0E0741C120AE0D0E0F09018C2
:103E2300E2E0C0E0741D120AE0D0E0F09018CFE0A9
:103E3300C0E0741A120AE0D0E0F09018DA124B9343
:103E43007418120AE0125A597420120AE0E4F0902E
:103E530018E4E0C0E0741F120AE0D0E0F0743412FA
:103E63000AE0E4F07429120AE0E4123E8C7414129E
:103E73000AE0AA82AB831213817437025854ECF020
:103E8300A3EDF0A3EEF0A3F022F07ACD7B187953E3
:103E9300123E97221213697AD07B18794B12136959
:103EA30022C082C0838A828B83A3E06007E49018D8
:103EB300DCF0804A74089018DCF09018EDE0701F75
:103EC3009018A6E07002A3E0600B79009018A61288
:103ED3005860121EDE9018DA124DB57A05801A79F1
:103EE300001216999018CD124DB57A067B00120F69
:103EF3000D9018D0124DB57A047B00120F0D0248B5
:103F0300B374F412035A74EA1208E3EA2402FEEBD0
:103F13003400FF0A0AFB1215918A088B09EA700123
:103F2300EB7003023FAD8A828B83125029600F74BA
:103F3300026A600A74036A600574046A706CEEFCBA
:103F4300EFFD851882851983125F20123FB2120A92
:103F5300E0125A59740A120AE07401F07413120A37
:103F6300E0126101121375890AAC0A7D007A077B9E
:103F730000120F0D850882850983A3A3A3A3A3E0E1
:103F8300C2E0F07401850882850983A3A3A3A3A3D8
:103F9300A3A3A3A312697F12020AE88508828509F5
:103FA30083A3A3A3A3A3A3A3A3F0741602542A1267
:103FB3004EB374082274F712035A901928E0FAA337
:103FC300E0800CEA241612699E120FF1EEFAEFFB61
:103FD300EA7001EB70ED901928E4F0A3F0024A0DAA
:103FE30074F412035A8A088B09EA240BFEEB34009B
:103FF300FFEA2413F582EB126D3864037009EEFABD
:10400300EFFB121591800CE0640270548E828F8353
:1040130012695BEA7001EB6047EA2406F8EB1228A9
:10402300B3850882850983A3E07007E488828983C6
:10403300802D64F16005E064E1701A88828983E071
:10404300640170118A828B83124066121EDEEEFABF
:10405300EFFB12159D850A82850B83E0600214F045
:1040630002542D124A4D9018B41258642274F1125E
:10407300035A8A088B09ECFEEDFF890A8A828B8337
:104083001265158A828B83124140F0EEF8EFF9A393
:104093000EAF838A828B83A3A3E0C454F0FA888291
:1040A3008983E04A12414A124141124145E03333C8
:1040B30054FCFA8E828F83E04A124145A3E03333E6
:1040C3003354F8FA8E828F83E04AF008EFF9A30E97
:1040D300AF838508828B83A3A3A3A3A3A3E0A2E05A
:1040E300E492E013135480FA88828983E04AF0E56E
:1040F300082407F50CEB125D69750E00780C1208A5
:10410300367C0812519C1208171264FFE508240F2D
:10411300125D65780C1208367C0312519C12081745
:10412300E50AC3940F4011E5082412F582E509124C
:10413300327C123C8AA3A3F07F07020564A3E0024A
:104143003C7312414AA322F08508828B83A3A3A365
:104153002274F112035AEAFEEBFF890A8C088D09D7
:104163008E828F83E08C828D83125385AE82AF83E0
:10417300E0125442124223C4125442124217E05432
:10418300038C828D83124221A2E2E492E08C828D21
:1041930083124220131313541F125442A3124220BA
:1041A300A2E7E492E08C828D83A3A3A3A312421718
:1041B3008E0C8F0D750E00780C1208367C087D006E
:1041C300E508240712420B1208171264FF8E0C8FA6
:1041D3000D780C1208367C037D00E508240F12428B
:1041E3000B120817E5082412F8E5093400F9E50A6B
:1041F300C3940F400A8E828F83A3A3A3E08001E4BC
:1042030088828983F002413BFAE5093400FB120FEF
:1042130049740322A3A31253890EAF8322A3A3A33A
:10422300A3F00265B074F412035A74F91208E3EAB6
:10423300FEEBFF90189CE07002A3E06010123CC7F5
:1042430064027009EEFAEFFB1219FF80629018DA2C
:10425300E06E7003A3E06F705674016960097AEE33
:104263007B1812659270487A007B0212451D70011B
:10427300EB703C9018DD7808120A8985188285193D
:10428300837808120A7A9018E3E0C0E07404120AF3
:10429300E0D0E0F07405120AE07401F07406120A2B
:1042A300E0740212610212164BE9609812165174FF
:1042B3000702542AE0F90248B374F612035A90191C
:1042C3003AE0701F7C0079017A007B001218C7EA7C
:1042D3007001EB600E8A828B83E07002A3E06003BF
:1042E30012180D025857C082C08312474E401079EE
:1042F300FF1218C1E9FA9022E5E493C39A500479B6
:1043030001800279000248B374EE12035A8A088BC3
:1043130009890D750E00EA2408F50AEB124DA9E090
:10432300F91218CD8A108B11AE10AF11750C01EE76
:104333007001EF60030243D1850882850983A3A33B
:10434300124DC61252751255831218B58A0A8B0B79
:10435300AE0AAF0BEE7001EF70030244EB8E828F57
:1043630083A3A3A3A3E4F0A3F0E508240B12450B56
:10437300E0C0E0EE240B123279D0E0F01219C3EE64
:10438300240C125D83E508240EF582E509124B9097
:10439300123276125A59750E01EE2406F8EF1247BF
:1043A3005DE0547FF0A3E054FC1246A3E0540460A4
:1043B30003024459901A07125266740778081209C7
:1043C300F78A828B83E04508F0A3E04509F0EE24E9
:1043D300061245028C828D8312558374805AF50828
:1043E30074035BF50974077808120A6BE508F51086
:1043F300EE2404122AE724091244FAE50D606074DE
:1044030002850882850983124224240D125033E069
:10441300A2E2500F9018C8124B93850A82850B8332
:10442300125A59E51070030244B8747F5AFA74FCA7
:104433005BFB74FF2510F51074FF3400F51174074E
:1044430078101209F7E5104AF8E5114BF98C828DC3
:1044530083125A59805FE04480F0A3E00243D0E521
:10446300107005750C00804DEA54206015120F671B
:104473008A10747F5510F8745F28850A82850B8330
:10448300801BEA5410600E120F678A10740F5510C8
:10449300F8740A80E4850A82850B837401F0A3E42F
:1044A300F07404850882850983F01245197001EBC5
:1044B30070031258457401650E7030850A82850BAE
:1044C30083124513E0F9EEFAEFFB1218BBE9601B08
:1044D300EE240C1232791247E37001EB6003120FE2
:1044E300F1EEFAEFFB120FF1750C00A90C80031229
:1044F30008177F0A020564F508EF3400F50922F86E
:10450300EF124B88FCE9FD22FAE50934000246AAC2
:10451300124BA9025C187A207B00901927E0F9124C
:1045230010B7EA2274F612035A74F71208E37E00F6
:104533001218CDEA7001EB70030245F48A828B8373
:10454300A3A3A3A3A3A3A3A3A3E0640660030245B9
:10455300F48A828B83A3A3A3A3A3A3A3E0FF8A82EA
:104563008B83125041E0C0E07408120AE0D0E012DD
:1045730046A3125860125E9A125A591218EB740825
:104583005FF9E47001E96067851882851983124D2C
:10459300B57A007B001218AFEA7001EB70519018E6
:1045A300DA124B971213997C007D007A007B00800E
:1045B300288E828F83125C0DE064FF7004A3E06495
:1045C300FF602C9018DA124DB5120B3BE9641A60A8
:1045D3001E7C007D00EEFAEFFB1218AF8A088B09F0
:1045E300AE08AF09EE7001EF70C7790012139F7E1A
:1045F30001EEF902585274F712035AEA7001EB7094
:104603000590193B80068A828B83A3A31247E3702C
:1046130001EB60288A828B83A3A3A3A3A3A3A3E0B4
:104623005408F9E47001E960DDEC7001ED601112EA
:104633004DD76C7003A3E06D70CC80047A007B00CF
:10464300024A0D74F212035AEAFEEBFF890A8C0840
:104653008D097A107B00120FEBEA7001EB603CE4EA
:104663008A828B83A3A3A3A3A3A3A3A31246B0E528
:104673000A124A18125B4B8A828B83A3A3A3A3E477
:10468300F01246B01246A11267B8EA240CF582EB89
:10469300126BAA1246A2A3A3F0A3F0022589A3A337
:1046A3001246A722F08001FB8A828B8322A3124A3F
:1046B3001CA3A32274F512035AEAFEEBFF890A8CAA
:1046C300088D09EE7001EF60567401650A70147964
:1046D300011218C1E9FA9022E7E493C39A500F79C3
:1046E3001180657404650A703012474E40F18E8262
:1046F3008F83A3A3A3A3A3A3A3A3A3E50A12539EF8
:10470300126E18E4F0A3F090193BE07002A3E0905E
:10471300193B6024124B93800A7402650A60CF79B7
:10472300C18025E824020808E912475D1248517048
:1047330001E970EF8A828B831267B8124519700101
:10474300EB700312584579000260FC79041218C11A
:10475300E9FA9022E6E493C39A22124B88FAE9021B
:1047630046AAC082C083E9FC790090193B801D8A68
:10477300828B83A3A3A3A3A3A3A3A3A3E06C60053A
:1047830074FF6C7001098A828B83A3A31247E370C1
:1047930001EB70DB0248B374F712035AEA7001EBC2
:1047A300700590193B80068A828B83A3A31247E38B
:1047B3007001EB60248A828B83A3A3A3A3A3A3A387
:1047C300A3A3E06970E1EC60148A828B83E0240D7B
:1047D3001265AAA2E240D080047A007B00024A0D4F
:1047E300124A4DEA22C082C08390193B80068A8216
:1047F3008B83A3A31247E37001EB60128A828B833E
:10480300A3A3A3A3A3A3A3A3E06970E280047A00F4
:104813007B000248B3C082C08390193B8006888224
:104823008983A3A31248517001E9601B888289839D
:10483300E0FCA3E0F5838C82E06A7003A3E06B7075
:10484300DDE8FAE9FB80047A007B000248B3124EEC
:10485300B3E82274F112035A8A0A8B0B8C0C8D0D68
:10486300750800750900EA7001EB603190193B800F
:10487300068E828F83A3A31248A77001EF601EAC3C
:104883000CAD0DEEFAEFFB850A82850B83121EDE5B
:10489300E9640170DCEEF8EFF988088909AA08AB2E
:1048A3000902413BE0FEA3E0FFEE22740212081767
:1048B300D083D0820207FF79000207FF74F7120347
:1048C3005A90193B124B937C007D008007E8FCE96A
:1048D300FD124B93E87001E9603AE82402F582E99E
:1048E30012327CEA687002EB6970E2125583901908
:1048F3003B1269A4E86E7002E96F700990193BEAF4
:10490300F0A3EB800EEAF8EBF98C828D83A3A3E886
:10491300F0A3E9F0024A0D74F712035AEAFEEBFF23
:10492300EE7001EF60161218E5124A24EA7001EBEB
:104933006003120FF1EEFAEFFB120FF1024A0D744E
:10494300F712035A124DD7FCA3E0FD90193B124B0B
:10495300937508007E00803388828983A3A3A3A371
:10496300A3A3A3A3A3E0640570180E88828983E040
:10497300FFA3E0F5838F82E06C7003A3E06D700208
:10498300050888828983A3A3124B93E87001E97019
:10499300C7EA2404F8EB3400F99022DDE493FCE544
:1049A30008C39C500B9022DEE493FCEEC39C400BA7
:1049B300888289837401F0A3E4800A9018C8124A9C
:1049C30012ECF0A3EDF074058A828B83A3A3A3A357
:1049D300A3A3A3A3A3124A18E0F0A3E0440812532D
:1049E300978A828B83E064FF7004A3E064FF600E08
:1049F3009018DA124DB5121393E9641A7005790110
:104A030012139F8005741F1208177F010205641299
:104A13004BA90267AD124A1C22F08A828B83023CA7
:104A2300C08E828F83E0241C124A53FAA3E0FB1248
:104A33000FF18E828F83124A4D120FF1EE240C1266
:104A43004A4622F582EF3400F583E0FAA3E0FB2225
:104A530012503BE022C082C083EAFCEBFDEC700104
:104A6300ED70047905804CEC24FBF582ED34FFF501
:104A730083E07002A3E07011EC24FFF8ED34FFF93A
:104A830088828983E064FF6005120F7380D59019D3
:104A930027124DD09022EFE493F97A3D7B19120F40
:104AA300A3E96401700B7A007B20125849790080D6
:104AB3000279040248B374F412035AA2AFE492E0F9
:104AC300F508C2AF90193D1248A77001EF603DEEA3
:104AD30024FBF582EF34FFF583E07002A3E07A0054
:104AE3007B20901927600512584C8005E0F9120FBE
:104AF300AF750A00750B00780A12083AEEFCEFFD59
:104B03007A3D7B19120F9D7402120817E508A2E083
:104B130092AFEEFAEFFB02542D74F712035A74E1CD
:104B23001208E3EA2413F582EB126D38C0E0741126
:104B3300120AE0D0E0124EAA7409120AE0124EA340
:104B4300124B80FCE9FD8C828D83124B93740B1204
:104B53000AE0124EA32414F582EB126D38C0E07400
:104B630012120AE0D0E0F0EA240EF582EB1232834F
:104B73008C828D83124B971217A1024A08240412C8
:104B83004B8622F8EB3400F9E822F582EF12697ABA
:104B9300124EB322124BA9851882851983AA82ABC0
:104BA3008322A3A3A3A3E0FCA3E0FD2274EE1203DC
:104BB3005A74FC1208E3EAFEEBFF12189DE9600544
:104BC3007911024DA4EE2412F510EF3400F511EE25
:104BD3002402F50AEF124DA91262746008E48510ED
:104BE30082851183F0EE24131251A5700C9022E4F8
:104BF300E493850C82850D83F0EE2411F8EF125DAA
:104C03006E701990183DE0600D9018C4E0700D8E21
:104C1300828F83E07006E488828983F0EE2414088F
:104C23000808EF126952700C9018B9124DD0901801
:104C3300B9E004F0EE240F1244FAEE240B12326EA4
:104C43009018C7E0A2E1504F850A82850B83126258
:104C53007460448E828F83E0600B850E82850F83A0
:104C63001228C96032850882850983E05440601A9E
:104C7300850C82850D83E06401700F8508828509A8
:104C830083E054FBF0A3E0F0800DEEFAEFFB121982
:104C930003E97003024BC38E828F83E06401701AB1
:104CA300850E82850F83124DDB6402700D850882A9
:104CB300850983E04440F0A3E0F0850882850983F9
:104CC300E0544070529018C7E0A2E1504A750C00BE
:104CD300780C12083EEE2406FCEF3400FD850A82B0
:104CE300850B83125583851082851183E0F9121792
:104CF300DD7401120817E9600CE4851082851183C5
:104D0300F0124DB9F079008E828F83124DC61232A4
:104D1300B86004124DB9F0851882851983AC82AD51
:104D230083EEFAEFFB12191B8A0C8B0D850A828521
:104D33000B83124DB5EA7001EB60628E828F83E0C4
:104D4300C0E07401120AE0D0E0F07402120AE0122B
:104D530067B87401120AE085820A85830B780A1208
:104D6300083A850882850983120667EE240E126DC0
:104D730035F508780812083E9018CD1206677407B7
:104D8300120AE0E0F91219157407120817E9FE7404
:104D9300106E700BAA0CAB0D120FF180027E10EE99
:104DA300F974040244F2126910850A82F58322120F
:104DB3006977124BA922850882850983E04420F094
:104DC300A3E022124BA5850A82850B8322E0888209
:104DD3008983F0228A828B83124DDF22125868E086
:104DE30022C082C08374DE1208E38A828B83A3A36A
:104DF300A3A3124B93740E120AE0E8F0A3E9124E38
:104E0300AA740C120AE0124EA3240DF582EB126D64
:104E130038C0E0741A120AE0D0E0F0EA12692EEB0F
:104E2300124B907420120AE0124EA32415F582EB64
:104E3300126D38C0E07408120AE0D0E0F0EA241CD6
:104E4300F582EB124B907412120AE0124EA3241156
:104E5300F582EB126D38C0E07409120AE0D0E0F07D
:104E630074FF851882851983F07401120AE074FFB8
:104E7300F07402120AE074FFF09081C312066374A7
:104E830004120AE0AC82AD837407120AE0AA82AB73
:104E9300831216877404120817790074220248B02B
:104EA300E8F0A3E9F0EA221246A7A3A3124EB32225
:104EB300124EB722E0F8A3E0F92274EA12035A74FF
:104EC300EE1208E38A148B15ECFEEDFF890F7428AC
:104ED300120AE01264E0742A120AE0E0F50C742B63
:104EE300120AE0123C91742D120AE0E0F512A3E0DD
:104EF300F513750D107A1E7B00120FEB7402120A64
:104F0300E0125D8A7402120AE0E07002A3E070030B
:104F130002501D750E00EEFAEFFB12158B8A828B81
:104F230083E5827002E583601612502960057403DD
:104F33006A700CE5085440700674044509F5097459
:104F4300045509F9E47001E96003750E01851882BF
:104F5300851983AA82AB83795012557A7402120A97
:104F6300E0125041A3125D8A7410120AE0E50AF0C0
:104F7300A3E50BF07402120AE0E0240B1250337421
:104F830002F0120AE01250417402F0120AE01258C1
:104F9300601267B87402120AE0125FAAE50FF07498
:104FA30002120AE0E0240C125033E50CF0740212F2
:104FB3000AE0E0241C125033E514F0A3E515F07465
:104FC30008120AE0125B4B740A120AE0E50CF08542
:104FD3001282851383C082C083740D120AE0AC82EF
:104FE300AD83D083D082740312075BA90E740212BF
:104FF3000AE0AA82AB831218A3E964017011E50EDB
:105003006008A90C1218CD1218F1750D00800B74ED
:1050130002120AE0125583120FF1A90D741212083D
:10502300177F0E020564A3A3A3A3E0FA74016A2207
:105033001250372212503B22F8A3E00267AA125003
:1050430047A3A322125E95023CC174EA12035AEAF3
:10505300FEEBFF8C088D098E828F83A385820A85E0
:10506300830B7408F0EE24161251A56009741085A1
:105073000A82850B83F0EE2417F510EF1251B3600B
:105083000A850A82850B83E02408F0EE2411F8EFE9
:105093001269526005750E0E8003750E00EE240D25
:1050A300F514EF3400F515850A82850B83E085142A
:1050B30082851583FAE02A250E8C828D83126BB1CB
:1050C30060139018C5E0F9121501E9FA8508828585
:1050D3000983E02AF0850882850983E0FAC3947581
:1050E30040097508007509000251957B0012686636
:1050F3007001EB7003025195EEFAEFFB121921EAEE
:10510300850882850983125D8BEE2402F8125C13F5
:105113001251C8F0EE24040808125C13A3A3125121
:10512300C8A3A3F0EE24131251BEF0EE24141251BF
:10513300BEA3F07A08850C82850D83E0600FEE2410
:1051430018124DB2E50824081264D67A108510822D
:10515300851183E0600FEE241A124DB28A0CE50824
:10516300250C1264D6EE240B126D35F510A3E0F571
:10517300117512007810120836851482851583E0A4
:10518300FC7D00125587E50E28FAE4391251A1126D
:105193000817AA08AB090250247D00EEFAEFFB02C0
:1051A3004211F50CEF3400F50D850C82F583E022F6
:1051B3003400F511851082F583E0221269771251CC
:1051C300D2A3A3A322A3A3126921A31251D222E043
:1051D300850882850983A3A3A32274F612035A8A3E
:1051E300828B83E0FC9018CA12526674027808120C
:1051F30009F7E5084CFCAD09EA2412125260740663
:1052030078081209F7E5084CFCE5094DFDEA24117D
:10521300125260740978081209F7E5094DFDEA2472
:1052230016125260740B78081209F7E5094DFDEA6E
:105233002417125260740C78081209F7E5094DFD22
:105243008A828B83A3A3A3A3A3A3125266740A78AF
:10525300081209F7ECFAE5094DFB025857F582EB02
:1052630012697AE0F50875090022F085188285191C
:105273008322E0F9025C1874F012035A8A088B093E
:10528300ECFEEDFF750A01E9C394085005790002AD
:105293005379E98E828F8312539712192DE9600394
:1052A300750A001255CCC0E0EE2411123279D0E019
:1052B3001255C7C0E0EE2412123279D0E0125385A2
:1052C300A882A9831255996010E5082408FAE50914
:1052D3003400FBEE24131253AA8E828F83A3A3A35D
:1052E300A3A3A3A3A3E0601588828983E0FAE5085A
:1052F3002AFAE5093400FBEE24151253AAEE241909
:10530300126BA7EE241B126BA7126BB0F50B8E82E8
:105313008F83E0F50CC3950B5003025290850B0E5F
:10532300E508250EF8E5093400F9EE241DFAEF34FB
:1053330000FBEAFCEBFD8C828D831253902417FA59
:10534300EF3400FB8A088B09E50CC3950B8A828B2B
:105353008312539EA3A3E0601B8A828B83E024F213
:10536300F0E8240EF8E91255A3FA8508828509832B
:10537300E0C39AF0A90A800574081208177F08028F
:10538300056412538922F08E828F83A322E8F0A34F
:10539300E9F0EE221246A7124A4D221253A222F03E
:1053A3008E828F83023CC2126977EAF0A3EB126903
:1053B30021E02408F02274F412035A8A088B09EAC4
:1053C300125449F0EA1313543F125442A3A3A3F017
:1053D300EAC41313125449A3A3F0E48C828D83A36C
:1053E300A3A3A3A3F08A0A8B0B7409780A120A6B8E
:1053F300125437F0EC2418F582ED126BAA8A0A8B4B
:105403000B740B780A120A6B125432F08A0A8B0B54
:10541300740C780A120A6B125432A3F0740D7808D4
:10542300120A6BA90880031208177F04020564128D
:105433005437A322E50A54018C828D83023CC05465
:105443000F8C828D832254038C828D83A3A322C06D
:1054530082C08379009018C4125BFAA3A3A3A3E0CC
:10546300600FEC70268A828B83A3A3E0701D0980F2
:105473001AEC60178A828B83A3A3A3A3A3A3A3A37A
:10548300A31254917003A3E06B70E30248B3124A72
:105493004D9018CDE06A2274EE12035A8A088B09E4
:1054A300890CECFEEDFF8A828B8312558312192D32
:1054B3001255CCC0E0EE2411123279D0E01255C758
:1054C300C0E0EE2412123279D0E012538585820AAD
:1054D30085830B1255996010E5082408F8E5093413
:1054E30000F9EE24131255B98E828F83A3A3A3A3CD
:1054F300A3A3A3A3E06009125587EE24151255B99F
:10550300EEFAEFFB121933E9F50D7066850A828511
:105513000B83E0F50EF510E5082510FAE5093400D4
:10552300FBEE2417F8EF3400F988088909EE241DEF
:105533001245028E828F83A3A3A3A3A3A3E07012B9
:10554300EAF8EBF98C828D83125A59E50CC3950E58
:105553008019EA240EF8EB1255A3FB850A82850B0A
:1055630083E0FAE50CC39A24F2C39B85088285097C
:1055730083F0A90D0244F5121363851882851983FC
:10558300124A4D22850A82850B83E0F8E50828F844
:10559300E5093400F92274081253A2A3A3A3E0225D
:1055A3003400F98C828D83E8F0A3E9F09018C5E00C
:1055B300F9121501E922126977E8F0A3E91232D052
:1055C3002408F022125D5780D2850882850983A3BF
:1055D300A3125601E0F9EA8E828F83A3A3A3A3A3A8
:1055E300A3A3A3A3125606125601A3A3E0F9EAF854
:1055F300EE240B126977E8125606A3A3E022E0FA21
:105603000251D3F0A3E9125D5B22C082C0837A42C8
:105613007B1979E21213637A427B190248B3C08281
:10562300C0839018CD1255830248B3C082C08374DF
:10563300FE1208E3851882851983AA82AB83794B0E
:1056430012557A0248AEC082C083794A12136302AC
:1056530048B374F612035A90194AE0FE04F0EEF9C7
:105663001218CDEA7001EB70EEEE60EBF9025857B9
:1056730074EC12035AEAFEEBFF8C128D13890E743D
:1056830014120AE0E0F50A7415120AE0E0F50B754E
:105693000C00750D00121A3B8A088B09EA7001EBA6
:1056A3007017E50B6003025789A90EAC12AD13EE18
:1056B300FAEFFB121A4D025842EA2402F8EB3400C7
:1056C300F9E50E601688828983E0FAE50E2AFAE48A
:1056D300340013EA13F070037401F0E50B70030256
:1056E3005774901955E07002A3E0600990195512A0
:1056F3005860121EDEE50A700EE485088285098370
:10570300F0750D010257A29018C7E0A2E140030211
:1057130057AA901957E07002A3E0600FA90AAA08DC
:10572300AB09901957125860121EDE85088285094D
:1057330083E0FA9022EE12698FEA98E499C365D068
:10574300335009850882850983E004F08508828542
:105753000983E0FA9022EEE4936A7043750C01EE3C
:10576300FAEFFB1217EFE4850882850983A3F08023
:105773002E9019F7E0C0E088828983E0FAD0E0C375
:105783009A501C0257047401650B7013E50E600FE9
:105793009018C7E0A2E15015EEFAEFFB1217EF9055
:1057A30018C7E0A2E140257401650B701FE50A608C
:1057B30016901959E004F0C0E0901A08E0FAD0E01E
:1057C300C39A4008750C01E4901959F0E50D700473
:1057D300E50C606B9018C7E0A2E15030EEFAEFFBE6
:1057E30012158B8A088B09A808A909E87001E960DA
:1057F3001BE82405F582E912327CE50D6004E0C262
:10580300E0F0E50C6039E0D2E0F08004E50C602FB5
:105813009018C7E0A2E15012EEFAEFFB121585E9EA
:105823006008EEFAEFFB790080129018D0E06E70FA
:1058330003A3E06F7009EEFAEFFB79011216B702CA
:1058430064EB7A207B00901927E0F9120FA92274E8
:10585300091208177F020205648E828F831258642F
:10586300221258682212586C22E0F8A3E0F58388CC
:105873008222A2F0E492E012588379521213692231
:10588300851882851983F0024BA01258837942123E
:1058930013692274F412035A74EC1208E3740112AC
:1058A3000AE0AC82AD831259C0901919E06402700A
:1058B300367A047900121573126915EA98EB995038
:1058C30017121567E970117405120AE07401F07478
:1058D30007120AE0740180527405120AE0E4F074BE
:1058E30007120AE0E480439081C37808120A89759D
:1058F30083187582E5780812092360047A0180020F
:105903007A007405120AE0EAF09081C37808120A5B
:10591300897583187582E9780812092360047A016E
:1059230080027A007407120AE0EA125983120AE02D
:105933001259727407120AE0E0700B7405120AE040
:10594300E07003E480027401851882851983F09066
:105953001A23E0901A22FAE05AFA851882851983ED
:10596300E05A1258897941121369741402542AAA0D
:1059730082AB831218857A2A7B197945121369221F
:105983001259B574012274F712035A74ED1208E325
:10599300E9FE901926125FB11259C07412120AE07F
:1059A300EE1259B585188285198312597274130240
:1059B3004A0AF0901A27E0F97C2A7D1922901A27C7
:1059C300E0F97A2A7B1912188B2274F412035AEA2B
:1059D300FEEBFF901A29E064FE7004A3E064FF70FD
:1059E3005F7A16125BE57001EB605574018A828B56
:1059F30083126933A3A3A3A3A3E060047402800208
:105A0300740188828983125F2A8A828B83A3A3A36A
:105A1300A3A3A3A3A3A3125C1FFCA3E0FDEA240298
:105A23000A0AEB1264D9E5082413F582E509126B1F
:105A3300AA125A46EE240B1232791260EA125A590C
:105A430002542DAA08AB09901927E0F9120F792205
:105A5300E0123C6FA3A3E8F0A3E9F02274F212036F
:105A63005A74FD1208E38A088B09890A8C0B7401A6
:105A7300120AE07404125D908A0C8B0DAE0CAF0D0C
:105A8300EE7001EF7003025B1CEE240B124B8D745E
:105A93000788828983F0A3A882A983E508240812D2
:105AA300450B125B408A828B83A3125B408508827D
:105AB300850983A3A3A3A3A3A3A3A3A3A3124DD045
:105AC300EE2416125B38EE2418123279125B4BEE79
:105AD3002417F582EF12638BEE241A125D83125B97
:105AE3002712696F7403650A60067401650A7008FA
:105AF3007440F0A3740480057440F0A3E4F0901A9A
:105B030029125A537401650B7006EE2411126BA708
:105B1300EEFAEFFB12163F80027910901A29125BFE
:105B23005C022584EE2413F582EF125B31223400EC
