:020000040000FA
:06000000020A3A0201CDE4
:03002B000208A127
:030033000205EFD4
:030043000207357C
:0300530002011C8B
:03006B000205C9C2
:100083000201690100000000000000000000000000
:1000930000000000006E6F7468696E670000000264
:1000A300020000180E000000000000B40E00000063
:1000B30000000000000606060606001414141414BB
:1000C3000006FF240C0102006818000000DB18641E
:1000D30000020200080000050107051E02051E02BA
:1000E3000A03B80B803E01FFFF1402000000010168
:1000F30001010503010F10FEFFE21CE21CE21CE2FA
:100103001C9E1B981BE21CA71F00000000CD2000B3
:100113000000000C0000000C00C0E074F21203E5C4
:10012300A2AFE433FED2AFA9A7A8A1E85954106047
:1001330008120BBA75A1EF8023E8A2E092F0E9A2BE
:10014300E082F05017906198E0F89006A9E0C39818
:10015300A2D265D0335002E8F075A1FEEEA2E09280
:10016300AF7F01020444C0E074F21203E5A2AFE4DE
:1001730033FED2AF9061A4E0F8759B00E59158542B
:100183000860087591F7120BFC8023E59158541011
:1001930060087591EF120C028014E591A2E092F0D1
:1001A300E8A2E082F05007E0C2E0F0120D3A90615D
:1001B300A3E0F8E5E9585404600E120D1075E9FB4D
:1001C300906193E0A2E640F28092C0E074F21203E1
:1001D300E5A2AFE433FED2AF9061A5E0F8E5BF58E6
:1001E3005404600675BFFB120D5202015FC3E4980D
:1001F300F8E499F91202318026C3E49AFAE49BFBEE
:10020300E920E7E9120231E498F8E499F922C3E41A
:1002130098F8E499F9120231E498F8E499F9C3E4FF
:100223009AFAE49BFB22EB20E7CFE920E7E0B90051
:1002330010BB0008E88AF084F8AAF022E4FBC8FAAD
:1002430022EB70227B10C833C8C933C9335007C3AC
:100253009AC3DBF280069A50012ADBEAC833F4C85A
:10026300C933F4C9FA2275F008E4C833C8C933C9DD
:1002730033C99AC99B5004C92AC93BD5F0ECFBC8C2
:1002830033F4C8E4C9FA22080808EAC0E0EBC0E086
:1002930086F0E7A4FA180986F0E7A42AFA18098673
:1002A300F0E7A42AFA180986F0E7A42AFA1986F0D7
:1002B300E7A4FBE5F02AFA190886F0E7A42BFBE58F
:1002C300F03AFA190886F0E7A42BFBE5F03AFA189E
:1002D300180986F0E7A4C5F02BFBE43AFA1908E7FE
:1002E300C5F0C6A426F6E5F03BFBE43AFA1886F01F
:1002F300E7A4F6E5F00826F6E43B08F6E43A08F648
:10030300D0E0FBD0E0FA22E4CFC0E0E4CEC0E0E4EA
:10031300CDC0E0E4CCC0E075F020E626F608E63375
:10032300F608E633F608E633F6181818EC33FCED56
:1003330033FDEE33FEEF33FFC3EC9709ED9709EE80
:100343009709EF97191919400FFFEC97FC09ED97DF
:10035300FD09EE97FE191906D5F0BFECF709EDF785
:1003630009EEF709EFF7191919D0E0FCD0E0FDD039
:10037300E0FED0E0FF222518C582C0E0E51934FF76
:10038300C583C0E0E518C3958224F810AF088583C0
:10039300198582188008858319858218D2AFCEF01B
:1003A300A3E520F0A37808E608F0A3DEFAEFF0A3B4
:1003B300E58124FAF8E608F0A3E608F0A3E608F0DE
:1003C300A30808E608F0A3E608F0A315811581D079
:1003D300E0FED0E0F8158115811581E8C0E0EEC09C
:1003E300E022C0D02518C582C0E0E51934FFC583DB
:1003F300C0E0E518C3958224F310AF0885831985FF
:1004030082188008858319858218D2AFC8F0A3E9C2
:10041300F0A3EAF0A3EBF0A37908E709F0A3D8FA75
:10042300ECF0A3EDF0A3EEF0A3EFF0A3D0E0F0A384
:10043300D0E0F0A3D0E0F0A3E520F0A3E5F0F0A333
:1004430022851983851882E0C0E0A3E0F9A3E0FACE
:10045300A3E0FBA37808E0F608A3DFFAE0FCA3E03F
:10046300FDA3E0FEA3E0FFA3E0C0E0A3E0C0E0A3A0
:10047300E0F5D0A3E0F520A3E0A3F5F010AF0885E5
:1004830083198582188008858319858218D2AFD095
:1004930082D083D0E0F8D0E032120AF4B90003022C
:1004A30004DBE490030178C479188002F0A3D8FC3C
:1004B300D9FA7AC47B1A900086789779018015E47B
:1004C30093A3AD82AE838A828B83F0A3AA82AB838C
:1004D3008D828E83D8E9D9E775821E7583B974033B
:1004E30012081875821075831F7400120818D083C0
:1004F300D082ECC0E0EDC0E0E493A3FCE493A3FD61
:10050300ED4C600D12060DEC24FFFCED34FFFD8075
:10051300EFE493A3FCE493A3FDED4C600D1206E01E
:10052300EC24FFFCED34FFFD80EFD0E0FDD0E0FCD8
:10053300E493A3C0E0E493C0E022D083D082E9C077
:10054300E0E493A3C386F0C5F095F0F908E493A320
:1005530086F0C5F095F0700BE493A3C3994005E9C9
:10056300048002A3E475F002A42582F582E5F03548
:1005730083F583D0E0F9E493A3C0E0E493C0E022E1
:10058300851983851882E0A3FEE0A3F5207808E0AF
:10059300A3F608DFFAE0A3FFE0A3C0E0E0A3C0E016
:1005A300E0A3C0E0E0A3C0E0E0A3C0E010AF088593
:1005B30082188583198008858218858319D2AFD064
:1005C30083D08202081EC0E074F21203E5A2AFE4F6
:1005D30033FED2AFE589A2E15003121E1A758900DA
:1005E300C2C5EEA2E092AF7F01020444C0E074F200
:1005F3001203E5A2AFE433FED2AFE58BA2E05003D2
:10060300121E1A758B00C2E880D8C0E0C3E493962B
:10061300087401939618400FE493667008087401F8
:1006230093661870007019A3A3C3E493960874012A
:10063300939618A3A3400DD0E0D0E0D0E002052D9F
:10064300A3A3A3A3A3A3D0E022D083D082C5F0E4C5
:1006530093A3C5F0C395F0F5F0E493A3C395F040DD
:1006630005E5F0048001E475F002A42582F582E536
:10067300F03583F583E493A3C0E0E493C0E02274F0
:1006830004800474028000CCC0E0EDC0E0E518C330
:100693009CCCAD1950011D10AF068C188D19800626
:1006A3008C188D19D2AF12077AD0E0FDD0E0FC226E
:1006B30074028000CCC0E0EDC0E0E518C39CCCAD73
:1006C3001950011D10AF068C188D1980068C188DDA
:1006D30019D2AF120758D0E0FDD0E0FC22C0E0C031
:1006E300F088F0E49366700808740193661870004C
:1006F300A8F0A3A3700BD0F0D0E0D0E0D0E00205C7
:100703002DA3A3D0F0D0E022D083D082CCC0E0E4EC
:1007130093A360061207DA1470FAE493A360061237
:1007230008EC1470FAD0E0FCE493A3C0E0E493C0B7
:10073300E022C0E074F21203E5A2AFE433FED2AFCD
:10074300C2C0E5D1A2E45003120B30EEA2E092AF97
:100753007F01020444CAC0E0E493A3C582CCC582EE
:10076300C583CDC583F0A3C582CCC582C583CDC562
:1007730083DAE5D0E0CA22CAC0E0E0A3C582CCC5D3
:1007830082C583CDC583F0A3C582CCC582C583CD85
:10079300C583DAE6D0E0CA222518F8E43519F92230
:1007A3002518FAE43519FB222518FCE43519FD2236
:1007B3002518FEE43519FF2270090808082260167F
:1007C300181818C6C333C608C633C608C633C608C6
:1007D300C633C6D5E0EA22C0E0E493A3D39C50100D
:1007E300E493A3C39C400AD0E0D0E0D0E002072802
:1007F300A3A3A3D0E022C008C3E096F50808A3E0B2
:1008030096420808A3E096420808A3E096450870BC
:1008130001D3D00822C09FF59FE473D09F22D083D9
:10082300D082C09FE493C0E0740193C0E07402934C
:10083300F59F2200C0D0251810AF08F518500C05FD
:10084300198008F51850020519D2AFD0D0227404CC
:10085300800A74038006740280027401C0E0F40409
:1008630012086CD0E0120AB7222518F58210AF08DF
:10087300F518400C15198008F51840021519D2AF68
:1008830085198322BB0102E722C082C08389828A41
:1008930083BB0003E08002E493D083D08222C0E0D4
:1008A300C0D0E8C0E0A8A8D2AFC2C7E8A2E792AF21
:1008B300D0E0F8D0D0D0E0326016080808C6C313E1
:1008C300C618C613C618C613C618C613C6D5E0EA9B
:1008D30022C3E0C696F608A3E0C696F608A3E0C6D0
:1008E30096F608A3E0C696F622C0E0E493A36C70E4
:1008F30009D0E0D0E0D0E0020728A3A3D0E022256E
:100903001810AF08F518400C15198008F5184002A7
:100913001519D2AF22C3E7960809E7960809E796A7
:100923000809E796A2D265D03322C3E09608A3E074
:100933009608A3E09608A3E096A2D265D03322E0FE
:1009430066701008A3E066700A08A3E066700408E6
:10095300A3E06622C3E096F008A3E096F008A3E0C4
:1009630096F008A3E096F022E026F608A3E036F618
:1009730008A3E036F608A3E036F622E026F008A343
:10098300E036F008A3E036F008A3E036F022E046B4
:10099300F008A3E046F008A3E046F008A3E046F021
:1009A30022E046F608A3E046F608A3E046F608A3CD
:1009B300E046F622E647F60809E647F60809E64761
:1009C300F60809E647F622E056F008A3E056F008D9
:1009D300A3E056F008A3E056F022E056F608A3E0A1
:1009E30056F608A3E056F608A3E056F622E657F6B5
:1009F3000809E657F60809E657F60809E657F62206
:100A0300E627F60809E637F60809E637F60809E6A1
:100A130037F622700422600D18C6C333C608C633E6
:100A2300C6D5E0F41822E4C396F608E496F608E483
:100A330096F608E496F62275D00075814075180184
:100A43007519030002049C600D08C6A2E713C618BB
:100A5300C613C6D5E0F322C3E7960809E79608094B
:100A6300E7960809E79622C3E09608A3E09608A351
:100A7300E09608A3E09622C6F4C608C6F4C608C6E4
:100A8300F4C608C6F4C622600C08C6C313C618C64B
:100A930013C6D5E0F422E6F008A3E6F008A3E6F0D7
:100AA30008A3E6F022E0F608A3E0F608A3E0F608C0
:100AB300A3E0F622CAC0E0E6F0A308DAFAD0E0FA2F
:100AC30022E8F0A3E9F0A3EAF0A3EBF022EAF0A313
:100AD300EBF0A3ECF0A3EDF022E0F8A3E0F9A3E040
:100AE300FAA3E0FB22E0FAA3E0FBA3E0FCA3E0FD12
:100AF30022E5C754F84401F5C77901222518F58288
:100B0300E43519F58322C2AF75D69F020000221285
:100B13000821BEF80212082176F902120821ECF925
:100B230002120821FFFA021208218AFC021208218C
:100B3300F3FC0212082142FD021208214BFD0212AE
:100B430008215AFD0212082170FD0212082183FDBB
:100B5300021208218CFD02120821A7910312082119
:100B6300FC9103120821FB93031208212F94031213
:100B730008215194031208216A94031208218394D3
:100B8300031208215D950312082110960312082110
:100B93003EC90312082170C9031208217CC903123C
:100BA3000821AEC903120821D6C90312082103CABA
:100BB3000312082180CA03120821AECA03120821B6
:100BC300D4BB03120821F4BB0312082133BC031264
:100BD300082142BC0312082161BC03120821C7BCCF
:100BE30003120821D0BC031208212DBD03120821D2
:100BF30051BD0312082112BE031208211FBE0312A6
:100C0300082130BE031208216FDD031208218CDD99
:100C130003120821B1B203120821F2B3031208210F
:100C230000B40312082113B40312082128B40312D9
:100C330008213DB40312082150B403120821C9B49A
:100C43000312082160B503120821B4B50312082169
:100C5300C4B50312082153FF0112082177FF0112C3
:100C630008219FFF01120821C7FF0112082145C572
:100C7300031208216CC5031208218AC50312082137
:100C8300F2C5031208219FFD02120821B8FD0212CA
:100C93000821C4FD02120821D8FD02120821F6FD25
:100CA3000212082100FE021208210AFE0212082184
:100CB3001DFE021208216FFE02120821A8FE021275
:100CC3000821D7FE0212082125FF0212082174FF12
:100CD300021208218FFF0212082199FF0212082134
:100CE300AAFF02120821EDFF02120821FEDB031204
:100CF30008214289031208216E89031208218B8976
:100D0300031208219E8903120821B48903120821C2
:100D1300218A03120821548A03120821C88D031261
:100D23000821028F03120821358F03120821998F9E
:100D330003120821879003120821AF9003120821A0
:100D4300C49003120821D4900312082118910312AE
:100D5300082167910312082177910312082123D4F4
:100D6300031208213DD40312082165D4031208217C
:100D73007ED403120821A2D403120821C0D4031283
:100D83000821D7D40312082105D50312082120D541
:100D9300031208212BDD0312082111AF03120821CE
:100DA30021AF0312082126B00312082158B0031201
:100DB30008217EB003120821A1B003120821B8B0A4
:100DC30003120821F2B00312082157B103120821BC
:100DD30090B103120821CFB10312082100B203120C
:100DE300082120B20312082172D10312082190D1E5
:100DF30003120821DED10312082126D2031208218F
:100E0300C5D20312082151D8031208215BCE031265
:100E130008219ACF03120821FF79001208217E7A54
:100E2300001208219E7A00120821C57A00120821B7
:100E3300D97A00120821317B00120821557B001258
:100E43000821C77C001208218B7D00120821EB7D4D
:100E5300001208213C7E00120821737E0012082133
:100E6300DF7E001208210B7F00120821887F001209
:100E73000821DC7F00120821BBCC03120821D4CC4B
:100E8300031208215BCD03120821F6CD03120821BA
:100E93001ECE031208215EBE03120821D2BE031226
:100EA3000821DDBE03120821FEBE031208210080C3
:100EB30003120821038003120821AC8003120821C6
:100EC300EB80031208211A810312082150810312B7
:100ED30008217E8103120821C881031208210F8291
:100EE30003120821828303120821AF83031208210E
:100EF300DC83031208215F84031208210085031297
:100F03000821368503120821CE860312082198870B
:100F130003120821888803120821C48803120821B8
:100F2300FC880312082132C3031208216EC3031283
:100F3300082158C40312082142C503120821DAD23A
:100F43000312082110D3031208212AD30312082104
:100F53006CD3031208217CD30312082116D4031285
:100F6300082120D403120821F3EE02120821FDEE1A
:100F7300021208213EEF02120821C3EF02120821D8
:100F8300E0EF0212082180F0021208211EF3021280
:100F9300082127F3021208216EF30212082197F3A6
:100FA30002120821EFF30212082177F4021208213A
:100FB300B7F4021208210FF50212082177F5021285
:100FC3000821AAF5021208211EF60212082175F65D
:100FD30002120821B0F602120821E3F602120821D8
:100FE300F5F60212082107F70212082126F702126A
:100FF3000821CFF70212082117F80212082156D749
:101003000312082156C703120821C4C7031208217B
:10101300E3C703120821D9C80312082156BC0212E0
:10102300082181BD02120821B6BD0212082151BF59
:101033000212082182BF021208210CC202120821E7
:101043004CC202120821E0C3021208217DC402121D
:101053000821CFC40212082151C50212082189C5F3
:1010630002120821CBC50212082141C7021208212E
:10107300DFC8021208212ECB021208215CCB021218
:10108300082180CB0212082189CB02120821DFCB71
:10109300021208217ACC021208213CD00212082144
:1010A30037DE031208214DDE031208219ADC0312F6
:1010B3000821D3B503120821E5B5031208217FB631
:1010C30003120821BAB603120821D5B60312082168
:1010D300F9B6031208213AB7031208216AB70312BB
:1010E30008219BB70312082111B90312082156D610
:1010F30003120821B5D603120821F3D603120821DF
:1011030034D7031208211CE5021208216AE50212F2
:10111300082146E602120821D5E60212082122E739
:101123000212082174E702120821D1E702120821F2
:10113300E5E70212082119E80212082116E9021252
:10114300082183E902120821A4E902120821E5E932
:10115300021208211AEA0212082173EA0212082174
:101163008CEA021208219FEA0212082118EB0212EC
:10117300082196EC02120821B8EC02120821EDECCA
:101183000212082115ED021208211AED021208219C
:101193007DED021208211FEE0212082144EE021215
:1011A30008214EEE0212082151EE02120821AEEE82
:1011B30002120821C9EE02120821E6EE02120821EA
:1011C300E9EE021208214FDC0312082167DC031247
:1011D300082108F80112082157F801120821FAF929
:1011E3000112082192FB01120821D4FB01120821EC
:1011F300F0FC011208212BFE011208214DFE011201
:10120300082197FE0112082118FF0112082138A2B4
:101213000212082162A202120821E8A20212082186
:1012230061A302120821E1A3021208213DA40212C4
:1012330008217FA402120821F5A40212082178A52F
:1012430002120821F1A50212082138A60212082170
:1012530048AA0212082105AC021208212AAC021284
:10126300082123AD0212082126AD02120821F9AD8F
:101273000212082138AF02120821B8AF0212082166
:101283003CB202120821B4B202120821ABB302121B
:10129300082114B70212082124B7021208218AB8C0
:1012A30002120821C9B80212082101BA0212082148
:1012B30007BB02120821BBBB02120821C5D00212D0
:1012C300082168D102120821DCD102120821EBD1D6
:1012D3000212082169D202120821E0D20212082167
:1012E30009D4021208212DD402120821A6D4021215
:1012F3000821F1D4021208214FD5021208212FD858
:101303000212082154D902120821CAD90212082153
:10131300B6DB0212082164DC021208210EDD021280
:1013230008216DDD02120821D2DD0212082140DFFF
:1013330002120821E1E0021208210DE20212082143
:10134300A7E20212082111E302120821EDE30212BF
:10135300082198DE031208219ADE03120821E5C052
:101363000312082118C103120821D1C10312082155
:1013730039C203120821ADC20312082174AB031250
:10138300082193AB03120821E2AB03120821FEAB41
:10139300031208212EAC0312082144AC03120821C6
:1013A3005DAC0312082127AD0312082160AD0312BF
:1013B300082171AE031208217CAE031208218EAE00
:1013C3000312082197AE03120821A1AE03120821CC
:1013D30031A303120821E4A603120821F2A6031283
:1013E300082143BA03120821E5DC03120821E2DDD8
:1013F30003120821CF9A0312082112DA03120821DB
:101403003CDA03120821ABDD031208210EDE0312BE
:10141300082157DE031208210080021208213A80B6
:101423000212082167800212082112810212082188
:101433003F810212082106820212082153820212FE
:101443000821AD8302120821E383021208217A8660
:101453000212082151F8021208218D890212082173
:101463001A8A02120821318A02120821018D0212FE
:101473000821328D021208218A8D02120821C48D9F
:1014830002120821388E02120821258F0212082128
:10149300328F02120821468F02120821548F021242
:1014A3000821578F02120821868F02120821BF8F4D
:1014B300021208213D9102120821ED910212082126
:1014C3000D920212082104930212082107930212BB
:1014D30008216393021208210E95021208216D95CB
:1014E300021208212296021208213A9602120821BA
:1014F300979602120821BF9602120821E099021260
:101503000821A09A02120821E89A02120821489B96
:1015130002120821679B021208215B9C0212082118
:10152300DE9E0212082150A002120821ECA0021232
:101533000821EFA1021208210DA202120821318213
:10154300011208214382011208216282011208213B
:10155300CE82011208215B83011208212D8401121E
:1015630008219E8401120821B98401120821DD8417
:10157300011208211885011208215585011208213D
:10158300788501120821C68501120821A08601125F
:101593000821518701120821E18701120821D1880E
:1015A3000112082114890112082138890112082126
:1015B3008A8901120821AF8901120821E18A0112E7
:1015C30008210E8B01120821208B011208212A8B7E
:1015D30001120821BD8B011208212C8C0112082154
:1015E300D58C01120821DD8C01120821B68D011260
:1015F30008212C8E01120821698E01120821CC8E3C
:10160300011208212290011208214290011208219F
:10161300A490011208214191011208219A9101120B
:101623000821299201120821E5920112082123932E
:1016330001120821929301120821EC93011208214F
:101643002494011208215695011208219096011243
:101653000821F196011208213A9701120821629795
:1016630001120821E597011208216598011208214A
:10167300D89801120821FD980112082171990112CD
:1016830008210C9A01120821929A01120821B99A91
:1016930001120821DE9B01120821F19B011208218E
:1016A300789C01120821A79C011208213F9D011279
:1016B30008217E9D01120821B99D011208219D9EDA
:1016C30001120821D9A001120821E3A00112082167
:1016D300EDA001120821F7A00112082101A10112B6
:1016E30008211BA10112082125A1011208212FA104
:1016F3000112082139A1011208215EA1011208215A
:10170300B4A101120821C2A101120821E6A101120C
:1017130008210AA20112082169A201120821C0A20C
:1017230001120821DEA2011208214EA30112082191
:101733008BA301120821D2A3011208213AA401129A
:101743000821C9A40112082104A60112082154A6E4
:10175300011208218AA701120821EEA8011208210B
:101763007AAB011208214CAD0112082103AF01121B
:10177300082169AF0112082179B0011208212AB1A9
:10178300011208216FB10112082120B201120821B0
:10179300AEB201120821D6B20112082198B3011288
:1017A300082170B60112082195B601120821E7B687
:1017B30001120821E5B7011208211DB80112082101
:1017C3005DB801120821BCB801120821DAB901126F
:1017D30008213ABA011208211EBB0112082128BDB3
:1017E300011208214ABD01120821DDBE01120821A0
:1017F30023BF01120821F7BF011208218AC0011279
:101803000821B9C001120821E4C001120821CFC187
:10181300011208210BC2011208216DC20112082115
:10182300FBC201120821FEC2011208216DC301127D
:101833000821272300120821792300120821D0252B
:10184300001208211C26001208210F27001208216C
:10185300722700120821B327001208210929001258
:1018630008212C2B00120821C32B00120821572C0E
:1018730000120821263300120821BA33001208216E
:101883003736001208211B3700120821C737001210
:101893000821F83800120821EE3900120821183DFA
:1018A30000120821DB3E001208213B3F00120821F1
:1018B300EF3F001208211A4000120821A74000122E
:1018C30008218B41001208215F4200120821F342D4
:1018D300001208212043001208214243001208216C
:1018E3005E45001208213046001208217D46001291
:1018F3000821EE46001208219C4700120821D14717
:10190300001208211F48001208214F480012082125
:101913008D4800120821F14800120821F6480012F0
:1019230008215149001208217949001208218F4AE0
:1019330000120821F04A00120821534B001208211B
:10194300E64B001208211B4E00120821F44E001230
:101953000821845000120821145200120821B152A8
:1019630000120821F05300120821895400120821A3
:10197300D15400120821445600120821585600126F
:1019830008216556001208218056001208218C5642
:1019930000120821AA5600120821CD58001208216E
:1019A300C05900120821045A00120821965A001245
:1019B30008219B5B00120821685C00120821D25D9C
:1019C30000120821D75E001208216D5F0012082162
:1019D300F05F001208210760001208212B6000123B
:1019E30008213560001208214160001208215F6060
:1019F30000120821A36000120821F46000120821DC
:101A0300516100120821B26100120821B96200126B
:101A13000821CA630012082169640012082156656F
:101A230000120821ED6500120821846600120821C6
:101A3300546700120821836700120821F56700121A
:101A43000821A36800120821C96800120821E1696E
:101A530000120821006A001208216F6A001208218F
:101A6300E86A001208210E6B001208213A6B00127B
:101A73000821856B00120821056C00120821AC6D4A
:101A830000120821D56D001208215A6E0012082198
:101A9300B46E00120821D96E001208211F6F0012C4
:101AA30008213C6F00120821EA6F00120821A9DB0C
:101AB30003120821F4DB031208213BC4011208219D
:101AC30075C40112082148C5011208211EC601125E
:101AD30008214DC701120821D6C80112082154C993
:101AE300011208211ACA011208213BCB0112082155
:101AF300ADCB011208210FCC0112082171CC0112C8
:101B030008217BCC01120821B9CC0112082122CD76
:101B130001120821C1CD011208213FCE0112082173
:101B2300F2CE0112082164CF011208218ACF0112DB
:101B33000821BACF01120821E7CF011208218DD065
:101B4300011208219DD001120821F0D001120821B1
:101B5300FCD00112082108D10112082111D1011270
:101B6300082174D101120821D4D10112082125D2F0
:101B73000112082140D20112082170D2011208215A
:101B830091D2011208219DD20112082124D40112FD
:101B9300082142D401120821ABD401120821BED47A
:101BA30001120821CFD40112082162D501120821A4
:101BB30065D6011208215BD701120821DED7011275
:101BC3000821E7D7011208214AD80112082161D858
:101BD30001120821A3D801120821E8D80112082113
:101BE30017D9011208214ED9011208216BD901120C
:101BF30008218FD901120821D0D901120821C3DA93
:101C03000112082109DB0112082144DB011208211A
:101C1300A3DB01120821CBDB0112082104DC011232
:101C2300082112DC0112082173DC01120821B0DC47
:101C330001120821F2DC0112082123DD011208211F
:101C430057DD0112082162DD0112082180DD011236
:101C5300082149DE0112082153DE0112082198DE12
:101C63000112082102DF0112082116DF01120821E7
:101C73000EE00112082121E00112082136E00112D1
:101C83000821D6E0011208213AE10112082101E2FC
:101C9300011208210CE2011208212BE30112082191
:101CA30047E3011208219FE301120821D6E3011241
:101CB3000821F0E30112082164E401120821F5E48C
:101CC300011208213DE50112082162E701120821F2
:101CD300CCE70112082137E8011208217DEA01123D
:101CE30008218DEA0112082190EA011208219CEAD9
:101CF30001120821B0EA01120821B8EA01120821F1
:101D0300FDEA01120821ABEB011208211BEC0112C1
:101D130008217FEC0112082118ED01120821B2ED10
:101D230001120821E0ED0112082185EE01120821BC
:101D3300B4EE01120821B7EE011208212EEF0112B1
:101D430008211EF001120821F6F00112082180F18A
:101D530001120821A1F20112082153F301120821F3
:101D63008CF301120821BDF301120821C6F30112FD
:101D7300082102F401120821E9F40112082165F592
:101D830001120821F5F501120821BFF601120821FD
:101D930043F70112082179F701120821C2F7011252
:101DA3000821CCA2031208214CA0031208218A9F08
:101DB30003120821119F03120821039F0312082114
:101DC3009A9A03120821499A03120821249A0312AA
:101DD30008210F9A03120821F79903120821E999A0
:101DE30003120821D29903120821B899031208217A
:101DF30044990312082173980312082115980312BA
:101E03000821FB9703120821CA9703120821589649
:101E1300031208214396031208213AD10312082121
:101E2300E1D00312082199D0031208217AD00312BA
:101E3300082110D003120821EECF031208213DD64A
:101E430003120821D7D50312082153D50312082101
:101E530034DB03120821D3DA03120821B8DA0312A0
:101E63000821A8DA0312082175DE0312082117CB13
:101E73000312082109CB03120821FAD903120821FE
:101E83005CD9031208214BD90312082143DB031247
:101E930008211EAB03120821D9AA031208212470BA
:101EA3000012082143AA031208213BA903120821A7
:101EB30086A80312082159A703120821AC7900123E
:101EC30008217279001208214079001208210A7949
:101ED30000120821A9780012082193780012082122
:101EE30049780012082161750012082174730012E9
:101EF30008211C7100120821D170001208213270D0
:101F030000120821A17000120821DB8802000000E2
:101F130080FBE47300013636010100010201000178
:101F23000301000104010606050200000701003455
:101F33000801000F090401010D0100FF0E08000054
:101F430017020000190100FF1A0100011B0100FE26
:101F53001C0100081D0200001F01000120010001F7
:101F6300210200002301000F2402000026010001CA
:101F730027010008280200FF2A0100072B01024065
:101F83002C0100002D0100012E0100012F0100FF93
:101F930030010B1C310800003A0100083B01000F1F
:101FA3002F01000003007100300160001100700078
:101FB300310220035004800010006100000014006F
:101FC3006300730072006200430000001300060008
:101FD30000000000040012000000000000000000E8
:101FE30004000400370037003C02440000000000F6
:101FF30000000000650000003500810000000500BE
:10200300000083000000030271023001600211022C
:1020130070020102020202028002100261023A000F
:10202300410063027302720262024302000213025E
:102033003800000200020402120200020002000241
:10204300000204020402370037003C02440200028B
:10205300390000020002650200023502810200021B
:102063000502820283020002030471040204600475
:102073001104700402040204010402041004610444
:10208300000414046304730472046204430400042C
:1020930013040604000400040404120400040004EE
:1020A3000004000451046400000400040004440418
:1020B30000040004000400046504000435048104E2
:1020C3006400050400048304000401037103010395
:1020D30001030103010301032203020301031003AC
:1020E3000003000300030003000300030003420393
:1020F3000003240306030003000304031203250360
:102103002303250323030403040300030003000341
:102113004403000300032303000365032100350385
:1021230081030003050300030003000301017101A0
:1021330001010101110101013101010101018001CD
:10214300100161013B00140063017301720162011C
:1021530043010001130106013D0135000401120191
:1021630000010001000100010401040133013301F6
:102173003C01440132013600000100016501000108
:102183003500810100010501820183010001360050
:102193000100060000000F00000000000000000026
:1021A3000000000003FFFF00000403FFFF0000FF27
:1021B300FF0FF4010005C4040320000100000B001D
:1021C3000000000000000003010F0000F8121300DC
:1021D30074120100F81202002C12030032120400E0
:1021E300381205003E1206004A121100681214004C
:1021F3006E1215005C12FFFF0000017A1806AA1880
:1022030008A4180BB61810E41702801805981807CD
:1022130086180C5C180D6E18FF0000F81B281CFEB6
:102223001B041C221C161C101C2E1C341C3A1C469E
:102233001C0A1CF21BEC1B03EAF5E5D5D5C5B5A5B5
:1022430095958585757565655555454535352525BB
:1022530015150500160F00000B150B020002220FC7
:1022630032000006E21CF41CFA1CC21B001DBC1B3E
:10227300C81BFC1AF61A321B381B2C1BE41A3C1D14
:102283005A1D601D421D4E1D481D00383C3E363B05
:102293003B352B432C303016181920231A1C1E30C3
:1022A30000034948424D18172505020C0E020B0482
:1022B3000B0A0708000F0001191618161615230339
:1022C30000303017181921301B1D1F30301D061D1B
:1022D3000C1D181D121D1C1C401C541D4C1C521C93
:1022E3000204020101010109020005150D0910088C
:1022F30004081B0E1B021B3E1B0000000000000015
:10230300BE040A141B261B2800E803040015000E54
:1023130000030908101004011E0C05080F1EFF001E
:102323000009030AC082C083E9901A17F0E49019E8
:10233300CCF0120F26901A2BE4F0A3F0901A18F0A9
:10234300A3F0121A4E1215A412173C120F2C901957
:102353008CE4F0A3F0901A3DE07002A3E0600990D2
:102363001A3D125897121F1590231FE493FA79020E
:102373001213B20248EA74F2120379EAFEEBFF7415
:10238300805FF9E47001E96061901A17E0F9120FB8
:10239300A48A088B09EA7001EB60467B0080010B7D
:1023A300EB75F003A424FDF8E5F03421F988828964
:1023B30083E493FA74FF6A6021850882850983E0C8
:1023C3006A70DCAA08AB0988828983A3E493C0E01E
:1023D300740193F583D082121F15AA08AB09120F5B
:1023E30098EEFA74806FFB0225B974205FF9E470EC
:1023F30001E9601D1219348A088B09EA7001EB6048
:102403000A12186EAA08AB09120F98EEFA7420800C
:10241300D4EE542070030224EA750C001245507068
:1024230001EB700B7C027D007A207B0012693B7C00
:102433000079047A007B001218FE8A088B09800D4C
:10244300740188828983F0850A08850B09E5087081
:1024530002E509606D7C007904AA08AB091218FE35
:102463008A0A8B0B750C01E508240412698624FF84
:10247300F0A3E034FF126BE87002A3E070C9E50833
:102483002409F8E5093400F9850882850983A3A3A3
:10249300A3A3A3A3A3A3A3A3E0640170A3850882BA
:1024A300850983A3A3A3A3A3A3E054047092740692
:1024B30088828983F07AB785088285098312270485
:1024C30080851218CE7C0079017A007B001218FEF9
:1024D300EA7001EB7009E50C70057A201225C574CA
:1024E300206EFAEF0223E9EE54106007121772749C
:1024F3001080EEEE544060071217CC744080E2EE79
:1025030054806007121694748080D674015FF9E4D6
:102513007001E9601A901A3FE07002A3E06009902D
:102523001A3F125897121F15EEFA74010223E8742A
:10253300085FF9E47001E9602D121748901936E03D
:102543006401701B901937E06015FC75F0E8A4CCAA
:10255300AAF075F003A42AFD7A007B0812693BEE0A
:10256300FA74080223E874105FF9E47001E9601259
:10257300901A29E06005E4F0121748EEFA7410028D
:1025830023E874025FF9E47001E9600A121A48EE65
:10259300FA74020223E874045FF9E47001E960123B
:1025A300125C3A125A907901123711EEFA7404024E
:1025B30023E87A007B00800574031208367F060245
:1025C30005837B00901A17E0F91210D62274F712D4
:1025D300037974E1120902EAFEEBFFEE7001EF608A
:1025E30033851882851983AC82AD8312195E740614
:1025F300120AFFE0601E7417120AFFE0FD74011255
:102603000AFFE0FCEEFAEFFB7900121532E96004F1
:1026130079A480027900024A3F74F5120379EAFE35
:10262300EBFF8E828F83A3A3A3A3A3A3E0544060F5
:10263300181262A460067AFF7BFF806A8E828F8302
:10264300124E12FAA3E0FB80539019B7E0A2E150B7
:1026530048125FD0241CF8EB12453B7508FE750940
:10266300FF78081208591232AD12068679008C825F
:102673008D83125EC4A3A3A3E0F5088C828D83121D
:102683005C27A3A3E0FDAC088A828B831255BA12A0
:10269300174E7404120836800312198274FE6A708E
:1026A3000374FF6B6043125893125DC11219EEE974
:1026B3008E828F8360061226FDE480051226FD7448
:1026C30001F07C3E7D188E828F831255BA1213ACB3
:1026D300E9F5087017EE7001EF60097901EEFAEF82
:1026E300FB1218DAA9080261337508CDAA088E8295
:1026F3008F83122704E960DD80EAE0240D12506E17
:1027030022E0240C124A8AF912184A2274F61203A0
:1027130079E9FEEAFF7A0F7B00120F92EA7001EB70
:102723006019740C8A828B83F0EEA3A3F0EF8A8284
:102733008B83A3F0125A8179008028EEF9121904D1
:102743008A088B09A808A909E87001E960137406CF
:1027530088828983126BEDE0F91217DEEEF9121805
:10276300E0791002588E901A17E0F91210CA22C0AD
:1027730082C0837900EA241DF582EB1232B312552D
:10278300BA9019B7E0A2E18A828B83E0500E120758
:102793000B01010A9C2700B02709801112070B01C6
:1027A30003049C2702079C270A9C27B0270248EAB8
:1027B30074EE120379EAFEEBFF8C088D09890E741F
:1027C30012120AFFE0F510A3E0F511851082F583DC
:1027D300E4F0A3F01228E5EE241DF8EF3400F988A5
:1027E3000C890D88821228FE601F850A82850B835F
:1027F300122BBD7014850A82850B83124BCA851078
:1028030082851183125A908003750E00850C828590
:102813000D83124E1212064C0109842833284B28CB
:102823005928642884288E288428A828C128D428D5
:102833007810120859AC08AD09EEFAEFFB12175ADB
:1028430074021208360228DDAC08AD09EEFAEFFB7C
:102853001217600228E0A90EEEFAEFFB121A0680A7
:1028630079126D6964027019E50E700A1228F2700C
:1028730003A3E0697067EEFAEFFBA90E1219BE809D
:1028830059750E007901120F3880521228F2700325
:10289300A3E06970EC126D69640270E5EEFAEFFB78
:1028A3001219A68038901A41E07002A3E0602EEE60
:1028B300FAEFFB901A41125897121F15801F122826
:1028C300F27003A3E06970B9EEFAEFFB121A1280FB
:1028D3000CEEFAEFFBA90E121A1EE9F50EA90E0271
:1028E300452CEE2409F8EF3400F9880A890B228578
:1028F3000A82850B8312612CE06822F583124E163F
:10290300F91219D0E92274ED12037974DE12090267
:102913008A088B09EA2402F510EB1251EAF912191D
:10292300048A0A8B0BAE0AAF0BEE7001EF70030241
:1029330029F0E508240C125D9C122B1B240612328D
:10294300A5850882850983A3858208858309E064B8
:10295300F16017E064CD6012E0641A600DE064E991
:102963006008E064E16003022A7A850E82850F83A2
:10297300A3E05408F9E47001E9607F7405850A82D5
:10298300850B83F0901A45E07002A3E06009901A6A
:1029930045125897121F15901A47E07002A3E06082
:1029A300339019B7E0A2E1502B8E828F8312629E7F
:1029B300A3A3A3A3A3A3A3124A491232BFEA70019C
:1029C300EB6011850882850983E0F9901A47125854
:1029D30097121F15850A82850B83E06402700374C6
:1029E30006F0851082851183E0F91218E01218CEE3
:1029F30074221208367F0B02058379001218DAE974
:102A030060759019B7E0A2E1400302298712666B53
:102A13007002A3E070030229877403120AFF12668F
:102A230052850882850983E064E9701A122B231208
:102A3300085D850882850983E0F512781212085D26
:102A4300123CD5120836740C120AFF1255BA1258EA
:102A530093125DC17900740E120AFF124DEC740CCF
:102A6300120AFF1232EF7003022987850E82850F47
:102A730083124DF6022986850882850983E0C0E02A
:102A83007402120AFFD0E0F01267E9EE240B126D14
:102A93006C851882851983AA82AB8370051216B8D8
:102AA30080031219CA7402120AFFE064E970141257
:102AB3002B2312085D7512E9781212085D123CD5BA
:102AC3001208369019B7E0A2E140030229D7850A1C
:102AD30082850B83E064027027850E82850F83E075
:102AE3005404601C1262A4701312589374FFF0A371
:102AF300F07405850A82850B830229E4740380F34D
:102B0300850882850983E064E960030229D7EEFA28
:102B1300EFFB121A240229D7EE2409126944EE228C
:102B2300125FD575120178122274F51203798A089F
:102B33008B09750A00EA2409124BBDFEE9FF8E8258
:102B43008F83122BBD7003750A018E828F831254FB
:102B5300C87003A3E06B7006E50AD2E1F50AE50845
:102B63002402FEE5093400FFE50A60138E828F8399
:102B7300E07006E50AD2E58004E50AD2E6F50A121A
:102B830019EEE964017006E50AD2E0F50A8E828F38
:102B930083E06017E508241DF582E5093400122857
:102BA300FE64016006E50AC2E0F50AE50AA2E14017
:102BB30004D2E7F50AA90A0261331262AF64022262
:102BC300C082C08379018A828B83A3A3E0C394026A
:102BD3004001198A828B83A3A3A3A3E0C394024079
:102BE3000279008A828B83A3A3A3A3A3A3A3A3A392
:102BF300124DEC74F86C700374FF6D601E74F96C05
:102C0300700374FF6D601474FA6C700374FF6D606D
:102C13000A74FB6C700374FF6D700279008A828BF7
:102C230083A3A3A3E0FC9019BAE06C60027900903F
:102C3300231BE493C394805018E493C333C0E0EAA6
:102C43002411F582EB126D6FFAD0E0C39A5002792A
:102C5300000248EA74E812037974DC120902EAFEFE
:102C6300EBFF7403120AFF125B93751400751500D2
:102C73007405120AFFAC82AD838E828F83A3A3A354
:102C8300125DAD1255BA12195EE9600F7405120A8E
:102C9300FFAA82AB83121868E970087901120F3812
:102CA30002329BEE241B124BC47412120AFF125AF7
:102CB30090740B120AFFE06023741C120AFFE0FDFC
:102CC3007406120AFFE0FC8E828F83A3A31255BA07
:102CD3007901121532E96004790280C17405120A80
:102CE300FFAA82AB83121862E9F508740B120AFF7C
:102CF300E070299019B4E0602374225508642260BF
:102D03001B74425508644270CF7422120AFF124E9C
:102D130012FA74066A600574076A70BCE9A2E65089
:102D2300127405120AFFAA82AB83121850E97003CA
:102D3300022C9EEE2412F516EF3400F517EE242A2A
:102D4300122B1E242C1232B01237C0E0687003A37A
:102D5300E069701C750900780912085D780912088A
:102D63005DEE242E1232B71232CB123CE512083636
:102D7300740B120AFFE07003022E151232CB1232CB
:102D8300BF8A0A8B0BA80AA90BE87001E97003023A
:102D93002EB97406120AFF1232C6FAA3E03400FBFE
:102DA300740D2AF582E43BF583E0FAE82404F50A7E
:102DB300E9126947E82403F582E9126D6F6A600D31
:102DC300EAF0908203780C120AA812331079047483
:102DD30006120AFF1232C6FCA3E034008C82F5838C
:102DE300A3AA82AB83120F808A0C8B0D8C0E8D0FDE
:102DF300850A82850B837810120AA87810790C1241
:102E03000A5A500302329B90821F780C12096B12EC
:102E13003310EE24241232A5EE2430F50CEF125DAC
:102E2300A0EE242F1269449019B7E0A2E1500302E7
:102E33002F529019CCE0FA74046A600874096A602E
:102E43000302329BE508A2E54003022EFF1232F78C
:102E5300C0E07401120AFFD0E0123D0FC0E074021B
:102E6300120AFFD0E0F07416120AFFE0640170202A
:102E73007410120AFF1232DB7003A3E0697011743D
:102E83000E120AFF122BBD70077416120AFFE4F02C
:102E9300850E82850F831206827404120AFFAC82A8
:102EA300AD837409120AFFAA82AB831216BE74049F
:102EB30012083602329B901A11E064016003022E5D
:102EC300157422120AFF124E1264067009E508A255
:102ED300E65003022E157412120AFFE064FF700419
:102EE300A3E064FF700302329BEEFCEFFD74051256
:102EF3000AFFAA82AB8312187402329BA2E6400334
:102F030002329B7422120AFF1232E7701E741C12E3
:102F13000AFFE06402600302329B7405120AFFAAEF
:102F230082AB8379001219BE02329B74076A600375
:102F330002329B741C120AFFE06404600302329B9A
:102F43007405120AFFAA82AB831219B202329B7470
:102F530016120AFFE0601D8E828F83A3A3123D0128
:102F6300141253BCA3123D01C0E07416120AFFD021
:102F7300E0F07006E508C2E7F5089019CCE0FA74B2
:102F8300046A600574096A7061740E120AFF1254B0
:102F9300C87003A3E06B60171219EEE96402600FB7
:102FA300740A120AFFE054036401600302329B7443
:102FB30007120AFFE0701B1232F7C0E07401120A15
:102FC300FFD0E0123D0FC0E07402120AFFD0E0020E
:102FD3002E927422120AFF1232E77003022F10742A
:102FE300076A600302329B022F367509007461552C
:102FF300087003023106E508A2E050708516828549
:103003001783124DEC7405120AFFAA82AB831217C1
:10301300D2E9705512198EE9F5097416120AFFE008
:10302300700F7410120AFF1232DB7003A3E06960A1
:103033003BA909851682851783124DEC7405120A84
:10304300FFAA82AB831217D8E96013740E120AFF2A
:103053001261AC120AFF125A90751404800EE5082F
:10306300C2E5F508750900800353089FE508A2E54A
:10307300503C1232F7C0E07401120AFFD0E0123D57
:103083000FC0E07402120AFFD0E0F0850E82850FB4
:10309300831206827404120AFFAC82AD8374091290
:1030A3000AFFAA82AB831216BE7404120836E5081F
:1030B300A2E640030231D37403120AFF85820A8514
:1030C300830B780A120859A909851682851783127A
:1030D3004DEC7407120AFFAA82AB831218567402CE
:1030E300120836E9F50970030231D37422120AFF7C
:1030F300124E12640160030231D374104514F514A7
:103103000231D37407120AFFE06401703B74221288
:103113000AFF124E126405702F7403120AFF858290
:10312300088583097808120859790085168285175E
:1031330083124DEC7407120AFFAA82AB831218564E
:10314300740212083602329B7416120AFFE07012E0
:103153007422120AFF124E1264036003022EEC0261
:10316300329B1218D4E9600302329B740E120AFFD9
:103173001261AC120AFF125A90780912085D741E8C
:10318300120AFFAC82AD83740F120AFF1255BA7490
:103193000A120AFFE0F91218147401120836E960E2
:1031A3000F7514208E828F83A3A3124E12543FF007
:1031B30079007410120AFF124DEC740E120AFF12FA
:1031C30032EF600674204514F51412198EE9F509DF
:1031D3007403120AFFE064FE7004A3E064FF70034B
:1031E300750900E508A2E7400302329BE509700375
:1031F30002329B8E828F83A3A3A3A3E0FA7B0012E8
:1032030010108A0A8B0BEA7001EB700302329B8E5B
:10321300828F83A3A3E0F50CA3E0F50D750E007870
:103223000C1208558E828F83A3A3A3A3E0FC7D0019
:103233001242481208367407120AFFE08518828585
:103243001983F07401120AFFE4F0A31252A48582D9
:103253000C85830D780C1208597814120859E50966
:10326300F508780812085D8516828517831206868D
:103273008E828F83A3A3A3A3E0F9740A120AFF1219
:103283004DECAA0AAB0B12194C7407120836E9600D
:1032930007AA0AAB0B12101674241208367F100209
:1032A3000583F50EEF3400F50F22EE240EF582EFC1
:1032B3001269B122F582EF125C62F922124A84127A
:1032C3001A72221265A02A22850A82850B83124B69
:1032D300E085168285178322124EEA8516828517AA
:1032E30083E06822124E16FA74046A22124A841288
:1032F3001754E922EE242E125C5F85188285198308
:1033030012330722F0850A82850B83E022850A8225
:10331300850B83E50CF0A3E50DF0A3E50EF0A3E523
:103323000FF02274F2120379EAFEEBFF8C088D0989
:103333001228E58882F5831255BA901936E0601198
:103343009019BDE06A7003A3E06B70051217488003
:103353005379001217F08A828B83E5827002E5832A
:10336300603AA3A3A3A3A3A3E05418602FE5082402
:103373001BF582E5091232B3120686E5082412F51D
:1033830082E5091232B3120686EE24181232B712FE
:1033930033AA1218207404120836800879001233F5
:1033A300AA12176C0225C0850A82850B83124BE093
:1033B300EE240B124A7D2274EE12037974EA120989
:1033C300028A0C8B0DEA2402F50EEB1232A80A0ACC
:1033D300FB1215C88A088B09AE08AF097509018568
:1033E3000C82850D83A3E0F508750A01AC0EAD0FC1
:1033F300851882851983AA82AB831211007408127F
:103403000AFF125B93740A120AFF7402F074131218
:103413000AFFE4F0E50C240AF50CE50D125DA0901B
:103423001B31E07010EE7001EF700AE5087006754D
:1034330009C30235909019CCE0640860067509C28F
:1034430002358C850C82850D83E0A2E1500EA2E348
:103453005005750A04800C750A038007A2E3500324
:10346300750A02EE7001EF60648E828F83A3A3A3BB
:10347300A3E0FA74046A600574036A700C7404654B
:103483000A601C7403650A601674026A600574019D
:103493006A70207402650A60067401650A700F8EF3
:1034A300828F83123FE9120AFF125A90801F74021F
:1034B3006A600574016A700A8E828F8312409D12BE
:1034C3001F15AA0EAB0F1215D47E007F00740812CD
:1034D3000AFFE064FE7004A3E064FF703812159ED7
:1034E300E97032E5086017901A09E06402700F90E2
:1034F3001B38123FE9120AFFE8F0A3E98016850C96
:1035030082850D83E05402F912177E7408120AFFB4
:10351300EAF0A3EBF07408120AFF1236307003745A
:10352300FF6B70057509C78060E508F50B780B1212
:10353300085D850C82850D83E0F9AC0EAD0F121684
:10354300DC7401120836E97040A90AAC0EAD0F74A1
:1035530008120AFF12370A8A108B11AE10AF11EE50
:103563007001EF601C74026508700BEE2405126D88
:103573006C54FB4408F0740A120AFFE4F0F5098066
:10358300087408120AFF125B93E508700F8518820E
:10359300851983AA82AB831213948010FCA90A8530
:1035A3001882851983AA82AB831219ACE9FAEE70EB
:1035B30001EF603EEE2405F8EF3400F9E5086012F0
:1035C30088828983E0D2E6F0740265087004E0D251
:1035D300E5F0850C82850D83E0A2E6500888828998
:1035E30083E0D2E7F08E828F83A3A3A3A3A3A3E0F8
:1035F30004F0E5097003EA602FFC7D007A017B107B
:10360300120F32EE7001EF6007AA0EAB0F1215D442
:103613007408120AFF123630700374FF6B6009904E
:1036230019A4125897121F157416024529124A84B9
:1036330074FE6A2274F612037974F71209028A0877
:103643008B099019CCE0FA74036A600D74016A6007
:103653000874096A60030237078508828B83A3AE67
:1036630082AF83E060030236EC7C007D007A027B4C
:1036730000120F32E5082402124542126128125A41
:1036830090795312138E79001237119019CCE0649C
:103693000960099019CA1255BA121A6C74011258AA
:1036A300C474049019CCF07401120AFFAA82AB838C
:1036B300794A1213887401120AFFAC82AD837AC26D
:1036C3007B1912110079007401120AFFAC82AD83D9
:1036D3009019C012370A9019B7E0A2E35004D2F050
:1036E3008002C2F01258AC8018FC7D007A037B1074
:1036F300120F328E828F83E0F9123711E49019CCC6
:10370300F01218B0025889124A841215B622901981
:10371300CA124A841216D622C082C08390198CE042
:103723007002A3E070419019CCE012070B00030173
:103733003D37054C37065B376A37901994E07002C2
:10374300A3E06076901994806B901990E07002A3C7
:10375300E06067901990805C901992E07002A3E09A
:103763006058901992804D90198CE07002A3E0602C
:1037730009123CFEFC74016C70237900901A1880C6
:103783000909EA1263BDEB1232B312481A7001EB56
:1037930070EF901A181255BA1216C4801D74026C79
:1037A3007005121A3C8013901A43E07002A3E06084
:1037B30009901A43125897121F150248EA124EEA4B
:1037C3009019CA2274F412037974EB120902EA12F3
:1037D3004BB7FAE9FB8A828B837808120AA8780828
:1037E300120A7A9019CD78081209CA7F7F7E7F7CEE
:1037F30000750801750900750A00750B00EC78085F
:103803001207BB9019CD78081209DD90820378085E
:10381300120942602A7D00901A18801288828983D7
:10382300A3A3E06C70010D1263BCE91232B312481A
:10383300887001E970E6EDC39F5004EDFFECFE0CC8
:10384300ECC3941B40AB8A828B837808120AA8903E
:103853008203780812094260459019CD7808120A4C
:10386300998A828B837808120AA88518828519831E
:103873007808120A997404120AFF7401F09019D39C
:10388300E0C0E07405120AFFD0E0F07407120AFFEB
:103893001239E6805B1217009019CA125DC1901AA3
:1038A300181248887001E960229019CA1267DCE097
:1038B3006A7003A3E06B700A88828983A3A3E06E16
:1038C30060D31263BCE91232B380D6EE9019BFF015
:1038D30012189EE9601AE49019CCF0901996E070E2
:1038E30002A3E0600B79C4901996125897121F1522
:1038F300741502546174F012037974EB1209028A8D
:10390300828B83A3A3A3A3A3A3A3A3A3124888FA8D
:10391300E9FB7C00750C01750D00750E00750F0039
:10392300EC780C1207BB850C08850D09850E0A85FA
:103933000F0B9019CD78081209DD908203780812D5
:1039430009426025901B37E0C0E08C08EA2508F5A2
:1039530082EB126D6FFDD0E0C39D500D780C120AFF
:103963007A9019CD780C1209CA0CECC3941B40A4AD
:103973009019CD7808120AA8908203780812094298
:1039830060398518828519837808120A997404129C
:103993000AFF7401F07407120AFF7401F09019D33F
:1039A300E0C0E07405120AFFD0E0F07407120AFFCA
:1039B3001239E674069019CCF08023E49019CCF008
:1039C300FCFD7A047B10120F32901996E07002A36B
:1039D300E0600B79C4901996125897121F1574154D
:1039E3000253B4E412613D1213A02274EC12037962
:1039F30074ED1209028A828B83A3123CC6EA24085F
:103A0300124BBDFEE9FF851882851983AC82AD8315
:103A13008E828F83123CEEA3A3A3A31255BA12186E
:103A2300C2851882851983E070768E828F83E0C306
:103A3300940B406C850882850983A3A3A3A3A3A346
:103A4300A3A3E0640270599019CCE0FAE5082410AE
:103A5300F510E5093400F511E5082409125D9C749D
:103A6300026A604174066A603C90198CE07002A39C
:103A7300E06007123CFE6401605474086A600574D8
:103A8300046A701C7402120AFFE0F97407120AFF39
:103A9300AC82AD83850C82850D831255BA1218C88A
:103AA300741302651F90198CE07002A3E0701F75F8
:103AB3000A00780A12085D780A12085D851082856B
:103AC3001183123CB812454A123CE5120836901A8B
:103AD300181269DB901A18126517E508240DF50E04
:103AE300E5091232A880318E828F83E0F8A3123C5D
:103AF300B8E0687003A3E06970128E828F83A3A37A
:103B0300E0FA850E82850F83E06A606B8E0A8F0B65
:103B1300EE1263BDEF1269D8EE7001EF70C97A1827
:103B23007B001210108A128B13AE12AF13EE7001CA
:103B3300EF7003023AA37C18126B30125B8AEE24F7
:103B43000C1232B074FFF0E508240B126986123CA4
:103B5300AF126BE7C4123CAFA3A3F0901A18E07046
:103B630002A3E07005901A18800AE50A1263BDE506
:103B73000B1232B31267EF7401120AFF123CD0A387
:103B8300F07402120AFF123CD0F0850E82850F8377
:103B9300123CC1A3123D0F123CA61253C7240DFAC7
:103BA300EF3400FB7402120AFFE06401600E740735
:103BB300120AFFAC82AD8312110080097C087D00DC
:103BC30079FF120F7A7412120AFFE0C0E0EE241597
:103BD3001232B0D0E0123D06FC901B02E0C39C40C1
:103BE30003023AA3126963E5091232B3A3E05480D6
:103BF300F9E47001E9700990185FE07003023AA3D9
:103C03007D00EE240CF8EF3400F9EE240BFAEF34C8
:103C130000FB901A09E06402701D8A828B83E0F531
:103C23000AC39C500D7405120AFFE0C39405401BA0
:103C3300801AE50A6C70157405120AFFE0C0E0886B
:103C4300828983E0FCD0E0C39C50010D7404120A06
:103C5300FFE06020ED601D850882850983126145C0
:103C6300ECF0A3ED123D068A828B83F07405120AF1
:103C7300FF124E077406120AFFE0600D74018E8274
:103C83008F83A3A3A3A3A3A3F07404120AFFE0707A
:103C930003023AA374018E828F83A3A3A3A3A3F089
:103CA300023AA3F8A3E0F98E828F8322540F8E8207
:103CB3008F83A3A322E0F9850C82850D8322124111
:103CC30078A322A3A3E0F508A3E0F5092212417823
:103CD3008021850C82850D83123CEE124BDC8A8297
:103CE3008B83124A84121994740222E0F98A828B1C
:103CF300838002A3A3A3A3A3A3A32290198C12508E
:103D03007EE022F0851082851183E022F0850C820B
:103D1300850D83E02274F612037974C912090290A7
:103D230019CCE0640860629019DDE0F824F6F582AE
:103D3300E4341AF583E0FA9019AEF0E824FCF58236
:103D4300E4341AF583E0FB9019ACF07508FF7509AC
:103D5300FFEA7808120A16E508F4FCE509F4FD33D6
:103D630095E0FE9019D5123EB87508FF7509FFEB73
:103D7300C39A7808120A16E508F4FCE509F4FD3342
:103D830095E0FE9019D9123EB8E41258BA7904129C
:103D9300138E9019DDE07009741E120AFF740180FE
:103DA30006741E120AFFE4F0740F851882851983C6
:103DB300F0901B36126139794612138E7401120A80
:103DC300FFE4F0901B19E0C0E07402120AFFD0E098
:103DD300F09019BAE0C0E07403120AFFD0E0F07467
:103DE30004120AFFE4F07405120AFFE4F0740712E8
:103DF3000AFFE4F09019DDE0FAC3940F740650064D
:103E0300120AFFEA8005120AFF740FF07CDE7D19A7
:103E13007408120AFFAA82AB831211007C037D008F
:103E230079FF7410120AFFAA82AB83120F7A901AD9
:103E330016E0C0E07413120AFFD0E01259BA120A56
:103E4300FF1259A912199A9019D1E0C0E0741C12FB
:103E53000AFFD0E0F09019D2E0C0E0741D120AFF0F
:103E6300D0E0F09019BFE0C0E0741A120AFFD0E06E
:103E7300F09019CA124BCA7418120AFF125A90749E
:103E830020120AFFE4F09019D4E0C0E0741F120A74
:103E9300FFD0E0F07434120AFFE4F07429120AFF31
:103EA300E4123EC37414120AFFAA82AB831213A650
:103EB300743702588BECF0A3EDF0A3EEF0A3F022DD
:103EC300F07ABD7B197953123ECE2212138E7AC03B
:103ED3007B19794B12138E22C082C0838A828B8313
:103EE300A3E06007E49019CCF0804A74089019CCE1
:103EF300F09019DDE0701F901996E07002A3E06066
:103F03000B7900901996125897121F159019CA121F
:103F13004DEC7A05801A79001216D09019BD124D16
:103F2300EC7A067B00120F329019C0124DEC7A0422
:103F33007B00120F320248EA74F412037974EA1216
:103F43000902EA2402FEEB3400FF0A0AFB1215C839
:103F53008A088B09EA7001EB7003023FE48A828BC3
:103F630083125060600F74026A600A74036A60050A
:103F730074046A706CEEFCEFFD8518828519831258
:103F83005F57123FE9120AFF125A90740A120AFF8E
:103F93007401F07413120AFF12613812139A890A1A
:103FA300AC0A7D007A077B00120F328508828509EF
:103FB30083A3A3A3A3A3E0C2E0F0740185088285D1
:103FC3000983A3A3A3A3A3A3A3A3A31269B6120262
:103FD30029E8850882850983A3A3A3A3A3A3A3A395
:103FE300F07416025461124EEA74082274F7120335
:103FF30079901A18E0FAA3E0800CEA24161269D526
:10400300121016EEFAEFFBEA7001EB70ED901A183E
:10401300E4F0A3F0024A4474F41203798A088B098A
:10402300EA240BFEEB3400FFEA2413F582EB126D56
:104033006F64037009EEFAEFFB1215C8800CE0649D
:104043000270548E828F83126992EA7001EB60478B
:10405300EA2406F8EB1228EA850882850983A3E09F
:104063007007E488828983802D64F16005E064E150
:10407300701A88828983E0640170118A828B8312AB
:10408300409D121F15EEFAEFFB1215D4850A8285A7
:104093000B83E0600214F0025464124A849019A462
:1040A30012589B2274F11203798A088B09ECFEEDF6
:1040B300FF890A8A828B8312654C8A828B83124121
:1040C30077F0EEF8EFF9A30EAF838A828B83A3A375
:1040D300E0C454F0FA88828983E04A124181124194
:1040E3007812417CE0333354FCFA8E828F83E04AAA
:1040F30012417CA3E033333354F8FA8E828F83E08A
:104103004AF008EFF9A30EAF838508828B83A3A33C
:10411300A3A3A3A3E0A2E0E492E013135480FA88DC
:10412300828983E04AF0E5082407F50CEB125DA0D1
:10413300750E00780C1208557C081251D3120836FC
:10414300126536E508240F125D9C780C1208557C25
:10415300031251D3120836E50AC3940F4011E50840
:104163002412F582E5091232B3123CC1A3A3F07FF6
:1041730007020583A3E0023CAA124181A322F08532
:1041830008828B83A3A3A32274F1120379EAFEEBC3
:10419300FF890A8C088D098E828F83E08C828D8340
:1041A3001253BCAE82AF83E012547912425AC41246
:1041B300547912424EE054038C828D83124258A2EA
:1041C300E2E492E08C828D83124257131313541F3F
:1041D300125479A3124257A2E7E492E08C828D83B2
:1041E300A3A3A3A312424E8E0C8F0D750E00780C61
:1041F3001208557C087D00E5082407124242120884
:10420300361265368E0C8F0D780C1208557C037DA3
:1042130000E508240F124242120836E5082412F87A
:10422300E5093400F9E50AC3940F400A8E828F83AF
:10423300A3A3A3E08001E488828983F0024172FA98
:10424300E5093400FB120F6E740322A3A31253C0BB
:104253000EAF8322A3A3A3A3F00265E774F41203B2
:104263007974F9120902EAFEEBFF90198CE07002EF
:10427300A3E06010123CFE64027009EEFAEFFB1239
:104283001A3680629019CAE06E7003A3E06F70560D
:1042930074016960097ADE7B191265C970487A0076
:1042A3007B021245547001EB703C9019CD780812D3
:1042B3000AA88518828519837808120A999019D358
:1042C300E0C0E07404120AFFD0E0F07405120AFFA4
:1042D3007401F07406120AFF740212613912168215
:1042E300E960981216887407025461E0F90248EAFB
:1042F30074F6120379901A2AE0701F7C0079017A10
:10430300007B001218FEEA7001EB600E8A828B8339
:10431300E07002A3E0600312184402588EC082C00A
:1043230083124785401079FF1218F8E9FA90231C8D
:10433300E493C39A50047901800279000248EA7435
:10434300EE1203798A088B09890D750E00EA240899
:10435300F50AEB124DE0E0F91219048A108B11AE45
:1043630010AF11750C01EE7001EF60030244088574
:104373000882850983A3A3124DFD1252AC1255BACC
:104383001218EC8A0A8B0BAE0AAF0BEE7001EF70BA
:10439300030245228E828F83A3A3A3A3E4F0A3F099
:1043A300E508240B124542E0C0E0EE240B1232B0C4
:1043B300D0E0F01219FAEE240C125DBAE508240ECF
:1043C300F582E509124BC71232AD125A90750E01F0
:1043D300EE2406F8EF124794E0547FF0A3E054FC78
:1043E3001246DAE054046003024490901B12125206
:1043F3009D74077808120A168A828B83E04508F0B9
:10440300A3E04509F0EE24061245398C828D831210
:1044130055BA74805AF50874035BF5097407780874
:10442300120A8AE508F510EE2404122B1E24091241
:104433004531E50D60607402850882850983124267
:104443005B240D12506AE0A2E2500F9019B8124B90
:10445300CA850A82850B83125A90E51070030244C1
:10446300EF747F5AFA74FC5BFB74FF2510F510742C
:10447300FF3400F51174077810120A16E5104AF894
:10448300E5114BF98C828D83125A90805FE0448052
:10449300F0A3E0024407E5107005750C00804DEAB7
:1044A30054206015120F8C8A10747F5510F8745FB6
:1044B30028850A82850B83801BEA5410600E120F35
:1044C3008C8A10740F5510F8740A80E4850A82856B
:1044D3000B837401F0A3E4F07404850882850983D7
:1044E300F01245507001EB700312587C7401650E95
:1044F3007030850A82850B8312454AE0F9EEFAEFA4
:10450300FB1218F2E9601BEE240C1232B012481AA7
:104513007001EB6003121016EEFAEFFB1210167522
:104523000C00A90C80031208367F0A020583F508E4
:10453300EF3400F50922F8EF124BBFFCE9FD22FA34
:10454300E50934000246E1124BE0025C4F7A207B1E
:1045530000901A17E0F91210DCEA2274F6120379BC
:1045630074F71209027E00121904EA7001EB70035A
:1045730002462B8A828B83A3A3A3A3A3A3A3A3A3F0
:10458300E06406600302462B8A828B83A3A3A3A362
:10459300A3A3A3E0FF8A828B83125078E0C0E07468
:1045A30008120AFFD0E01246DA125897125ED112AF
:1045B3005A9012192274085FF9E47001E960678563
:1045C3001882851983124DEC7A007B001218E6EAF3
:1045D3007001EB70519019CA124BCE1213BE7C00BE
:1045E3007D007A007B0080288E828F83125C44E0FA
:1045F30064FF7004A3E064FF602C9019CA124DECB1
:10460300120B60E9641A601E7C007D00EEFAEFFB7A
:104613001218E68A088B09AE08AF09EE7001EF7035
:10462300C779001213C47E01EEF902588974F71298
:104633000379EA7001EB7005901A2B80068A828B4E
:1046430083A3A312481A7001EB60288A828B83A389
:10465300A3A3A3A3A3A3E05408F9E47001E960DDD5
:10466300EC7001ED6011124E0E6C7003A3E06D70DF
:10467300CC80047A007B00024A4474F2120379EA84
:10468300FEEBFF890A8C088D097A107B001210104B
:10469300EA7001EB603CE48A828B83A3A3A3A3A308
:1046A300A3A3A31246E7E50A124A4F125B828A824A
:1046B3008B83A3A3A3A3E4F01246E71246D81267A1
:1046C300EFEA240CF582EB126BE11246D9A3A3F0B7
:1046D300A3F00225C0A3A31246DE22F08001FB8AC9
:1046E300828B8322A3124A53A3A32274F512037964
:1046F300EAFEEBFF890A8C088D09EE7001EF605624
:104703007401650A701479011218F8E9FA90231EEE
:10471300E493C39A500F791180657404650A70306D
:1047230012478540F18E828F83A3A3A3A3A3A3A3E0
:10473300A3A3E50A1253D5126E4FE4F0A3F0901A27
:104743002BE07002A3E0901A2B6024124BCA800A5C
:104753007402650A60CF79C18025E824020808E95C
:104763001247941248887001E970EF8A828B831292
:1047730067EF1245507001EB700312587C79000209
:10478300613379041218F8E9FA90231DE493C39A6C
:1047930022124BBFFAE90246E1C082C083E9FC79E9
:1047A30000901A2B801D8A828B83A3A3A3A3A3A3A8
:1047B300A3A3A3E06C600574FF6C7001098A828B6C
:1047C30083A3A312481A7001EB70DB0248EA74F763
:1047D300120379EA7001EB7005901A2B80068A8226
:1047E3008B83A3A312481A7001EB60248A828B8304
:1047F300A3A3A3A3A3A3A3A3A3E06970E1EC601401
:104803008A828B83E0240D1265E1A2E240D080040A
:104813007A007B00024A44124A84EA22C082C0839F
:10482300901A2B80068A828B83A3A312481A7001E5
:10483300EB60128A828B83A3A3A3A3A3A3A3A3E006
:104843006970E280047A007B000248EAC082C08378
:10485300901A2B800688828983A3A312488870014B
:10486300E9601B88828983E0FCA3E0F5838C82E006
:104873006A7003A3E06B70DDE8FAE9FB80047A0059
:104883007B000248EA124EEAE82274F11203798AA5
:104893000A8B0B8C0C8D0D750800750900EA7001ED
:1048A300EB6031901A2B80068E828F83A3A312486C
:1048B300DE7001EF601EAC0CAD0DEEFAEFFB850A66
:1048C30082850B83121F15E9640170DCEEF8EFF9A2
:1048D30088088909AA08AB09024172E0FEA3E0FF38
:1048E300EE227402120836D083D08202081E7900A9
:1048F30002081E74F7120379901A2B124BCA7C001C
:104903007D008007E8FCE9FD124BCAE87001E9600D
:104913003AE82402F582E91232B3EA687002EB69DD
:1049230070E21255BA901A2B1269DBE86E7002E935
:104933006F7009901A2BEAF0A3EB800EEAF8EBF9FB
:104943008C828D83A3A3E8F0A3E9F0024A4474F7B1
:10495300120379EAFEEBFFEE7001EF601612191CE9
:10496300124A5BEA7001EB6003121016EEFAEFFBDA
:10497300121016024A4474F7120379124E0EFCA366
:10498300E0FD901A2B124BCA7508007E0080338815
:10499300828983A3A3A3A3A3A3A3A3A3E064057012
:1049A300180E88828983E0FFA3E0F5838F82E06C91
:1049B3007003A3E06D7002050888828983A3A312A4
:1049C3004BCAE87001E970C7EA2404F8EB3400F934
:1049D300902314E493FCE508C39C500B902315E447
:1049E30093FCEEC39C400B888289837401F0A3E49B
:1049F300800A9019B8124A49ECF0A3EDF074058AC5
:104A0300828B83A3A3A3A3A3A3A3A3A3124A4FE0CD
:104A1300F0A3E044081253CE8A828B83E064FF70D4
:104A230004A3E064FF600E9019CA124DEC1213B890
:104A3300E9641A700579011213C48005741F120802
:104A4300367F01020583124BE00267E4124A5322C8
:104A5300F08A828B83023CF78E828F83E0241C12C0
:104A63004A8AFAA3E0FB1210168E828F83124A84BD
:104A7300121016EE240C124A7D22F582EF3400F553
:104A830083E0FAA3E0FB22125072E022C082C083CB
:104A9300EAFCEBFDEC7001ED70047905804CEC242D
:104AA300FBF582ED34FFF583E07002A3E07011ECB7
:104AB30024FFF8ED34FFF988828983E064FF600501
:104AC300120F9880D5901A17124E07902326E4935D
:104AD300F97A2D7B1A120FC8E96401700B7A007BF7
:104AE300201258807900800279040248EA74F41293
:104AF3000379A2AFE492E0F508C2AF901A2D1248F1
:104B0300DE7001EF603DEE24FBF582EF34FFF583A9
:104B1300E07002A3E07A007B20901A176005125818
:104B2300838005E0F9120FD4750A00750B00780A2B
:104B3300120859EEFCEFFD7A2D7B1A120FC2740294
:104B4300120836E508A2E092AFEEFAEFFB025464D6
:104B530074F712037974E1120902EA2413F582EB64
:104B6300126D6FC0E07411120AFFD0E0124EE174AF
:104B730009120AFF124EDA124BB7FCE9FD8C828D43
:104B830083124BCA740B120AFF124EDA2414F582F5
:104B9300EB126D6FC0E07412120AFFD0E0F0EA244A
:104BA3000EF582EB1232BA8C828D83124BCE121722
:104BB300D8024A3F2404124BBD22F8EB3400F9E833
:104BC30022F582EF1269B1124EEA22124BE08518E8
:104BD30082851983AA82AB8322A3A3A3A3E0FCA3A8
:104BE300E0FD2274EE12037974FC120902EAFEEB73
:104BF300FF1218D4E960057911024DDBEE2412F59A
:104C030010EF3400F511EE2402F50AEF124DE01215
:104C130062AB6008E4851082851183F0EE241312E1
:104C230051DC700C90231BE493850C82850D83F07B
:104C3300EE2411F8EF125DA5701990192DE0600DA7
:104C43009019B4E0700D8E828F83E07006E4888241
:104C53008983F0EE2414080808EF126989700C9018
:104C630019A9124E079019A9E004F0EE240F12457A
:104C730031EE240B1232A59019B7E0A2E1504F8513
:104C83000A82850B831262AB60448E828F83E0605D
:104C93000B850E82850F8312290060328508828579
:104CA3000983E05440601A850C82850D83E064011A
:104CB300700F850882850983E054FBF0A3E0F08040
:104CC3000DEEFAEFFB12193AE97003024BFA8E82EA
:104CD3008F83E06401701A850E82850F83124E1252
:104CE3006402700D850882850983E04440F0A3E0E7
:104CF300F0850882850983E0544070529019B7E02B
:104D0300A2E1504A750C00780C12085DEE2406FCF3
:104D1300EF3400FD850A82850B831255BA85108214
:104D2300851183E0F91218147401120836E9600C36
:104D3300E4851082851183F0124DF0F079008E82A4
:104D43008F83124DFD1232EF6004124DF0F085187F
:104D530082851983AC82AD83EEFAEFFB1219528A76
:104D63000C8B0D850A82850B83124DECEA7001EBE7
:104D730060628E828F83E0C0E07401120AFFD0E08C
:104D8300F07402120AFF1267EF7401120AFF8582A0
:104D93000A85830B780A12085985088285098312CC
:104DA3000686EE240E126D6CF508780812085D90E5
:104DB30019BD1206867407120AFFE0F912194C7422
:104DC30007120836E9FE74106E700BAA0CAB0D12B5
:104DD300101680027E10EEF9740402452912694709
:104DE300850A82F583221269AE124BE0228508827E
:104DF300850983E04420F0A3E022124BDC850A827C
:104E0300850B8322E088828983F0228A828B831236
:104E13004E162212589FE022C082C08374DE12090C
:104E2300028A828B83A3A3A3A3124BCA740E120A12
:104E3300FFE8F0A3E9124EE1740C120AFF124EDAF6
:104E4300240DF582EB126D6FC0E0741A120AFFD0C5
:104E5300E0F0EA126965EB124BC77420120AFF12E5
:104E63004EDA2415F582EB126D6FC0E07408120A56
:104E7300FFD0E0F0EA241CF582EB124BC774121248
:104E83000AFF124EDA2411F582EB126D6FC0E07443
:104E930009120AFFD0E0F074FF851882851983F0A8
:104EA3007401120AFF74FFF07402120AFF74FFF018
:104EB3009082031206827404120AFFAC82AD8374DB
:104EC30007120AFFAA82AB831216BE7404120836B5
:104ED300790074220248E7E8F0A3E9F0EA221246D7
:104EE300DEA3A3124EEA22124EEE22E0F8A3E0F96B
:104EF3002274EA12037974EE1209028A148B15ECF8
:104F0300FEEDFF890F7428120AFF126517742A1227
:104F13000AFFE0F50C742B120AFF123CC8742D1221
:104F23000AFFE0F512A3E0F513750D107A1E7B005E
:104F33001210107402120AFF125DC17402120AFFEA
:104F4300E07002A3E07003025054750E00EEFAEF16
:104F5300FB1215C28A828B83E5827002E583601699
:104F6300125060600574036A700CE50854407006C3
:104F730074044509F50974045509F9E47001E960FD
:104F830003750E01851882851983AA82AB83795034
:104F93001255B17402120AFF125078A3125DC17444
:104FA30010120AFFE50AF0A3E50BF07402120AFFE0
:104FB300E0240B12506A7402F0120AFF1250787444
:104FC30002F0120AFF1258971267EF7402120AFFD7
:104FD300125FE1E50FF07402120AFFE0240C125095
:104FE3006AE50CF07402120AFFE0241C12506AE511
:104FF30014F0A3E515F07408120AFF125B82740A19
:10500300120AFFE50CF0851282851383C082C083E8
:10501300740D120AFFAC82AD83D083D08274031265
:10502300077AA90E7402120AFFAA82AB831218DA56
:10503300E964017011E50E6008A90C121904121934
:1050430028750D00800B7402120AFF1255BA121054
:1050530016A90D74121208367F0E020583A3A3A3AB
:10506300A3E0FA74016A2212506E2212507222F8DF
:10507300A3E00267E112507EA3A322125ECC023C9E
:10508300F874EA120379EAFEEBFF8C088D098E822D
:105093008F83A385820A85830B7408F0EE2416128E
:1050A30051DC60097410850A82850B83F0EE2417A6
:1050B300F510EF1251EA600A850A82850B83E0241A
:1050C30008F0EE2411F8EF1269896005750E0E8061
:1050D30003750E00EE240DF514EF3400F515850A63
:1050E30082850B83E0851482851583FAE02A250ED9
:1050F3008C828D83126BE860139019B5E0F9121559
:1051030038E9FA850882850983E02AF085088285D3
:105113000983E0FAC3947540097508007509000214
:1051230051CC7B0012689D7001EB70030251CCEEF1
:10513300FAEFFB121958EA850882850983125DC2CA
:10514300EE2402F8125C4A1251FFF0EE2404080820
:10515300125C4AA3A31251FFA3A3F0EE241312512E
:10516300F5F0EE24141251F5A3F07A08850C82852C
:105173000D83E0600FEE2418124DE9E508240812B0
:10518300650D7A10851082851183E0600FEE241A75
:10519300124DE98A0CE508250C12650DEE240B125D
:1051A3006D6CF510A3E0F511751200781012085517
:1051B300851482851583E0FC7D001255BEE50E281B
:1051C300FAE4391251D8120836AA08AB0902505B27
:1051D3007D00EEFAEFFB024248F50CEF3400F50DCB
:1051E300850C82F583E0223400F511851082F58366
:1051F300E0221269AE125209A3A3A322A3A3126948
:1052030058A312520922E0850882850983A3A3A328
:105213002274F61203798A828B83E0FC9019BA1206
:10522300529D74027808120A16E5084CFCAD09EA8F
:10523300241212529774067808120A16E5084CFCD9
:10524300E5094DFDEA241112529774097808120AF0
:1052530016E5094DFDEA2416125297740B780812CD
:105263000A16E5094DFDEA2417125297740C7808C3
:10527300120A16E5094DFD8A828B83A3A3A3A3A378
:10528300A312529D740A7808120A16ECFAE5094D26
:10529300FB02588EF582EB1269B1E0F5087509003F
:1052A30022F085188285198322E0F9025C4F74F09D
:1052B3001203798A088B09ECFEEDFF750A01E9C335
:1052C3009408500579000253B0E98E828F831253FC
:1052D300CE121964E96003750A00125603C0E0EEAA
:1052E30024111232B0D0E01255FEC0E0EE241212A7
:1052F30032B0D0E01253BCA882A9831255D06010FB
:10530300E5082408FAE5093400FBEE24131253E1FF
:105313008E828F83A3A3A3A3A3A3A3A3E060158873
:10532300828983E0FAE5082AFAE5093400FBEE24D2
:10533300151253E1EE2419126BDEEE241B126BDE01
:10534300126BE7F50B8E828F83E0F50CC3950B5040
:10535300030252C7850B0EE508250EF8E509340054
:10536300F9EE241DFAEF3400FBEAFCEBFD8C828D91
:10537300831253C72417FAEF3400FB8A088B09E51D
:105383000CC3950B8A828B831253D5A3A3E0601BB6
:105393008A828B83E024F2F0E8240EF8E91255DACE
:1053A300FA850882850983E0C39AF0A90A80057407
:1053B300081208367F080205831253C022F08E823A
:1053C3008F83A322E8F0A3E9F0EE221246DE124A0D
:1053D30084221253D922F08E828F83023CF9126900
:1053E300AEEAF0A3EB126958E02408F02274F41239
:1053F30003798A088B09EA125480F0EA1313543FA5
:10540300125479A3A3A3F0EAC41313125480A3A3E1
:10541300F0E48C828D83A3A3A3A3A3F08A0A8B0B4E
:105423007409780A120A8A12546EF0EC2418F58271
:10543300ED126BE18A0A8B0B740B780A120A8A123B
:105443005469F08A0A8B0B740C780A120A8A125474
:1054530069A3F0740D7808120A8AA9088003120858
:10546300367F0402058312546EA322E50A54018C8D
:10547300828D83023CF7540F8C828D832254038CDC
:10548300828D83A3A322C082C08379009019B412B2
:105493005C31A3A3A3A3E0600FEC70268A828B8305
:1054A300A3A3E0701D09801AEC60178A828B83A383
:1054B300A3A3A3A3A3A3A3A31254C87003A3E06B42
:1054C30070E30248EA124A849019BDE06A2274EE3E
:1054D3001203798A088B09890CECFEEDFF8A828B13
:1054E300831255BA121964125603C0E0EE24111246
:1054F30032B0D0E01255FEC0E0EE24121232B0D02A
:10550300E01253BC85820A85830B1255D06010E5E7
:10551300082408F8E5093400F9EE24131255F08E37
:10552300828F83A3A3A3A3A3A3A3A3E0600912551C
:10553300BEEE24151255F0EEFAEFFB12196AE9F5E7
:105543000D7066850A82850B83E0F50EF510E5087C
:105553002510FAE5093400FBEE2417F8EF3400F9BF
:1055630088088909EE241D1245398E828F83A3A3EF
:10557300A3A3A3A3E07012EAF8EBF98C828D831244
:105583005A90E50CC3950E8019EA240EF8EB1255D8
:10559300DAFB850A82850B83E0FAE50CC39A24F2D1
:1055A300C39B850882850983F0A90D02452C12133C
:1055B30088851882851983124A8422850A82850B7D
:1055C30083E0F8E50828F8E5093400F922740812A5
:1055D30053D9A3A3A3E0223400F98C828D83E8F08E
:1055E300A3E9F09019B5E0F9121538E9221269AE72
:1055F300E8F0A3E91233072408F022125D8E80D26B
:10560300850882850983A3A3125638E0F9EA8E82BE
:105613008F83A3A3A3A3A3A3A3A3A312563D1256AD
:1056230038A3A3E0F9EAF8EE240B1269AEE81256A8
:105633003DA3A3E022E0FA02520AF0A3E9125D922D
:1056430022C082C0837A327B1A79E21213887A32BB
:105653007B1A0248EAC082C0839019BD1255BA0270
:1056630048EAC082C08374FE120902851882851934
:1056730083AA82AB83794B1255B10248E5C082C03D
:1056830083794A1213880248EA74F6120379901A4E
:105693003AE0FE04F0EEF9121904EA7001EB70EE41
:1056A300EE60EBF902588E74EC120379EAFEEBFF1D
:1056B3008C128D13890E7414120AFFE0F50A741507
:1056C300120AFFE0F50B750C00750D00121A728AB1
:1056D300088B09EA7001EB7017E50B60030257C0F2
:1056E300A90EAC12AD13EEFAEFFB121A840258792D
:1056F300EA2402F8EB3400F9E50E60168882898308
:10570300E0FAE50E2AFAE4340013EA13F0700374A6
:1057130001F0E50B70030257AB901A45E07002A34A
:10572300E06009901A45125897121F15E50A700E8A
:10573300E4850882850983F0750D010257D9901914
:10574300B7E0A2E140030257E1901A47E07002A3D9
:10575300E0600FA90AAA08AB09901A4712589712DA
:105763001F15850882850983E0FA9023251269C6EF
:10577300EA98E499C365D033500985088285098383
:10578300E004F0850882850983E0FA902325E493F9
:105793006A7043750C01EEFAEFFB121826E48508D4
:1057A30082850983A3F0802E901B02E0C0E08882EB
:1057B3008983E0FAD0E0C39A501C02573B74016519
:1057C3000B7013E50E600F9019B7E0A2E15015EED0
:1057D300FAEFFB1218269019B7E0A2E140257401F5
:1057E300650B701FE50A6016901A49E004F0C0E0EB
:1057F300901B13E0FAD0E0C39A4008750C01E490C3
:105803001A49F0E50D7004E50C606B9019B7E0A23E
:10581300E15030EEFAEFFB1215C28A088B09A80893
:10582300A909E87001E9601BE82405F582E9123251
:10583300B3E50D6004E0C2E0F0E50C6039E0D2E0CE
:10584300F08004E50C602F9019B7E0A2E15012EE4E
:10585300FAEFFB1215BCE96008EEFAEFFB79008062
:10586300129019C0E06E7003A3E06F7009EEFAEFB7
:10587300FB79011216EE0265227A207B00901A173B
:10588300E0F9120FCE2274091208367F0202058353
:105893008E828F8312589B2212589F221258A32262
:1058A300E0F8A3E0F583888222A2F0E492E01258A4
:1058B300BA795212138E22851882851983F0024B0E
:1058C300D71258BA794212138E2274F412037974E0
:1058D300EC1209027401120AFFAC82AD831259F76C
:1058E300901A09E0640270367A0479001215AA123C
:1058F300694CEA98EB99501712159EE970117405DB
:10590300120AFF7401F07407120AFF7401805274C3
:1059130005120AFFE4F07407120AFFE48043908241
:10592300037808120AA87583197582D578081209B5
:105933004260047A0180027A007405120AFFEAF0D9
:105943009082037808120AA87583197582D978089A
:1059530012094260047A0180027A007407120AFF76
:10596300EA1259BA120AFF1259A97407120AFFE080
:10597300700B7405120AFFE07003E4800274018562
:105983001882851983F0901B32E0901B31FAE05A9C
:10599300FA851882851983E05A1258C07941121387
:1059A3008E7414025461AA82AB831218BC7A1A7BD8
:1059B3001A794512138E221259EC74012274F712CC
:1059C300037974ED120902E9FE901A16125FE812C8
:1059D30059F77412120AFFEE1259EC8518828519D1
:1059E300831259A97413024A41F0901B36E0F97CE3
:1059F3001A7D1A22901B36E0F97A1A7B1A1218C202
:105A03002274F4120379EAFEEBFF901B38E064FE84
:105A13007004A3E064FF705F7A16125C1C7001EBE4
:105A2300605574018A828B8312696AA3A3A3A3A31B
:105A3300E0600474028002740188828983125F61CA
:105A43008A828B83A3A3A3A3A3A3A3A3A3125C56BA
:105A5300FCA3E0FDEA24020A0AEB126510E5082420
:105A630013F582E509126BE1125A7DEE240B123213
:105A7300B0126121125A90025464AA08AB09901A19
:105A830017E0F9120F9E22E0123CA6A3A3E8F0A3AD
:105A9300E9F02274F212037974FD1209028A088B69
:105AA30009890A8C0B7401120AFF7404125DC78AF8
:105AB3000C8B0DAE0CAF0DEE7001EF7003025B5358
:105AC300EE240B124BC4740788828983F0A3A88247
:105AD300A983E5082408124542125B778A828B83E7
:105AE300A3125B77850882850983A3A3A3A3A3A33A
:105AF300A3A3A3A3124E07EE2416125B6FEE241882
:105B03001232B0125B82EE2417F582EF1263C2EEFB
:105B1300241A125DBA125B5E1269A67403650A60E9
:105B2300067401650A70087440F0A3740480057458
